:1000000015C1000044C1000042C1000040C1000011
:100010003EC100003CC100003AC1000038C10000F0
:1000200036C1000034C1000032C1000030C1000000
:100030002EC100002CC100002AC1000028C1000010
:1000400026C1000024C1000022C1000020C1000020
:100050001EC100001CC100001AC1000059C70000E9
:1000600016C1000014C1000012C1000010C1000040
:100070000EC100000CC100000AC1000008C1000050
:1000800006C1000004C1000002C1000000C1000060
:10009000FEC00000FCC00000FAC0000083C70000E2
:1000A000F6C00000F4C00000F2C00000F0C0000084
:1000B000EEC00000ECC00000EAC00000E8C0000094
:1000C000E6C00000E4C00000E2C0000072C2000010
:1000D00047C20000DCC000001AC20000EFC10000EF
:1000E000D6C000008C068F067E0682068806C606ED
:1000F000930697069D06A106A506AB06AF06B306B6
:10010000C606B906BD06C106000020002300260071
:1001100029002C002F00320000010000030106011D
:10012000090100000A0B02090C0D0E080703040167
:1001300000000000000000000000000000000000BF
:10014000000000000000000000000000000012118C
:10015000100000000000000000000000000000008F
:100160000000000000000000000021002400270023
:100170002A002D00300033000101000004010701B6
:100180000A010102102020080810204010204080A1
:10019000020102010804020101020408102040804B
:1001A00080402010080402018004020180402010D9
:1001B0000804020108040201010204081020408022
:1001C00001020408102040800000220025002800C1
:1001D0002B002E003100340002010000050108014F
:1001E0000B010505050507050808080802020202BB
:1001F0000A0A0808040404040101010101010101C3
:100200000303030303030303040707070C0C0C0C8D
:100210000C0C0C0C02020202060606060606060676
:100220000B0B0B0B0B0B0B0BEB0FDC0F11241FBE7F
:10023000CFEFD1E2DEBFCDBF00E00CBF13E0A0E006
:10024000B2E0EEE9F7E200E00BBF02C007900D92CA
:10025000A831B107D9F725E0A8E1B3E001C01D92AC
:10026000A63AB207E1F711E0C5E1D1E000E006C02F
:1002700021970109802FFE010E94D710C431D107B8
:1002800080E00807A9F70E94E00A0C94BE13B8CEDC
:10029000FC01A089B1898C91A689B78982FD0FC024
:1002A0009C91818D8F5F8F73228D821749F0218DF4
:1002B000DF01A20FB11D5D969C93818F08958C91F3
:1002C0000895FC01918D828D981761F0828DDF0178
:1002D000A80FB11D5D968C91928D9F5F9F73928F39
:1002E00090E008958FEF9FEF0895FC01918D828D2E
:1002F000981731F0828DE80FF11D858D90E00895FB
:100300008FEF9FEF0895FC01918D228D892F90E052
:10031000805C9F4F821B91098F739927089587E412
:1003200094E0F1DF21E0892B09F420E0822F089589
:1003300084EE94E0E8DF21E0892B09F420E0822FAD
:100340000895FC01848DDF01A80FB11DA35ABF4F92
:100350002C91848D90E001968F739927848FA689C4
:10036000B7892C93A089B1898C9180648C93938DEB
:10037000848D981306C00288F389E02D80818F7DDB
:1003800080830895EF92FF920F931F93CF93DF9393
:10039000EC0181E0888F9B8D8C8D981305C0E889D6
:1003A000F989808185FD23C0F62E0B8D10E00F5F4B
:1003B0001F4F0F731127E02E8C8DE8120BC00FB664
:1003C00007FCFACFE889F989808185FFF5CFCE0156
:1003D000B8DFF2CF8B8DFE01E80FF11DE35AFF4F1E
:1003E000F0820B8FEA89FB898081806207C0EE89E9
:1003F000FF896083E889F98980818064808381E056
:1004000090E0DF91CF911F910F91FF90EF900895B1
:10041000CF93DF93EC01888D8823C1F0EA89FB89B3
:10042000808185FD05C0A889B9898C9186FD0EC0A3
:100430000FB607FCF5CF808185FFF2CFA889B98977
:100440008C9185FFEDCFCE017CDFE8CFDF91CF919E
:10045000089580E090E0892B41F080E090E0892BC6
:1004600021F00E94000081111BC080E090E0892BE8
:1004700041F080E090E0892B21F00E940000811182
:1004800012C080E090E0892B19F052DF81110EC07C
:1004900080E090E0892B79F042DF81110AC0089555
:1004A0000E940000E2CF0E940000EBCF0E940000FB
:1004B000EFCF0C94000008950E94A1121F920F929A
:1004C0000FB60F9211240BB60F922F933F934F93B9
:1004D0005F936F937F938F939F93AF93BF93EF93AC
:1004E000FF9387E494E02DDFFF91EF91BF91AF91EF
:1004F0009F918F917F916F915F914F913F912F913C
:100500000F900BBE0F900FBE0F901F9018951F926B
:100510000F920FB60F9211240BB60F922F933F93A9
:100520004F935F936F937F938F939F93AF93BF93FB
:10053000EF93FF9387E494E0ABDEFF91EF91BF91DF
:10054000AF919F918F917F916F915F914F913F916B
:100550002F910F900BBE0F900FBE0F901F9018950C
:100560001F920F920FB60F9211240BB60F922F937A
:100570003F934F935F936F937F938F939F93AF932B
:10058000BF93EF93FF9384EE94E0DBDEFF91EF9156
:10059000BF91AF919F918F917F916F915F914F919B
:1005A0003F912F910F900BBE0F900FBE0F901F9099
:1005B00018951F920F920FB60F9211240BB60F923F
:1005C0002F933F934F935F936F937F938F939F935B
:1005D000AF93BF93EF93FF9384EE94E059DEFF91C6
:1005E000EF91BF91AF919F918F917F916F915F91AB
:1005F0004F913F912F910F900BBE0F900FBE0F9018
:100600001F90189585ED8093BC008091BC0084FDFF
:10061000FCCF10921A0308954091F703262F30E083
:10062000240F311D21323105DCF420911A032430CE
:10063000C9F4FC0180E090E0861758F43091F7038C
:100640002191DC01A952BC4FA30FB11D2C9301963F
:10065000F3CF8091F703680F6093F70380E008956C
:1006600081E0089582E00895E0912303F09124034E
:10067000309729F010921C0310921B0319940895CF
:10068000CF93DF93AC01E0912503F09126033097DF
:10069000F1F090911E0380911D039817C0F090E037
:1006A000292F30E02617370754F4D901A954BC4F3D
:1006B000EA01C20FD31F88818C939F5FF1CF109204
:1006C0001E0360931D03CB01DF91CF911994DF913D
:1006D000CF9108950895E0911E0380911D03E817BE
:1006E00030F4F0E0E954FC4F808190E008958FEF02
:1006F0009FEF089590911E0380911D03981750F469
:10070000E92FF0E0E954FC4F208130E09F5F9093A7
:100710001E0302C02FEF3FEFC901089580911D0312
:1007200090E020911E03821B91090895CF93DF93DF
:100730001F921F92CDB7DEB7CB01642F49835A8336
:100740006BDF4981842F5A81952F0F900F90DF9195
:10075000CF910895CF93DF931F92CDB7DEB7698312
:1007600061E0CE01019658DF81E090E00F90DF91CB
:10077000CF910895DC01ED91FC910280F381E02D91
:100780001994EF92FF920F931F93CF93DF93EC0195
:100790008130910531F481E895E0ACDF809322024D
:1007A00000C109E413E0875B9C4F7C010E151F0517
:1007B00029F081E895E0D6D697FF4EC09091490385
:1007C000892F8770813009F4C9C024F4882309F483
:1007D00047C0D2C0823009F4C6C0833009F0CCC013
:1007E000292F092E000C330B83E0359527958A9528
:1007F000E1F7209327032091270330E021503109AE
:1008000080914A03F901EE0FFF1F2E0F3F1FF901E0
:10081000EE5FFD4F80832091270330E021503109A6
:1008200080914B03F901EE0FFF1F2E0F3F1FF901BF
:10083000EE5FFD4F81832091270330E02150310985
:1008400080914C03F901EE0FFF1F2E0F3F1FF9019E
:10085000EE5FFD4F828390C0F80181938F01A6CF98
:1008600020914A0330914B03492F45954595459575
:1008700080914C0390914D0341114DC02038FEE30F
:100880003F0738F021304DE7340728F020E03DE7FE
:1008900002C020E83EE33093AD002093AC008038E6
:1008A000EEE39E0738F08130FDE79F0728F080E0F7
:1008B0009DE702C080E89EE3909329018093280180
:1008C00080914E0390914F0380382EE3920738F0C9
:1008D00081304DE7940728F080E09DE702C080E872
:1008E0009EE390939900809398008091500390919B
:1008F00051038038EEE39E0738F08130FDE79F0713
:1009000028F080E09DE702C080E89EE39093A90074
:100910008093A80041C020384EE3340738F02130DE
:10092000EDE73E0728F020E03DE702C020E83EE387
:1009300030939D0020939C008038FEE39F0738F0A1
:1009400081302DE7920728F080E09DE702C080E823
:100950009EE390932D0180932C011EC080914A0349
:1009600080932A0319C0C1504C2F50E06AE473E011
:1009700084EE94E0FFDE10C0279771F493FB992773
:1009800090F990931A0286E0EAE4F3E0ABE1B2E07A
:1009900001900D928A95E1F7809128038F5F8093F3
:1009A0002803DF91CF911F910F91FF90EF90089551
:1009B0000F931F93CF93DF93809128038F5F8093D2
:1009C000280380912202823009F44EC150F488231A
:1009D000B1F0813009F080C1809129038093AC038C
:1009E00073C0833009F445C1843009F075C1C091EA
:1009F000AC030C2E000CDD0B0CE913E054C160912C
:100A00002B0370912C0380912D0390912E030E9453
:100A100044117093AE036093AD0360912F03709106
:100A2000300380913103909132030E9444117093FE
:100A3000B0036093AF0360913303709134038091EE
:100A40003503909136030E9444117093B203609372
:100A5000B10360913703709138038091390390910D
:100A60003A030E9444117093B4036093B3036091FE
:100A70003B0370913C0380913D0390913E030E94A3
:100A800044117093B6036093B5034AE050E06DEAF9
:100A900073E01BC187E494E014DC20918C03309157
:100AA0008D0322303105B4F4F901EA50FD4F9081F5
:100AB00089132EC0F901E657FC4F10822F5F3F4F7C
:100AC00030938D0320938C0387E494E01CDC892B06
:100AD00009F7C1C02232310574F4F901E859FC4F1D
:100AE000808390918A03980F90938A0340918B039F
:100AF000940F90938B032F5F3F4F30938D03209380
:100B00008C032332310549F490918A038917E1F26D
:100B100010928D0310928C03D7CF2432310509F047
:100B200095C010928D0310928C0390918B038913C2
:100B3000CBCF8091760390917703A0917803B09109
:100B400079038093920390939303A0939403B093BB
:100B500095038091720390917303A0917403B091F7
:100B6000750380938E0390938F03A0939003B093AB
:100B7000910380917A0390917B03A0917C03B091C3
:100B80007D038093960390939703A0939803B0936B
:100B90009903409186035091870360918803709177
:100BA00089038AE076956795579547958A95D1F799
:100BB000409386035093870360938803709389035F
:100BC0008091820390918303A0918403B091850367
:100BD0002AE0B695A795979587952A95D1F78093A2
:100BE000820390938303A0938403B09385034F3FC4
:100BF00051056105710529F020F04FEF50E060E0EC
:100C000070E040939B038F3F9105A105B10529F04A
:100C100020F08FEF90E0A0E0B0E080939A03809105
:100C2000690391E0980F9093690380689091210285
:100C3000891709F449CF809321028091AC03826027
:100C40008093AC0382E08093220205C025323105F7
:100C50000CF05ECF39CF6091AC0381E895E0DF9175
:100C6000CF911F910F9176CD4EE050E06EE873E08A
:100C70002CC084EE94E047DB8093AC03882361F1C1
:100C80008091AC0381311CF080E18093AC036091D2
:100C9000AC0381E895E05EDD84E0809322021CC015
:100CA000F80181938F01C8018C5993408C179D07DF
:100CB00028F484EE94E056D497FFF2CF4091AC0331
:100CC000042E000C550B6CE973E081E895E0DF9190
:100CD000CF911F910F914ECDDF91CF911F910F9129
:100CE000089590E0FC013197E231F10508F04EC023
:100CF0008827EE58FF4F8F4F0C94D71080918000BB
:100D00008F7703C0809180008F7D8093800008954D
:100D100080918000877FF9CF84B58F7702C084B53A
:100D20008F7D84BD08958091B0008F7703C080913E
:100D3000B0008F7D8093B0000895809190008F77F0
:100D400007C0809190008F7D03C080919000877FC5
:100D50008093900008958091A0008F7707C08091C4
:100D6000A0008F7D03C08091A000877F8093A000AA
:100D70000895809120018F7707C0809120018F7D99
:100D800003C080912001877F8093200108951F93E5
:100D9000CF93DF93282F30E0F901EE5DFE4F849171
:100DA000F901EE57FE4FD491F901EE51FE4FC49177
:100DB000CC23C1F0162F811194DFEC2FF0E0EE0F61
:100DC000FF1FE853FE4FA591B4918FB7F89411110E
:100DD00005C09C91ED2FE095E92302C0EC91ED2B2D
:100DE000EC938FBFDF91CF911F910895CF93DF9345
:100DF00090E0FC01EE57FE4F2491FC01EE51FE4FB6
:100E00008491882361F190E0880F991FFC01E859D3
:100E1000FE4FC591D491FC01E853FE4FA591B491CA
:100E2000611109C09FB7F894888120958223888337
:100E3000EC912E230BC0623061F49FB7F894388197
:100E4000822F809583238883EC912E2B2C939FBF38
:100E500006C08FB7F894E8812E2B28838FBFDF91CF
:100E6000CF910895863308F0865390917B00282F08
:100E70002870977F922B90937B00877020910002BF
:100E800090E4299F90011124822B80937C00809113
:100E90007A00806480937A0080917A0086FDFCCF8E
:100EA000809178002091790090E0922B08953FB7CF
:100EB000F8948091430490914404A0914504B0912A
:100EC000460426B5A89B05C02F3F19F00196A11D29
:100ED000B11D3FBFBA2FA92F982F8827820F911DD0
:100EE000A11DB11DBC01CD0142E0660F771F881F17
:100EF000991F4A95D1F708952FB7F89460913F0450
:100F00007091400480914104909142042FBF089554
:100F10001F920F920FB60F9211242F933F938F932E
:100F20009F93AF93BF9380913F0490914004A09111
:100F30004104B091420430913E0423E0230F2D3749
:100F400020F40196A11DB11D05C026E8230F0296CD
:100F5000A11DB11D20933E0480933F049093400453
:100F6000A0934104B09342048091430490914404BF
:100F7000A0914504B09146040196A11DB11D809336
:100F8000430490934404A0934504B0934604BF9156
:100F9000AF919F918F913F912F910F900FBE0F9026
:100FA0001F9018951F920F920FB60F9211240BB637
:100FB0000F922F933F934F935F936F937F938F93F2
:100FC0009F93AF93BF93EF93FF938091B900887F76
:100FD000803609F49CC068F5883209F45BC090F44F
:100FE000803109F454C038F4882309F4F6C08830FD
:100FF00009F44DC0F5C0883109F44CC0803209F4C1
:101000005DC0EEC0803409F468C048F4803309F450
:1010100055C0883309F0E4C080931A04D8C08035E5
:1010200009F44FC0883509F45DC0883409F0D8C090
:10103000D6C0883909F4C7C0A8F4883709F467C056
:1010400038F4883609F463C0803709F460C0C8C03A
:10105000883809F4B8C0803909F45FC0803809F0D5
:10106000BFC05BC0803B09F486C038F4803A09F405
:1010700066C0883A09F47FC0B3C0803C09F4A7C0B9
:10108000883C09F4A4C0883B09F48AC0A9C08091B7
:101090003D0410C090913C0480913B04981770F57A
:1010A000E0913C0481E08E0F80933C04F0E0E55E2B
:1010B000FB4F80818093BB0085EC86C080931A042F
:1010C0008EC0E0913C0481E08E0F80933C048091BF
:1010D000BB00F0E0E55EFB4F808390913C04809183
:1010E0003B046EC0E0913C0481E08E0F80933C0491
:1010F0008091BB00F0E0E55EFB4F80838091190397
:1011000081116DC081E08093180384EA61C083E09F
:1011100080931A0310921904CFCF80911904803262
:1011200008F051C0E091190481E08E0F80931904FA
:101130008091BB00F0E0E750FC4F8083BDCF85EC91
:101140008093BC0010921A0380911904803230F40D
:10115000E0911904F0E0E750FC4F1082609119040F
:1011600070E0E0911F03F091200389EF93E019955F
:101170001092190435C084E080931A031092F8038A
:101180001092F703E0912103F091220319958091C9
:10119000F703811105C081E08093F7031092D70314
:1011A000E091F80381E08E0F8093F803F0E0E952BC
:1011B000FC4F80818093BB009091F8038091F703EE
:1011C000981708F479CF85E88093BC0009C085ECB6
:1011D0008093BC0010921A0303C010921A0412DA12
:1011E000FF91EF91BF91AF919F918F917F916F91FF
:1011F0005F914F913F912F910F900BBE0F900FBEBB
:101200000F901F901895CF92DF92EF92FF920F935D
:101210001F93CF93DF936C017A018B01C0E0D0E084
:10122000CE15DF0589F0D8016D918D01D601ED91C4
:10123000FC910190F081E02DC6011995892B11F4E4
:101240007E0102C02196ECCFC701DF91CF911F91A3
:101250000F91FF90EF90DF90CF900895FC01A0894F
:10126000B18982E08C93A485B5851C92A685B7854B
:101270008FEC8C93108EA489B58986E08C93A2891B
:10128000B3898C9180618C93A289B3898C91886099
:101290008C93A289B3898C9180688C930288F3899E
:1012A000E02D80818F7D808308950F931F93CF93CE
:1012B000DF93CDB7DEB729970FB6F894DEBF0FBE28
:1012C000CDBF8091950590919605892B09F49FC01B
:1012D000EEDD00919B0510919C0520919D053091BC
:1012E0009E05DC01CB01801B910BA20BB30BC297B7
:1012F000A105B10568F3F89480919105909192054C
:101300009A838983E0919505F0919605DF01119606
:101310008081898790918D05E0919F05F091A005CE
:101320008091A105992309F42EC09081982B98876C
:101330009081809589238F838F818C8388E08B8334
:1013400058856F8149853B812C8189819A815083A1
:1013500047FD252F3A952083262F39F0441F00C0E2
:1013600000006083000000C0F2CF38E04D91608340
:101370000000019761F7F093A005E0939F0549876E
:101380003B832C8338C09081982B988790818095DF
:1013900089238F838F818E8388E08D8358856F8129
:1013A00049853D812E8189819A81508347FD252F72
:1013B00000C000C0208300C000C000C000C000C04A
:1013C00060830000262F3A9541F0441F000000C0C2
:1013D00000C000C000C000C0E8CF38E04D9100C0A0
:1013E000608300C0019709F7F093A005E0939F0583
:1013F00049873D832E839A838983789458DD60934F
:101400009B0570939C0580939D0590939E0529965E
:101410000FB6F894DEBF0FBECDBFDF91CF911F9105
:101420000F9108958F929F92AF92BF92CF92DF92C9
:10143000EF92FF9220918F053091900582179307CC
:1014400008F052C04B01AA24BB24E82DC52ED62E8D
:10145000E72EFF24FC2D342F20919405222361F0E8
:10146000829E40011124E92DC29E60011124FD2DB0
:10147000429FD00111243B2FF0909A05E0909705F0
:10148000A0919505B0919605FE1008C0AC01440FDF
:10149000551F840F951F8A0F9B1F14C0880F991F1B
:1014A000880F991F8A0F9B1F472F5527662777277D
:1014B000DC01AF0DB11D222321F0429FA0011124B8
:1014C000452F4C9320919705DC01A20FB11DEC93A1
:1014D00020919805DC01A20FB11DFC932091990584
:1014E000FC01E20FF11D3083FF90EF90DF90CF9071
:1014F000BF90AF909F908F9008958F929F92AF92E0
:10150000BF92CF92DF92EF92FF92D1DC4B015C0150
:1015100084E6C82ED12CE12CF12CC9DCDC01CB01F6
:1015200088199909AA09BB09883E9340A105B1050C
:1015300058F021E0C21AD108E108F10888EE880EBF
:1015400083E0981EA11CB11CC114D104E104F10474
:1015500021F7FF90EF90DF90CF90BF90AF909F90DA
:101560008F9008950F931F93CF93DF93EC01C4DC0A
:10157000688779878A879B87E881F9810680F78168
:10158000E02DCE01199597FF16C0B6DC08851985A8
:101590002A853B85DC01CB01801B910BA20BB30B91
:1015A0000C811D812E813F8180179107A207B3070F
:1015B00018F38FEF9FEFDF91CF911F910F91089557
:1015C000CF93DF9300D01F92CDB7DEB7789484B568
:1015D000826084BD84B5816084BD85B5826085BD2F
:1015E00085B5816085BD80916E00816080936E00BD
:1015F00010928100809181008260809381008091AF
:10160000810081608093810080918000816080935F
:1016100080008091B10084608093B1008091B0001F
:1016200081608093B00080919100826080939100EE
:101630008091910081608093910080919000816001
:10164000809390008091A10082608093A10080919E
:10165000A10081608093A1008091A00081608093AF
:10166000A00080912101826080932101809121015D
:10167000816080932101809120018160809320010D
:1016800080917A00846080937A0080917A008260F1
:1016900080937A0080917A00816080937A008091B3
:1016A0007A00806880937A001092C10061E08EE237
:1016B0009DDB61E085E09ADB61E086E097DB61E03D
:1016C00088E094DB61E08CE291DB61E083E08EDB1B
:1016D0009AEB9093900089E1809391009093A00001
:1016E0008093A100909320018093210180E89BEBDF
:1016F00090932701809326019093A7008093A600E2
:10170000909397008093960080EC9DE590939D00C8
:1017100080939C0090932D0180932C0180E89EE3A0
:101720009093A9008093A8009093990080939800CB
:1017300090932901809328019093AD008093AC0091
:1017400084EE94E08BDD87E494E088DDD6DE01E86A
:1017500012E0F80161918F0187E494E00E94C201D8
:10176000F2E00C381F07A9F7C8DE06E712E0F8011F
:1017700061918F0187E494E00E94C201F2E0013898
:101780001F07A9F7BADE0BE612E0F80161918F019D
:1017900087E494E00E94C201F2E006371F07A9F730
:1017A000ACDE00E612E0F80161918F0187E494E07D
:1017B0000E94C201F2E00B361F07A9F79EDE05E585
:1017C00012E0F80161918F0187E494E00E94C20168
:1017D000F2E000361F07A9F790DE0AE412E0F801F4
:1017E00061918F0187E494E00E94C201F2E0053527
:1017F0001F07A9F782DE0FE312E0F80161918F0164
:1018000087E494E00E94C201F2E00A341F07A9F7BE
:1018100074DE73DE09E212E0F80161918F0187E462
:1018200094E00E94C201F2E00F331F07A9F761E0C4
:101830008EE1DCDA60E08FE1D9DA60E08EE1A7DAF0
:1018400083E08093000282E18093BA0084E393E016
:10185000909322038093210380E493E090932003EC
:1018600080931F0310921E0310921D0310921C03FD
:1018700010921B0310921A0381E0809319031092B7
:10188000180361E084E183DA61E085E180DA809128
:10189000B9008E7F8093B9008091B9008D7F8093CD
:1018A000B9008CE08093B80085E48093BC0088ED9B
:1018B00094E0909324038093230381EC93E090932E
:1018C0002603809325038091930587FD06C061E080
:1018D0008DDA60E0809193055ADA81E080938E057D
:1018E00000E010E040E051E060E070E0C8019ADD07
:1018F0000F5F1F4F08301105A9F7D7DCB1E4EB2EBD
:10190000B1E0FB2E11EAC12E11E0D12E01E0A02E94
:1019100002E0B02E9924939488248A9400E81EE370
:1019200088E3A0DA20912B0330912C0340912D0302
:1019300050912E0340902B0350902C0360902D0368
:1019400070902E03BC01990F880B990B29833A8361
:101950004B835C8300D629813A814B815C812FD4F3
:101960002AE037ED43E25CE355D69B01AC01C301AD
:10197000B20126D460932B0370932C0380932D0324
:1019800090932E0386E36EDA20912F03309130037B
:10199000409131035091320340902F035090300317
:1019A0006090310370903203BC01990F880B990B42
:1019B00029833A834B835C83CED529813A814B813D
:1019C0005C81FDD32AE037ED43E25CE323D69B0143
:1019D000AC01C301B201F4D360932F0370933003C1
:1019E00080933103909332038CE33CDA20913303EC
:1019F00030913403409135035091360340903303C6
:101A0000509034036090350370903603BC01990FF9
:101A1000880B990B29833A834B835C839CD529815E
:101A20003A814B815C81CBD32AE037ED43E25CE322
:101A3000F1D59B01AC01C301B201C2D36093330362
:101A40007093340380933503909336038AE30ADA64
:101A500020913703309138034091390350913A0374
:101A600040903703509038036090390370903A03E8
:101A7000BC01990F880B990B29833A834B835C83B4
:101A80006AD529813A814B815C8199D32AE037ED6F
:101A900043E25CE3BFD59B01AC01C301B20190D32B
:101AA00060933703709338038093390390933A031C
:101AB00087E3D8D920913B0330913C0340913D030B
:101AC00050913E0340903B0350903C0360903D0397
:101AD00070903E03BC01990F880B990B29833A83C0
:101AE0004B835C8338D529813A814B815C8167D3F4
:101AF0002AE037ED43E25CE38DD59B01AC01C301E5
:101B0000B2015ED360933B0370933C0380933D032B
:101B100090933E0380912A03882309F41AC180918F
:101B20002A0390910102981709F45DC080912A035D
:101B300080930102612C712C20912A03A0912A0329
:101B400080912A0336E0389FC001112484569D4FAE
:101B5000FC0180813A9FD0011124A456BD4F1196FB
:101B60004C9150E060E070E0762F652F542F4427B1
:101B7000682B329FF0011124E456FD4F8281482BDF
:101B8000C30150DC20912A03A0912A0380912A03EB
:101B9000F6E0F89FC001112484569D4FFC0183811B
:101BA000F6E0FA9FD0011124A456BD4F14964C9133
:101BB00050E060E070E0762F652F542F4427682BAB
:101BC000F29FF0011124E456FD4F8581482BC3019B
:101BD000019628DC22E0620E711C38E06316710465
:101BE00009F0AACF62DB209040033090410340907F
:101BF000420350904303211431044104510441F540
:101C00007BD9E0912A03F0E0E457FD4F208120FDCD
:101C100006C028EC422E512C612C712C06C0B8E570
:101C20004B2EB2E05B2E612C712CDC01CB01840DBC
:101C3000951DA61DB71D8093400390934103A0936B
:101C40004203B093430310923F0360911A0200C114
:101C500070903F0370FE31C04FD9261637064806F4
:101C6000590608F0F8C060911A028EE190D873947A
:101C700070923F0341D9E0912A03F0E0E457FD4F11
:101C8000208130E0769402C0359527957A94E2F76A
:101C900020FD06C0A8EC4A2E512C612C712C06C0E8
:101CA000F8E54F2EF2E05F2E612C712CDC01CB01A8
:101CB000840D951DA61DB71D43C01ED926163706D7
:101CC0004806590608F0C7C060E08EE160D881E0A0
:101CD000870D80933F03883060F110922A031092A1
:101CE00040031092410310924203109243038092EA
:101CF0000102612C712CF301EE0FFF1FE60DF71DA1
:101D0000EE5FFD4F82814181908150E060E070E0A4
:101D1000762F652F542F4427692B482BC30182DB74
:101D20008FEF681A780A98E06916710421F7BDDA16
:101D300092C0E2D8DC01CB018C599F4FAF4FBF4F0F
:101D40008093400390934103A0934203B0934303D5
:101D500082C0F7018491F6016490F50174907720B8
:101D6000A1F081110E947106E72DF0E0EE0FFF1F38
:101D7000E85FFE4FA591B4918C91682231E020E09C
:101D800009F430E0832F922F02C080E090E0F1E070
:101D90008F27817080932903AFD8693873418105FB
:101DA0009105A8F180912903882389F180D8809535
:101DB0008170582E612C712C80912002552029F0C1
:101DC00040911F0290911E0204C040911E0290910A
:101DD0001F0250E060E070E0762F652F542F4427FB
:101DE000692B482BC3011EDB3FEF631A730A88E09F
:101DF0006816710409F759DA80911A02882321F0D4
:101E0000652D8EE10E94C7069092470324C0609121
:101E10003B0370913C0380913D0390913E0321EC84
:101E20003CE54FE254E45CD218160CF0C3C060915C
:101E30003B0370913C0380913D0390913E032AEE59
:101E40003DE44FE354E481D3682F661F6627661F85
:101E50008EE10E94C706909128038091460398174F
:101E600049F0809128038093460310924503109215
:101E7000440337C0809144039091450301969093A9
:101E80004503809344038D32914058F11093AD0087
:101E90000093AC001093290100932801109399003E
:101EA000009398001093A9000093A800612C712C56
:101EB00080911D0240911C0290911B0250E060E055
:101EC00070E0762F652F542F4427692B482BC301D0
:101ED000A9DAFFEF6F1A7F0A28E06216710441F752
:101EE000E4D980914703882329F180912903811146
:101EF00021C0612C712CF301EE0FFF1FE60DF71DC1
:101F0000EE5FFD4F82814181908150E060E070E0A2
:101F1000762F652F542F4427692B482BC30182DA73
:101F20003FEF631A730A88E06816710421F7BDD980
:101F300010924703809127038823C9F180912703DA
:101F40008150809327038091270390E0FC01EE0FDE
:101F5000FF1F8E0F9F1FFC01EE5FFD4F22818091BE
:101F6000270390E0FC01EE0FFF1F8E0F9F1FFC0167
:101F7000EE5FFD4F41818091270390E0FC01EE0F61
:101F8000FF1F8E0F9F1FFC01EE5FFD4F9081809120
:101F9000270350E060E070E0762F652F542F442730
:101FA000692B422B90E03EDA80D9109227030E94E1
:101FB0002902B6CC60E04CCF8091950590919605B2
:101FC000009709F026D28091930587FD03C060E059
:101FD0000C94F606089510924A041092490488EE73
:101FE00093E0A0E0B0E080934B0490934C04A09366
:101FF0004D04B0934E042CEF32E03093480420930C
:10200000470445E351E0509354044093530444E3A0
:1020100051E0509356044093550440E351E05093EF
:1020200058044093570441E351E050935A044093BD
:10203000590442E351E050935C0440935B0446E34F
:1020400051E050935E0440935D041092600410923E
:10205000610410926204109263041092E7041092DB
:10206000E6048093E8049093E904A093EA04B09313
:10207000EB043093E5042093E40425ED30E0309345
:10208000F1042093F00424ED30E03093F304209326
:10209000F20420ED30E03093F5042093F40421EDB8
:1020A00030E03093F7042093F60422ED30E03093D3
:1020B000F9042093F80426ED30E03093FB042093DC
:1020C000FA041092FD041092FE041092FF04109284
:1020D00000051092840510928305809385059093E6
:1020E0008605A0938705B09388058CE093E09093D4
:1020F00082058093810510928E05109294051092AE
:102100009B0510929C0510929D0510929E0581E002
:1021100080939A05809397051092980592E090938A
:10212000990580938D0588E190E0909392058093C6
:102130009105DAD09093960580939505009761F00C
:1021400028E1FC0111922A95E9F788E090E090934C
:10215000900580938F0508C010929205109291050A
:102160001092900510928F058BE1809393058091DA
:102170008E05882341F061E08BE10E94F60660E065
:102180008BE10E94C706EDEFF1E0E491F0E0EE0F85
:10219000FF1FE853FE4F859194919093A005809383
:1021A0009F05EDE9F1E0E491E093A1050895EE0FBC
:1021B000FF1F881F8BBF0790F691E02D1994505890
:1021C000BB27AA270ED0A0C291D230F096D220F021
:1021D00031F49F3F11F41EF486C20EF4E095E7FB44
:1021E0007CC2E92FA2D280F3BA1762077307840773
:1021F000950718F071F49EF5BAC20EF4E0950B2E17
:10220000BA2FA02D0B01B90190010C01CA01A00148
:102210001124FF27591B99F0593F50F4503E68F1A3
:102220001A16F040A22F232F342F4427585FF3CFE4
:10223000469537952795A795F0405395C9F77EF4B5
:102240001F16BA0B620B730B840BBAF09150A1F0FE
:10225000FF0FBB1F661F771F881FC2F70EC0BA0F84
:10226000621F731F841F48F4879577956795B7950C
:10227000F7959E3F08F0B3CF9395880F08F0992704
:10228000EE0F97958795089558D288F09F5790F054
:10229000B92F9927B751A0F0D1F0660F771F881F8B
:1022A000991F1AF0BA95C9F712C0B13081F05FD208
:1022B000B1E008955CC2672F782F8827B85F39F0A6
:1022C000B93FCCF3869577956795B395D9F73EF4EA
:1022D00090958095709561957F4F8F4F9F4F089592
:1022E00075D108F48FEF0895CF93DF938230910575
:1022F00010F482E090E0E091A405F091A50520E0C3
:1023000030E0C0E0D0E0309711F1408151814817B2
:102310005907C0F04817590761F4828193812097CB
:1023200019F09B838A832BC09093A5058093A40505
:1023300026C02115310519F04217530718F49A01E8
:10234000BE01DF01EF010280F381E02DDCCF21151A
:10235000310509F1281B390B2430310590F4129610
:102360008D919C9113976115710521F0FB01938369
:10237000828304C09093A5058093A405FD01329645
:1023800044C0FD01E20FF31F819391932250310964
:102390002D933C933AC02091A2053091A305232BA5
:1023A00041F420912502309126023093A305209319
:1023B000A20520912302309124022115310541F418
:1023C0002DB73EB74091270250912802241B350BB0
:1023D000E091A205F091A305E217F307A0F42E1BEC
:1023E0003F0B2817390778F0AC014E5F5F4F241779
:1023F000350748F04E0F5F1F5093A3054093A20589
:102400008193919302C0E0E0F0E0CF01DF91CF91A2
:1024100008950F931F93CF93DF93009709F48CC017
:10242000FC013297138212820091A4051091A50538
:102430000115110581F420813181820F931F2091B4
:10244000A2053091A3052817390779F5F093A30564
:10245000E093A20571C0D80140E050E0AE17BF077D
:1024600050F412962D913C911397AD012115310531
:1024700009F1D901F3CF9D01DA0133832283608111
:102480007181860F971F8217930769F4EC012881E9
:102490003981260F371F2E5F3F4F318320838A817A
:1024A0009B8193838283452B29F4F093A505E093C8
:1024B000A40542C01396FC93EE931297ED01499147
:1024C00059919E01240F351FE217F30771F48081A3
:1024D0009181840F951F029611969C938E93828111
:1024E000938113969C938E931297E0E0F0E0D801CD
:1024F00012968D919C911397009719F0F8018C0119
:10250000F6CF8D919C9198012E5F3F4F820F931FC4
:102510002091A2053091A3052817390769F4309757
:1025200029F41092A5051092A40502C0138212820C
:102530001093A3050093A205DF91CF911F910F91F6
:10254000089581E090E0F89419C140D008F481E04A
:102550000895E89409C097FB3EF490958095709596
:1025600061957F4F8F4F9F4F9923A9F0F92F96E9DF
:10257000BB279395F695879577956795B795F11154
:10258000F8CFFAF4BB0F11F460FF1BC06F5F7F4FF1
:102590008F4F9F4F16C0882311F096E911C0772303
:1025A00021F09EE8872F762F05C0662371F096E80C
:1025B000862F70E060E02AF09A95660F771F881FDB
:1025C000DAF7880F9695879597F90895990F00087F
:1025D000550FAA0BE0E8FEEF16161706E807F907F5
:1025E000C0F012161306E407F50798F0621B730B90
:1025F000840B950B39F40A2661F0232B242B252B11
:1026000021F408950A2609F4A140A6958FEF811DB3
:10261000811D08950BD078C069D028F06ED018F0D5
:10262000952309F05AC05FC01124A2C07ED0A0F348
:10263000959FD1F3950F50E0551F629FF001729F57
:10264000BB27F00DB11D639FAA27F00DB11DAA1F76
:10265000649F6627B00DA11D661F829F2227B00DC3
:10266000A11D621F739FB00DA11D621F839FA00D4E
:10267000611D221F749F3327A00D611D231F849F9E
:10268000600D211D822F762F6A2F11249F575040F5
:102690008AF0E1F088234AF0EE0FFF1FBB1F661F90
:1026A000771F881F91505040A9F79E3F510570F049
:1026B00014C05EC05F3FECF3983EDCF386957795DF
:1026C0006795B795F795E7959F5FC1F7FE2B880F44
:1026D000911D9695879597F9089597F99F6780E8DA
:1026E00070E060E008959FEF80EC089500240A9464
:1026F0001616170618060906089500240A941216DD
:102700001306140605060895092E0394000C11F40F
:10271000882352F0BB0F40F4BF2B11F460FF04C0BC
:102720006F5F7F4F8F4F9F4F089557FD9058440F15
:10273000551F59F05F3F71F04795880F97FB991F20
:1027400061F09F3F79F087950895121613061406DD
:10275000551FF2CF4695F1DF08C01616170618066A
:10276000991FF1CF86957105610508940895E89445
:10277000BB2766277727CB0197F9089511E0C5E1BC
:10278000D1E000E005C0802FFE0111DD2196011D82
:0E279000C631D10780E00807B1F7F894FFCFFB
:10279E0001FF000100000100000100000100000126
:1027AE000000010000010000010001010000FF0017
:1027BE0000640F0000A6058000B5620608060064DE
:1027CE0000010001007A12B562060800000E30B555
:1027DE006206010300F00500FF19B5620601030051
:1027EE00F00400FE17B56206010300F00300FD15AC
:1027FE00B56206010300F00200FC13B56206010388
:10280E0000F00100FB11B56206010300F00000FAB2
:10281E000FB562060103000102010E470008090A06
:10282E000B0C0D0E0F01020304050607000000003D
:10283E0000006400000000006400000064006400FA
:10284E000000640064000064640064640000000022
:10285E0064640000640064640064000064640064E6
:10286E006400000000006400000000646400006466
:10287E0000000000006400006400006400640000BA
:10288E00006400646400B56200000000C201030928
:10289E00830161017501080200000000AA0396037E
:0828AE008E037A036B036A0339
:00000001FF
