:1000000015C1000044C1000042C1000040C1000011
:100010003EC100003CC100003AC1000038C10000F0
:1000200036C1000034C1000032C1000030C1000000
:100030002EC100002CC100002AC1000028C1000010
:1000400026C1000024C1000022C1000020C1000020
:100050001EC100001CC100001AC1000029C600001A
:1000600016C1000014C1000012C1000010C1000040
:100070000EC100000CC100000AC1000008C1000050
:1000800006C1000004C1000002C1000000C1000060
:10009000FEC00000FCC00000FAC0000053C6000013
:1000A000F6C00000F4C00000F2C00000F0C0000084
:1000B000EEC00000ECC00000EAC00000E8C0000094
:1000C000E6C00000E4C00000E2C00000E0C00000A4
:1000D000DEC00000DCC00000FDC10000D2C1000095
:1000E000D6C0000008040B04FA03FE030404420413
:1000F0000F04130419041D04210427042B042F04E6
:100100004204350439043D04000020002300260089
:1001100029002C002F00320000010000030106011D
:10012000090100000A0B02090C0D0E080703040167
:1001300000000000000000000000000000000000BF
:10014000000000000000000000000000000012118C
:10015000100000000000000000000000000000008F
:100160000000000000000000000021002400270023
:100170002A002D00300033000101000004010701B6
:100180000A010102102020080810204010204080A1
:10019000020102010804020101020408102040804B
:1001A00080402010080402018004020180402010D9
:1001B0000804020108040201010204081020408022
:1001C00001020408102040800000220025002800C1
:1001D0002B002E003100340002010000050108014F
:1001E0000B010505050507050808080802020202BB
:1001F0000A0A0808040404040101010101010101C3
:100200000303030303030303040707070C0C0C0C8D
:100210000C0C0C0C02020202060606060606060676
:100220000B0B0B0B0B0B0B0BC20FB30F11241FBED1
:10023000CFEFD1E2DEBFCDBF00E00CBF13E0A0E006
:10024000B2E0E4EDF6E200E00BBF02C007900D92D1
:10025000AC31B107D9F725E0ACE1B3E001C01D92A4
:10026000A330B207E1F711E0C5E1D1E000E006C03C
:1002700021970109802FFE010E947210C431D1071D
:1002800080E00807A9F70E945B090C945913B8CEC7
:10029000FC01918D828D981761F0828DDF01A80F8E
:1002A000B11D5D968C91928D9F5F9F73928F90E0B0
:1002B00008958FEF9FEF0895FC01918D828D98171F
:1002C00031F0828DE80FF11D858D90E008958FEF5C
:1002D0009FEF0895FC01918D228D892F90E0805C25
:1002E0009F4F821B91098F739927089581E494E0B1
:1002F000F1DF21E0892B09F420E0822F0895FC0131
:10030000848DDF01A80FB11DA35ABF4F2C91848D9E
:1003100090E001968F739927848FA689B7892C93D3
:10032000A089B1898C9180648C93938D848D98136E
:1003300006C00288F389E02D80818F7D8083089537
:10034000EF92FF920F931F93CF93DF93EC0181E025
:10035000888F9B8D8C8D981305C0E889F9898081E1
:1003600085FD23C0F62E0B8D10E00F5F1F4F0F731E
:100370001127E02E8C8DE8120BC00FB607FCFACFC8
:10038000E889F989808185FFF5CFCE01B8DFF2CF0A
:100390008B8DFE01E80FF11DE35AFF4FF0820B8FAA
:1003A000EA89FB898081806207C0EE89FF896083CA
:1003B000E889F98980818064808381E090E0DF9121
:1003C000CF911F910F91FF90EF900895CF93DF93FE
:1003D000EC01888D8823C1F0EA89FB89808185FD45
:1003E00005C0A889B9898C9186FD0EC00FB607FC9F
:1003F000F5CF808185FFF2CFA889B9898C9185FFDF
:10040000EDCFCE017CDFE8CFDF91CF91089580E082
:1004100090E0892B41F080E090E0892B21F00E9450
:100420000000811120C080E090E0892B41F080E045
:1004300090E0892B21F00E940000811117C080E01C
:1004400090E0892B41F080E090E0892B21F00E9420
:10045000000081110EC080E090E0892B79F046DF2A
:1004600081110AC008950E940000DDCF0E940000A3
:10047000E6CF0E940000EFCF0C94000008950E9488
:100480003C121F920F920FB60F9211240BB60F92CF
:100490002F933F934F935F936F937F938F939F938C
:1004A000AF93BF93EF93FF9381E494E028DFFF9134
:1004B000EF91BF91AF919F918F917F916F915F91DC
:1004C0004F913F912F910F900BBE0F900FBE0F9049
:1004D0001F9018951F920F920FB60F9211240BB612
:1004E0000F922F938F939F93EF93FF93E09151047B
:1004F000F09152048081E0915704F091580482FDFC
:1005000012C0908180915A048F5F8F7320915B0499
:10051000821751F0E0915A04F0E0EF5BFB4F958FAA
:1005200080935A0401C08081FF91EF919F918F9138
:100530002F910F900BBE0F900FBE0F901F9018952C
:1005400085ED8093BC008091BC0084FDFCCF1092AF
:100550001E0308954091F103262F30E0240F311D32
:1005600021323105DCF420911E032430C9F4FC0152
:1005700080E090E0861758F43091F1032191DC017E
:10058000AF52BC4FA30FB11D2C930196F3CF8091B6
:10059000F103680F6093F10380E0089581E008950E
:1005A00082E00895E0912703F0912803309729F025
:1005B0001092200310921F0319940895CF93DF9394
:1005C000AC01E0912903F0912A033097F1F090916A
:1005D0002203809121039817C0F090E0292F30E08A
:1005E0002617370754F4D901AF54BC4FEA01C20FA4
:1005F000D31F88818C939F5FF1CF10922203609369
:100600002103CB01DF91CF911994DF91CF91089510
:100610000895E091220380912103E81730F4F0E07F
:10062000EF54FC4F808190E008958FEF9FEF089585
:100630009091220380912103981750F4E92FF0E064
:10064000EF54FC4F208130E09F5F9093220302C063
:100650002FEF3FEFC90108958091210390E0209191
:100660002203821B91090895CF93DF931F921F925B
:10067000CDB7DEB7CB01642F49835A836BDF498145
:10068000842F5A81952F0F900F90DF91CF9108956D
:10069000CF93DF931F92CDB7DEB7698361E0CE01C0
:1006A000019658DF81E090E00F90DF91CF9108959F
:1006B00080913B038F5F80933B03809125028130C3
:1006C00009F457C020F0823009F46CC0089560919D
:1006D0003F037091400380914103909142030E9437
:1006E000DF107093A8036093A70360914303709198
:1006F000440380914503909146030E94DF1070935C
:10070000AA036093A9036091470370914803809105
:10071000490390914A030E94DF107093AC036093E9
:10072000AB0360914B0370914C0380914D0390910A
:100730004E030E94DF107093AE036093AD0360918F
:100740004F037091500380915103909152030E9486
:10075000DF107093B0036093AF03E091DE04F0917B
:10076000DF040280F381E02D4AE050E067EA73E0A5
:1007700024C080913C038093A60310923C03809197
:100780003E0381110AC080912302882331F09091A9
:10079000230280912402981313C06091A6038EED6A
:1007A00094E076CFE091DE04F091DF040280F381E3
:1007B000E02D4EE050E06BE273E08EED94E0199492
:1007C000809123028093240282E08093250280910D
:1007D000A60382608093A603E0CF90E0FC013197EE
:1007E000E231F10508F04EC08827EE58FF4F8F4FD9
:1007F0000C947210809180008F7703C080918000EC
:100800008F7D80938000089580918000877FF9CF4D
:1008100084B58F7702C084B58F7D84BD08958091A3
:10082000B0008F7703C08091B0008F7D8093B000BF
:100830000895809190008F7707C0809190008F7D00
:1008400003C080919000877F8093900008958091ED
:10085000A0008F7707C08091A0008F7D03C080919A
:10086000A000877F8093A0000895809120018F775A
:1008700007C0809120018F7D03C080912001877F78
:100880008093200108951F93CF93DF93282F30E0AA
:10089000F901EE5DFE4F8491F901EE57FE4FD491C0
:1008A000F901EE51FE4FC491CC23C1F0162F8111F6
:1008B00094DFEC2FF0E0EE0FFF1FE853FE4FA59101
:1008C000B4918FB7F894111105C09C91ED2FE0956C
:1008D000E92302C0EC91ED2BEC938FBFDF91CF9118
:1008E0001F910895CF93DF9390E0FC01EE57FE4FE8
:1008F0002491FC01EE51FE4F8491882361F190E038
:10090000880F991FFC01E859FE4FC591D491FC0155
:10091000E853FE4FA591B491611109C09FB7F894B7
:100920008881209582238883EC912E230BC062302E
:1009300061F49FB7F8943881822F80958323888350
:10094000EC912E2B2C939FBF06C08FB7F894E881B3
:100950002E2B28838FBFDF91CF910895863308F027
:10096000865390917B00282F2870977F922B90932D
:100970007B0087702091000290E4299F9001112450
:10098000822B80937C0080917A00806480937A002F
:1009900080917A0086FDFCCF8091780020917900CB
:1009A00090E0922B08953FB7F89480913D04909188
:1009B0003E04A0913F04B091400426B5A89B05C019
:1009C0002F3F19F00196A11DB11D3FBFBA2FA92FCE
:1009D000982F8827820F911DA11DB11DBC01CD014B
:1009E00042E0660F771F881F991F4A95D1F7089537
:1009F0002FB7F8946091390470913A0480913B04C8
:100A000090913C042FBF08958F929F92AF92BF9216
:100A1000EF92FF920F931F93CF93DF93EC0180919E
:100A20003A038F5F80933A03C130D10531F48EEDE4
:100A300094E0FEDD8093250230C106E813E0CE018C
:100A40008A579C4F7C010E151F0589F1D1DF6093F9
:100A5000E6047093E7048093E8049093E904E0913E
:100A6000DE04F091DF040680F781E02D8EED94E046
:100A7000199597FF29C0BCDF8090E6049090E704A9
:100A8000A090E804B090E904DC01CB018819990931
:100A9000AA09BB098090E2049090E304A090E404CA
:100AA000B090E50488159905AA05BB05C0F29091A0
:100AB0008603892F8770813009F488C0833009F458
:100AC000A1C08111DAC004C0F80181938F01BBCFAE
:100AD0002091870330918803492F45954595459589
:100AE0008091890390918A0341114DC02038FEE323
:100AF0003F0738F021304DE7340728F020E03DE78C
:100B000002C020E83EE33093AD002093AC00803873
:100B1000EEE39E0738F08130FDE79F0728F080E084
:100B20009DE702C080E89EE390932901809328010D
:100B300080918B0390918C0380382EE3920738F0DC
:100B400081304DE7940728F080E09DE702C080E8FF
:100B50009EE3909399008093980080918D039091EB
:100B60008E038038EEE39E0738F08130FDE79F0763
:100B700028F080E09DE702C080E89EE39093A90002
:100B80008093A8008AC020384EE3340738F0213023
:100B9000EDE73E0728F020E03DE702C020E83EE315
:100BA00030939D0020939C008038FEE39F0738F02F
:100BB00081302DE7920728F080E09DE702C080E8B1
:100BC0009EE390932D0180932C0167C08091870351
:100BD0008031ACF0803109F060C060E089E153DE23
:100BE00007DFDC01CB010A96A11DB11D80935303E1
:100BF00090935403A0935503B09356034EC0809333
:100C00003D034BC0292F092E000C330B83E0359593
:100C100027958A95E1F7209339032091390330E035
:100C20002150310980918703F901EE0FFF1F2E0F2C
:100C30003F1FF901EE5FFD4F80832091390330E0C3
:100C40002150310980918803F901EE0FFF1F2E0F0B
:100C50003F1FF901EE5FFD4F81832091390330E0A2
:100C60002150310980918903F901EE0FFF1F2E0FEA
:100C70003F1FF901EE5FFD4F8283279771F493FBCD
:100C8000992790F990931C0286E0E7E8F3E0ADE144
:100C9000B2E001900D928A95E1F7DF91CF911F911B
:100CA0000F91FF90EF90BF90AF909F908F9008951D
:100CB0001F920F920FB60F9211242F933F938F9391
:100CC0009F93AF93BF938091390490913A04A09180
:100CD0003B04B0913C043091380423E0230F2D37BE
:100CE00020F40196A11DB11D05C026E8230F029630
:100CF000A11DB11D209338048093390490933A04C8
:100D0000A0933B04B0933C0480913D0490913E0439
:100D1000A0913F04B09140040196A11DB11D8093A4
:100D20003D0490933E04A0933F04B0934004BF91D0
:100D3000AF919F918F913F912F910F900FBE0F9088
:100D40001F9018951F920F920FB60F9211240BB699
:100D50000F922F933F934F935F936F937F938F9354
:100D60009F93AF93BF93EF93FF938091B900887FD8
:100D7000803609F49CC068F5883209F45BC090F4B1
:100D8000803109F454C038F4882309F4F6C088305F
:100D900009F44DC0F5C0883109F44CC0803209F423
:100DA0005DC0EEC0803409F468C048F4803309F4B3
:100DB00055C0883309F0E4C080931404D8C080354E
:100DC00009F44FC0883509F45DC0883409F0D8C0F3
:100DD000D6C0883909F4C7C0A8F4883709F467C0B9
:100DE00038F4883609F463C0803709F460C0C8C09D
:100DF000883809F4B8C0803909F45FC0803809F038
:100E0000BFC05BC0803B09F486C038F4803A09F467
:100E100066C0883A09F47FC0B3C0803C09F4A7C01B
:100E2000883C09F4A4C0883B09F48AC0A9C0809119
:100E3000370410C09091360480913504981770F5EE
:100E4000E091360481E08E0F80933604F0E0EB5E93
:100E5000FB4F80818093BB0085EC86C08093140497
:100E60008EC0E091360481E08E0F8093360480912D
:100E7000BB00F0E0EB5EFB4F8083909136048091E5
:100E800035046EC0E091360481E08E0F8093360405
:100E90008091BB00F0E0EB5EFB4F808380911D03EF
:100EA00081116DC081E080931C0384EA61C083E0FE
:100EB00080931E0310921304CFCF809113048032CD
:100EC00008F051C0E091130481E08E0F8093130469
:100ED0008091BB00F0E0ED50FC4F8083BDCF85ECEE
:100EE0008093BC0010921E0380911304803230F472
:100EF000E0911304F0E0ED50FC4F10826091130478
:100F000070E0E0912303F091240383EF93E01995BF
:100F10001092130435C084E080931E031092F203F4
:100F20001092F103E0912503F09126031995809129
:100F3000F103811105C081E08093F1031092D10388
:100F4000E091F20381E08E0F8093F203F0E0EF5224
:100F5000FC4F80818093BB009091F2038091F1035C
:100F6000981708F479CF85E88093BC0009C085EC18
:100F70008093BC0010921E0303C010921404E0DAA8
:100F8000FF91EF91BF91AF919F918F917F916F9161
:100F90005F914F913F912F910F900BBE0F900FBE1D
:100FA0000F901F901895CF92DF92EF92FF920F93C0
:100FB0001F93CF93DF936C017A018B01C0E0D0E0E7
:100FC000CE15DF0589F0D8016D918D01D601ED9127
:100FD000FC910190F081E02DC6011995892B11F447
:100FE0007E0102C02196ECCFC701DF91CF911F9106
:100FF0000F91FF90EF90DF90CF9008950F931F9384
:10100000CF93DF93CDB7DEB729970FB6F894DEBF45
:101010000FBECDBF8091F2049091F304892B09F4A7
:101020009FC0C1DC0091F8041091F9042091FA04EA
:101030003091FB04DC01CB01801B910BA20BB30BA5
:10104000C297A105B10568F3F8948091EE049091E0
:10105000EF049A838983E091F204F091F304DF01B5
:101060001196808189879091EA04E091FC04F091C7
:10107000FD048091FE04992309F42EC09081982BE1
:1010800098879081809589238F838F818C8388E0D6
:101090008B8358856F8149853B812C8189819A8119
:1010A000508347FD252F3A952083262F39F0441F82
:1010B00000C000006083000000C0F2CF38E04D9116
:1010C00060830000019761F7F093FD04E093FC0456
:1010D00049873B832C8338C09081982B98879081D7
:1010E000809589238F838F818E8388E08D835885B7
:1010F0006F8149853D812E8189819A81508347FD89
:10110000252F00C000C0208300C000C000C000C068
:1011100000C060830000262F3A9541F0441F000074
:1011200000C000C000C000C000C0E8CF38E04D9152
:1011300000C0608300C0019709F7F093FD04E093BD
:10114000FC0449873D832E839A83898378942BDC22
:101150006093F8047093F9048093FA049093FB046D
:1011600029960FB6F894DEBF0FBECDBFDF91CF91A9
:101170001F910F9108958F929F92AF92BF92CF923D
:10118000DF92EF92FF922091EC043091ED048217F0
:10119000930708F052C04B01AA24BB24E82DC52EAA
:1011A000D62EE72EFF24FC2D342F2091F10422238C
:1011B00061F0829E40011124E92DC29E600111243C
:1011C000FD2D429FD00111243B2FF090F704E090B9
:1011D000F404A091F204B091F304FE1008C0AC0135
:1011E000440F551F840F951F8A0F9B1F14C0880F33
:1011F000991F880F991F8A0F9B1F472F5527662716
:101200007727DC01AF0DB11D222321F0429FA00101
:101210001124452F4C932091F404DC01A20FB11D41
:10122000EC932091F504DC01A20FB11DFC932091F9
:10123000F604FC01E20FF11D3083FF90EF90DF9088
:10124000CF90BF90AF909F908F9008958F929F9274
:10125000AF92BF92CF92DF92EF92FF92A4DB4B014D
:101260005C0184E6C82ED12CE12CF12C9CDBDC0146
:10127000CB0188199909AA09BB09883E9340A105A9
:10128000B10558F021E0C21AD108E108F10888EE52
:10129000880E83E0981EA11CB11CC114D104E10486
:1012A000F10421F7FF90EF90DF90CF90BF90AF90C7
:1012B0009F908F900895CF93DF9300D01F92CDB76A
:1012C000DEB7789484B5826084BD84B5816084BDC6
:1012D00085B5826085BD85B5816085BD80916E00D4
:1012E000816080936E001092810080918100826005
:1012F0008093810080918100816080938100809142
:1013000080008160809380008091B1008460809330
:10131000B1008091B00081608093B0008091910015
:101320008260809391008091910081608093910010
:10133000809190008160809390008091A1008260F4
:101340008093A1008091A10081608093A100809191
:10135000A00081608093A000809121018260809331
:1013600021018091210181608093210180912001E0
:1013700081608093200180917A00846080937A005C
:1013800080917A00826080937A0080917A008160F7
:1013900080937A0080917A00806880937A0010921E
:1013A000C10061E08EE29EDA61E085E09BDA61E0F7
:1013B00086E098DA61E088E095DA61E08CE292DA22
:1013C00061E083E08FDA9AEB9093900089E180935B
:1013D00091009093A0008093A100909320018093AE
:1013E000210180E89BEB9093270180932601909345
:1013F000A7008093A600909397008093960080ECBE
:101400009DE590939D0080939C0090932D01809387
:101410002C0180E89EE39093A9008093A80090930C
:1014200099008093980090932901809328019093CC
:10143000AD008093AC00E0915104F091520482E041
:101440008083E0914D04F0914E041082E0914F04AE
:10145000F09150048FEC808310925904E091550470
:10146000F091560486E08083E0915304F091540497
:10147000808180618083E0915304F09154048081E5
:1014800088608083E0915304F091540480818068E7
:101490008083E0915304F091540480818F7D808398
:1014A000D5DE04E812E0F80161918F0181E494E057
:1014B0000E94A001F2E00F381F07A9F7C7DE09E775
:1014C00012E0F80161918F0181E494E00E94A00193
:1014D000F2E004381F07A9F7B9DE0EE612E0F801C2
:1014E00061918F0181E494E00E94A001F2E009374C
:1014F0001F07A9F7ABDE03E612E0F80161918F0147
:1015000081E494E00E94A001F2E00E361F07A9F7E3
:101510009DDE08E512E0F80161918F0181E494E01D
:101520000E94A001F2E003361F07A9F78FDE0DE449
:1015300012E0F80161918F0181E494E00E94A00122
:10154000F2E008351F07A9F781DE02E412E0F80196
:1015500061918F0181E494E00E94A001F2E00D34DA
:101560001F07A9F773DE72DE0CE212E0F801619149
:101570008F0181E494E00E94A001F2E002341F0791
:10158000A9F761E08EE1AED960E08FE1ABD961E00F
:1015900089E1A8D960E08EE176D961E089E173D96B
:1015A00083E08093000282E18093BA0082ED92E0B2
:1015B00090932603809325038EED92E0909324036D
:1015C0008093230310922203109221031092200390
:1015D00010921F0310921E0381E080931D0310924E
:1015E0001C0361E084E14FD961E085E14CD9809131
:1015F000B9008E7F8093B9008091B9008D7F809370
:10160000B9008CE08093B80085E48093BC0088E545
:1016100093E0909328038093270384E095E09093D0
:101620002A03809329038091F00487FD06C061E0BE
:1016300059D960E08091F00426D981E08093EB04D1
:1016400000E010E040E051E060E070E0C80193DDB0
:101650000F5F1F4F08301105A9F7D0DC9BE088E130
:101660000FB6F894A895809360000FBE9093600029
:1016700031E4E32E31E0F32E41EAC42E41E0D42ED2
:1016800051E0A52E52E0B52E99249A9466E0862E5C
:1016900000E81EE38091530390915403A0915503F9
:1016A000B0915603892B8A2B8B2B79F040905303F2
:1016B00050905403609055037090560399D9461684
:1016C00057066806790608F491C388E347D9209144
:1016D0003F033091400340914103509142034090B9
:1016E0003F03509040036090410370904203BC015F
:1016F000990F880B990B29833A834B835C83C6D659
:1017000029813A814B815C81F5D42AE037ED43E2AF
:101710005CE31BD79B01AC01C301B201ECD4609325
:101720003F0370934003809341039093420386E309
:1017300015D92091430330914403409145035091C2
:1017400046034090430350904403609045037090DB
:101750004603BC01990F880B990B29833A834B836D
:101760005C8394D629813A814B815C81C3D42AE081
:1017700037ED43E25CE3E9D69B01AC01C301B20162
:10178000BAD46093430370934403809345039093CA
:1017900046038CE3E3D820914703309148034091FE
:1017A000490350914A03409047035090480360908A
:1017B000490370904A03BC01990F880B990B298348
:1017C0003A834B835C8362D629813A814B815C8169
:1017D00091D42AE037ED43E25CE3B7D69B01AC013C
:1017E000C301B20188D46093470370934803809388
:1017F000490390934A038AE3B1D820914B03309177
:101800004C0340914D0350914E0340904B03509038
:101810004C0360904D0370904E03BC01990F880BF0
:10182000990B29833A834B835C8330D629813A8193
:101830004B815C815FD42AE037ED43E25CE385D6DF
:101840009B01AC01C301B20156D460934B0370936A
:101850004C0380934D0390934E0387E37FD82091F0
:101860004F033091500340915103509152034090E7
:101870004F03509050036090510370905203BC018D
:10188000990F880B990B29833A834B835C83FED590
:1018900029813A814B815C812DD42AE037ED43E2E6
:1018A0005CE353D69B01AC01C301B20124D4609325
:1018B0004F0370935003809351039093520381E43C
:1018C00094E00E946A01892B09F4D7C081E08093DB
:1018D0003E0381E494E00E94480120917A03309114
:1018E0007B03223031058CF4F901E157FD4F9081E3
:1018F000891329C0F901E858FC4F10822F5F3F4F30
:1019000030937B0320937A032FC02232310574F485
:10191000F901EA5AFC4F808390917803980F9093D5
:10192000780340917903940F909379032F5F3F4F91
:1019300030937B0320937A032332310549F490914D
:101940007803891789F010927B0310927A030CC0F8
:101950002432310509F088C010927B0310927A037B
:1019600090917903891711F080E083C0809164031E
:1019700090916503A0916603B091670380932F0354
:1019800090933003A0933103B093320380916003AE
:1019900090916103A0916203B091630380932B0344
:1019A00090932C03A0932D03B0932E038091680392
:1019B00090916903A0916A03B0916B038093330304
:1019C00090933403A0933503B0933603409174038E
:1019D000509175036091760370917703FAE07695E4
:1019E000679557954795FA95D1F7409374035093AF
:1019F00075036093760370937703809170039091E1
:101A00007103A0917203B09173032AE0B695A79574
:101A1000979587952A95D1F78093700390937103DA
:101A2000A0937203B09373034F3F51056105710595
:101A300029F020F04FEF50E060E070E04093380371
:101A40008F3F9105A105B10529F020F08FEF90E0BF
:101A5000A0E0B0E0809337038091570391E0980FA6
:101A600090935703806805C0253231050CF06BCF89
:101A70007BCF8093230210923E0380913D03882305
:101A800009F41EC180913D0390910102981709F459
:101A90005AC080913D0380930102612C712C2091EA
:101AA0003D03A0913D0380913D03889EC001112418
:101AB0008F559D4FFC0180818A9ED0011124AF5526
:101AC000BD4F11964C9150E060E070E0762F652F8D
:101AD000542F4427682B829EF0011124EF55FD4FAF
:101AE0008281482BC30147DB20913D03A0913D0338
:101AF00080913D03889EC00111248F559D4FFC01AC
:101B000083818A9ED0011124AF55BD4F14964C910C
:101B100050E060E070E0762F652F542F4427682B4B
:101B2000829EF0011124EF55FD4F8581482BC301A2
:101B3000019621DBF2E06F0E711C28E06216710441
:101B400009F0ADCF5BDA20907D0330907E034090AA
:101B50007F0350908003211431044104510449F55E
:101B60000E94F804E0913D03F0E0EF56FD4F208124
:101B700020FD06C028EC422E512C612C712C06C091
:101B8000B8E54B2EB2E05B2E612C712CDC01CB0151
:101B9000840D951DA61DB71D80937D0390937E0334
:101BA000A0937F03B093800310927C0360911C028A
:101BB0000DC170907C0370FE34C00E94F80426169C
:101BC00037064806590608F004C160911C028EE1F0
:101BD0000E944304739470927C030E94F804E09185
:101BE0003D03F0E0EF56FD4F208130E0769402C0D7
:101BF000359527957A94E2F720FD06C0A8EC4A2E89
:101C0000512C612C712C06C0F8E54F2EF2E05F2EAE
:101C1000612C712CDC01CB01840D951DA61DB71D17
:101C200046C00E94F804261637064806590608F0F2
:101C3000D0C060E08EE10E94430481E0870D809374
:101C40007C03883060F110923D0310927D03109266
:101C50007E0310927F031092800390920102612C08
:101C6000712CF301EE0FFF1FE60DF71DEE5FFD4F28
:101C700082814181908150E060E070E0762F652F95
:101C8000542F4427692B482BC30175DA8FEF681A4C
:101C9000780AE8E06E16710421F7B0D99AC00E9464
:101CA000F804DC01CB018C599F4FAF4FBF4F80939D
:101CB0007D0390937E03A0937F03B093800389C03C
:101CC000F7018491F6016490F50174907720A1F0FA
:101CD00081110E94ED03E72DF0E0EE0FFF1FE85F9A
:101CE000FE4FA591B4918C91682231E020E009F477
:101CF00030E0832F922F02C080E090E0F1E08F2748
:101D000081708093840390913C03892B80933C03E2
:101D10000E94F8046938734181059105B8F18091FA
:101D20008403882399F10E94D30480958170582EF2
:101D3000612C712C80912202552029F040912102C2
:101D40009091200204C0409120029091210250E025
:101D500060E070E0762F652F542F4427692B482BC5
:101D6000C30109DA8FEF681A780AE8E06E16710489
:101D700009F744D980911C02882321F0652D8EE15A
:101D80000E94430481E08093830323C060914F034A
:101D900070915003809151039091520321EC3CE5E6
:101DA0004FE254E438D2181674F560914F037091E5
:101DB000500380915103909152032AEE3DE44FE38A
:101DC00054E45ED3682F661F6627661F8EE10E946B
:101DD000430490913B0380911B029817B1F09091BE
:101DE0003A0380911A029813B1C00FC010925303A6
:101DF00010925403109255031092560361E089E14A
:101E00000E94430462CC60E0E1CF80918103909115
:101E10008203019690938203809381038D329140D7
:101E200058F11093AD000093AC001093290100937A
:101E3000280110939900009398001093A900009333
:101E4000A800612C712C80911F0240911E0290917C
:101E50001D0250E060E070E0762F652F542F44277C
:101E6000692B482BC30187D9FFEF6F1A7F0A28E03F
:101E70006216710441F7C2D880918303882329F147
:101E800080918403811121C0612C712CF301EE0F2C
:101E9000FF1FE60DF71DEE5FFD4F828141819081AE
:101EA00050E060E070E0762F652F542F4427692BB7
:101EB000482BC30160D98FEF681A780AE8E06E16E4
:101EC000710421F79BD810928303809139038823F2
:101ED000C9F180913903815080933903809139038E
:101EE00090E0FC01EE0FFF1F8E0F9F1FFC01EE5FC5
:101EF000FD4F22818091390390E0FC01EE0FFF1F1E
:101F00008E0F9F1FFC01EE5FFD4F418180913903D1
:101F100090E0FC01EE0FFF1F8E0F9F1FFC01EE5F94
:101F2000FD4F90818091390350E060E070E0762FA2
:101F3000652F542F4427692B422B90E01CD95ED883
:101F400010923903A8950E940702A4CB80913B030D
:101F500080931B0280913A0380931A0210928203AD
:101F60001092810389CF8091F2049091F30400973D
:101F700009F0EAD18091F00487FD03C060E00C9481
:101F800072040895109244041092430488EE93E082
:101F9000A0E0B0E08093450490934604A0934704EA
:101FA000B09348042FEF32E0309342042093410471
:101FB00025E331E030934E0420934D0424E331E0D7
:101FC0003093500420934F0420E331E030935204C7
:101FD0002093510421E331E03093540420935304BF
:101FE00022E331E0309356042093550426E331E098
:101FF000309358042093570410925A0410925B04B3
:1020000010925C0410925D041092E1041092E004BE
:102010008093E2049093E304A093E404B093E50476
:102020008FE093E09093DF048093DE041092EB0442
:102030001092F1041092F8041092F9041092FA042C
:102040001092FB0481E08093F7048093F4041092D3
:10205000F50492E09093F6048093EA0488E190E01E
:102060009093EF048093EE04DAD09093F30480937E
:10207000F204009761F028E1FC0111922A95E9F73A
:1020800088E090E09093ED048093EC0408C01092F7
:10209000EF041092EE041092ED041092EC048BE128
:1020A0008093F0048091EB04882341F061E08BE1A0
:1020B0000E94720460E08BE10E944304EDEFF1E0C6
:1020C000E491F0E0EE0FFF1FE853FE4F85919491ED
:1020D0009093FD048093FC04EDE9F1E0E491E0933A
:1020E000FE040895EE0FFF1F881F8BBF0790F69127
:1020F000E02D19945058BB27AA270ED0A0C291D228
:1021000030F096D220F031F49F3F11F41EF486C2D5
:102110000EF4E095E7FB7CC2E92FA2D280F3BA1758
:10212000620773078407950718F071F49EF5BAC229
:102130000EF4E0950B2EBA2FA02D0B01B9019001E2
:102140000C01CA01A0011124FF27591B99F0593F26
:1021500050F4503E68F11A16F040A22F232F342F6E
:102160004427585FF3CF469537952795A795F040BC
:102170005395C9F77EF41F16BA0B620B730B840BD1
:10218000BAF09150A1F0FF0FBB1F661F771F881F89
:10219000C2F70EC0BA0F621F731F841F48F48795E1
:1021A00077956795B795F7959E3F08F0B3CF9395D0
:1021B000880F08F09927EE0F97958795089558D2C4
:1021C00088F09F5790F0B92F9927B751A0F0D1F020
:1021D000660F771F881F991F1AF0BA95C9F712C0AA
:1021E000B13081F05FD2B1E008955CC2672F782FE3
:1021F0008827B85F39F0B93FCCF386957795679516
:10220000B395D9F73EF490958095709561957F4F81
:102210008F4F9F4F089575D108F48FEF0895CF9396
:10222000DF938230910510F482E090E0E0910105A7
:10223000F091020520E030E0C0E0D0E0309711F1ED
:102240004081518148175907C0F04817590761F478
:1022500082819381209719F09B838A832BC090936E
:1022600002058093010526C02115310519F042179A
:10227000530718F49A01BE01DF01EF010280F381D8
:10228000E02DDCCF2115310509F1281B390B243055
:10229000310590F412968D919C91139761157105FB
:1022A00021F0FB019383828304C090930205809305
:1022B0000105FD01329644C0FD01E20FF31F819339
:1022C0009193225031092D933C933AC02091FF0401
:1022D00030910005232B41F42091280230912902EE
:1022E000309300052093FF042091260230912702AD
:1022F0002115310541F42DB73EB740912A02509186
:102300002B02241B350BE091FF04F0910005E2172E
:10231000F307A0F42E1B3F0B2817390778F0AC0108
:102320004E5F5F4F2417350748F04E0F5F1F5093E5
:1023300000054093FF048193919302C0E0E0F0E038
:10234000CF01DF91CF9108950F931F93CF93DF9328
:10235000009709F48CC0FC0132971382128200911D
:102360000105109102050115110581F420813181CB
:10237000820F931F2091FF04309100052817390721
:1023800079F5F0930005E093FF0471C0D80140E0B7
:1023900050E0AE17BF0750F412962D913C91139761
:1023A000AD012115310509F1D901F3CF9D01DA0104
:1023B0003383228360817181860F971F8217930771
:1023C00069F4EC0128813981260F371F2E5F3F4FBA
:1023D000318320838A819B8193838283452B29F4D7
:1023E000F0930205E093010542C01396FC93EE932F
:1023F0001297ED01499159919E01240F351FE21763
:10240000F30771F480819181840F951F02961196D4
:102410009C938E938281938113969C938E931297B3
:10242000E0E0F0E0D80112968D919C91139700970F
:1024300019F0F8018C01F6CF8D919C9198012E5FD7
:102440003F4F820F931F2091FF0430910005281702
:10245000390769F4309729F41092020510920105AA
:1024600002C013821282109300050093FF04DF91D3
:10247000CF911F910F91089581E090E0F89419C1D8
:1024800040D008F481E00895E89409C097FB3EF439
:1024900090958095709561957F4F8F4F9F4F9923B1
:1024A000A9F0F92F96E9BB279395F695879577952F
:1024B0006795B795F111F8CFFAF4BB0F11F460FFEF
:1024C0001BC06F5F7F4F8F4F9F4F16C0882311F047
:1024D00096E911C0772321F09EE8872F762F05C05B
:1024E000662371F096E8862F70E060E02AF09A95F6
:1024F000660F771F881FDAF7880F9695879597F9EB
:102500000895990F0008550FAA0BE0E8FEEF161684
:102510001706E807F907C0F012161306E407F507D7
:1025200098F0621B730B840B950B39F40A2661F04B
:10253000232B242B252B21F408950A2609F4A140EE
:10254000A6958FEF811D811D08950BD078C069D0AD
:1025500028F06ED018F0952309F05AC05FC01124FE
:10256000A2C07ED0A0F3959FD1F3950F50E0551FE8
:10257000629FF001729FBB27F00DB11D639FAA27D8
:10258000F00DB11DAA1F649F6627B00DA11D661F27
:10259000829F2227B00DA11D621F739FB00DA11D48
:1025A000621F839FA00D611D221F749F3327A00D02
:1025B000611D231F849F600D211D822F762F6A2F9E
:1025C00011249F5750408AF0E1F088234AF0EE0F23
:1025D000FF1FBB1F661F771F881F91505040A9F730
:1025E0009E3F510570F014C05EC05F3FECF3983E13
:1025F000DCF3869577956795B795F795E7959F5F97
:10260000C1F7FE2B880F911D9695879597F9089530
:1026100097F99F6780E870E060E008959FEF80EC95
:10262000089500240A941616170618060906089538
:1026300000240A9412161306140605060895092E9E
:102640000394000C11F4882352F0BB0F40F4BF2B0D
:1026500011F460FF04C06F5F7F4F8F4F9F4F08954D
:1026600057FD9058440F551F59F05F3F71F0479543
:10267000880F97FB991F61F09F3F79F08795089528
:10268000121613061406551FF2CF4695F1DF08C047
:10269000161617061806991FF1CF86957105610564
:1026A00008940895E894BB2766277727CB0197F90C
:1026B000089511E0C5E1D1E000E005C0802FFE01E2
:1026C00011DD2196011DC631D10780E00807B1F761
:0426D000F894FFCFAC
:1026D40001FF0001000001000001000001000001F1
:1026E40000000100000100000100FFFF01010000E3
:1026F400FF000064640F000003058000B562060853
:1027040006006400010001007A12B56206080000A8
:102714000E30B56206010300F00500FF19B562062C
:10272400010300F00400FE17B56206010300F00384
:1027340000FD15B56206010300F00200FC13B5624A
:1027440006010300F00100FB11B56206010300F06D
:102754000000FA0FB562060103000102010E47B53D
:10276400620008090A0B0C0D0E0F01020304050692
:102774000700000000000064000000000064000086
:102784000064006400000064006400006464006489
:102794006400000000646400006400646400640079
:1027A4000064640064640000000000640000000031
:1027B4006464000064000000000064000064000021
:1027C400640064000000640064640000000000A071
:1027D40001D3076A0148015C01E6010000000048DA
:0C27E4000334032C03180309030803004E
:00000001FF
