:1000000014C1000043C1000041C100003FC1000015
:100010003DC100003BC1000039C1000037C10000F4
:1000200035C1000033C1000031C100002FC1000004
:100030002DC100002BC1000029C1000027C1000014
:1000400025C1000023C1000021C100001FC1000024
:100050001DC100001BC1000019C100006EC70000D7
:1000600015C1000010C70000E5C600000FC1000068
:100070000DC100000BC1000009C1000007C1000054
:1000800005C1000003C1000001C10000FFC0000065
:10009000FDC00000FBC00000F9C0000098C70000D0
:1000A000F5C00000F3C00000F1C00000EFC0000088
:1000B000EDC00000EBC00000E9C00000E7C0000098
:1000C000E5C00000E3C00000E1C000008AC60000F7
:1000D0005FC60000DBC0000032C6000007C600009B
:1000E000D5C00000B002B302A202A602AC02EA022E
:1000F000B702BB02C102C502C902CF02D302D702B6
:10010000EA02DD02E102E5020000210024002700EE
:100110002A002D0030003300010100000401070116
:100120000A0100002200250028002B002E003100CB
:10013000340002010000050108010B01000020004D
:100140002300260029002C002F00320000010000AF
:10015000030106010901050505050705080808084A
:10016000020202020A0A080804040404010101014F
:10017000010101010303030303030303040707074A
:100180000C0C0C0C0C0C0C0C0202020206060606EF
:10019000060606060B0B0B0B0B0B0B0B01021020BC
:1001A00020080810204010204080020102010804AD
:1001B0000201010204081020408080402010080441
:1001C000020180040201804020100804020108049A
:1001D00002010102040810204080010204081020DE
:1001E000408000000A0B02090C0D0E0807030401F1
:1001F00000000000000000000000000000000000FF
:1002000000000000000000000000000000001211CB
:1002100010000000000000000000000000000000CE
:100220000000000000000000CE0D11241FBECFEF23
:10023000D1E2DEBFCDBF00E00CBF12E0A0E0B2E033
:10024000E2E6F0E200E00BBF02C007900D92AE398B
:10025000B107D9F725E0AEE9B2E001C01D92AD3A91
:10026000B207E1F711E0C5E1D1E000E006C0219757
:100270000109802FFE010E94750EC431D10780E074
:100280000807A9F70E941D0A0C942F10B9CEE0911F
:10029000A803F091A903309729F01092A1031092BE
:1002A000A00319940895CF93DF93AC01E091AA03C2
:1002B000F091AB033097F1F09091A3038091A203EA
:1002C0009817C0F090E0292F30E02617370754F434
:1002D000D901A35FBC4FEA01C20FD31F88818C9361
:1002E0009F5FF1CF1092A3036093A203CB01DF9134
:1002F000CF911994DF91CF910895FC01A089B18924
:100300008C91A689B78982FD0FC09C91818D8F5FEA
:100310008F73228D821749F0218DDF01A20FB11D4D
:100320005D969C93818F08958C910895FC01918D29
:10033000828D981761F0828DDF01A80FB11D5D9647
:100340008C91928D9F5F9F73928F90E008958FEFB5
:100350009FEF0895FC01918D828D981731F0828D69
:10036000E80FF11D858D90E008958FEF9FEF0895C0
:10037000FC01918D228D892F90E0805C9F4F821B24
:1003800091098F73992708958AEC93E0F1DF21E0BA
:10039000892B09F420E0822F089587E694E0E8DFB6
:1003A00021E0892B09F420E0822F089584E095E074
:1003B000DFDF21E0892B09F420E0822F0895FC0182
:1003C000848DDF01A80FB11DA35ABF4F2C91848DDE
:1003D00090E001968F739927848FA689B7892C9313
:1003E000A089B1898C9180648C93938D848D9813AE
:1003F00006C00288F389E02D80818F7D8083089577
:10040000EF92FF920F931F93CF93DF93EC0181E064
:10041000888F9B8D8C8D981305C0E889F989808120
:1004200085FD23C0F62E0B8D10E00F5F1F4F0F735D
:100430001127E02E8C8DE8120BC00FB607FCFACF07
:10044000E889F989808185FFF5CFCE01B8DFF2CF49
:100450008B8DFE01E80FF11DE35AFF4FF0820B8FE9
:10046000EA89FB898081806207C0EE89FF89608309
:10047000E889F98980818064808381E090E0DF9160
:10048000CF911F910F91FF90EF900895CF93DF933D
:10049000EC01888D8823C1F0EA89FB89808185FD84
:1004A00005C0A889B9898C9186FD0EC00FB607FCDE
:1004B000F5CF808185FFF2CFA889B9898C9185FF1E
:1004C000EDCFCE017CDFE8CFDF91CF91089580E0C2
:1004D00090E0892B19F06ADF81111BC080E090E069
:1004E000892B41F080E090E0892B21F00E940000F0
:1004F000811112C080E090E0892B19F04EDF81114C
:100500000EC080E090E0892B79F03EDF81110AC0B7
:1005100008950E940000E2CF0E940000EBCF0E94ED
:100520000000EFCF0C940000089590E0FC0131979B
:10053000E231F10508F04EC08827EE58FF4F8F4F8B
:100540000C94750E809180008F7703C0809180009D
:100550008F7D80938000089580918000877FF9CF00
:1005600084B58F7702C084B58F7D84BD0895809156
:10057000B0008F7703C08091B0008F7D8093B00072
:100580000895809190008F7707C0809190008F7DB3
:1005900003C080919000877F8093900008958091A0
:1005A000A0008F7707C08091A0008F7D03C080914D
:1005B000A000877F8093A0000895809120018F770D
:1005C00007C0809120018F7D03C080912001877F2B
:1005D0008093200108951F93CF93DF93282F30E05D
:1005E000F901EE51FE4F8491F901E456FE4FD4918A
:1005F000F901EA5AFE4FC491CC23C1F0162F8111A4
:1006000094DFEC2FF0E0EE0FFF1FEE5DFE4FA591A3
:10061000B4918FB7F894111105C09C91ED2FE0951E
:10062000E92302C0EC91ED2BEC938FBFDF91CF91CA
:100630001F910895CF93DF9390E0FC01E456FE4FA5
:100640002491FC01EA5AFE4F8491882361F190E0E5
:10065000880F991FFC01E85FFE4FC591D491FC0102
:10066000EE5DFE4FA591B491611109C09FB7F8945A
:100670008881209582238883EC912E230BC06230E1
:1006800061F49FB7F8943881822F80958323888303
:10069000EC912E2B2C939FBF06C08FB7F894E88166
:1006A0002E2B28838FBFDF91CF910895863308F0DA
:1006B000865390917B00282F2870977F922B9093E0
:1006C0007B0087702091020290E4299F9001112401
:1006D000822B80937C0080917A00806480937A00E2
:1006E00080917A0086FDFCCF80917800209179007E
:1006F00090E0922B089585ED8093BC008091BC0022
:1007000084FDFCCF10929F03089540914D03262F46
:1007100030E0240F311D21323105DCF420919F039C
:100720002430C9F4FC0180E090E0861758F4309141
:100730004D032191DC01A35DBC4FA30FB11D2C9390
:100740000196F3CF80914D03680F60934D0380E0D5
:10075000089581E0089582E008950895E091A3034B
:100760008091A203E81730F4F0E0E35FFC4F808152
:1007700090E008958FEF9FEF08959091A3038091EB
:10078000A203981750F4E92FF0E0E35FFC4F2081BB
:1007900030E09F5F9093A30302C02FEF3FEFC901AA
:1007A00008958091A20390E02091A303821B9109F8
:1007B0000895CF93DF931F921F92CDB7DEB7CB0181
:1007C000642F49835A83A1DF4981842F5A81952F51
:1007D0000F900F90DF91CF910895CF93DF931F92E9
:1007E000CDB7DEB7698361E0CE0101968EDF81E08F
:1007F00090E00F90DF91CF910895DC01ED91FC9195
:100800000280F381E02D19940E94120F0F931F9321
:10081000CF93DF938091B4038F5F8093B403809173
:100820000102823009F44AC140F48823A1F08130EA
:1008300009F07CC11092020373C0833009F443C1F4
:10084000843009F073C1C09102030C2E000CDD0B43
:1008500002EF12E052C16091B6037091B70380912C
:10086000B8039091B9030E94E20E70930403609361
:1008700003036091BA037091BB038091BC03909114
:10088000BD030E94E20E709306036093050360911E
:10089000BE037091BF038091C0039091C1030E9479
:1008A000E20E70930803609307036091C203709196
:1008B000C3038091C4039091C5030E94E20E70931C
:1008C0000A03609309036091C6037091C703809186
:1008D000C8039091C9030E94E20E70930C036093C9
:1008E0000B034AE050E063E073E019C18AEC93E047
:1008F0001DDD2091E2023091E30222303105B4F493
:10090000F901ED5FFD4F908189132EC0F901E0528E
:10091000FD4F10822F5F3F4F3093E3022093E2029E
:100920008AEC93E025DD892B09F7BFC0223231051F
:1009300074F4F901E254FD4F80839091E002980F26
:100940009093E0024091E102940F9093E1022F5FB7
:100950003F4F3093E3022093E2022332310549F402
:100960009091E0028917E1F21092E3021092E20204
:10097000D7CF2432310509F093C01092E3021092D0
:10098000E2029091E1028913CBCF8091CC02909149
:10099000CD02A091CE02B091CF028093E802909355
:1009A000E902A093EA02B093EB028091C802909111
:1009B000C902A091CA02B091CB028093E402909345
:1009C000E502A093E602B093E7028091D0029091F5
:1009D000D102A091D202B091D3028093EC02909305
:1009E000ED02A093EE02B093EF024091DC02509131
:1009F000DD026091DE027091DF028AE076956795F4
:100A0000579547958A95D1F74093DC025093DD02C4
:100A10006093DE027093DF028091D8029091D90238
:100A2000A091DA02B091DB022AE0B695A7959795DE
:100A300087952A95D1F78093D8029093D902A093F5
:100A4000DA02B093DB024F3F51056105710529F0D1
:100A500020F04FEF50E060E070E04093F1028F3FF4
:100A60009105A105B10529F020F08FEF90E0A0E0FD
:100A7000B0E08093F0028091BF0291E0980F9093D4
:100A8000BF02806890910002891709F449CF8093D2
:100A900000028EE08093020382E08093010205C091
:100AA000253231050CF060CF3BCF6091020381EA23
:100AB00095E0DF91CF911F910F918FCE4EE050E0E6
:100AC00064EE72E02CC087E694E052DC809302036F
:100AD000882361F18091020381311CF080E18093D1
:100AE00002036091020381EA95E077DE84E080935F
:100AF00001021CC0F80181938F01C801825F9240FE
:100B00008C179D0728F487E694E069D497FFF2CF0D
:100B100040910203042E000C550B62EF72E081EA53
:100B200095E0DF91CF911F910F9167CEDF91CF912B
:100B30001F910F910895EF92FF920F931F93CF9300
:100B4000DF93EC018130910531F481EA95E015DE07
:100B500080930102C4C00FE912E081569D4F7C01D1
:100B60000E151F0529F081EA95E039D497FF0DC0D5
:100B700080919F02982F9770913009F49EC0923017
:100B800009F4A0C09111A6C004C0F80181938F019F
:100B9000E7CF2091A0023091A102482F45954595BD
:100BA00045958091A2029091A30241114DC0203839
:100BB000FEE33F0738F021304DE7340728F020E00E
:100BC0003DE702C020E83EE33093AD002093AC0047
:100BD0008038EEE39E0738F08130FDE79F0728F06C
:100BE00080E09DE702C080E89EE390932901809316
:100BF00028018091A4029091A50280382EE39207EB
:100C000038F081304DE7940728F080E09DE702C07E
:100C100080E89EE390939900809398008091A602CB
:100C20009091A7028038EEE39E0738F08130FDE70F
:100C30009F0728F080E09DE702C080E89EE3909344
:100C4000A9008093A80046C020384EE3340738F04E
:100C50002130EDE73E0728F020E03DE702C020E824
:100C60003EE330939D0020939C008038FEE39F0775
:100C700038F081302DE7920728F080E09DE702C030
:100C800080E89EE390932D0180932C0160912C01CC
:100C900070912D0180E090E04AE062D388E992E013
:100CA0004ED360919C0070919D0080E090E04AE0FE
:100CB00057D38AE992E043D30DC08091A00280937C
:100CC000B50308C0C1504C2F50E060EA72E087E6DF
:100CD00094E093DD8091B4038F5F8093B403DF9140
:100CE000CF911F910F91FF90EF9008951F920F9257
:100CF0000FB60F9211240BB60F922F933F934F9381
:100D00005F936F937F938F939F93AF93BF93EF9373
:100D1000FF938AEC93E053DBFF91EF91BF91AF918A
:100D20009F918F917F916F915F914F913F912F9103
:100D30000F900BBE0F900FBE0F901F9018951F9233
:100D40000F920FB60F9211240BB60F922F933F9371
:100D50004F935F936F937F938F939F93AF93BF93C3
:100D6000EF93FF938AEC93E0C8DAFF91EF91BF9184
:100D7000AF919F918F917F916F915F914F913F9133
:100D80002F910F900BBE0F900FBE0F901F901895D4
:100D90001F920F920FB60F9211240BB60F922F9342
:100DA0003F934F935F936F937F938F939F93AF93F3
:100DB000BF93EF93FF9387E694E001DBFF91EF9100
:100DC000BF91AF919F918F917F916F915F914F9163
:100DD0003F912F910F900BBE0F900FBE0F901F9061
:100DE00018951F920F920FB60F9211240BB60F9207
:100DF0002F933F934F935F936F937F938F939F9323
:100E0000AF93BF93EF93FF9387E694E076DAFF9179
:100E1000EF91BF91AF919F918F917F916F915F9172
:100E20004F913F912F910F900BBE0F900FBE0F90DF
:100E30001F9018951F920F920FB60F9211240BB6A8
:100E40000F922F933F934F935F936F937F938F9363
:100E50009F93AF93BF93EF93FF9384E095E0AFDA56
:100E6000FF91EF91BF91AF919F918F917F916F9182
:100E70005F914F913F912F910F900BBE0F900FBE3E
:100E80000F901F9018951F920F920FB60F9211247A
:100E90000BB60F922F933F934F935F936F937F9374
:100EA0008F939F93AF93BF93EF93FF9384E095E06D
:100EB00024DAFF91EF91BF91AF919F918F917F9134
:100EC0006F915F914F913F912F910F900BBE0F90BB
:100ED0000FBE0F901F9018953FB7F894809199031B
:100EE00090919A03A0919B03B0919C0326B5A89B77
:100EF00005C02F3F19F00196A11DB11D3FBFBA2FAC
:100F0000A92F982F8827820F911DA11DB11DBC010B
:100F1000CD0142E0660F771F881F991F4A95D1F7D0
:100F200008952FB7F894609195037091960380917E
:100F30009703909198032FBF08951F920F920FB6B9
:100F40000F9211242F933F938F939F93AF93BF934F
:100F50008091950390919603A0919703B091980387
:100F60003091940323E0230F2D3720F40196A11D27
:100F7000B11D05C026E8230F0296A11DB11D2093C7
:100F800094038093950390939603A0939703B09353
:100F900098038091990390919A03A0919B03B0913B
:100FA0009C030196A11DB11D8093990390939A0310
:100FB000A0939B03B0939C03BF91AF919F918F919E
:100FC0003F912F910F900FBE0F901F9018951F9279
:100FD0000F920FB60F9211240BB60F922F933F93DF
:100FE0004F935F936F937F938F939F93AF93BF9331
:100FF000EF93FF938091B900887F803609F49CC0FD
:1010000068F5883209F45BC090F4803109F454C06B
:1010100038F4882309F4F6C0883009F44DC0F5C0CF
:10102000883109F44CC0803209F45DC0EEC08034D0
:1010300009F468C048F4803309F455C0883309F0D6
:10104000E4C080937003D8C0803509F44FC0883560
:1010500009F45DC0883409F0D8C0D6C0883909F4D5
:10106000C7C0A8F4883709F467C038F4883609F493
:1010700063C0803709F460C0C8C0883809F4B8C0BC
:10108000803909F45FC0803809F0BFC05BC0803B85
:1010900009F486C038F4803A09F466C0883A09F445
:1010A0007FC0B3C0803C09F4A7C0883C09F4A4C049
:1010B000883B09F48AC0A9C08091930310C0909125
:1010C000920380919103981770F5E091920381E06B
:1010D0008E0F80939203F0E0EF58FC4F8081809355
:1010E000BB0085EC86C0809370038EC0E0919203B4
:1010F00081E08E0F809392038091BB00F0E0EF5867
:10110000FC4F808390919203809191036EC0E09197
:10111000920381E08E0F809392038091BB00F0E0F8
:10112000EF58FC4F808380919E0381116DC081E058
:1011300080939D0384EA61C083E080939F031092B3
:101140006F03CFCF80916F03803208F051C0E091E0
:101150006F0381E08E0F80936F038091BB00F0E0FE
:10116000E15BFC4F8083BDCF85EC8093BC00109287
:101170009F0380916F03803230F4E0916F03F0E0C1
:10118000E15BFC4F108260916F0370E0E091A4037B
:10119000F091A5038FE493E0199510926F0335C089
:1011A00084E080939F0310924E0310924D03E091D0
:1011B000A603F091A703199580914D03811105C0F5
:1011C00081E080934D0310922D03E0914E0381E066
:1011D0008E0F80934E03F0E0E35DFC4F808180939F
:1011E000BB0090914E0380914D03981708F479CF7E
:1011F00085E88093BC0009C085EC8093BC00109208
:101200009F0303C01092700376DAFF91EF91BF91B4
:10121000AF919F918F917F916F915F914F913F918E
:101220002F910F900BBE0F900FBE0F901F9018952F
:10123000CF92DF92EF92FF920F931F93CF93DF93A2
:101240006C017A018B01C0E0D0E0CE15DF0589F09A
:10125000D8016D918D01D601ED91FC910190F08145
:10126000E02DC6011995892B11F47E0102C021964B
:10127000ECCFC701DF91CF911F910F91FF90EF90BD
:10128000DF90CF900895FC01A089B18982E08C9312
:10129000A485B5851C92A685B7858FEC8C93108E9E
:1012A000A489B58986E08C93A289B3898C918061E9
:1012B0008C93A289B3898C9188608C93A289B3891D
:1012C0008C9180688C930288F389E02D80818F7DDA
:1012D000808308958F929F92AF92BF92CF92DF92B8
:1012E000EF92FF92F9DD4B015C0184E6C82ED12C10
:1012F000E12CF12CF1DDDC01CB0188199909AA0957
:10130000BB09883E9340A105B10558F021E0C21AFF
:10131000D108E108F10888EE880E83E0981EA11C30
:10132000B11CC114D104E104F10421F7FF90EF9046
:10133000DF90CF90BF90AF909F908F9008950097CF
:1013400061F0FC0101900020E9F73197AF01481BE3
:10135000590BBC0184E095E06BCF80E090E00895EC
:101360008F929F92AF92BF920F931F93CF93DF9371
:10137000CDB7DEB7A1970FB6F894DEBF0FBECDBFD5
:1013800019A2423008F44AE08E010F5D1F4F842EEF
:10139000912CA12CB12CA501940185D4E62FB90183
:1013A000CA0101501109EA3014F4E05D01C0E95CA2
:1013B000D801EC93232B242B252B69F7C801BFDF21
:1013C000A1960FB6F894DEBF0FBECDBFDF91CF91CF
:1013D0001F910F91BF90AF909F908F9008950F93A2
:1013E0001F93CF93DF93EC019CDD688779878A8711
:1013F0009B87E881F9810680F781E02DCE01199560
:1014000097FF16C08EDD088519852A853B85DC018E
:10141000CB01801B910BA20BB30B0C811D812E8184
:101420003F8180179107A207B30718F38FEF9FEF53
:10143000DF91CF911F910F910895CF93DF9300D04B
:101440001F92CDB7DEB7789484B5826084BD84B531
:10145000816084BD85B5826085BD85B5816085BDAF
:1014600080916E00816080936E0010928100809167
:1014700081008260809381008091810081608093EF
:101480008100809180008160809380008091B10014
:1014900084608093B1008091B00081608093B0003F
:1014A0008091910082608093910080919100816091
:1014B0008093910080919000816080939000809152
:1014C000A10082608093A1008091A100816080933F
:1014D000A1008091A00081608093A00080912101F3
:1014E000826080932101809121018160809321019C
:1014F0008091200181608093200180917A00846036
:1015000080937A0080917A00826080937A00809143
:101510007A00816080937A0080917A00806880935D
:101520007A001092C10061E08EE284D861E085E02B
:1015300081D861E086E07ED861E088E07BD861E018
:101540008CE278D861E083E075D89AEB90939000B4
:1015500089E1809391009093A0008093A1009093E3
:1015600020018093210180E89BEB909327018093D9
:1015700026019093A7008093A600909397008093F4
:10158000960080EC9DE590939D0080939C00909345
:101590002D0180932C0180E89EE39093A900809315
:1015A000A8009093990080939800909329018093CC
:1015B00028019093AD008093AC0084E095E063DE59
:1015C00087E694E060DE8AEC93E05DDE83DE0DE585
:1015D00012E0F80161918F018AEC93E00E94000211
:1015E000F2E008361F07A9F775DE02E512E0F80100
:1015F00061918F018AEC93E00E940002F2E00D35C8
:101600001F07A9F767DE07E412E0F80161918F0177
:101610008AEC93E00E940002F2E002351F07A9F76E
:1016200059DE0CE312E0F80161918F018AEC93E03E
:101630000E940002F2E007341F07A9F74BDE01E326
:1016400012E0F80161918F018AEC93E00E940002A0
:10165000F2E00C331F07A9F73DDE06E212E0F801C5
:1016600061918F018AEC93E00E940002F2E0013365
:101670001F07A9F72FDE0BE112E0F80161918F013E
:101680008AEC93E00E940002F2E006321F07A9F7FD
:1016900021DE20DE05E012E0F80161918F018AEC85
:1016A00093E00E940002F2E00B311F07A9F761E00E
:1016B0008EE10E941A0360E08FE10E941A0360E04D
:1016C0008EE10E94EB0283E08093020282E180932C
:1016D000BA0087E491E09093A7038093A60383E583
:1016E00091E09093A5038093A4031092A30310921A
:1016F000A2031092A1031092A00310929F0381E015
:1017000080939E0310929D0361E084E10E94EB02AE
:1017100061E085E10E94EB028091B9008E7F8093A9
:10172000B9008091B9008D7F8093B9008CE08093DF
:10173000B80085E48093BC0086E094E09093A90310
:101740008093A8038BE995E09093AB038093AA0361
:1017500001E012E0FBEBEF2EF1E0FF2EA5E7CA2E31
:10176000A1E0DA2EB0E88B2EBEE39B2E88E30E9428
:1017700056032091B6033091B7034091B8035091BE
:10178000B9034090B6035090B7036090B8037090CF
:10179000B903BC01990F880B990B29833A834B83BA
:1017A0005C834AD329813A814B815C81A6D22AE0AD
:1017B00037ED43E25CE39FD39B01AC01C301B2016F
:1017C0009DD26093B6037093B7038093B803909350
:1017D000B90386E30E9456032091BA033091BB03FC
:1017E0004091BC035091BD034090BA035090BB039D
:1017F0006090BC037090BD03BC01990F880B990BDE
:1018000029833A834B835C8317D329813A814B81A7
:101810005C8173D22AE037ED43E25CE36CD39B0139
:10182000AC01C301B2016AD26093BA037093BB03E7
:101830008093BC039093BD038CE30E9456032091D8
:10184000BE033091BF034091C0035091C10340904B
:10185000BE035090BF036090C0037090C103BC01F1
:10186000990F880B990B29833A834B835C83E4D2CD
:1018700029813A814B815C8140D22AE037ED43E2F5
:101880005CE339D39B01AC01C301B20137D2609351
:10189000BE037093BF038093C0039093C1038AE398
:1018A0000E9456032091C2033091C3034091C403A8
:1018B0005091C5034090C2035090C3036090C4038D
:1018C0007090C503BC01990F880B990B29833A834B
:1018D0004B835C83B1D229813A814B815C810DD2EB
:1018E0002AE037ED43E25CE306D39B01AC01C30180
:1018F000B20104D26093C2037093C3038093C40304
:101900009093C50387E30E9456032091C60330914C
:10191000C7034091C8035091C9034090C60350903B
:10192000C7036090C8037090C903BC01990F880B6E
:10193000990B29833A834B835C837ED229813A8138
:101940004B815C81DAD12AE037ED43E25CE3D3D20C
:101950009B01AC01C301B201D1D16093C603709366
:10196000C7038093C8039093C9038091B50388236C
:1019700009F495C04090AD035090AE036090AF0362
:101980007090B003411451046104710439F5C9DA4F
:10199000E091B503F0E0E859FD4F208120FD06C03D
:1019A000E8EC4E2E512C612C712C06C058E5452ECA
:1019B00052E0552E612C712CDC01CB01840D951D5C
:1019C000A61DB71D8093AD039093AE03A093AF0304
:1019D000B093B0031092AC0361E08CC0B090AC0344
:1019E000B0FE31C09EDA461657066806790608F042
:1019F00084C061E08EE10E94EB02B394B092AC032C
:101A000090DAE091B503F0E0E859FD4F208130E035
:101A1000B69402C035952795BA94E2F720FD06C02A
:101A200048EC442E512C612C712C06C038E5432E15
:101A300032E0532E612C712CDC01CB01840D951DFD
:101A4000A61DB71D23C06DDA46165706680679062F
:101A500008F053C060E08EE10E94EB0281E08B0D44
:101A60008093AC03883058F01092B5031092AD0308
:101A70001092AE031092AF031092B0033EC051DA41
:101A8000DC01CB018C599F4FAF4FBF4F8093AD030B
:101A90009093AE03A093AF03B093B0032EC0F801B0
:101AA0008491F701A490F601B490BB20A9F08111B4
:101AB0000E9495028B2D90E0880F991F845C9E4FA9
:101AC000FC01A591B4918C91A82291E080E009F4E9
:101AD00090E0A92EB82E02C0A12CB12C22DA6938D0
:101AE000734181059105B8F1AB28A9F5F5D9682FA7
:101AF000609561708EE10E94EB029091B403809139
:101B0000B303981749F08091B4038093B303109204
:101B1000B2031092B1031CC08091B1039091B20343
:101B200001969093B2038093B1038D32914080F07F
:101B30009092AD008092AC00909229018092280191
:101B400090929900809298009092A9008092A800AB
:101B50000E9467020BCE6091C6037091C70380910B
:101B6000C8039091C90321EC3CE54FE254E456D1FF
:101B7000181694F46091C6037091C7038091C8034E
:101B80009091C9032AEE3DE44FE354E44FD1682F0E
:101B9000661F6627661FAECF60E0ACCFEAECF3E0CD
:101BA0001382128288EE93E0A0E0B0E084839583F4
:101BB000A683B7832CE732E03183208345E351E0ED
:101BC0005587448744E351E05787468740E351E017
:101BD000518B408B41E351E0538B428B42E351E008
:101BE000558B448B46E351E0578B468B118E128EFA
:101BF000138E148EE7E6F4E01382128284839583B9
:101C0000A683B7833183208345ED50E05587448711
:101C100044ED50E05787468740ED50E0518B408BB4
:101C200041ED50E0538B428B42ED50E0558B448B9D
:101C300046ED50E0578B468B118E128E138E148E0C
:101C4000E4E0F5E01382128284839583A683B78350
:101C50003183208325EC30E03587248724EC30E085
:101C60003787268720EC30E0318B208B21EC30E069
:101C7000338B228B22EC30E0358B248B26EC30E04A
:101C8000378B268B118E128E138E148EE1EAF5E0BF
:101C90001382128284839583A683B7838CE892E0B3
:101CA000918380830895A1E21A2EAA1BBB1BFD011C
:101CB0000DC0AA1FBB1FEE1FFF1FA217B307E4072B
:101CC000F50720F0A21BB30BE40BF50B661F771F83
:101CD000881F991F1A9469F7609570958095909563
:101CE0009B01AC01BD01CF010895EE0FFF1F881FBE
:101CF0008BBF0790F691E02D19945058BB27AA2767
:101D00000ED073C164D130F069D120F031F49F3F1F
:101D100011F41EF459C10EF4E095E7FB4FC1E92F11
:101D200075D180F3BA17620773078407950718F017
:101D300071F49EF58DC10EF4E0950B2EBA2FA02DF7
:101D40000B01B90190010C01CA01A0011124FF2768
:101D5000591B99F0593F50F4503E68F11A16F04063
:101D6000A22F232F342F4427585FF3CF4695379562
:101D70002795A795F0405395C9F77EF41F16BA0B27
:101D8000620B730B840BBAF09150A1F0FF0FBB1FD5
:101D9000661F771F881FC2F70EC0BA0F621F731F1E
:101DA000841F48F4879577956795B795F7959E3F7B
:101DB00008F0B3CF9395880F08F09927EE0F979509
:101DC000879508952BD188F09F5790F0B92F9927C8
:101DD000B751A0F0D1F0660F771F881F991F1AF036
:101DE000BA95C9F712C0B13081F032D1B1E008958F
:101DF0002FC1672F782F8827B85F39F0B93FCCF310
:101E0000869577956795B395D9F73EF4909580952B
:101E1000709561957F4F8F4F9F4F089548D008F47C
:101E20008FEF089581E090E0F89419C140D008F454
:101E300081E00895E89409C097FB3EF49095809561
:101E4000709561957F4F8F4F9F4F9923A9F0F92F80
:101E500096E9BB279395F695879577956795B795FE
:101E6000F111F8CFFAF4BB0F11F460FF1BC06F5FE4
:101E70007F4F8F4F9F4F16C0882311F096E911C0F6
:101E8000772321F09EE8872F762F05C0662371F017
:101E900096E8862F70E060E02AF09A95660F771F2B
:101EA000881FDAF7880F9695879597F90895990F07
:101EB0000008550FAA0BE0E8FEEF16161706E80714
:101EC000F907C0F012161306E407F50798F0621B35
:101ED000730B840B950B39F40A2661F0232B242B0A
:101EE000252B21F408950A2609F4A140A6958FEF29
:101EF000811D811D08950BD078C069D028F06ED067
:101F000018F0952309F05AC05FC01124A2C07ED0FA
:101F1000A0F3959FD1F3950F50E0551F629FF001FC
:101F2000729FBB27F00DB11D639FAA27F00DB11D55
:101F3000AA1F649F6627B00DA11D661F829F2227DE
:101F4000B00DA11D621F739FB00DA11D621F839F65
:101F5000A00D611D221F749F3327A00D611D231F3B
:101F6000849F600D211D822F762F6A2F11249F5789
:101F700050408AF0E1F088234AF0EE0FFF1FBB1FAC
:101F8000661F771F881F91505040A9F79E3F51054B
:101F900070F014C05EC05F3FECF3983EDCF38695B2
:101FA00077956795B795F795E7959F5FC1F7FE2BF6
:101FB000880F911D9695879597F9089597F99F67D2
:101FC00080E870E060E008959FEF80EC08950024C1
:101FD0000A941616170618060906089500240A948E
:101FE00012161306140605060895092E0394000C14
:101FF00011F4882352F0BB0F40F4BF2B11F460FFA3
:1020000004C06F5F7F4F8F4F9F4F089557FD9058CB
:10201000440F551F59F05F3F71F04795880F97FBAC
:10202000991F61F09F3F79F0879508951216130666
:102030001406551FF2CF4695F1DF08C01616170695
:102040001806991FF1CF86957105610508940895CA
:10205000E894BB2766277727CB0197F90895F89472
:02206000FFCFB0
:10206200640F01B562B56206080600640001000152
:10207200007A12B562060800000E30B5620601034E
:1020820000F00500FF19B56206010300F00400FE2E
:1020920017B56206010300F00300FD15B5620601E3
:1020A2000300F00200FC13B56206010300F0010018
:1020B200FB11B56206010300F00000FA0FB56206DB
:1020C2000103000102010E470008090A0B0C0D0E64
:1020D2000F010203040506070000000000021809B0
:1020E200B8019601AA01460200000000ED03D903DF
:0E20F200D103BD03AE03AD0320000D0A0000B4
:00000001FF
