:1000000015C1000044C1000042C1000040C1000011
:100010003EC100003CC100003AC1000038C10000F0
:1000200036C1000034C1000032C1000030C1000000
:100030002EC100002CC100002AC1000028C1000010
:1000400026C1000024C1000022C1000020C1000020
:100050001EC100001CC100001AC100006BC60000D8
:1000600016C1000014C1000012C1000010C1000040
:100070000EC100000CC100000AC1000008C1000050
:1000800006C1000004C1000002C1000000C1000060
:10009000FEC00000FCC00000FAC0000095C60000D1
:1000A000F6C00000F4C00000F2C00000F0C0000084
:1000B000EEC00000ECC00000EAC00000E8C0000094
:1000C000E6C00000E4C00000E2C00000E0C00000A4
:1000D000DEC00000DCC0000074C1000049C10000A7
:1000E000D6C0000008040B04FA03FE030404420413
:1000F0000F04130419041D04210427042B042F04E6
:100100004204350439043D04000020002300260089
:1001100029002C002F00320000010000030106011D
:10012000090100000A0B02090C0D0E080703040167
:1001300000000000000000000000000000000000BF
:10014000000000000000000000000000000012118C
:10015000100000000000000000000000000000008F
:100160000000000000000000000021002400270023
:100170002A002D00300033000101000004010701B6
:100180000A010102102020080810204010204080A1
:10019000020102010804020101020408102040804B
:1001A00080402010080402018004020180402010D9
:1001B0000804020108040201010204081020408022
:1001C00001020408102040800000220025002800C1
:1001D0002B002E003100340002010000050108014F
:1001E0000B010505050507050808080802020202BB
:1001F0000A0A0808040404040101010101010101C3
:100200000303030303030303040707070C0C0C0C8D
:100210000C0C0C0C02020202060606060606060676
:100220000B0B0B0B0B0B0B0B7A106B1011241FBE5F
:10023000CFEFD1E2DEBFCDBF00E00CBF13E0A0E006
:10024000B2E0E4E4F8E200E00BBF02C007900D92D8
:10025000AC31B107D9F725E0ACE1B3E001C01D92A4
:10026000A830B207E1F711E0C5E1D1E000E006C037
:1002700021970109802FFE010E942A11C431D10764
:1002800080E00807A9F70E949D090C941114B8CECC
:1002900086E494E0EED021E0892B09F420E0822F5F
:1002A0000895EF92FF920F931F93CF93DF93EC018A
:1002B00081E0888F9B8D8C8D981305C0E889F98922
:1002C000808185FD23C0F62E0B8D10E00F5F1F4F40
:1002D0000F731127E02E8C8DE8120BC00FB607FCB0
:1002E000FACFE889F989808185FFF5CFCE0154D214
:1002F000F2CF8B8DFE01E80FF11DE35AFF4FF08224
:100300000B8FEA89FB898081806207C0EE89FF89B3
:100310006083E889F98980818064808381E090E04E
:10032000DF91CF911F910F91FF90EF900895CF93A0
:10033000DF93EC01888D8823C1F0EA89FB898081F5
:1003400085FD05C0A889B9898C9186FD0EC00FB6C0
:1003500007FCF5CF808185FFF2CFA889B9898C9100
:1003600085FFEDCFCE0118D2E8CFDF91CF91089570
:100370001F920F920FB60F9211240BB60F922F936C
:100380003F934F935F936F937F938F939F93AF931D
:10039000BF93EF93FF9386E494E0FED1FF91EF913A
:1003A000BF91AF919F918F917F916F915F914F918D
:1003B0003F912F910F900BBE0F900FBE0F901F908B
:1003C00018951F920F920FB60F9211240BB60F9231
:1003D0002F938F939F93EF93FF93E0915604F091A7
:1003E00057048081E0915C04F0915D0482FD12C0AD
:1003F000908180915F048F5F8F73209160048217DA
:1004000051F0E0915F04F0E0EA5BFB4F958F809341
:100410005F0401C08081FF91EF919F918F912F9197
:100420000F900BBE0F900FBE0F901F901895FC0100
:10043000918D828D981761F0828DDF01A80FB11D1B
:100440005D968C91928D9F5F9F73928F90E008953F
:100450008FEF9FEF0895FC01918D828D981731F0F9
:10046000828DE80FF11D858D90E008958FEF9FEF4D
:100470000895FC01918D228D892F90E0805C9F4F23
:10048000821B91098F739927089580E090E0892B52
:1004900041F080E090E0892B21F00E940000811162
:1004A00020C080E090E0892B41F080E090E0892B33
:1004B00021F00E940000811117C080E090E0892B9C
:1004C00041F080E090E0892B21F00E940000811132
:1004D0000EC080E090E0892B79F0DADE81110AC04D
:1004E00008950E940000DDCF0E940000E6CF0E9428
:1004F0000000EFCF0C940000089585ED8093BC00C0
:100500008091BC0084FDFCCF10921E0308954091A1
:10051000F603262F30E0240F311D21323105DCF4A3
:1005200020911E032430C9F4FC0180E090E086177E
:1005300058F43091F6032191DC01AA52BC4FA30F6D
:10054000B11D2C930196F3CF8091F603680F609351
:10055000F60380E0089581E0089582E00895E09137
:100560002703F0912803309729F01092200310926E
:100570001F0319940895CF93DF93AC01E0912903F1
:10058000F0912A033097F1F090912203809121039A
:100590009817C0F090E0292F30E02617370754F461
:1005A000D901AA54BC4FEA01C20FD31F88818C9392
:1005B0009F5FF1CF1092220360932103CB01DF9163
:1005C000CF911994DF91CF9108950895E09122037E
:1005D00080912103E81730F4F0E0EA54FC4F808169
:1005E00090E008958FEF9FEF0895909122038091FE
:1005F0002103981750F4E92FF0E0EA54FC4F2081D2
:1006000030E09F5F9093220302C02FEF3FEFC901BC
:1006100008958091210390E020912203821B91098B
:100620000895CF93DF931F921F92CDB7DEB7CB0112
:10063000642F49835A836BDF4981842F5A81952F18
:100640000F900F90DF91CF910895CF93DF931F927A
:10065000CDB7DEB7698361E0CE01019658DF81E056
:1006600090E00F90DF91CF91089580913B038F5FD1
:1006700080933B0380912502813009F457C020F01C
:10068000823009F46CC00895609143037091440373
:1006900080914503909146030E9497117093AD039A
:1006A0006093AC03609147037091480380914903C4
:1006B00090914A030E9497117093AF036093AE0329
:1006C00060914B0370914C0380914D0390914E03C8
:1006D0000E9497117093B1036093B00360914F0330
:1006E0007091500380915103909152030E94971191
:1006F0007093B3036093B2036091530370915403FA
:1007000080915503909156030E9497117093B50301
:100710006093B403E091E304F091E4040280F38178
:10072000E02D4AE050E06CEA73E024C080913C0385
:100730008093AB0310923C0380913E0381110AC069
:1007400080912302882331F090912302809124022A
:10075000981313C06091AB0383EE94E076CFE091E1
:10076000E304F091E4040280F381E02D4EE050E0D8
:100770006BE273E083EE94E01994809123028093FE
:10078000240282E0809325028091AB0382608093F3
:10079000AB03E0CF0E94F412FC01848DDF01A80FAF
:1007A000B11DA35ABF4F2C91848D90E001968F7399
:1007B0009927848FA689B7892C93A089B1898C91B8
:1007C00080648C93938D848D981306C00288F3897E
:1007D000E02D80818F7D8083089590E0FC0131972A
:1007E000E231F10508F04EC08827EE58FF4F8F4FD9
:1007F0000C942A11809180008F7703C08091800033
:100800008F7D80938000089580918000877FF9CF4D
:1008100084B58F7702C084B58F7D84BD08958091A3
:10082000B0008F7703C08091B0008F7D8093B000BF
:100830000895809190008F7707C0809190008F7D00
:1008400003C080919000877F8093900008958091ED
:10085000A0008F7707C08091A0008F7D03C080919A
:10086000A000877F8093A0000895809120018F775A
:1008700007C0809120018F7D03C080912001877F78
:100880008093200108951F93CF93DF93282F30E0AA
:10089000F901EE5DFE4F8491F901EE57FE4FD491C0
:1008A000F901EE51FE4FC491CC23C1F0162F8111F6
:1008B00094DFEC2FF0E0EE0FFF1FE853FE4FA59101
:1008C000B4918FB7F894111105C09C91ED2FE0956C
:1008D000E92302C0EC91ED2BEC938FBFDF91CF9118
:1008E0001F910895CF93DF9390E0FC01EE57FE4FE8
:1008F0002491FC01EE51FE4F8491882361F190E038
:10090000880F991FFC01E859FE4FC591D491FC0155
:10091000E853FE4FA591B491611109C09FB7F894B7
:100920008881209582238883EC912E230BC062302E
:1009300061F49FB7F8943881822F80958323888350
:10094000EC912E2B2C939FBF06C08FB7F894E881B3
:100950002E2B28838FBFDF91CF910895863308F027
:10096000865390917B00282F2870977F922B90932D
:100970007B0087702091000290E4299F9001112450
:10098000822B80937C0080917A00806480937A002F
:1009900080917A0086FDFCCF8091780020917900CB
:1009A00090E0922B08953FB7F89480914204909183
:1009B0004304A0914404B091450426B5A89B05C00A
:1009C0002F3F19F00196A11DB11D3FBFBA2FA92FCE
:1009D000982F8827820F911DA11DB11DBC01CD014B
:1009E00042E0660F771F881F991F4A95D1F7089537
:1009F0002FB7F89460913E0470913F0480914004B9
:100A0000909141042FBF08958F929F92AF92BF9211
:100A1000EF92FF920F931F93CF93DF93EC0180919E
:100A20003A038F5F80933A03C130D10531F483EEEE
:100A300094E0DBDD8093250272C10BE813E09E0198
:100A400025573C4F79010E151F0589F1D1DF6093C1
:100A5000EB047093EC048093ED049093EE04E0912A
:100A6000E304F091E4040680F781E02D83EE94E046
:100A7000199597FF29C0BCDF8090EB049090EC049F
:100A8000A090ED04B090EE04DC01CB018819990927
:100A9000AA09BB098090E7049090E804A090E904BB
:100AA000B090EA0488159905AA05BB05C0F220910B
:100AB0008B03822F8770813009F4CCC0833009F416
:100AC000E5C081111CC104C0F80181938F01BBCF27
:100AD00080918C0390918D0325952595259509F09E
:100AE00092C02091570321111AC18038FEE39F075D
:100AF00040F09C0181304DE7940728F020E03DE76D
:100B000002C020E83EE33093AD002093AC0020917A
:100B10008E0330918F0351E021386EE3360708F4DD
:100B200050E041E081389E4308F440E0452B2038F6
:100B3000FEE33F0740F0C90181302DE7920728F01E
:100B400080E09DE702C080E89EE3909329018093B6
:100B50002801809190039091910331E081386EE3F8
:100B6000960708F430E0342B8038EEE39E0738F027
:100B70008130FDE79F0728F080E09DE702C080E814
:100B80009EE39093990080939800809192039091B6
:100B9000930321E081384EE3940708F420E0232BEF
:100BA00080386EE3960738F08130EDE79E0728F035
:100BB00080E09DE702C080E89EE39093A9008093C7
:100BC000A8002223B9F080913F0390914003A091A7
:100BD0004103B0914203892B8A2B8B2B09F09FC0D4
:100BE00007DF60933F03709340038093410390932A
:100BF000420395C010923F031092400310924103AC
:100C0000109242038CC08038FEE39F0738F0813099
:100C10002DE7920728F080E09DE702C080E89EE380
:100C200090939D0080939C0080918E0390918F0300
:100C300080383EE3930738F081304DE7940728F081
:100C400080E09DE702C080E89EE390932D018093B1
:100C50002C0165C080918C038031ACF0803109F0AB
:100C60005EC060E089E10FDEC3DEDC01CB010A96E5
:100C7000A11DB11D8093580390935903A0935A036B
:100C8000B0935B034CC080933D0349C0822F022E7A
:100C9000000C990B33E0959587953A95E1F7809391
:100CA00039038091390390E0019730918C03FC0166
:100CB000EE0FFF1F8E0F9F1FFC01EE5FFD4F308375
:100CC0008091390390E0019730918D03FC01EE0F84
:100CD000FF1F8E0F9F1FFC01EE5FFD4F3183409180
:100CE000390350E04150510980918E03FA01EE0F13
:100CF000FF1F4E0F5F1FFA01EE5FFD4F82832797A4
:100D000071F423FB222720F920931C0286E0ECE8F3
:100D1000F3E0ADE1B2E001900D928A95E1F7DF9149
:100D2000CF911F910F91FF90EF90BF90AF909F9048
:100D30008F9008951F920F920FB60F9211242F9348
:100D40003F938F939F93AF93BF9380913E04909175
:100D50003F04A0914004B091410430913D0423E050
:100D6000230F2D3720F40196A11DB11D05C026E8E3
:100D7000230F0296A11DB11D20933D0480933E04D4
:100D800090933F04A0934004B093410480914204A7
:100D900090914304A0914404B09145040196A11D93
:100DA000B11D8093420490934304A0934404B093F4
:100DB0004504BF91AF919F918F913F912F910F90DB
:100DC0000FBE0F901F9018951F920F920FB60F92A3
:100DD00011240BB60F922F933F934F935F936F9312
:100DE0007F938F939F93AF93BF93EF93FF938091E4
:100DF000B900887F803609F49CC068F5883209F410
:100E00005BC090F4803109F454C038F4882309F4AD
:100E1000F6C0883009F44DC0F5C0883109F44CC0E3
:100E2000803209F45DC0EEC0803409F468C048F433
:100E3000803309F455C0883309F0E4C08093190465
:100E4000D8C0803509F44FC0883509F45DC08834B6
:100E500009F0D8C0D6C0883909F4C7C0A8F48837CB
:100E600009F467C038F4883609F463C0803709F4A0
:100E700060C0C8C0883809F4B8C0803909F45FC0C0
:100E8000803809F0BFC05BC0803B09F486C038F4ED
:100E9000803A09F466C0883A09F47FC0B3C0803C48
:100EA00009F4A7C0883C09F4A4C0883B09F48AC0AF
:100EB000A9C080913C0410C090913B0480913A04F9
:100EC000981770F5E0913B0481E08E0F80933B040E
:100ED000F0E0E65EFB4F80818093BB0085EC86C02E
:100EE000809319048EC0E0913B0481E08E0F8093C3
:100EF0003B048091BB00F0E0E65EFB4F8083909165
:100F00003B0480913A046EC0E0913B0481E08E0F77
:100F100080933B048091BB00F0E0E65EFB4F808352
:100F200080911D0381116DC081E080931C0384EAD0
:100F300061C083E080931E0310921804CFCF80918C
:100F40001804803208F051C0E091180481E08E0F3F
:100F5000809318048091BB00F0E0E850FC4F808340
:100F6000BDCF85EC8093BC0010921E0380911804C5
:100F7000803230F4E0911804F0E0E850FC4F108229
:100F80006091180470E0E0912303F091240388EF4E
:100F900093E019951092180435C084E080931E03E5
:100FA0001092F7031092F603E0912503F0912603C7
:100FB00019958091F603811105C081E08093F603B5
:100FC0001092D603E091F70381E08E0F8093F70330
:100FD000F0E0EA52FC4F80818093BB009091F703D0
:100FE0008091F603981708F479CF85E88093BC00C8
:100FF00009C085EC8093BC0010921E0303C01092C0
:1010000019047BDAFF91EF91BF91AF919F918F917E
:101010007F916F915F914F913F912F910F900BBEF8
:101020000F900FBE0F901F901895CF92DF92EF9206
:10103000FF920F931F93CF93DF936C017A018B0183
:10104000C0E0D0E0CE15DF0589F0D8016D918D01AB
:10105000D601ED91FC910190F081E02DC60119952A
:10106000892B11F47E0102C02196ECCFC701DF91DC
:10107000CF911F910F91FF90EF90DF90CF90089547
:101080000F931F93CF93DF93CDB7DEB729970FB69A
:10109000F894DEBF0FBECDBF8091F7049091F804A5
:1010A000892B09F49FC07FDC0091FD041091FE04A0
:1010B0002091FF0430910005DC01CB01801B910BD6
:1010C000A20BB30BC297A105B10568F3F894809108
:1010D000F3049091F4049A838983E091F704F091EA
:1010E000F804DF011196808189879091EF04E091E7
:1010F0000105F091020580910305992309F42EC0A2
:101100009081982B98879081809589238F838F81F8
:101110008C8388E08B8358856F8149853B812C8146
:1011200089819A81508347FD252F3A952083262F68
:1011300039F0441F00C000006083000000C0F2CFFF
:1011400038E04D9160830000019761F7F09302054C
:10115000E093010549873B832C8338C09081982B0D
:1011600098879081809589238F838F818E8388E0F3
:101170008D8358856F8149853D812E8189819A8132
:10118000508347FD252F00C000C0208300C000C051
:1011900000C000C000C060830000262F3A9541F0D7
:1011A000441F000000C000C000C000C000C0E8CF65
:1011B00038E04D9100C0608300C0019709F7F093BB
:1011C0000205E093010549873D832E839A83898335
:1011D0007894E9DB6093FD047093FE048093FF0430
:1011E0009093000529960FB6F894DEBF0FBECDBFD1
:1011F000DF91CF911F910F9108958F929F92AF929F
:10120000BF92CF92DF92EF92FF922091F104309142
:10121000F2048217930708F052C04B01AA24BB24A2
:10122000E82DC52ED62EE72EFF24FC2D342F20913D
:10123000F604222361F0829E40011124E92DC29E12
:1012400060011124FD2D429FD00111243B2FF0900D
:10125000FC04E090F904A091F704B091F804FE10AA
:1012600008C0AC01440F551F840F951F8A0F9B1FA8
:1012700014C0880F991F880F991F8A0F9B1F472F33
:10128000552766277727DC01AF0DB11D222321F0FA
:10129000429FA0011124452F4C932091F904DC01B9
:1012A000A20FB11DEC932091FA04DC01A20FB11D35
:1012B000FC932091FB04FC01E20FF11D3083FF90B1
:1012C000EF90DF90CF90BF90AF909F908F90089558
:1012D0008F929F92AF92BF92CF92DF92EF92FF9246
:1012E00062DB4B015C0184E6C82ED12CE12CF12C91
:1012F0005ADBDC01CB0188199909AA09BB09883E90
:101300009340A105B10558F021E0C21AD108E108C7
:10131000F10888EE880E83E0981EA11CB11CC11450
:10132000D104E104F10421F7FF90EF90DF90CF901A
:10133000BF90AF909F908F900895CF93DF9300D090
:101340001F92CDB7DEB7789484B5826084BD84B532
:10135000816084BD85B5826085BD85B5816085BDB0
:1013600080916E00816080936E0010928100809168
:1013700081008260809381008091810081608093F0
:101380008100809180008160809380008091B10015
:1013900084608093B1008091B00081608093B00040
:1013A0008091910082608093910080919100816092
:1013B0008093910080919000816080939000809153
:1013C000A10082608093A1008091A1008160809340
:1013D000A1008091A00081608093A00080912101F4
:1013E000826080932101809121018160809321019D
:1013F0008091200181608093200180917A00846037
:1014000080937A0080917A00826080937A00809144
:101410007A00816080937A0080917A00806880935E
:101420007A001092C10010923F0310924003109274
:1014300041031092420361E08EE254DA61E085E0FC
:1014400051DA61E086E04EDA61E088E04BDA61E093
:101450008CE248DA61E083E045DA9AEB9093900001
:1014600089E1809391009093A0008093A1009093D4
:1014700020018093210180E89BEB909327018093CA
:1014800026019093A7008093A600909397008093E5
:10149000960080EC9DE590939D0080939C00909336
:1014A0002D0180932C0180E89EE39093A900809306
:1014B000A8009093990080939800909329018093BD
:1014C00028019093AD008093AC00E0915604F09118
:1014D000570482E08083E0915204F091530410821B
:1014E000E0915404F09155048FEC808310925E04D7
:1014F000E0915A04F0915B0486E08083E091580407
:10150000F0915904808180618083E0915804F091CA
:101510005904808188608083E0915804F0915904D7
:10152000808180688083E0915804F0915904808123
:101530008F7D8083CDDE04E812E0F80161918F0198
:1015400086E494E00E945101F2E00F381F07A9F7EA
:10155000BFDE09E712E0F80161918F0186E494E0B3
:101560000E945101F2E004381F07A9F7B1DE0EE630
:1015700012E0F80161918F0186E494E00E9451012C
:10158000F2E009371F07A9F7A3DE03E612E0F8012E
:1015900061918F0186E494E00E945101F2E00E36E1
:1015A0001F07A9F795DE08E512E0F80161918F01A8
:1015B00086E494E00E945101F2E003361F07A9F788
:1015C00087DE0DE412E0F80161918F0186E494E07A
:1015D0000E945101F2E008351F07A9F779DE02E405
:1015E00012E0F80161918F0186E494E00E945101BC
:1015F000F2E00D341F07A9F76BDE6ADE0CE212E0A1
:10160000F80161918F0186E494E00E945101F2E0BB
:1016100002341F07A9F761E08EE164D960E08FE131
:1016200061D961E089E15ED960E08EE12CD961E0A9
:1016300089E129D983E08093000282E18093BA0096
:101640008FEA92E090932603809325038BEB92E040
:10165000909324038093230310922203109221037A
:101660001092200310921F0310921E0381E08093BA
:101670001D0310921C0361E084E105D961E085E15E
:1016800002D98091B9008E7F8093B9008091B90012
:101690008D7F8093B9008CE08093B80085E48093BF
:1016A000BC0085E393E0909328038093270384E0B4
:1016B00095E090932A03809329038091F50487FD98
:1016C00006C061E00FD960E08091F504DCD881E0CC
:1016D0008093F00400E010E040E051E060E070E052
:1016E000C8018BDD0F5F1F4F08301105A9F7C8DC5B
:1016F0009BE088E10FB6F894A895809360000FBE38
:101700009093600030E8832E3EE3932E41E4E42E74
:1017100041E0F42E51EAC52E51E0D52E61E0A62E0F
:1017200062E0B62E0FEF16E08091580390915903B6
:10173000A0915A03B0915B03892B8A2B8B2B79F0F4
:10174000409058035090590360905A0370905B0387
:101750004FD9461657066806790608F4FBC388E396
:10176000FDD8BC018091570391E0653E21E07207EE
:101770000CF090E0892B8093570320914303309124
:1017800044034091450350914603409043035090D9
:1017900044036090450370904603072E000C880BAD
:1017A000990B29833A834B835C8328D729813A811B
:1017B0004B815C8157D52AE037ED43E25CE37DD76E
:1017C0009B01AC01C301B2014ED5609343037093FA
:1017D0004403809345039093460386E3BFD8BC013E
:1017E0008091570391E06C3D41E074070CF090E06C
:1017F000892B8093570320914703309148034091F0
:10180000490350914A034090470350904803609029
:10181000490370904A03072E000C880B990B29830B
:101820003A834B835C83EAD629813A814B815C8180
:1018300019D52AE037ED43E25CE33FD79B01AC01C9
:10184000C301B20110D5609347037093480380939E
:10185000490390934A038CE381D8BC0180915703DC
:1018600091E06A36E1E07E070CF090E0892B8093EE
:10187000570320914B0330914C0340914D035091FD
:101880004E0340904B0350904C0360904D0370907A
:101890004E03072E000C880B990B29833A834B8348
:1018A0005C83ACD629813A814B815C81DBD42AE010
:1018B00037ED43E25CE301D79B01AC01C301B20108
:1018C000D2D460934B0370934C0380934D03909359
:1018D0004E038AE343D89C019091570381E0243B57
:1018E000F1E03F070CF080E0982B90935703822F94
:1018F00035D820914F0330915003409151035091BE
:10190000520340904F0350905003609051037090E9
:101910005203BC01990F880B990B29833A834B839F
:101920005C836CD629813A814B815C819BD42AE00F
:1019300037ED43E25CE3C1D69B01AC01C301B201C8
:1019400092D460934F03709350038093510390930C
:10195000520380915703882309F409C380913F0300
:1019600090914003A0914103B0914203892B8A2BAF
:101970008B2B09F4FCC23CD840903F0350904003AD
:101980006090410370904203DC01CB0184199509FA
:10199000A609B709893B9B40A105B10508F4E7C238
:1019A0009092AD008092AC00909229018092280123
:1019B00090929900809298009092A9008092A8003D
:1019C00087E30E94AE042091530330915403409169
:1019D0005503509156034090530350905403609028
:1019E000550370905603BC01990F880B990B2983FE
:1019F0003A834B835C8302D629813A814B815C8197
:101A000031D42AE037ED43E25CE357D69B01AC01C9
:101A1000C301B20128D4609353037093540380939D
:101A200055039093560386E494E00E943902892B73
:101A300009F4D7C081E080933E0386E494E00E94DD
:101A4000170220917F0330918003223031058CF4FE
:101A5000F901E157FD4F9081891329C0F901E3583D
:101A6000FC4F10822F5F3F4F3093800320937F0302
:101A70002FC02232310574F4F901E55AFC4F8083FE
:101A800090917D03980F90937D0340917E03940F76
:101A900090937E032F5F3F4F3093800320937F030B
:101AA0002332310549F490917D03891789F0109212
:101AB000800310927F030CC02432310509F088C0E6
:101AC0001092800310927F0390917E03891711F08A
:101AD00080E083C08091690390916A03A0916B03B9
:101AE000B0916C0380932F0390933003A093310344
:101AF000B09332038091650390916603A0916703D0
:101B0000B091680380932B0390932C03A0932D0333
:101B1000B0932E0380916D0390916E03A0916F039B
:101B2000B09170038093330390933403A0933503F3
:101B3000B09336034091790350917A0360917B030F
:101B400070917C03FAE07695679557954795FA95DD
:101B5000D1F74093790350937A0360937B0370939A
:101B60007C038091750390917603A0917703B091E7
:101B700078032AE0B695A795979587952A95D1F78A
:101B80008093750390937603A0937703B0937803C3
:101B90004F3F51056105710529F020F04FEF50E0EE
:101BA00060E070E0409338038F3F9105A105B105D7
:101BB00029F020F08FEF90E0A0E0B0E080933703B1
:101BC00080915C0391E0980F90935C03806805C05E
:101BD000253231050CF06BCF7BCF8093230210921E
:101BE0003E0380913D03882309F41EC180913D038B
:101BF00090910102981709F45AC080913D03809397
:101C00000102612C712C20913D03A0913D03809134
:101C10003D03189FC00111248F559D4FFC01808109
:101C20001A9FD0011124AF55BD4F11964C9150E031
:101C300060E070E0762F652F542F4427682B129FA9
:101C4000F0011124EF55FD4F8281482BC301D5DAF5
:101C500020913D03A0913D0380913D03189FC00159
:101C600011248F559D4FFC0183811A9FD0011124AF
:101C7000AF55BD4F14964C9150E060E070E0762F68
:101C8000652F542F4427682B129FF0011124EF5524
:101C9000FD4F8581482BC3010196AFDAF2E06F0E4C
:101CA000711C28E06216710409F0ADCFE9D92090CB
:101CB0008203309083034090840350908503211465
:101CC00031044104510449F50E94F804E0913D03B8
:101CD000F0E0EF56FD4F208120FD06C028EC422E9B
:101CE000512C612C712C06C0B8E54B2EB2E05B2E56
:101CF000612C712CDC01CB01840D951DA61DB71D37
:101D00008093820390938303A0938403B09385030D
:101D10001092810360911C020DC17090810370FECE
:101D200034C00E94F804261637064806590608F003
:101D300004C160911C028EE10E944304739470926E
:101D400081030E94F804E0913D03F0E0EF56FD4F5F
:101D5000208130E0769402C0359527957A94E2F799
:101D600020FD06C0A8EC4A2E512C612C712C06C017
:101D7000F8E54F2EF2E05F2E612C712CDC01CB01D7
:101D8000840D951DA61DB71D46C00E94F804261699
:101D900037064806590608F0D0C060E08EE10E9480
:101DA000430481E0870D80938103883060F11092B5
:101DB0003D031092820310928303109284031092C9
:101DC000850300930102612C712CF301EE0FFF1FBC
:101DD000E60DF71DEE5FFD4F82814181908150E05D
:101DE00060E070E0762F652F542F4427692B482B35
:101DF000C30103DA4FEF641A740A88E068167104AD
:101E000021F73ED99AC00E94F804DC01CB018C591D
:101E10009F4FAF4FBF4F8093820390938303A09354
:101E20008403B093850389C0F7018491F60164901F
:101E3000F50174907720A1F081110E94ED03E72D48
:101E4000F0E0EE0FFF1FE85FFE4FA591B4918C917B
:101E5000682231E020E009F430E0832F922F02C0A5
:101E600080E090E0F1E08F2781708093890390916A
:101E70003C03892B80933C030E94F804693873412A
:101E800081059105B8F180918903882399F10E9419
:101E9000D30480958170582E612C712C8091220280
:101EA000552029F0409121029091200204C04091D8
:101EB00020029091210250E060E070E0762F652FC3
:101EC000542F4427692B482BC30197D94FEF641A2D
:101ED000740A88E06816710409F7D2D880911C0250
:101EE000882321F0652D8EE10E94430481E08093D8
:101EF000880323C06091530370915403809155036C
:101F00009091560321EC3CE54FE254E43CD2181684
:101F10008CF5609153037091540380915503909117
:101F200056032AEE3DE44FE354E462D3682F661F64
:101F30006627661F8EE10E94430490913B038091C7
:101F40001B029817C9F090913A0380911A029813D6
:101F5000B5C012C0109258031092590310925A0340
:101F600010925B0361E089E10E944304F8CB109278
:101F7000570326CD60E0DECF8091860390918703E2
:101F8000019690938703809386038D32914058F198
:101F90009092AD008092AC0090922901809228012D
:101FA00090929900809298009092A9008092A80047
:101FB000612C712C80911F0240911E0290911D0294
:101FC00050E060E070E0762F652F542F4427692B96
:101FD000482BC30112D9EFEF6E1A7E0AF8E06F1694
:101FE000710441F74DD880918803882329F18091AD
:101FF0008903811121C0612C712CF301EE0FFF1FA9
:10200000E60DF71DEE5FFD4F82814181908150E02A
:1020100060E070E0762F652F542F4427692B482B02
:10202000C301EBD82FEF621A720A48E064167104FC
:1020300021F726D810928803809139038823D1F1A3
:10204000809139038150809339038091390390E066
:10205000FC01EE0FFF1F8E0F9F1FFC01EE5FFD4F77
:1020600022818091390390E0FC01EE0FFF1F8E0F5B
:102070009F1FFC01EE5FFD4F41818091390390E08D
:10208000FC01EE0FFF1F8E0F9F1FFC01EE5FFD4F47
:1020900090818091390350E060E070E0762F652FE9
:1020A000542F4427692B422B90E0A7D80E94400868
:1020B00010923903A8950E94450236CB80913B03CC
:1020C00080931B0280913A0380931A021092870337
:1020D0001092860388CF8091F7049091F8040097BE
:1020E00009F0EAD18091F50487FD03C060E00C940B
:1020F00072040895109249041092480488EE93E007
:10210000A0E0B0E080934A0490934B04A0934C0469
:10211000B0934D042FEF32E03093470420934604F0
:1021200025E331E0309353042093520424E331E05B
:10213000309355042093540420E331E03093570446
:102140002093560421E331E030935904209358043E
:1021500022E331E030935B0420935A0426E331E01C
:1021600030935D0420935C0410925F04109260042D
:1021700010926104109262041092E6041092E50439
:102180008093E7049093E804A093E904B093EA04F1
:102190008FE093E09093E4048093E3041092F004C2
:1021A0001092F6041092FD041092FE041092FF04A7
:1021B0001092000581E08093FC048093F904109252
:1021C000FA0492E09093FB048093EF0488E190E09E
:1021D0009093F4048093F304DAD09093F8048093FE
:1021E000F704009761F028E1FC0111922A95E9F7C4
:1021F00088E090E09093F2048093F10408C010927C
:10220000F4041092F3041092F2041092F1048BE1A2
:102210008093F5048091F004882341F061E08BE124
:102220000E94720460E08BE10E944304EDEFF1E054
:10223000E491F0E0EE0FFF1FE853FE4F859194917B
:102240009093020580930105EDE9F1E0E491E093BC
:1022500003050895EE0FFF1F881F8BBF0790F691AF
:10226000E02D19945058BB27AA270ED0A0C291D2B6
:1022700030F096D220F031F49F3F11F41EF486C264
:102280000EF4E095E7FB7CC2E92FA2D280F3BA17E7
:10229000620773078407950718F071F49EF5BAC2B8
:1022A0000EF4E0950B2EBA2FA02D0B01B901900171
:1022B0000C01CA01A0011124FF27591B99F0593FB5
:1022C00050F4503E68F11A16F040A22F232F342FFD
:1022D0004427585FF3CF469537952795A795F0404B
:1022E0005395C9F77EF41F16BA0B620B730B840B60
:1022F000BAF09150A1F0FF0FBB1F661F771F881F18
:10230000C2F70EC0BA0F621F731F841F48F487956F
:1023100077956795B795F7959E3F08F0B3CF93955E
:10232000880F08F09927EE0F97958795089558D252
:1023300088F09F5790F0B92F9927B751A0F0D1F0AE
:10234000660F771F881F991F1AF0BA95C9F712C038
:10235000B13081F05FD2B1E008955CC2672F782F71
:102360008827B85F39F0B93FCCF3869577956795A4
:10237000B395D9F73EF490958095709561957F4F10
:102380008F4F9F4F089575D108F48FEF0895CF9325
:10239000DF938230910510F482E090E0E091060531
:1023A000F091070520E030E0C0E0D0E0309711F177
:1023B0004081518148175907C0F04817590761F407
:1023C00082819381209719F09B838A832BC09093FD
:1023D00007058093060526C02115310519F042171F
:1023E000530718F49A01BE01DF01EF010280F38167
:1023F000E02DDCCF2115310509F1281B390B2430E4
:10240000310590F412968D919C9113976115710589
:1024100021F0FB019383828304C09093070580938E
:102420000605FD01329644C0FD01E20FF31F8193C2
:102430009193225031092D933C933AC02091040589
:1024400030910505232B41F4209128023091290277
:102450003093050520930405209126023091270230
:102460002115310541F42DB73EB740912A02509114
:102470002B02241B350BE0910405F0910505E217B2
:10248000F307A0F42E1B3F0B2817390778F0AC0197
:102490004E5F5F4F2417350748F04E0F5F1F509374
:1024A0000505409304058193919302C0E0E0F0E0BC
:1024B000CF01DF91CF9108950F931F93CF93DF93B7
:1024C000009709F48CC0FC013297138212820091AC
:1024D0000605109107050115110581F42081318150
:1024E000820F931F209104053091050528173907A5
:1024F00079F5F0930505E093040571C0D80140E03B
:1025000050E0AE17BF0750F412962D913C911397EF
:10251000AD012115310509F1D901F3CF9D01DA0192
:102520003383228360817181860F971F82179307FF
:1025300069F4EC0128813981260F371F2E5F3F4F48
:10254000318320838A819B8193838283452B29F465
:10255000F0930705E093060542C01396FC93EE93B3
:102560001297ED01499159919E01240F351FE217F1
:10257000F30771F480819181840F951F0296119663
:102580009C938E938281938113969C938E93129742
:10259000E0E0F0E0D80112968D919C91139700979E
:1025A00019F0F8018C01F6CF8D919C9198012E5F66
:1025B0003F4F820F931F2091040530910505281786
:1025C000390769F4309729F410920705109206052F
:1025D00002C0138212821093050500930405DF9157
:1025E000CF911F910F91089581E090E0F89419C167
:1025F00040D008F481E00895E89409C097FB3EF4C8
:1026000090958095709561957F4F8F4F9F4F99233F
:10261000A9F0F92F96E9BB279395F69587957795BD
:102620006795B795F111F8CFFAF4BB0F11F460FF7D
:102630001BC06F5F7F4F8F4F9F4F16C0882311F0D5
:1026400096E911C0772321F09EE8872F762F05C0E9
:10265000662371F096E8862F70E060E02AF09A9584
:10266000660F771F881FDAF7880F9695879597F979
:102670000895990F0008550FAA0BE0E8FEEF161613
:102680001706E807F907C0F012161306E407F50766
:1026900098F0621B730B840B950B39F40A2661F0DA
:1026A000232B242B252B21F408950A2609F4A1407D
:1026B000A6958FEF811D811D08950BD078C069D03C
:1026C00028F06ED018F0952309F05AC05FC011248D
:1026D000A2C07ED0A0F3959FD1F3950F50E0551F77
:1026E000629FF001729FBB27F00DB11D639FAA2767
:1026F000F00DB11DAA1F649F6627B00DA11D661FB6
:10270000829F2227B00DA11D621F739FB00DA11DD6
:10271000621F839FA00D611D221F749F3327A00D90
:10272000611D231F849F600D211D822F762F6A2F2C
:1027300011249F5750408AF0E1F088234AF0EE0FB1
:10274000FF1FBB1F661F771F881F91505040A9F7BE
:102750009E3F510570F014C05EC05F3FECF3983EA1
:10276000DCF3869577956795B795F795E7959F5F25
:10277000C1F7FE2B880F911D9695879597F90895BF
:1027800097F99F6780E870E060E008959FEF80EC24
:10279000089500240A9416161706180609060895C7
:1027A00000240A9412161306140605060895092E2D
:1027B0000394000C11F4882352F0BB0F40F4BF2B9C
:1027C00011F460FF04C06F5F7F4F8F4F9F4F0895DC
:1027D00057FD9058440F551F59F05F3F71F04795D2
:1027E000880F97FB991F61F09F3F79F087950895B7
:1027F000121613061406551FF2CF4695F1DF08C0D6
:10280000161617061806991FF1CF869571056105F2
:1028100008940895E894BB2766277727CB0197F99A
:10282000089511E0C5E1D1E000E005C0802FFE0170
:1028300011DD2196011DC631D10780E00807B1F7EF
:04284000F894FFCF3A
:1028440001FF00010000010000010000010000017F
:1028540000000100000100000100FFFF0101000071
:10286400FF000064640F000008058000B5620608DC
:1028740006006400010001007A12B5620608000037
:102884000E30B56206010300F00500FF19B56206BB
:10289400010300F00400FE17B56206010300F00313
:1028A40000FD15B56206010300F00200FC13B562D9
:1028B40006010300F00100FB11B56206010300F0FC
:1028C4000000FA0FB562060103000102010E47B5CC
:1028D400620008090A0B0C0D0E0F01020304050621
:1028E4000700000000000064000000000064000015
:1028F4000064006400000064006400006464006418
:102904006400000000646400006400646400640007
:1029140000646400646400000000006400000000BF
:1029240064640000640000000000640000640000AF
:10293400640064000000640064640000000000514E
:10294400011508390217022B029701000000002527
:0C2954000311030903F502E602E502008E
:020000023000CC
:10E000000D9489F10D94B2F10D94B2F10D94B2F129
:10E010000D94B2F10D94B2F10D94B2F10D94B2F1F0
:10E020000D94B2F10D94B2F10D94B2F10D94B2F1E0
:10E030000D94B2F10D94B2F10D94B2F10D94B2F1D0
:10E040000D94B2F10D94B2F10D94B2F10D94B2F1C0
:10E050000D94B2F10D94B2F10D94B2F10D94B2F1B0
:10E060000D94B2F10D94B2F10D94B2F10D94B2F1A0
:10E070000D94B2F10D94B2F10D94B2F10D94B2F190
:10E080000D94B2F10D94B2F10D94B2F10D94B2F180
:10E090000D94B2F10D94B2F10D94B2F10D94B2F170
:10E0A0000D94B2F10D94B2F10D94B2F10D94B2F160
:10E0B0000D94B2F10D94B2F10D94B2F10D94B2F150
:10E0C0000D94B2F10D94B2F10D94B2F10D94B2F140
:10E0D0000D94B2F10D94B2F10D94B2F10D94B2F130
:10E0E0000D94B2F141546D656761323536300041AF
:10E0F000726475696E6F206578706C6F72657220DE
:10E1000073746B3530305632206279204D4C530099
:10E11000426F6F746C6F616465723E004875683F52
:10E1200000436F6D70696C6564206F6E203D200048
:10E130004350552054797065202020203D20005FF9
:10E140005F4156525F415243485F5F3D2000415658
:10E1500052204C696243205665723D20004743437C
:10E160002056657273696F6E203D20004350552024
:10E1700049442020202020203D20004C6F7720663D
:10E18000757365202020203D20004869676820665F
:10E190007573652020203D200045787420667573D6
:10E1A00065202020203D20004C6F636B2066757336
:10E1B000652020203D20004D617220203720323024
:10E1C000313300312E362E3800342E332E350056A2
:10E1D00023202020414444522020206F7020636F70
:10E1E00064652020202020696E73747275637469E1
:10E1F0006F6E2061646472202020496E74657272B3
:10E20000757074006E6F20766563746F7200726A49
:10E210006D702020006A6D70200057686174207056
:10E220006F72743A00506F7274206E6F7420737541
:10E2300070706F72746564004D7573742062652030
:10E2400061206C6574746572002000577269747483
:10E25000696E672045450052656164696E672045B7
:10E26000450045452065727220636E743D00504F35
:10E27000525400303D5A65726F2061646472003FF1
:10E280003D43505520737461747300403D454550C3
:10E29000524F4D207465737400423D426C696E6B41
:10E2A000204C454400453D44756D70204545505215
:10E2B0004F4D00463D44756D7020464C415348001B
:10E2C000483D48656C70004C3D4C69737420492F83
:10E2D0004F20506F72747300513D51756974005234
:10E2E0003D44756D702052414D00563D73686F7707
:10E2F00020696E7465727275707420566563746FF0
:10E30000727300593D506F727420626C696E6B00BD
:10E310002A0011241FBECFEFD1E2DEBFCDBF01E046
:10E320000CBF12E0A0E0B2E0EEE1FDEF03E00BBFB6
:10E3300002C007900D92A030B107D9F712E0A0E01B
:10E34000B2E001C01D92AE30B107E1F70F9460F367
:10E350000D948DFE01E20EBF0FEF0DBF11241FBE05
:10E360000D9460F30D9400F020E030E040ED57E0B4
:10E3700005C0FA013197F1F72F5F3F4F2817390792
:10E38000C0F308959C01260F311DC901A0E0B0E043
:10E390002F5F3F4FABBFFC018791882361F08093D3
:10E3A000C6008091C00086FFFCCF8091C0008064D1
:10E3B0008093C000EACF08958DE08093C6008091DD
:10E3C000C00086FFFCCF8091C00080648093C000B5
:10E3D0008AE08093C6008091C00086FFFCCF8091C8
:10E3E000C00080648093C00008950F94C2F10F9420
:10E3F000DCF10895FC019081992359F09093C600B7
:10E400008091C00086FFFCCF8091C0008064809323
:10E41000C0003196992379F70895282F982F929567
:10E420009F70892F805D8A3308F0895F8093C600D2
:10E430008091C00086FFFCCF8091C00080648093F3
:10E44000C000822F8F70982F905D9A3308F0995FEB
:10E450009093C6008091C00086FFFCCF8091C000E1
:10E4600080648093C00008959C01FB01853691056E
:10E470001CF46330710594F0C90164E670E00F94F8
:10E480002EFE605D7F4F6093C6008091C00086FFC6
:10E49000FCCF8091C00080648093C0002B30310598
:10E4A00014F43297B4F0C90164E670E00F942EFEC4
:10E4B0006AE070E00F942EFE605D7F4F6093C600AF
:10E4C0008091C00086FFFCCF8091C0008064809363
:10E4D000C000C9016AE070E00F942EFEC0968093E0
:10E4E000C6008091C00086FFFCCF8091C000806490
:10E4F0008093C00008951F93182F8EE692EE60E07F
:10E500000F94C2F11093C6008091C00086FFFCCF2B
:10E510008091C00080648093C0000F94DCF11F9153
:10E5200008952F923F924F925F926F927F928F92B7
:10E530009F92AF92BF92CF92DF92EF92FF920F9392
:10E540001F93DF93CF93CDB7DEB762970FB6F894E2
:10E55000DEBF0FBECDBF382E622ECA01DB015C01CB
:10E560006D01772420E2222E2E010894411C511CBB
:10E570008BC081E0A81680E0B80681E0C80680E084
:10E58000D80628F0C601AA27BB270F940DF2BB2797
:10E59000AD2D9C2D8B2D0F940DF28A2D0F940DF225
:10E5A0002092C6008091C00086FFFCCF8091C00001
:10E5B00080648093C0009DE29093C6008091C0006B
:10E5C00086FFFCCF8091C00080648093C0002092C1
:10E5D000C6008091C00086FFFCCF8091C00080649F
:10E5E0008093C00019828601750188249924A1E0D6
:10E5F0003A1651F03A1620F0B2E03B1661F409C029
:10E600000BBFF701779007C0C7010F9477FE782EF4
:10E6100002C0F7017080872D0F940DF22092C60082
:10E620008091C00086FFFCCF8091C0008064809301
:10E63000C000872D8052F401EF70F0708F3520F408
:10E64000E40DF51D708204C0E40DF51D8EE280839B
:10E650000894E11CF11C011D111D0894811C911CE2
:10E6600090E18916910409F0C2CF80E190E0A0E02A
:10E67000B0E0A80EB91ECA1EDB1E198AC2010F9493
:10E68000FAF10F94DCF16A94662009F072CF629679
:10E690000FB6F894DEBF0FBECDBFCF91DF911F91B3
:10E6A0000F91FF90EF90DF90CF90BF90AF909F9031
:10E6B0008F907F906F905F904F903F902F90089534
:10E6C0002F923F924F925F926F927F928F929F9282
:10E6D000AF92BF92CF92DF92EF92FF920F931F9370
:10E6E000DF93CF93CDB7DEB7CD53D1400FB6F894BB
:10E6F000DEBF0FBECDBF01E20EBF0FEF0DBF94B75F
:10E70000F894A89514BE80916000886180936000A1
:10E7100010926000789493FF05C0E0910002F091A0
:10E7200001021995279A2F9A8091C00082608093E8
:10E73000C00080E18093C40088E18093C1000000A4
:10E74000EE24FF24870144E0A42EB12CCC24DD2448
:10E7500024C0C5010197F1F70894E11CF11C011DCB
:10E76000111D21E2E2162EE4F20620E0020720E06D
:10E77000120718F031E0C32ED12CC801B70127ECE5
:10E780003BE140E050E00F9441FE611571058105C9
:10E79000910519F485B1805885B98091C00087FD35
:10E7A00003C0C114D104A9F2A6014F5F5F4FC25E3E
:10E7B000DE4F59834883CE51D140C25EDE4F8881FF
:10E7C0009981CE51D140019711F00D9410FEC05D9A
:10E7D000DE4F19821882C053D14060E0C15DDE4F28
:10E7E0001882CF52D14088249924C35DDE4F19820C
:10E7F0001882CD52D140C05EDE4F188219821A8233
:10E800001B82C052D140CE5CDE4F188219821A8220
:10E810001B82C253D140EE24FF2487010BBFF701B6
:10E8200007911691C45CDE4F19830883CC53D14005
:10E830000D940BFEC25EDE4F28813981CE51D1404E
:10E840002130310509F52091C600C25EDE4F1982E4
:10E850001882CE51D14022C02F5F3F4F4F4F5F4FA4
:10E86000213082E138078AE7480780E0580780F0C6
:10E87000C45CDE4FE881F981CC53D140EF5FFF4F9C
:10E8800019F0EE27FF27099420E030E040E050E047
:10E890008091C00087FFE0CF2091C600C35DDE4FAE
:10E8A00048815981CD52D1404F5F5F4FC35DDE4FEC
:10E8B00059834883CD52D140213209F063C64A3092
:10E8C000510508F05FC60894811C911C53E0851621
:10E8D000910409F059C600E010E018C081E280936D
:10E8E000C6008091C00086FFFCCF8091C00080648C
:10E8F0008093C0002F5F3F4F2931310579F70F9486
:10E90000DCF10F5F1F4F0530110519F020E030E0FA
:10E91000E5CF10920A0210920B0210920C02109294
:10E920000D02109206021092070210920802109235
:10E930000902109202021092030210920402109235
:10E9400005028FEE90EE60E00F94F5F180E191EE1C
:10E9500060E00F94C2F18091C00087FFFCCF9091DE
:10E96000C600903608F09F759032B8F09093C600BC
:10E970008091C00086FFFCCF8091C00080648093AE
:10E98000C000A0E2A093C6008091C00086FFFCCF2B
:10E990008091C00080648093C000983409F4D7C18E
:10E9A0009934B8F4923409F459C1933458F490333B
:10E9B00019F1903308F4E3C59F33A1F1903409F0C5
:10E9C000DEC5BDC0953409F470C1963409F0D7C5D1
:10E9D00098C1923509F42BC2933538F49C3409F46C
:10E9E000F5C1913509F0CBC518C2963509F445C279
:10E9F000993509F0C4C567C483E792EE62E00F94CD
:10EA0000F5F110920602109207021092080210927D
:10EA1000090210920A0210920B0210920C0210923C
:10EA20000D0213C18FE792EE62E00F94F5F18FEEC5
:10EA300090EE60E00F94F5F181E291EE60E00F94CA
:10EA4000C2F187EB91EE60E00F94F5F180E391EE77
:10EA500060E00F94C2F184EE90EE60E00F94F5F167
:10EA60008FE391EE60E00F94C2F186E090E061E008
:10EA700070E00F9434F20F94DCF18DE591EE60E0DC
:10EA80000F94C2F189EC91EE60E00F94F5F18EE401
:10EA900091EE60E00F94C2F183EC91EE60E00F9490
:10EAA000F5F18CE691EE60E00F94C2F18EE10F94E7
:10EAB0000DF288E90F940DF281E00F940DF20F949E
:10EAC000DCF18BE791EE60E00F94C2F119E0E0E039
:10EAD000F0E010935700E4918E2F0F940DF20F94F5
:10EAE000DCF18AE891EE60E00F94C2F1E3E0F0E03F
:10EAF00010935700E4918E2F0F940DF20F94DCF1D8
:10EB000089E991EE60E00F94C2F1E2E0F0E0109349
:10EB10005700E4918E2F0F940DF20F94DCF188EAE8
:10EB200091EE60E00F94C2F1E1E0F0E01093570045
:10EB30001491812F0F940DF20F94DCF107CF8BE825
:10EB400092EE62E00F94F5F18BE492EE60E00F94A8
:10EB5000F5F10F94DCF100E010E019C0C8016F2D51
:10EB60000F947FFEFF2031F489E492EE60E00F9471
:10EB7000C2F10BC0F092C6008091C00086FFFCCFAE
:10EB80008091C00080648093C0000F5F1F4FC80158
:10EB900081519F41A0E0B0E0ABBFFC01F790BAE229
:10EBA000FB1621F0E2E000301E07C1F60F94DCF105
:10EBB0000F94DCF187E592EE60E00F94F5F10F948D
:10EBC000DCF1CC24DD2400E010E01EC0C8010F946D
:10EBD00077FEF82E882331F489E492EE60E00F94FA
:10EBE000C2F10BC08093C6008091C00086FFFCCFAD
:10EBF0008091C00080648093C000FE1419F00894D6
:10EC0000C11CD11C0F5F1F4FC80181519F41A0E063
:10EC1000B0E0ABBFFC01E790FAE2EF1621F022E092
:10EC20000030120799F60F94DCF10F94DCF182E6C4
:10EC300092EE60E00F94C2F1C60161E070E00F94C3
:10EC400034F20F94DCF10F94DCF110920202109276
:10EC50000302109204021092050278CE89E992EE26
:10EC600062E00F94F5F1279A2F9A16C02F9880E052
:10EC700090E0E0EDF7E03197F1F7019684369105E9
:10EC8000C1F72F9A80E090E0E0EDF7E03197F1F7DF
:10EC9000019684369105C1F78091C00087FFE6CFC9
:10ECA0008091C00087FFFCCF64C485EA92EE62E0E9
:10ECB0000F94F5F140910202509103026091040219
:10ECC0007091050281E020E10F9491F2809102029F
:10ECD00090910302A0910402B091050280509F4FD1
:10ECE000AF4FBF4F8093020290930302A0930402A0
:10ECF000B093050280509041A040B04008F426CE69
:10ED0000A4CF83EB92EE62E00F94F5F140910602FE
:10ED100050910702609108027091090280E020E1A1
:10ED20000F9491F28091060290910702A09108023F
:10ED3000B091090280509F4FAF4FBF4F80930602A2
:10ED400090930702A0930802B0930902FFCD80ECD4
:10ED500092EE62E00F94F5F183E792EE60E00F949B
:10ED6000F5F18FE792EE60E00F94F5F18BE892EE0B
:10ED700060E00F94F5F189E992EE60E00F94F5F10F
:10ED800085EA92EE60E00F94F5F183EB92EE60E09D
:10ED90000F94F5F180EC92EE60E00F94F5F187ECC2
:10EDA00092EE60E00F94F5F188ED92EE60E00F9442
:10EDB000F5F18FED92EE60E00F94F5F18AEE92EEB0
:10EDC00060E00F94F5F183E093EEBDCD87EC92EE19
:10EDD00062E00F94F5F181E40F947BF282E40F94EA
:10EDE0007BF283E40F947BF284E40F947BF285E45E
:10EDF0000F947BF286E40F947BF287E40F947BF20E
:10EE000088E40F947BF28AE40F947BF28BE40F94F6
:10EE10007BF28CE40F947BF299CD88ED92EE62E068
:10EE20000F94F5F1772473948824992409C48FED05
:10EE300092EE62E00F94F5F140910A0250910B02BC
:10EE400060910C0270910D0282E020E10F9491F22A
:10EE500080910A0290910B02A0910C02B0910D02D8
:10EE600080509F4FAF4FBF4F80930A0290930B0289
:10EE7000A0930C02B0930D0269CD8AEE92EE62E08F
:10EE80000F94F5F184EE90EE60E00F94F5F18FECC5
:10EE900091EE60E00F94F5F1662477244301CC5D98
:10EEA000DE4F19821882C452D140D401C301B695F5
:10EEB000A79597958795CA5DDE4F88839983AA8326
:10EEC000BB83C652D140CC5DDE4FA881B981C4520C
:10EED000D1401196CC5DDE4FB983A883C452D14096
:10EEE000CD0162E070E00F9434F2B0E2B093C6005E
:10EEF0008091C00086FFFCCF8091C0008064809329
:10EF0000C000EDE2E093C6008091C00086FFFCCF18
:10EF10008091C00080648093C000F0E2F093C6004E
:10EF20008091C00086FFFCCF8091C00080648093F8
:10EF3000C000CA5DDE4FE880F9800A811B81C6529D
:10EF4000D140BB27A12F902F8F2D0F940DF2CA5DBA
:10EF5000DE4F8881C652D1400F940DF2B0E2FB2EF5
:10EF6000F092C6008091C00086FFFCCF8091C00067
:10EF700080648093C0000DE30093C6008091C000C0
:10EF800086FFFCCF8091C00080648093C00010E2B7
:10EF90001093C6008091C00086FFFCCF8091C00016
:10EFA00080648093C0008BBEF3012791C65DDE4F65
:10EFB0002883CA52D140A22EBB24CC24DD2408943D
:10EFC000611C711C811C911C8BBEF3018791282E42
:10EFD0003324442455240894611C711C811C911C09
:10EFE0008BBEF3013791C55DDE4F3883CB52D140E4
:10EFF0000894611C711C811C911C8BBEF30147910C
:10F00000C45DDE4F4883CC52D140ADEFEA2EAFEF66
:10F01000FA2EAFEF0A2FAFEF1A2F6E0C7F1C801E57
:10F02000911E142D032DF22CEE24EA0CFB1C0C1D5A
:10F030001D1D0F940DF220E22093C6008091C000A8
:10F0400086FFFCCF8091C00080648093C000C65DC5
:10F05000DE4F8881CA52D1400F940DF230E23093D6
:10F06000C6008091C00086FFFCCF8091C000806404
:10F070008093C000C45DDE4F8881CC52D1400F9494
:10F080000DF240E24093C6008091C00086FFFCCFA5
:10F090008091C00080648093C000C55DDE4F888190
:10F0A000CB52D1400F940DF250E25093C6008091A4
:10F0B000C00086FFFCCF8091C00080648093C000B8
:10F0C0008FEFE8168FEFF80680E0080780E018075A
:10F0D00031F484E092EE60E00F94C2F1DFC0D80119
:10F0E000C7018070907CA070B0708050904CA040A0
:10F0F000B040D1F52FEF3FE340E050E0E222F322B1
:10F1000004231523CA5DDE4FA880B980CA80DB8046
:10F11000C652D140AE0CBF1CC01ED11EAA0CBB1CD7
:10F12000CC1CDD1C8EE092EE60E00F94C2F1BB2798
:10F13000A12F902F8F2D0F940DF28E2D0F940DF285
:10F1400030E23093C6008091C00086FFFCCF8091F2
:10F15000C00080648093C0004EE34093C60080915D
:10F16000C00086FFFCCF87C08EE09EEFA0E0B0E03D
:10F17000E822F9220A231B239CE0E91694E9F90608
:10F1800090E0090790E0190709F088C0C45DDE4FE0
:10F19000A881CC52D140EA2EFF2400E010E0102FCD
:10F1A0000F2DFE2CEE24C55DDE4FB881CB52D14031
:10F1B000EB0EF11C011D111DD601C501817090706F
:10F1C000A070B070DC0199278827E80EF91E0A1F8D
:10F1D0001B1F20EF30E040E050E0A222B322C42207
:10F1E000D52241E1AA0CBB1CCC1CDD1C4A95D1F7F1
:10F1F000EA0CFB1C0C1D1D1D81E090E0A0E0B0E0BE
:10F20000282239224A225B2235E1220C331C441C7D
:10F21000551C3A95D1F7E20CF31C041D151D57013E
:10F220006801AA0CBB1CCC1CDD1C85E192EE60E0E1
:10F230000F94C2F1C801AA27BB270F940DF2BB2778
:10F24000A12F902F8F2D0F940DF28E2D0F940DF274
:10F2500090E29093C6008091C00086FFFCCF809121
:10F26000C00080648093C000AEE3A093C60080918C
:10F27000C00086FFFCCF8091C00080648093C000F6
:10F28000C601AA27BB270F940DF2BB27AD2D9C2DDD
:10F290008B2D0F940DF28A2D0F940DF20F94DCF14B
:10F2A000CC5DDE4FE881F981C452D140F99709F471
:10F2B0004DCBF4E0EF2EF12C012D112D6E0C7F1CA7
:10F2C000801E911EF2CD83E093EE62E00F94F5F183
:10F2D0008AE192EE60E00F94C2F18091C00087FF56
:10F2E000FCCF1091C6001F751093C6008091C0001E
:10F2F00086FFFCCF8091C00080648093C0000F9493
:10F30000DCF1812F81548A3108F036C1163409F4BA
:10F3100095C0173490F4133409F44EC0143430F40B
:10F320001134F1F0123409F01DC130C0143409F465
:10F3300059C0153409F016C16BC01A3409F4C4C0A1
:10F340001B3438F4173409F48FC0183409F00AC19B
:10F35000A1C01B3409F4D2C01C3409F003C1E8C0B9
:10F360008FEF81B90DC082B1809582B980E090E0C5
:10F37000E0EDF7E03197F1F70196883C9105C1F790
:10F380008091C00087FFEFCF12B8EFC08FEF84B934
:10F390000DC085B1809585B980E090E0E0EDF7E0A3
:10F3A0003197F1F70196883C9105C1F78091C00033
:10F3B00087FFEFCF15B8D9C08FEF87B90DC088B1DF
:10F3C000809588B980E090E0E0EDF7E03197F1F7C3
:10F3D0000196883C9105C1F78091C00087FFEFCF6F
:10F3E00018B8C3C08FEF8AB90DC08BB180958BB9A7
:10F3F00080E090E0E0EDF7E03197F1F70196883C8E
:10F400009105C1F78091C00087FFEFCF1BB8ADC059
:10F410008FEF8DB90DC08EB180958EB980E090E0F0
:10F42000E0EDF7E03197F1F70196883C9105C1F7DF
:10F430008091C00087FFEFCF1EB897C08FEF80BBD1
:10F440000DC081B3809581BB80E090E0E0EDF7E0F6
:10F450003197F1F70196883C9105C1F78091C00082
:10F4600087FFEFCF11BA81C08FEF83BB0DC084B38C
:10F47000809584BB80E090E0E0EDF7E03197F1F714
:10F480000196883C9105C1F78091C00087FFEFCFBE
:10F4900014BA6BC08FEF809301010FC080910201FD
:10F4A00080958093020180E090E0E0EDF7E03197F5
:10F4B000F1F70196883C9105C1F78091C00087FF64
:10F4C000EDCF1092020151C08FEF809304010FC065
:10F4D0008091050180958093050180E090E0E0ED4A
:10F4E000F7E03197F1F70196883C9105C1F78091DB
:10F4F000C00087FFEDCF1092050137C08FEF8093DA
:10F5000007010FC08091080180958093080180E079
:10F5100090E0E0EDF7E03197F1F70196883C910536
:10F52000C1F78091C00087FFEDCF109208011DC088
:10F530008FEF80930A010FC080910B01809580931B
:10F540000B0180E090E0E0EDF7E03197F1F70196F4
:10F55000883C9105C1F78091C00087FFEDCF1092E4
:10F560000B0103C085E292EEEEC98091C00087FFD7
:10F57000FCCF8091C600EAC988E392EEE4C98CE131
:10F5800091EEE1C988249924933011F1943028F444
:10F59000913089F09230B8F408C0953061F195301F
:10F5A000F0F0963009F048C043C02B3109F042C951
:10F5B00091E06BE13FC96227C15DDE4F2883CF52E6
:10F5C000D14092E037C9B22FA0E0622793E032C960
:10F5D000822F90E0A82BB92B622794E02BC92E3004
:10F5E00009F039C3622795E0C05DDE4F19821882A9
:10F5F000C053D1401FC9E1E0F0E0EC0FFD1FC05D3A
:10F60000DE4F08811981C053D140E00FF11F2083E4
:10F610000F5F1F4FC05DDE4F19830883C053D14079
:10F6200062270A171B0709F005C9D80196E002C92D
:10F63000261709F010C303C0973009F0FBC87724E0
:10F640009981933109F412C19431C8F4963009F4C8
:10F65000D8C0973050F4923009F406C1933009F4C1
:10F660006DC0913009F059C253C0913109F477C08F
:10F67000923108F0BBC0903109F04FC2F5C098310B
:10F6800009F487C0993150F4953109F4EFC09531F0
:10F6900008F4C6C1963109F040C2C2C19A3109F4DA
:10F6A0006CC09A3108F491C09B3109F45BC09D3164
:10F6B00009F033C29D81903359F48F81882311F46E
:10F6C0009EE11CC0813011F091E018C098E916C08D
:10F6D000892F807591F0903539F4E0E0F0E089E011
:10F6E0008093570094910AC0983539F4E3E0F0E034
:10F6F00089E080935700949101C090E01A821B82A8
:10F700008D818C831D829E831F8227E030E009C299
:10F710001A8288E08B8381E48C8386E58D8382E581
:10F720008E8389E48F8383E5888780E589878FE5E9
:10F730008A8782E38B872BE030E0F3C18A818139AD
:10F7400041F0823941F0803911F48FE005C080E04A
:10F7500003C082E001C08AE01A828B8344C0772410
:10F76000739482C08D81882311F48EE12CC0813086
:10F7700011F081E028C088E926C01A82E1E0F0E0BB
:10F7800089E08093570084918B831C8224E030E0D1
:10F79000C8C18B81803589F48C81883039F4E2E0EE
:10F7A000F0E089E08093570084910DC0E0E0F0E044
:10F7B00089E080935700849106C0E3E0F0E089E09F
:10F7C0008093570084911A82DFCF8D81836C99E0FA
:10F7D000E1E0F0E0082E90935700E89507B600FCB2
:10F7E000FDCF1A821B8223E030E09BC180EC8A832C
:10F7F000CE5CDE4F188219821A821B82C253D1401E
:10F800008EC18A8190E0A0E0B0E0582F44273327D2
:10F8100022278B8190E0A0E0B0E0DC0199278827C7
:10F82000282B392B4A2B5B2B8D8190E0A0E0B0E098
:10F83000282B392B4A2B5B2B8C8190E0A0E0B0E089
:10F84000BA2FA92F982F8827282B392B4A2B5B2BCF
:10F85000220F331F441F551FC05EDE4F288339839C
:10F860004A835B83C052D1401A8259C13A81C95C34
:10F87000DE4F3883C753D140CA5CDE4F1882C6536F
:10F88000D1408B81C82EDD24CA5CDE4F488159816E
:10F89000C653D140C42AD52A933109F082C0CE5C28
:10F8A000DE4F88819981AA81BB81C253D1408050AB
:10F8B000904CA340B04030F583E0CE5CDE4FE88052
:10F8C000F9800A811B81C253D140F70100935B008C
:10F8D00080935700E89507B600FCFDCFCE5CDE4F65
:10F8E000088119812A813B81C253D14000501F4FAA
:10F8F0002F4F3F4FCE5CDE4F088319832A833B8313
:10F90000C253D140C05EDE4F488159816A817B81FC
:10F91000C052D140DE011B9631E08C9111962C91A2
:10F9200011971296C75CDE4F2883C953D140C85C3B
:10F93000DE4F1882C853D14090E0C85CDE4FE881AA
:10F94000F981C853D1408E2B9F2B0C01FA01609393
:10F950005B0030935700E89511244E5F5F4F6F4F67
:10F960007F4F0EEFE02E0FEFF02ECE0CDF1CC114F8
:10F97000D10499F685E0C05EDE4F088119812A81A5
:10F980003B81C052D140F80120935B008093570027
:10F99000E89507B600FCFDCF81E180935700E8951C
:10F9A00035C0C05EDE4F88819981AA81BB81C0527B
:10F9B000D140B695A795979587957C018601ABE0D8
:10F9C000AA2EB12CAC0EBD1E0BC0D5016D915D01F0
:10F9D000C7010F947FFE0894E11CF11C01501040F8
:10F9E0000115110591F7A60160E070E0440F551F65
:10F9F000661F771FC05EDE4FE880F9800A811B8199
:10FA0000C052D1404E0D5F1D601F711F1A82C05E33
:10FA1000DE4F488359836A837B83C052D1407FC0C5
:10FA2000FA80C55CDE4FF882CB53D140C65CDE4F16
:10FA30001882CA53D1408B81C82EDD24C65CDE4FAC
:10FA400008811981CA53D140C02AD12A1A828981DA
:10FA5000BE016D5F7F4F843121F59601C05EDE4FA0
:10FA6000E880F9800A811B81C052D1400BBFF701A9
:10FA700087919691DB018C9311969C936E5F7F4FDB
:10FA8000D801C7010296A11DB11DC05EDE4F88835B
:10FA90009983AA83BB83C052D14022503040F1F6F3
:10FAA00036C0C05EDE4F288139814A815B81C052F9
:10FAB000D1400894C108D108760100E010E0089414
:10FAC000C11CD11C0894E11CF11C011D111DE20E8A
:10FAD000F31E041F151F21BDBB27A52F942F832FB5
:10FAE00082BD2F5F3F4F4F4F5F4FF89A80B5DB01CC
:10FAF0008D93BD012E153F054007510761F7C05E8C
:10FB0000DE4F288339834A835B83C052D1409601FC
:10FB10002D5F3F4FFB01108204C080EC8A8322E0FE
:10FB200030E08BE18093C6008091C00086FFFCCF5F
:10FB30008091C00080648093C000C15DDE4FF88179
:10FB4000CF52D140F093C6008091C00086FFFCCF19
:10FB50008091C00080648093C000432F3093C60022
:10FB60008091C00086FFFCCF8091C00080648093AC
:10FB7000C000922F2093C6008091C00086FFFCCF6A
:10FB80008091C00080648093C0008EE08093C600A6
:10FB90008091C00086FFFCCF8091C000806480937C
:10FBA000C00065E1C15DDE4FE880CF52D1406E25D7
:10FBB00069276427FE01319610C090819093C6009A
:10FBC0008091C00086FFFCCF31968091C000806498
:10FBD0008093C0006927215030402115310569F715
:10FBE0006093C6008091C00086FFFCCF8091C0006A
:10FBF00080648093C00085B1805885B9772081F4F6
:10FC0000C15DDE4F0881CF52D1400F5FC15DDE4F35
:10FC10000883CF52D14090E0A0E0B0E00D941AF4F8
:10FC200027982F9880E090E020ED37E0F901319798
:10FC3000F1F7019684369105C9F700008091C00064
:10FC40008D7F8093C00081E180935700E895EE2777
:10FC5000FF270994FFCF90E00D941AF497FB092E2B
:10FC600007260AD077FD04D02ED006D000201AF443
:10FC7000709561957F4F0895F6F7909581959F4F08
:10FC80000895A1E21A2EAA1BBB1BFD010DC0AA1FDD
:10FC9000BB1FEE1FFF1FA217B307E407F50720F0F5
:10FCA000A21BB30BE40BF50B661F771F881F991F70
:10FCB0001A9469F760957095809590959B01AC01B9
:10FCC000BD01CF010895AA1BBB1B51E107C0AA1FAC
:10FCD000BB1FA617B70710F0A61BB70B881F991FED
:10FCE0005A95A9F780959095BC01CD010895F99991
:10FCF000FECF92BD81BDF89A992780B50895262F31
:10FD0000F999FECF1FBA92BD81BD20BD0FB6F89400
:0EFD1000FA9AF99A0FBE01960895F894FFCF63
:040000033000E000E9
:00000001FF