:1000000015C1000044C1000042C1000040C1000011
:100010003EC100003CC100003AC1000038C10000F0
:1000200036C1000034C1000032C1000030C1000000
:100030002EC100002CC100002AC1000028C1000010
:1000400026C1000024C1000022C1000020C1000020
:100050001EC100001CC100001AC1000058C70000EA
:1000600016C1000014C1000012C1000010C1000040
:100070000EC100000CC100000AC1000008C1000050
:1000800006C1000004C1000002C1000000C1000060
:10009000FEC00000FCC00000FAC0000082C70000E3
:1000A000F6C00000F4C00000F2C00000F0C0000084
:1000B000EEC00000ECC00000EAC00000E8C0000094
:1000C000E6C00000E4C00000E2C0000072C2000010
:1000D00047C20000DCC000001AC20000EFC10000EF
:1000E000D6C000008B068E067D0681068706C506F3
:1000F000920696069C06A006A406AA06AE06B206BE
:10010000C506B806BC06C006000020002300260075
:1001100029002C002F00320000010000030106011D
:10012000090100000A0B02090C0D0E080703040167
:1001300000000000000000000000000000000000BF
:10014000000000000000000000000000000012118C
:10015000100000000000000000000000000000008F
:100160000000000000000000000021002400270023
:100170002A002D00300033000101000004010701B6
:100180000A010102102020080810204010204080A1
:10019000020102010804020101020408102040804B
:1001A00080402010080402018004020180402010D9
:1001B0000804020108040201010204081020408022
:1001C00001020408102040800000220025002800C1
:1001D0002B002E003100340002010000050108014F
:1001E0000B010505050507050808080802020202BB
:1001F0000A0A0808040404040101010101010101C3
:100200000303030303030303040707070C0C0C0C8D
:100210000C0C0C0C02020202060606060606060676
:100220000B0B0B0B0B0B0B0BEA0FDB0F11241FBE81
:10023000CFEFD1E2DEBFCDBF00E00CBF13E0A0E006
:10024000B2E0ECE9F7E200E00BBF02C007900D92CC
:10025000A831B107D9F725E0A8E1B3E001C01D92AC
:10026000A63AB207E1F711E0C5E1D1E000E006C02F
:1002700021970109802FFE010E94D610C431D107B9
:1002800080E00807A9F70E94DF0A0C94BD13B8CEDE
:10029000FC01A089B1898C91A689B78982FD0FC024
:1002A0009C91818D8F5F8F73228D821749F0218DF4
:1002B000DF01A20FB11D5D969C93818F08958C91F3
:1002C0000895FC01918D828D981761F0828DDF0178
:1002D000A80FB11D5D968C91928D9F5F9F73928F39
:1002E00090E008958FEF9FEF0895FC01918D828D2E
:1002F000981731F0828DE80FF11D858D90E00895FB
:100300008FEF9FEF0895FC01918D228D892F90E052
:10031000805C9F4F821B91098F739927089587E412
:1003200094E0F1DF21E0892B09F420E0822F089589
:1003300084EE94E0E8DF21E0892B09F420E0822FAD
:100340000895FC01848DDF01A80FB11DA35ABF4F92
:100350002C91848D90E001968F739927848FA689C4
:10036000B7892C93A089B1898C9180648C93938DEB
:10037000848D981306C00288F389E02D80818F7DDB
:1003800080830895EF92FF920F931F93CF93DF9393
:10039000EC0181E0888F9B8D8C8D981305C0E889D6
:1003A000F989808185FD23C0F62E0B8D10E00F5F4B
:1003B0001F4F0F731127E02E8C8DE8120BC00FB664
:1003C00007FCFACFE889F989808185FFF5CFCE0156
:1003D000B8DFF2CF8B8DFE01E80FF11DE35AFF4F1E
:1003E000F0820B8FEA89FB898081806207C0EE89E9
:1003F000FF896083E889F98980818064808381E056
:1004000090E0DF91CF911F910F91FF90EF900895B1
:10041000CF93DF93EC01888D8823C1F0EA89FB89B3
:10042000808185FD05C0A889B9898C9186FD0EC0A3
:100430000FB607FCF5CF808185FFF2CFA889B98977
:100440008C9185FFEDCFCE017CDFE8CFDF91CF919E
:10045000089580E090E0892B41F080E090E0892BC6
:1004600021F00E94000081111BC080E090E0892BE8
:1004700041F080E090E0892B21F00E940000811182
:1004800012C080E090E0892B19F052DF81110EC07C
:1004900080E090E0892B79F042DF81110AC0089555
:1004A0000E940000E2CF0E940000EBCF0E940000FB
:1004B000EFCF0C94000008950E94A0121F920F929B
:1004C0000FB60F9211240BB60F922F933F934F93B9
:1004D0005F936F937F938F939F93AF93BF93EF93AC
:1004E000FF9387E494E02DDFFF91EF91BF91AF91EF
:1004F0009F918F917F916F915F914F913F912F913C
:100500000F900BBE0F900FBE0F901F9018951F926B
:100510000F920FB60F9211240BB60F922F933F93A9
:100520004F935F936F937F938F939F93AF93BF93FB
:10053000EF93FF9387E494E0ABDEFF91EF91BF91DF
:10054000AF919F918F917F916F915F914F913F916B
:100550002F910F900BBE0F900FBE0F901F9018950C
:100560001F920F920FB60F9211240BB60F922F937A
:100570003F934F935F936F937F938F939F93AF932B
:10058000BF93EF93FF9384EE94E0DBDEFF91EF9156
:10059000BF91AF919F918F917F916F915F914F919B
:1005A0003F912F910F900BBE0F900FBE0F901F9099
:1005B00018951F920F920FB60F9211240BB60F923F
:1005C0002F933F934F935F936F937F938F939F935B
:1005D000AF93BF93EF93FF9384EE94E059DEFF91C6
:1005E000EF91BF91AF919F918F917F916F915F91AB
:1005F0004F913F912F910F900BBE0F900FBE0F9018
:100600001F90189585ED8093BC008091BC0084FDFF
:10061000FCCF10921A0308954091F703262F30E083
:10062000240F311D21323105DCF420911A032430CE
:10063000C9F4FC0180E090E0861758F43091F7038C
:100640002191DC01A952BC4FA30FB11D2C9301963F
:10065000F3CF8091F703680F6093F70380E008956C
:1006600081E0089582E00895E0912303F09124034E
:10067000309729F010921C0310921B0319940895CF
:10068000CF93DF93AC01E0912503F09126033097DF
:10069000F1F090911E0380911D039817C0F090E037
:1006A000292F30E02617370754F4D901A954BC4F3D
:1006B000EA01C20FD31F88818C939F5FF1CF109204
:1006C0001E0360931D03CB01DF91CF911994DF913D
:1006D000CF9108950895E0911E0380911D03E817BE
:1006E00030F4F0E0E954FC4F808190E008958FEF02
:1006F0009FEF089590911E0380911D03981750F469
:10070000E92FF0E0E954FC4F208130E09F5F9093A7
:100710001E0302C02FEF3FEFC901089580911D0312
:1007200090E020911E03821B91090895CF93DF93DF
:100730001F921F92CDB7DEB7CB01642F49835A8336
:100740006BDF4981842F5A81952F0F900F90DF9195
:10075000CF910895CF93DF931F92CDB7DEB7698312
:1007600061E0CE01019658DF81E090E00F90DF91CB
:10077000CF910895DC01ED91FC910280F381E02D91
:100780001994EF92FF920F931F93CF93DF93EC0195
:100790008130910531F481E895E0ACDF809322024D
:1007A00000C109E413E0875B9C4F7C010E151F0517
:1007B00029F081E895E0D5D697FF4EC09091490386
:1007C000892F8770813009F4C9C024F4882309F483
:1007D00047C0D2C0823009F4C6C0833009F0CCC013
:1007E000292F092E000C330B83E0359527958A9528
:1007F000E1F7209327032091270330E021503109AE
:1008000080914A03F901EE0FFF1F2E0F3F1FF901E0
:10081000EE5FFD4F80832091270330E021503109A6
:1008200080914B03F901EE0FFF1F2E0F3F1FF901BF
:10083000EE5FFD4F81832091270330E02150310985
:1008400080914C03F901EE0FFF1F2E0F3F1FF9019E
:10085000EE5FFD4F828390C0F80181938F01A6CF98
:1008600020914A0330914B03492F45954595459575
:1008700080914C0390914D0341114DC02038FEE30F
:100880003F0738F021304DE7340728F020E03DE7FE
:1008900002C020E83EE33093AD002093AC008038E6
:1008A000EEE39E0738F08130FDE79F0728F080E0F7
:1008B0009DE702C080E89EE3909329018093280180
:1008C00080914E0390914F0380382EE3920738F0C9
:1008D00081304DE7940728F080E09DE702C080E872
:1008E0009EE390939900809398008091500390919B
:1008F00051038038EEE39E0738F08130FDE79F0713
:1009000028F080E09DE702C080E89EE39093A90074
:100910008093A80041C020384EE3340738F02130DE
:10092000EDE73E0728F020E03DE702C020E83EE387
:1009300030939D0020939C008038FEE39F0738F0A1
:1009400081302DE7920728F080E09DE702C080E823
:100950009EE390932D0180932C011EC080914A0349
:1009600080932A0319C0C1504C2F50E06AE473E011
:1009700084EE94E0FFDE10C0279771F493FB992773
:1009800090F990931A0286E0EAE4F3E0ABE1B2E07A
:1009900001900D928A95E1F7809128038F5F8093F3
:1009A0002803DF91CF911F910F91FF90EF90089551
:1009B0000F931F93CF93DF93809128038F5F8093D2
:1009C000280380912202823009F44DC150F488231B
:1009D000B1F0813009F07FC1809129038093AC038D
:1009E00073C0833009F444C1843009F074C1C091EC
:1009F000AC030C2E000CDD0B0CE913E053C160912D
:100A00002B0370912C0380912D0390912E030E9453
:100A100043117093AE036093AD0360912F03709107
:100A2000300380913103909132030E9443117093FF
:100A3000B0036093AF0360913303709134038091EE
:100A40003503909136030E9443117093B203609373
:100A5000B10360913703709138038091390390910D
:100A60003A030E9443117093B4036093B3036091FF
:100A70003B0370913C0380913D0390913E030E94A3
:100A800043117093B6036093B5034AE050E06DEAFA
:100A900073E01AC187E494E014DC20918C03309158
:100AA0008D0322303105B4F4F901EA50FD4F9081F5
:100AB00089132EC0F901E657FC4F10822F5F3F4F7C
:100AC00030938D0320938C0387E494E01CDC892B06
:100AD00009F7C1C02232310574F4F901E859FC4F1D
:100AE000808390918A03980F90938A0340918B039F
:100AF000940F90938B032F5F3F4F30938D03209380
:100B00008C032332310549F490918A038917E1F26D
:100B100010928D0310928C03D7CF2432310509F047
:100B200095C010928D0310928C0390918B038913C2
:100B3000CBCF8091760390917703A0917803B09109
:100B400079038093920390939303A0939403B093BB
:100B500095038091720390917303A0917403B091F7
:100B6000750380938E0390938F03A0939003B093AB
:100B7000910380917A0390917B03A0917C03B091C3
:100B80007D038093960390939703A0939803B0936B
:100B90009903409186035091870360918803709177
:100BA00089038AE076956795579547958A95D1F799
:100BB000409386035093870360938803709389035F
:100BC0008091820390918303A0918403B091850367
:100BD0002AE0B695A795979587952A95D1F78093A2
:100BE000820390938303A0938403B09385034F3FC4
:100BF00051056105710529F020F04FEF50E060E0EC
:100C000070E040939B038F3F9105A105B10529F04A
:100C100020F08FEF90E0A0E0B0E080939A03809105
:100C2000690391E0980F9093690380689091210285
:100C3000891709F449CF809321028091AC03826027
:100C40008093AC0382E08093220205C025323105F7
:100C50000CF05ECF39CF6EE081E895E0DF91CF9167
:100C60001F910F9177CD4EE050E06EE873E02CC0FD
:100C700084EE94E048DB8093AC03882361F180919B
:100C8000AC0381311CF080E18093AC036091AC0334
:100C900081E895E05FDD84E0809322021CC0F801CA
:100CA00081938F01C8018C5993408C179D0728F4BC
:100CB00084EE94E056D497FFF2CF4091AC03042E1B
:100CC000000C550B6CE973E081E895E0DF91CF9162
:100CD0001F910F914FCDDF91CF911F910F910895EB
:100CE00090E0FC013197E231F10508F04EC0882711
:100CF000EE58FF4F8F4F0C94D610809180008F7765
:100D000003C0809180008F7D809380000895809142
:100D10008000877FF9CF84B58F7702C084B58F7D3F
:100D200084BD08958091B0008F7703C08091B0009A
:100D30008F7D8093B0000895809190008F7707C0D9
:100D4000809190008F7D03C080919000877F809379
:100D5000900008958091A0008F7707C08091A00037
:100D60008F7D03C08091A000877F8093A0000895AD
:100D7000809120018F7707C0809120018F7D03C073
:100D800080912001877F8093200108951F93CF9346
:100D9000DF93282F30E0F901EE5DFE4F8491F901D9
:100DA000EE57FE4FD491F901EE51FE4FC491CC2382
:100DB000C1F0162F811194DFEC2FF0E0EE0FFF1F32
:100DC000E853FE4FA591B4918FB7F894111105C067
:100DD0009C91ED2FE095E92302C0EC91ED2BEC9373
:100DE0008FBFDF91CF911F910895CF93DF9390E054
:100DF000FC01EE57FE4F2491FC01EE51FE4F849111
:100E0000882361F190E0880F991FFC01E859FE4F9B
:100E1000C591D491FC01E853FE4FA591B4916111A5
:100E200009C09FB7F8948881209582238883EC912C
:100E30002E230BC0623061F49FB7F8943881822F63
:100E4000809583238883EC912E2B2C939FBF06C023
:100E50008FB7F894E8812E2B28838FBFDF91CF9135
:100E60000895863308F0865390917B00282F2870D0
:100E7000977F922B90937B0087702091000290E4E3
:100E8000299F90011124822B80937C0080917A000D
:100E9000806480937A0080917A0086FDFCCF8091F7
:100EA00078002091790090E0922B08953FB7F89454
:100EB0008091430490914404A0914504B09146046C
:100EC00026B5A89B05C02F3F19F00196A11DB11DA5
:100ED0003FBFBA2FA92F982F8827820F911DA11DE0
:100EE000B11DBC01CD0142E0660F771F881F991F1D
:100EF0004A95D1F708952FB7F89460913F04709107
:100F0000400480914104909142042FBF08951F92A4
:100F10000F920FB60F9211242F933F938F939F93AD
:100F2000AF93BF9380913F0490914004A0914104FE
:100F3000B091420430913E0423E0230F2D3720F47A
:100F40000196A11DB11D05C026E8230F0296A11D23
:100F5000B11D20933E0480933F0490934004A093DE
:100F60004104B09342048091430490914404A091C1
:100F70004504B09146040196A11DB11D8093430420
:100F800090934404A0934504B0934604BF91AF915D
:100F90009F918F913F912F910F900FBE0F901F90B7
:100FA00018951F920F920FB60F9211240BB60F9245
:100FB0002F933F934F935F936F937F938F939F9361
:100FC000AF93BF93EF93FF938091B900887F8036F2
:100FD00009F49CC068F5883209F45BC090F4803154
:100FE00009F454C038F4882309F4F6C0883009F4B1
:100FF0004DC0F5C0883109F44CC0803209F45DC0A1
:10100000EEC0803409F468C048F4803309F455C058
:10101000883309F0E4C080931A04D8C0803509F4FD
:101020004FC0883509F45DC0883409F0D8C0D6C0F7
:10103000883909F4C7C0A8F4883709F467C038F4C0
:10104000883609F463C0803709F460C0C8C08838A6
:1010500009F4B8C0803909F45FC0803809F0BFC016
:101060005BC0803B09F486C038F4803A09F466C05E
:10107000883A09F47FC0B3C0803C09F4A7C0883C1B
:1010800009F4A4C0883B09F48AC0A9C080913D043A
:1010900010C090913C0480913B04981770F5E0914A
:1010A0003C0481E08E0F80933C04F0E0E55EFB4F52
:1010B00080818093BB0085EC86C080931A048EC02B
:1010C000E0913C0481E08E0F80933C048091BB0052
:1010D000F0E0E55EFB4F808390913C0480913B04FF
:1010E0006EC0E0913C0481E08E0F80933C048091BF
:1010F000BB00F0E0E55EFB4F808380911903811116
:101100006DC081E08093180384EA61C083E080931E
:101110001A0310921904CFCF80911904803208F07D
:1011200051C0E091190481E08E0F809319048091E1
:10113000BB00F0E0E750FC4F8083BDCF85EC80938F
:10114000BC0010921A0380911904803230F4E091AF
:101150001904F0E0E750FC4F10826091190470E030
:10116000E0911F03F091200389EF93E0199510920D
:10117000190435C084E080931A031092F80310928A
:10118000F703E0912103F091220319958091F70371
:10119000811105C081E08093F7031092D703E0919D
:1011A000F80381E08E0F8093F803F0E0E952FC4FE2
:1011B00080818093BB009091F8038091F70398178A
:1011C00008F479CF85E88093BC0009C085EC809352
:1011D000BC0010921A0303C010921A0413DAFF9194
:1011E000EF91BF91AF919F918F917F916F915F919F
:1011F0004F913F912F910F900BBE0F900FBE0F900C
:101200001F901895CF92DF92EF92FF920F931F934A
:10121000CF93DF936C017A018B01C0E0D0E0CE1553
:10122000DF0589F0D8016D918D01D601ED91FC911A
:101230000190F081E02DC6011995892B11F47E01F2
:1012400002C02196ECCFC701DF91CF911F910F9182
:10125000FF90EF90DF90CF900895FC01A089B189B5
:1012600082E08C93A485B5851C92A685B7858FEC0A
:101270008C93108EA489B58986E08C93A289B3895A
:101280008C9180618C93A289B3898C9188608C93B6
:10129000A289B3898C9180688C930288F389E02DB0
:1012A00080818F7D808308950F931F93CF93DF9369
:1012B000CDB7DEB729970FB6F894DEBF0FBECDBF0E
:1012C0008091950590919605892B09F49FC0EEDDDC
:1012D00000919B0510919C0520919D0530919E05E4
:1012E000DC01CB01801B910BA20BB30BC297A105B4
:1012F000B10568F3F89480919105909192059A83D5
:101300008983E0919505F0919605DF011196808122
:10131000898790918D05E0919F05F091A0058091BE
:10132000A105992309F42EC09081982B988790816C
:10133000809589238F838F818C8388E08B83588568
:101340006F8149853B812C8189819A81508347FD3A
:10135000252F3A952083262F39F0441F00C0000026
:101360006083000000C0F2CF38E04D916083000040
:10137000019761F7F093A005E0939F0549873B83B0
:101380002C8338C09081982B9887908180958923F1
:101390008F838F818E8388E08D8358856F81498507
:1013A0003D812E8189819A81508347FD252F00C080
:1013B00000C0208300C000C000C000C000C0608327
:1013C0000000262F3A9541F0441F000000C000C0E5
:1013D00000C000C000C0E8CF38E04D9100C060837D
:1013E00000C0019709F7F093A005E0939F05498796
:1013F0003D832E839A838983789458DD60939B057F
:1014000070939C0580939D0590939E0529960FB639
:10141000F894DEBF0FBECDBFDF91CF911F910F912A
:1014200008958F929F92AF92BF92CF92DF92EF92E8
:10143000FF9220918F05309190058217930708F055
:1014400052C04B01AA24BB24E82DC52ED62EE72E70
:10145000FF24FC2D342F20919405222361F0829EDD
:1014600040011124E92DC29E60011124FD2D429FEF
:10147000D00111243B2FF0909A05E0909705A091A0
:101480009505B0919605FE1008C0AC01440F551F9C
:10149000840F951F8A0F9B1F14C0880F991F880FF8
:1014A000991F8A0F9B1F472F552766277727DC0137
:1014B000AF0DB11D222321F0429FA0011124452F21
:1014C0004C9320919705DC01A20FB11DEC93209164
:1014D0009805DC01A20FB11DFC9320919905FC0138
:1014E000E20FF11D3083FF90EF90DF90CF90BF901F
:1014F000AF909F908F9008958F929F92AF92BF92DE
:10150000CF92DF92EF92FF92D1DC4B015C0184E637
:10151000C82ED12CE12CF12CC9DCDC01CB018819BF
:101520009909AA09BB09883E9340A105B10558F065
:1015300021E0C21AD108E108F10888EE880E83E0A4
:10154000981EA11CB11CC114D104E104F10421F7BF
:10155000FF90EF90DF90CF90BF90AF909F908F90D3
:1015600008950F931F93CF93DF93EC01C4DC68873A
:1015700079878A879B87E881F9810680F781E02D4A
:10158000CE01199597FF16C0B6DC088519852A8506
:101590003B85DC01CB01801B910BA20BB30B0C81B3
:1015A0001D812E813F8180179107A207B30718F391
:1015B0008FEF9FEFDF91CF911F910F910895CF9300
:1015C000DF9300D01F92CDB7DEB7789484B58260E8
:1015D00084BD84B5816084BD85B5826085BD85B5D7
:1015E000816085BD80916E00816080936E00109255
:1015F00081008091810082608093810080918100D0
:101600008160809381008091800081608093800060
:101610008091B10084608093B1008091B0008160BE
:101620008093B000809191008260809391008091BE
:1016300091008160809391008091900081608093FF
:1016400090008091A10082608093A1008091A10010
:1016500081608093A1008091A00081608093A000B0
:10166000809121018260809321018091210181601C
:1016700080932101809120018160809320018091DD
:101680007A00846080937A0080917A0082608093EF
:101690007A0080917A00816080937A0080917A004C
:1016A000806880937A001092C10061E08EE29DDB39
:1016B00061E085E09ADB61E086E097DB61E088E04D
:1016C00094DB61E08CE291DB61E083E08EDB9AEBFE
:1016D0009093900089E1809391009093A000809373
:1016E000A100909320018093210180E89BEB9093CF
:1016F0002701809326019093A7008093A6009093E2
:1017000097008093960080EC9DE590939D008093D8
:101710009C0090932D0180932C0180E89EE3909390
:10172000A9008093A80090939900809398009093CB
:101730002901809328019093AD008093AC0084EE42
:1017400094E08BDD87E494E088DDD6DE01E812E0EA
:10175000F80161918F0187E494E00E94C201F2E0F8
:101760000C381F07A9F7C8DE06E712E0F8016191FF
:101770008F0187E494E00E94C201F2E001381F0764
:10178000A9F7BADE0BE612E0F80161918F0187E458
:1017900094E00E94C201F2E006371F07A9F7ACDE11
:1017A00000E612E0F80161918F0187E494E00E9465
:1017B000C201F2E00B361F07A9F79EDE05E512E035
:1017C000F80161918F0187E494E00E94C201F2E088
:1017D00000361F07A9F790DE0AE412E0F8016191D4
:1017E0008F0187E494E00E94C201F2E005351F07F3
:1017F000A9F782DE0FE312E0F80161918F0187E41F
:1018000094E00E94C201F2E00A341F07A9F774DED7
:1018100073DE09E212E0F80161918F0187E494E040
:101820000E94C201F2E00F331F07A9F761E08EE1C9
:10183000DCDA60E08FE1D9DA60E08EE1A7DA83E0FC
:101840008093000282E18093BA0084E393E0909356
:1018500022038093210380E493E0909320038093FC
:101860001F0310921E0310921D0310921C0310926E
:101870001B0310921A0381E080931903109218033E
:1018800061E084E183DA61E085E180DA8091B9008A
:101890008E7F8093B9008091B9008D7F8093B900CD
:1018A0008CE08093B80085E48093BC0088ED94E0E0
:1018B000909324038093230381EC93E09093260379
:1018C000809325038091930587FD06C061E08DDA42
:1018D00060E0809193055ADA81E080938E0500E004
:1018E00010E040E051E060E070E0C8019ADD0F5F79
:1018F0001F4F08301105A9F7D7DCB1E4EB2EB1E09A
:10190000FB2E11EAC12E11E0D12E01E0A02E02E043
:10191000B02E9924939488248A9400E81EE388E3E7
:10192000A0DA20912B0330912C0340912D0350918C
:101930002E0340902B0350902C0360902D03709049
:101940002E03BC01990F880B990B29833A834B8393
:101950005C8300D629813A814B815C812FD42AE0B7
:1019600037ED43E25CE355D69B01AC01C301B20104
:1019700026D460932B0370932C0380932D039093B4
:101980002E0386E36EDA20912F03309130034091CD
:1019900031035091320340902F03509030036090F8
:1019A000310370903203BC01990F880B990B298386
:1019B0003A834B835C83CED529813A814B815C810C
:1019C000FDD32AE037ED43E25CE323D69B01AC0173
:1019D000C301B201F4D360932F037093300380935B
:1019E0003103909332038CE33CDA2091330330913E
:1019F00034034091350350913603409033035090A7
:101A000034036090350370903603BC01990F880B46
:101A1000990B29833A834B835C839CD529813A8136
:101A20004B815C81CBD32AE037ED43E25CE3F1D517
:101A30009B01AC01C301B201C2D360933303709325
:101A4000340380933503909336038AE30ADA2091B6
:101A50003703309138034091390350913A03409055
:101A60003703509038036090390370903A03BC01FB
:101A7000990F880B990B29833A834B835C836AD532
:101A800029813A814B815C8199D32AE037ED43E289
:101A90005CE3BFD59B01AC01C301B20190D360935D
:101AA0003703709338038093390390933A0387E3A5
:101AB000D8D920913B0330913C0340913D03509194
:101AC0003E0340903B0350903C0360903D03709078
:101AD0003E03BC01990F880B990B29833A834B83F2
:101AE0005C8338D529813A814B815C8167D32AE0B8
:101AF00037ED43E25CE38DD59B01AC01C301B2013C
:101B00005ED360933B0370933C0380933D039093BB
:101B10003E0380912A03882309F41AC180912A0385
:101B200090910102981709F45DC080912A03809377
:101B30000102612C712C20912A03A0912A0380912B
:101B40002A0336E0389FC001112484569D4FFC01C2
:101B500080813A9FD0011124A456BD4F11964C911B
:101B600050E060E070E0762F652F542F4427682BFB
:101B7000329FF0011124E456FD4F8281482BC301AE
:101B800050DC20912A03A0912A0380912A03F6E0D9
:101B9000F89FC001112484569D4FFC018381F6E01B
:101BA000FA9FD0011124A456BD4F14964C9150E0D9
:101BB00060E070E0762F652F542F4427682BF29F4A
:101BC000F0011124E456FD4F8581482BC301019695
:101BD00028DC22E0620E711C38E06316710409F003
:101BE000AACF62DB20904003309041034090420333
:101BF00050904303211431044104510441F57BD931
:101C0000E0912A03F0E0E457FD4F208120FD06C05B
:101C100028EC422E512C612C712C06C0B8E54B2EBD
:101C2000B2E05B2E612C712CDC01CB01840D951D83
:101C3000A61DB71D8093400390934103A0934203D8
:101C4000B093430310923F0360911A0200C1709059
:101C50003F0370FE31C04FD9261637064806590695
:101C600008F0F8C060911A028EE190D873947092D7
:101C70003F0341D9E0912A03F0E0E457FD4F208172
:101C800030E0769402C0359527957A94E2F720FDEE
:101C900006C0A8EC4A2E512C612C712C06C0F8E528
:101CA0004F2EF2E05F2E612C712CDC01CB01840DF4
:101CB000951DA61DB71D43C01ED92616370648061A
:101CC000590608F0C7C060E08EE160D881E0870D5A
:101CD00080933F03883060F110922A0310924003F2
:101CE000109241031092420310924303809201022A
:101CF000612C712CF301EE0FFF1FE60DF71DEE5F57
:101D0000FD4F82814181908150E060E070E0762F4C
:101D1000652F542F4427692B482BC30182DB8FEF9B
:101D2000681A780A98E06916710421F7BDDA92C042
:101D3000E2D8DC01CB018C599F4FAF4FBF4F80934E
:101D4000400390934103A0934203B093430382C0A6
:101D5000F7018491F6016490F50174907720A1F069
:101D600081110E947006E72DF0E0EE0FFF1FE85F83
:101D7000FE4FA591B4918C91682231E020E009F4E6
:101D800030E0832F922F02C080E090E0F1E08F27B7
:101D9000817080932903AFD869387341810591051B
:101DA000A8F180912903882389F180D880958170DA
:101DB000582E612C712C80912002552029F04091E1
:101DC0001F0290911E0204C040911E0290911F02BA
:101DD00050E060E070E0762F652F542F4427692B88
:101DE000482BC3011EDB3FEF631A730A88E06816B5
:101DF000710409F759DA80911A02882321F0652DC0
:101E00008EE10E94C6069092470324C060913B0376
:101E100070913C0380913D0390913E0321EC3CE5A1
:101E20004FE254E45CD218160CF0C3C060913B033F
:101E300070913C0380913D0390913E032AEE3DE476
:101E40004FE354E481D3682F661F6627661F8EE137
:101E50000E94C6069091280380914603981749F086
:101E60008091280380934603109245031092440307
:101E700037C08091440390914503019690934503A8
:101E8000809344038D32914058F11093AD0000933C
:101E9000AC0010932901009328011093990000933E
:101EA00098001093A9000093A800612C712C8091D8
:101EB0001D0240911C0290911B0250E060E070E016
:101EC000762F652F542F4427692B482BC301A9DA9D
:101ED000FFEF6F1A7F0A28E06216710441F7E4D918
:101EE00080914703882329F180912903811121C022
:101EF000612C712CF301EE0FFF1FE60DF71DEE5F55
:101F0000FD4F82814181908150E060E070E0762F4A
:101F1000652F542F4427692B482BC30182DA3FEFEA
:101F2000631A730A88E06816710421F7BDD910920C
:101F30004703809127038823C9F1809127038150AB
:101F4000809327038091270390E0FC01EE0FFF1F91
:101F50008E0F9F1FFC01EE5FFD4F228180912703B2
:101F600090E0FC01EE0FFF1F8E0F9F1FFC01EE5F44
:101F7000FD4F41818091270390E0FC01EE0FFF1F90
:101F80008E0F9F1FFC01EE5FFD4F90818091270314
:101F900050E060E070E0762F652F542F4427692BC6
:101FA000422B90E03EDA80D9109227030E9429024A
:101FB000B6CC60E04CCF8091950590919605009746
:101FC00009F026D28091930587FD03C060E00C9450
:101FD000F506089510924A041092490488EE93E0A1
:101FE000A0E0B0E080934B0490934C04A0934D0488
:101FF000B0934E042CEF32E0309348042093470412
:1020000045E351E0509354044093530444E351E0BA
:10201000509356044093550440E351E050935804C4
:102020004093570441E351E050935A0440935904BC
:1020300042E351E050935C0440935B0446E351E07B
:1020400050935E0440935D0410926004109261040A
:1020500010926204109263041092E7041092E60456
:102060008093E8049093E904A093EA04B093EB040E
:102070003093E5042093E40425ED30E03093F1043F
:102080002093F00424ED30E03093F3042093F20425
:1020900020ED30E03093F5042093F40421ED30E09E
:1020A0003093F7042093F60422ED30E03093F904E6
:1020B0002093F80426ED30E03093FB042093FA04DB
:1020C0001092FD041092FE041092FF04109200057D
:1020D0001092840510928305809385059093860560
:1020E000A0938705B09388058CE093E090938205D8
:1020F0008093810510928E051092940510929B0595
:1021000010929C0510929D0510929E0581E080938F
:102110009A05809397051092980592E090939905FF
:1021200080938D0588E190E09093920580939105CE
:10213000DAD09093960580939505009761F028E199
:10214000FC0111922A95E9F788E090E090939005C0
:1021500080938F0508C010929205109291051092FD
:10216000900510928F058BE18093930580918E05E9
:10217000882341F061E08BE10E94F50660E08BE18D
:102180000E94C606EDEFF1E0E491F0E0EE0FFF1FD4
:10219000E853FE4F859194919093A00580939F05FD
:1021A000EDE9F1E0E491E093A1050895EE0FFF1F42
:1021B000881F8BBF0790F691E02D19945058BB27CC
:1021C000AA270ED0A0C291D230F096D220F031F4DE
:1021D0009F3F11F41EF486C20EF4E095E7FB7CC22B
:1021E000E92FA2D280F3BA17620773078407950715
:1021F00018F071F49EF5BAC20EF4E0950B2EBA2FCA
:10220000A02D0B01B90190010C01CA01A0011124FC
:10221000FF27591B99F0593F50F4503E68F11A16A8
:10222000F040A22F232F342F4427585FF3CF469539
:1022300037952795A795F0405395C9F77EF41F165B
:10224000BA0B620B730B840BBAF09150A1F0FF0F25
:10225000BB1F661F771F881FC2F70EC0BA0F621F11
:10226000731F841F48F4879577956795B795F79501
:102270009E3F08F0B3CF9395880F08F09927EE0F93
:1022800097958795089558D288F09F5790F0B92F69
:102290009927B751A0F0D1F0660F771F881F991FBB
:1022A0001AF0BA95C9F712C0B13081F05FD2B1E02F
:1022B00008955CC2672F782F8827B85F39F0B93F3F
:1022C000CCF3869577956795B395D9F73EF49095BD
:1022D0008095709561957F4F8F4F9F4F089575D171
:1022E00008F48FEF0895CF93DF938230910510F4B7
:1022F00082E090E0E091A405F091A50520E030E0B7
:10230000C0E0D0E0309711F1408151814817590762
:10231000C0F04817590761F482819381209719F022
:102320009B838A832BC09093A5058093A40526C028
:102330002115310519F04217530718F49A01BE010F
:10234000DF01EF010280F381E02DDCCF21153105A3
:1023500009F1281B390B2430310590F412968D9128
:102360009C9113976115710521F0FB019383828382
:1023700004C09093A5058093A405FD01329644C046
:10238000FD01E20FF31F81939193225031092D93A8
:102390003C933AC02091A2053091A305232B41F430
:1023A00020912502309126023093A3052093A205A7
:1023B00020912302309124022115310541F42DB7DB
:1023C0003EB74091270250912802241B350BE09123
:1023D000A205F091A305E217F307A0F42E1B3F0B13
:1023E0002817390778F0AC014E5F5F4F2417350787
:1023F00048F04E0F5F1F5093A3054093A2058193B1
:10240000919302C0E0E0F0E0CF01DF91CF91089519
:102410000F931F93CF93DF93009709F48CC0FC01B7
:102420003297138212820091A4051091A50501151F
:10243000110581F420813181820F931F2091A20523
:102440003091A3052817390779F5F093A305E09398
:10245000A20571C0D80140E050E0AE17BF0750F4AC
:1024600012962D913C911397AD012115310509F17B
:10247000D901F3CF9D01DA01338322836081718119
:10248000860F971F8217930769F4EC012881398121
:10249000260F371F2E5F3F4F318320838A819B8118
:1024A00093838283452B29F4F093A505E093A4053B
:1024B00042C01396FC93EE931297ED014991599106
:1024C0009E01240F351FE217F30771F4808191817B
:1024D000840F951F029611969C938E93828193810F
:1024E00013969C938E931297E0E0F0E0D801129639
:1024F0008D919C911397009719F0F8018C01F6CFFC
:102500008D919C9198012E5F3F4F820F931F2091D8
:10251000A2053091A3052817390769F4309729F4EB
:102520001092A5051092A40502C013821282109386
:10253000A3050093A205DF91CF911F910F910895FC
:1025400081E090E0F89419C140D008F481E008954A
:10255000E89409C097FB3EF490958095709561953D
:102560007F4F8F4F9F4F9923A9F0F92F96E9BB27F3
:102570009395F695879577956795B795F111F8CF6F
:10258000FAF4BB0F11F460FF1BC06F5F7F4F8F4FDA
:102590009F4F16C0882311F096E911C0772321F0D0
:1025A0009EE8872F762F05C0662371F096E8862F68
:1025B00070E060E02AF09A95660F771F881FDAF7BF
:1025C000880F9695879597F90895990F0008550FEC
:1025D000AA0BE0E8FEEF16161706E807F907C0F0A9
:1025E00012161306E407F50798F0621B730B840BB1
:1025F000950B39F40A2661F0232B242B252B21F48B
:1026000008950A2609F4A140A6958FEF811D811D2A
:1026100008950BD078C069D028F06ED018F09523BB
:1026200009F05AC05FC01124A2C07ED0A0F3959FCC
:10263000D1F3950F50E0551F629FF001729FBB27A9
:10264000F00DB11D639FAA27F00DB11DAA1F649F55
:102650006627B00DA11D661F829F2227B00DA11D08
:10266000621F739FB00DA11D621F839FA00D611D8E
:10267000221F749F3327A00D611D231F849F600DAF
:10268000211D822F762F6A2F11249F5750408AF0E8
:10269000E1F088234AF0EE0FFF1FBB1F661F771F74
:1026A000881F91505040A9F79E3F510570F014C00B
:1026B0005EC05F3FECF3983EDCF3869577956795B7
:1026C000B795F795E7959F5FC1F7FE2B880F911D92
:1026D0009695879597F9089597F99F6780E870E038
:1026E00060E008959FEF80EC089500240A94161688
:1026F000170618060906089500240A9412161306F0
:10270000140605060895092E0394000C11F488237D
:1027100052F0BB0F40F4BF2B11F460FF04C06F5F99
:102720007F4F8F4F9F4F089557FD9058440F551F6F
:1027300059F05F3F71F04795880F97FB991F61F043
:102740009F3F79F087950895121613061406551FBA
:10275000F2CF4695F1DF08C0161617061806991F26
:10276000F1CF86957105610508940895E894BB271B
:1027700066277727CB0197F9089511E0C5E1D1E0ED
:1027800000E005C0802FFE0111DD2196011DC6313C
:0C279000D10780E00807B1F7F894FFCFF4
:10279C0001FF000100000100000100000100000128
:1027AC000000010000010000010001010000FF0019
:1027BC0000640F0000A6058000B5620608060064E0
:1027CC0000010001007A12B562060800000E30B557
:1027DC006206010300F00500FF19B5620601030053
:1027EC00F00400FE17B56206010300F00300FD15AE
:1027FC00B56206010300F00200FC13B5620601038A
:10280C0000F00100FB11B56206010300F00000FAB4
:10281C000FB562060103000102010E470008090A08
:10282C000B0C0D0E0F01020304050607000000003F
:10283C0000006400000000006400000064006400FC
:10284C000000640064000064640064640000000024
:10285C0064640000640064640064000064640064E8
:10286C006400000000006400000000646400006468
:10287C0000000000006400006400006400640000BC
:10288C00006400646400B56200000000C20102092B
:10289C00830161017501080200000000AA03960380
:0828AC008E037A036B036A033B
:020000023000CC
:10E000000D9489F10D94B2F10D94B2F10D94B2F129
:10E010000D94B2F10D94B2F10D94B2F10D94B2F1F0
:10E020000D94B2F10D94B2F10D94B2F10D94B2F1E0
:10E030000D94B2F10D94B2F10D94B2F10D94B2F1D0
:10E040000D94B2F10D94B2F10D94B2F10D94B2F1C0
:10E050000D94B2F10D94B2F10D94B2F10D94B2F1B0
:10E060000D94B2F10D94B2F10D94B2F10D94B2F1A0
:10E070000D94B2F10D94B2F10D94B2F10D94B2F190
:10E080000D94B2F10D94B2F10D94B2F10D94B2F180
:10E090000D94B2F10D94B2F10D94B2F10D94B2F170
:10E0A0000D94B2F10D94B2F10D94B2F10D94B2F160
:10E0B0000D94B2F10D94B2F10D94B2F10D94B2F150
:10E0C0000D94B2F10D94B2F10D94B2F10D94B2F140
:10E0D0000D94B2F10D94B2F10D94B2F10D94B2F130
:10E0E0000D94B2F141546D656761323536300041AF
:10E0F000726475696E6F206578706C6F72657220DE
:10E1000073746B3530305632206279204D4C530099
:10E11000426F6F746C6F616465723E004875683F52
:10E1200000436F6D70696C6564206F6E203D200048
:10E130004350552054797065202020203D20005FF9
:10E140005F4156525F415243485F5F3D2000415658
:10E1500052204C696243205665723D20004743437C
:10E160002056657273696F6E203D20004350552024
:10E1700049442020202020203D20004C6F7720663D
:10E18000757365202020203D20004869676820665F
:10E190007573652020203D200045787420667573D6
:10E1A00065202020203D20004C6F636B2066757336
:10E1B000652020203D20004D617220203720323024
:10E1C000313300312E362E3800342E332E350056A2
:10E1D00023202020414444522020206F7020636F70
:10E1E00064652020202020696E73747275637469E1
:10E1F0006F6E2061646472202020496E74657272B3
:10E20000757074006E6F20766563746F7200726A49
:10E210006D702020006A6D70200057686174207056
:10E220006F72743A00506F7274206E6F7420737541
:10E2300070706F72746564004D7573742062652030
:10E2400061206C6574746572002000577269747483
:10E25000696E672045450052656164696E672045B7
:10E26000450045452065727220636E743D00504F35
:10E27000525400303D5A65726F2061646472003FF1
:10E280003D43505520737461747300403D454550C3
:10E29000524F4D207465737400423D426C696E6B41
:10E2A000204C454400453D44756D70204545505215
:10E2B0004F4D00463D44756D7020464C415348001B
:10E2C000483D48656C70004C3D4C69737420492F83
:10E2D0004F20506F72747300513D51756974005234
:10E2E0003D44756D702052414D00563D73686F7707
:10E2F00020696E7465727275707420566563746FF0
:10E30000727300593D506F727420626C696E6B00BD
:10E310002A0011241FBECFEFD1E2DEBFCDBF01E046
:10E320000CBF12E0A0E0B2E0EEE1FDEF03E00BBFB6
:10E3300002C007900D92A030B107D9F712E0A0E01B
:10E34000B2E001C01D92AE30B107E1F70F9460F367
:10E350000D948DFE01E20EBF0FEF0DBF11241FBE05
:10E360000D9460F30D9400F020E030E040ED57E0B4
:10E3700005C0FA013197F1F72F5F3F4F2817390792
:10E38000C0F308959C01260F311DC901A0E0B0E043
:10E390002F5F3F4FABBFFC018791882361F08093D3
:10E3A000C6008091C00086FFFCCF8091C0008064D1
:10E3B0008093C000EACF08958DE08093C6008091DD
:10E3C000C00086FFFCCF8091C00080648093C000B5
:10E3D0008AE08093C6008091C00086FFFCCF8091C8
:10E3E000C00080648093C00008950F94C2F10F9420
:10E3F000DCF10895FC019081992359F09093C600B7
:10E400008091C00086FFFCCF8091C0008064809323
:10E41000C0003196992379F70895282F982F929567
:10E420009F70892F805D8A3308F0895F8093C600D2
:10E430008091C00086FFFCCF8091C00080648093F3
:10E44000C000822F8F70982F905D9A3308F0995FEB
:10E450009093C6008091C00086FFFCCF8091C000E1
:10E4600080648093C00008959C01FB01853691056E
:10E470001CF46330710594F0C90164E670E00F94F8
:10E480002EFE605D7F4F6093C6008091C00086FFC6
:10E49000FCCF8091C00080648093C0002B30310598
:10E4A00014F43297B4F0C90164E670E00F942EFEC4
:10E4B0006AE070E00F942EFE605D7F4F6093C600AF
:10E4C0008091C00086FFFCCF8091C0008064809363
:10E4D000C000C9016AE070E00F942EFEC0968093E0
:10E4E000C6008091C00086FFFCCF8091C000806490
:10E4F0008093C00008951F93182F8EE692EE60E07F
:10E500000F94C2F11093C6008091C00086FFFCCF2B
:10E510008091C00080648093C0000F94DCF11F9153
:10E5200008952F923F924F925F926F927F928F92B7
:10E530009F92AF92BF92CF92DF92EF92FF920F9392
:10E540001F93DF93CF93CDB7DEB762970FB6F894E2
:10E55000DEBF0FBECDBF382E622ECA01DB015C01CB
:10E560006D01772420E2222E2E010894411C511CBB
:10E570008BC081E0A81680E0B80681E0C80680E084
:10E58000D80628F0C601AA27BB270F940DF2BB2797
:10E59000AD2D9C2D8B2D0F940DF28A2D0F940DF225
:10E5A0002092C6008091C00086FFFCCF8091C00001
:10E5B00080648093C0009DE29093C6008091C0006B
:10E5C00086FFFCCF8091C00080648093C0002092C1
:10E5D000C6008091C00086FFFCCF8091C00080649F
:10E5E0008093C00019828601750188249924A1E0D6
:10E5F0003A1651F03A1620F0B2E03B1661F409C029
:10E600000BBFF701779007C0C7010F9477FE782EF4
:10E6100002C0F7017080872D0F940DF22092C60082
:10E620008091C00086FFFCCF8091C0008064809301
:10E63000C000872D8052F401EF70F0708F3520F408
:10E64000E40DF51D708204C0E40DF51D8EE280839B
:10E650000894E11CF11C011D111D0894811C911CE2
:10E6600090E18916910409F0C2CF80E190E0A0E02A
:10E67000B0E0A80EB91ECA1EDB1E198AC2010F9493
:10E68000FAF10F94DCF16A94662009F072CF629679
:10E690000FB6F894DEBF0FBECDBFCF91DF911F91B3
:10E6A0000F91FF90EF90DF90CF90BF90AF909F9031
:10E6B0008F907F906F905F904F903F902F90089534
:10E6C0002F923F924F925F926F927F928F929F9282
:10E6D000AF92BF92CF92DF92EF92FF920F931F9370
:10E6E000DF93CF93CDB7DEB7CD53D1400FB6F894BB
:10E6F000DEBF0FBECDBF01E20EBF0FEF0DBF94B75F
:10E70000F894A89514BE80916000886180936000A1
:10E7100010926000789493FF05C0E0910002F091A0
:10E7200001021995279A2F9A8091C00082608093E8
:10E73000C00080E18093C40088E18093C1000000A4
:10E74000EE24FF24870144E0A42EB12CCC24DD2448
:10E7500024C0C5010197F1F70894E11CF11C011DCB
:10E76000111D21E2E2162EE4F20620E0020720E06D
:10E77000120718F031E0C32ED12CC801B70127ECE5
:10E780003BE140E050E00F9441FE611571058105C9
:10E79000910519F485B1805885B98091C00087FD35
:10E7A00003C0C114D104A9F2A6014F5F5F4FC25E3E
:10E7B000DE4F59834883CE51D140C25EDE4F8881FF
:10E7C0009981CE51D140019711F00D9410FEC05D9A
:10E7D000DE4F19821882C053D14060E0C15DDE4F28
:10E7E0001882CF52D14088249924C35DDE4F19820C
:10E7F0001882CD52D140C05EDE4F188219821A8233
:10E800001B82C052D140CE5CDE4F188219821A8220
:10E810001B82C253D140EE24FF2487010BBFF701B6
:10E8200007911691C45CDE4F19830883CC53D14005
:10E830000D940BFEC25EDE4F28813981CE51D1404E
:10E840002130310509F52091C600C25EDE4F1982E4
:10E850001882CE51D14022C02F5F3F4F4F4F5F4FA4
:10E86000213082E138078AE7480780E0580780F0C6
:10E87000C45CDE4FE881F981CC53D140EF5FFF4F9C
:10E8800019F0EE27FF27099420E030E040E050E047
:10E890008091C00087FFE0CF2091C600C35DDE4FAE
:10E8A00048815981CD52D1404F5F5F4FC35DDE4FEC
:10E8B00059834883CD52D140213209F063C64A3092
:10E8C000510508F05FC60894811C911C53E0851621
:10E8D000910409F059C600E010E018C081E280936D
:10E8E000C6008091C00086FFFCCF8091C00080648C
:10E8F0008093C0002F5F3F4F2931310579F70F9486
:10E90000DCF10F5F1F4F0530110519F020E030E0FA
:10E91000E5CF10920A0210920B0210920C02109294
:10E920000D02109206021092070210920802109235
:10E930000902109202021092030210920402109235
:10E9400005028FEE90EE60E00F94F5F180E191EE1C
:10E9500060E00F94C2F18091C00087FFFCCF9091DE
:10E96000C600903608F09F759032B8F09093C600BC
:10E970008091C00086FFFCCF8091C00080648093AE
:10E98000C000A0E2A093C6008091C00086FFFCCF2B
:10E990008091C00080648093C000983409F4D7C18E
:10E9A0009934B8F4923409F459C1933458F490333B
:10E9B00019F1903308F4E3C59F33A1F1903409F0C5
:10E9C000DEC5BDC0953409F470C1963409F0D7C5D1
:10E9D00098C1923509F42BC2933538F49C3409F46C
:10E9E000F5C1913509F0CBC518C2963509F445C279
:10E9F000993509F0C4C567C483E792EE62E00F94CD
:10EA0000F5F110920602109207021092080210927D
:10EA1000090210920A0210920B0210920C0210923C
:10EA20000D0213C18FE792EE62E00F94F5F18FEEC5
:10EA300090EE60E00F94F5F181E291EE60E00F94CA
:10EA4000C2F187EB91EE60E00F94F5F180E391EE77
:10EA500060E00F94C2F184EE90EE60E00F94F5F167
:10EA60008FE391EE60E00F94C2F186E090E061E008
:10EA700070E00F9434F20F94DCF18DE591EE60E0DC
:10EA80000F94C2F189EC91EE60E00F94F5F18EE401
:10EA900091EE60E00F94C2F183EC91EE60E00F9490
:10EAA000F5F18CE691EE60E00F94C2F18EE10F94E7
:10EAB0000DF288E90F940DF281E00F940DF20F949E
:10EAC000DCF18BE791EE60E00F94C2F119E0E0E039
:10EAD000F0E010935700E4918E2F0F940DF20F94F5
:10EAE000DCF18AE891EE60E00F94C2F1E3E0F0E03F
:10EAF00010935700E4918E2F0F940DF20F94DCF1D8
:10EB000089E991EE60E00F94C2F1E2E0F0E0109349
:10EB10005700E4918E2F0F940DF20F94DCF188EAE8
:10EB200091EE60E00F94C2F1E1E0F0E01093570045
:10EB30001491812F0F940DF20F94DCF107CF8BE825
:10EB400092EE62E00F94F5F18BE492EE60E00F94A8
:10EB5000F5F10F94DCF100E010E019C0C8016F2D51
:10EB60000F947FFEFF2031F489E492EE60E00F9471
:10EB7000C2F10BC0F092C6008091C00086FFFCCFAE
:10EB80008091C00080648093C0000F5F1F4FC80158
:10EB900081519F41A0E0B0E0ABBFFC01F790BAE229
:10EBA000FB1621F0E2E000301E07C1F60F94DCF105
:10EBB0000F94DCF187E592EE60E00F94F5F10F948D
:10EBC000DCF1CC24DD2400E010E01EC0C8010F946D
:10EBD00077FEF82E882331F489E492EE60E00F94FA
:10EBE000C2F10BC08093C6008091C00086FFFCCFAD
:10EBF0008091C00080648093C000FE1419F00894D6
:10EC0000C11CD11C0F5F1F4FC80181519F41A0E063
:10EC1000B0E0ABBFFC01E790FAE2EF1621F022E092
:10EC20000030120799F60F94DCF10F94DCF182E6C4
:10EC300092EE60E00F94C2F1C60161E070E00F94C3
:10EC400034F20F94DCF10F94DCF110920202109276
:10EC50000302109204021092050278CE89E992EE26
:10EC600062E00F94F5F1279A2F9A16C02F9880E052
:10EC700090E0E0EDF7E03197F1F7019684369105E9
:10EC8000C1F72F9A80E090E0E0EDF7E03197F1F7DF
:10EC9000019684369105C1F78091C00087FFE6CFC9
:10ECA0008091C00087FFFCCF64C485EA92EE62E0E9
:10ECB0000F94F5F140910202509103026091040219
:10ECC0007091050281E020E10F9491F2809102029F
:10ECD00090910302A0910402B091050280509F4FD1
:10ECE000AF4FBF4F8093020290930302A0930402A0
:10ECF000B093050280509041A040B04008F426CE69
:10ED0000A4CF83EB92EE62E00F94F5F140910602FE
:10ED100050910702609108027091090280E020E1A1
:10ED20000F9491F28091060290910702A09108023F
:10ED3000B091090280509F4FAF4FBF4F80930602A2
:10ED400090930702A0930802B0930902FFCD80ECD4
:10ED500092EE62E00F94F5F183E792EE60E00F949B
:10ED6000F5F18FE792EE60E00F94F5F18BE892EE0B
:10ED700060E00F94F5F189E992EE60E00F94F5F10F
:10ED800085EA92EE60E00F94F5F183EB92EE60E09D
:10ED90000F94F5F180EC92EE60E00F94F5F187ECC2
:10EDA00092EE60E00F94F5F188ED92EE60E00F9442
:10EDB000F5F18FED92EE60E00F94F5F18AEE92EEB0
:10EDC00060E00F94F5F183E093EEBDCD87EC92EE19
:10EDD00062E00F94F5F181E40F947BF282E40F94EA
:10EDE0007BF283E40F947BF284E40F947BF285E45E
:10EDF0000F947BF286E40F947BF287E40F947BF20E
:10EE000088E40F947BF28AE40F947BF28BE40F94F6
:10EE10007BF28CE40F947BF299CD88ED92EE62E068
:10EE20000F94F5F1772473948824992409C48FED05
:10EE300092EE62E00F94F5F140910A0250910B02BC
:10EE400060910C0270910D0282E020E10F9491F22A
:10EE500080910A0290910B02A0910C02B0910D02D8
:10EE600080509F4FAF4FBF4F80930A0290930B0289
:10EE7000A0930C02B0930D0269CD8AEE92EE62E08F
:10EE80000F94F5F184EE90EE60E00F94F5F18FECC5
:10EE900091EE60E00F94F5F1662477244301CC5D98
:10EEA000DE4F19821882C452D140D401C301B695F5
:10EEB000A79597958795CA5DDE4F88839983AA8326
:10EEC000BB83C652D140CC5DDE4FA881B981C4520C
:10EED000D1401196CC5DDE4FB983A883C452D14096
:10EEE000CD0162E070E00F9434F2B0E2B093C6005E
:10EEF0008091C00086FFFCCF8091C0008064809329
:10EF0000C000EDE2E093C6008091C00086FFFCCF18
:10EF10008091C00080648093C000F0E2F093C6004E
:10EF20008091C00086FFFCCF8091C00080648093F8
:10EF3000C000CA5DDE4FE880F9800A811B81C6529D
:10EF4000D140BB27A12F902F8F2D0F940DF2CA5DBA
:10EF5000DE4F8881C652D1400F940DF2B0E2FB2EF5
:10EF6000F092C6008091C00086FFFCCF8091C00067
:10EF700080648093C0000DE30093C6008091C000C0
:10EF800086FFFCCF8091C00080648093C00010E2B7
:10EF90001093C6008091C00086FFFCCF8091C00016
:10EFA00080648093C0008BBEF3012791C65DDE4F65
:10EFB0002883CA52D140A22EBB24CC24DD2408943D
:10EFC000611C711C811C911C8BBEF3018791282E42
:10EFD0003324442455240894611C711C811C911C09
:10EFE0008BBEF3013791C55DDE4F3883CB52D140E4
:10EFF0000894611C711C811C911C8BBEF30147910C
:10F00000C45DDE4F4883CC52D140ADEFEA2EAFEF66
:10F01000FA2EAFEF0A2FAFEF1A2F6E0C7F1C801E57
:10F02000911E142D032DF22CEE24EA0CFB1C0C1D5A
:10F030001D1D0F940DF220E22093C6008091C000A8
:10F0400086FFFCCF8091C00080648093C000C65DC5
:10F05000DE4F8881CA52D1400F940DF230E23093D6
:10F06000C6008091C00086FFFCCF8091C000806404
:10F070008093C000C45DDE4F8881CC52D1400F9494
:10F080000DF240E24093C6008091C00086FFFCCFA5
:10F090008091C00080648093C000C55DDE4F888190
:10F0A000CB52D1400F940DF250E25093C6008091A4
:10F0B000C00086FFFCCF8091C00080648093C000B8
:10F0C0008FEFE8168FEFF80680E0080780E018075A
:10F0D00031F484E092EE60E00F94C2F1DFC0D80119
:10F0E000C7018070907CA070B0708050904CA040A0
:10F0F000B040D1F52FEF3FE340E050E0E222F322B1
:10F1000004231523CA5DDE4FA880B980CA80DB8046
:10F11000C652D140AE0CBF1CC01ED11EAA0CBB1CD7
:10F12000CC1CDD1C8EE092EE60E00F94C2F1BB2798
:10F13000A12F902F8F2D0F940DF28E2D0F940DF285
:10F1400030E23093C6008091C00086FFFCCF8091F2
:10F15000C00080648093C0004EE34093C60080915D
:10F16000C00086FFFCCF87C08EE09EEFA0E0B0E03D
:10F17000E822F9220A231B239CE0E91694E9F90608
:10F1800090E0090790E0190709F088C0C45DDE4FE0
:10F19000A881CC52D140EA2EFF2400E010E0102FCD
:10F1A0000F2DFE2CEE24C55DDE4FB881CB52D14031
:10F1B000EB0EF11C011D111DD601C501817090706F
:10F1C000A070B070DC0199278827E80EF91E0A1F8D
:10F1D0001B1F20EF30E040E050E0A222B322C42207
:10F1E000D52241E1AA0CBB1CCC1CDD1C4A95D1F7F1
:10F1F000EA0CFB1C0C1D1D1D81E090E0A0E0B0E0BE
:10F20000282239224A225B2235E1220C331C441C7D
:10F21000551C3A95D1F7E20CF31C041D151D57013E
:10F220006801AA0CBB1CCC1CDD1C85E192EE60E0E1
:10F230000F94C2F1C801AA27BB270F940DF2BB2778
:10F24000A12F902F8F2D0F940DF28E2D0F940DF274
:10F2500090E29093C6008091C00086FFFCCF809121
:10F26000C00080648093C000AEE3A093C60080918C
:10F27000C00086FFFCCF8091C00080648093C000F6
:10F28000C601AA27BB270F940DF2BB27AD2D9C2DDD
:10F290008B2D0F940DF28A2D0F940DF20F94DCF14B
:10F2A000CC5DDE4FE881F981C452D140F99709F471
:10F2B0004DCBF4E0EF2EF12C012D112D6E0C7F1CA7
:10F2C000801E911EF2CD83E093EE62E00F94F5F183
:10F2D0008AE192EE60E00F94C2F18091C00087FF56
:10F2E000FCCF1091C6001F751093C6008091C0001E
:10F2F00086FFFCCF8091C00080648093C0000F9493
:10F30000DCF1812F81548A3108F036C1163409F4BA
:10F3100095C0173490F4133409F44EC0143430F40B
:10F320001134F1F0123409F01DC130C0143409F465
:10F3300059C0153409F016C16BC01A3409F4C4C0A1
:10F340001B3438F4173409F48FC0183409F00AC19B
:10F35000A1C01B3409F4D2C01C3409F003C1E8C0B9
:10F360008FEF81B90DC082B1809582B980E090E0C5
:10F37000E0EDF7E03197F1F70196883C9105C1F790
:10F380008091C00087FFEFCF12B8EFC08FEF84B934
:10F390000DC085B1809585B980E090E0E0EDF7E0A3
:10F3A0003197F1F70196883C9105C1F78091C00033
:10F3B00087FFEFCF15B8D9C08FEF87B90DC088B1DF
:10F3C000809588B980E090E0E0EDF7E03197F1F7C3
:10F3D0000196883C9105C1F78091C00087FFEFCF6F
:10F3E00018B8C3C08FEF8AB90DC08BB180958BB9A7
:10F3F00080E090E0E0EDF7E03197F1F70196883C8E
:10F400009105C1F78091C00087FFEFCF1BB8ADC059
:10F410008FEF8DB90DC08EB180958EB980E090E0F0
:10F42000E0EDF7E03197F1F70196883C9105C1F7DF
:10F430008091C00087FFEFCF1EB897C08FEF80BBD1
:10F440000DC081B3809581BB80E090E0E0EDF7E0F6
:10F450003197F1F70196883C9105C1F78091C00082
:10F4600087FFEFCF11BA81C08FEF83BB0DC084B38C
:10F47000809584BB80E090E0E0EDF7E03197F1F714
:10F480000196883C9105C1F78091C00087FFEFCFBE
:10F4900014BA6BC08FEF809301010FC080910201FD
:10F4A00080958093020180E090E0E0EDF7E03197F5
:10F4B000F1F70196883C9105C1F78091C00087FF64
:10F4C000EDCF1092020151C08FEF809304010FC065
:10F4D0008091050180958093050180E090E0E0ED4A
:10F4E000F7E03197F1F70196883C9105C1F78091DB
:10F4F000C00087FFEDCF1092050137C08FEF8093DA
:10F5000007010FC08091080180958093080180E079
:10F5100090E0E0EDF7E03197F1F70196883C910536
:10F52000C1F78091C00087FFEDCF109208011DC088
:10F530008FEF80930A010FC080910B01809580931B
:10F540000B0180E090E0E0EDF7E03197F1F70196F4
:10F55000883C9105C1F78091C00087FFEDCF1092E4
:10F560000B0103C085E292EEEEC98091C00087FFD7
:10F57000FCCF8091C600EAC988E392EEE4C98CE131
:10F5800091EEE1C988249924933011F1943028F444
:10F59000913089F09230B8F408C0953061F195301F
:10F5A000F0F0963009F048C043C02B3109F042C951
:10F5B00091E06BE13FC96227C15DDE4F2883CF52E6
:10F5C000D14092E037C9B22FA0E0622793E032C960
:10F5D000822F90E0A82BB92B622794E02BC92E3004
:10F5E00009F039C3622795E0C05DDE4F19821882A9
:10F5F000C053D1401FC9E1E0F0E0EC0FFD1FC05D3A
:10F60000DE4F08811981C053D140E00FF11F2083E4
:10F610000F5F1F4FC05DDE4F19830883C053D14079
:10F6200062270A171B0709F005C9D80196E002C92D
:10F63000261709F010C303C0973009F0FBC87724E0
:10F640009981933109F412C19431C8F4963009F4C8
:10F65000D8C0973050F4923009F406C1933009F4C1
:10F660006DC0913009F059C253C0913109F477C08F
:10F67000923108F0BBC0903109F04FC2F5C098310B
:10F6800009F487C0993150F4953109F4EFC09531F0
:10F6900008F4C6C1963109F040C2C2C19A3109F4DA
:10F6A0006CC09A3108F491C09B3109F45BC09D3164
:10F6B00009F033C29D81903359F48F81882311F46E
:10F6C0009EE11CC0813011F091E018C098E916C08D
:10F6D000892F807591F0903539F4E0E0F0E089E011
:10F6E0008093570094910AC0983539F4E3E0F0E034
:10F6F00089E080935700949101C090E01A821B82A8
:10F700008D818C831D829E831F8227E030E009C299
:10F710001A8288E08B8381E48C8386E58D8382E581
:10F720008E8389E48F8383E5888780E589878FE5E9
:10F730008A8782E38B872BE030E0F3C18A818139AD
:10F7400041F0823941F0803911F48FE005C080E04A
:10F7500003C082E001C08AE01A828B8344C0772410
:10F76000739482C08D81882311F48EE12CC0813086
:10F7700011F081E028C088E926C01A82E1E0F0E0BB
:10F7800089E08093570084918B831C8224E030E0D1
:10F79000C8C18B81803589F48C81883039F4E2E0EE
:10F7A000F0E089E08093570084910DC0E0E0F0E044
:10F7B00089E080935700849106C0E3E0F0E089E09F
:10F7C0008093570084911A82DFCF8D81836C99E0FA
:10F7D000E1E0F0E0082E90935700E89507B600FCB2
:10F7E000FDCF1A821B8223E030E09BC180EC8A832C
:10F7F000CE5CDE4F188219821A821B82C253D1401E
:10F800008EC18A8190E0A0E0B0E0582F44273327D2
:10F8100022278B8190E0A0E0B0E0DC0199278827C7
:10F82000282B392B4A2B5B2B8D8190E0A0E0B0E098
:10F83000282B392B4A2B5B2B8C8190E0A0E0B0E089
:10F84000BA2FA92F982F8827282B392B4A2B5B2BCF
:10F85000220F331F441F551FC05EDE4F288339839C
:10F860004A835B83C052D1401A8259C13A81C95C34
:10F87000DE4F3883C753D140CA5CDE4F1882C6536F
:10F88000D1408B81C82EDD24CA5CDE4F488159816E
:10F89000C653D140C42AD52A933109F082C0CE5C28
:10F8A000DE4F88819981AA81BB81C253D1408050AB
:10F8B000904CA340B04030F583E0CE5CDE4FE88052
:10F8C000F9800A811B81C253D140F70100935B008C
:10F8D00080935700E89507B600FCFDCFCE5CDE4F65
:10F8E000088119812A813B81C253D14000501F4FAA
:10F8F0002F4F3F4FCE5CDE4F088319832A833B8313
:10F90000C253D140C05EDE4F488159816A817B81FC
:10F91000C052D140DE011B9631E08C9111962C91A2
:10F9200011971296C75CDE4F2883C953D140C85C3B
:10F93000DE4F1882C853D14090E0C85CDE4FE881AA
:10F94000F981C853D1408E2B9F2B0C01FA01609393
:10F950005B0030935700E89511244E5F5F4F6F4F67
:10F960007F4F0EEFE02E0FEFF02ECE0CDF1CC114F8
:10F97000D10499F685E0C05EDE4F088119812A81A5
:10F980003B81C052D140F80120935B008093570027
:10F99000E89507B600FCFDCF81E180935700E8951C
:10F9A00035C0C05EDE4F88819981AA81BB81C0527B
:10F9B000D140B695A795979587957C018601ABE0D8
:10F9C000AA2EB12CAC0EBD1E0BC0D5016D915D01F0
:10F9D000C7010F947FFE0894E11CF11C01501040F8
:10F9E0000115110591F7A60160E070E0440F551F65
:10F9F000661F771FC05EDE4FE880F9800A811B8199
:10FA0000C052D1404E0D5F1D601F711F1A82C05E33
:10FA1000DE4F488359836A837B83C052D1407FC0C5
:10FA2000FA80C55CDE4FF882CB53D140C65CDE4F16
:10FA30001882CA53D1408B81C82EDD24C65CDE4FAC
:10FA400008811981CA53D140C02AD12A1A828981DA
:10FA5000BE016D5F7F4F843121F59601C05EDE4FA0
:10FA6000E880F9800A811B81C052D1400BBFF701A9
:10FA700087919691DB018C9311969C936E5F7F4FDB
:10FA8000D801C7010296A11DB11DC05EDE4F88835B
:10FA90009983AA83BB83C052D14022503040F1F6F3
:10FAA00036C0C05EDE4F288139814A815B81C052F9
:10FAB000D1400894C108D108760100E010E0089414
:10FAC000C11CD11C0894E11CF11C011D111DE20E8A
:10FAD000F31E041F151F21BDBB27A52F942F832FB5
:10FAE00082BD2F5F3F4F4F4F5F4FF89A80B5DB01CC
:10FAF0008D93BD012E153F054007510761F7C05E8C
:10FB0000DE4F288339834A835B83C052D1409601FC
:10FB10002D5F3F4FFB01108204C080EC8A8322E0FE
:10FB200030E08BE18093C6008091C00086FFFCCF5F
:10FB30008091C00080648093C000C15DDE4FF88179
:10FB4000CF52D140F093C6008091C00086FFFCCF19
:10FB50008091C00080648093C000432F3093C60022
:10FB60008091C00086FFFCCF8091C00080648093AC
:10FB7000C000922F2093C6008091C00086FFFCCF6A
:10FB80008091C00080648093C0008EE08093C600A6
:10FB90008091C00086FFFCCF8091C000806480937C
:10FBA000C00065E1C15DDE4FE880CF52D1406E25D7
:10FBB00069276427FE01319610C090819093C6009A
:10FBC0008091C00086FFFCCF31968091C000806498
:10FBD0008093C0006927215030402115310569F715
:10FBE0006093C6008091C00086FFFCCF8091C0006A
:10FBF00080648093C00085B1805885B9772081F4F6
:10FC0000C15DDE4F0881CF52D1400F5FC15DDE4F35
:10FC10000883CF52D14090E0A0E0B0E00D941AF4F8
:10FC200027982F9880E090E020ED37E0F901319798
:10FC3000F1F7019684369105C9F700008091C00064
:10FC40008D7F8093C00081E180935700E895EE2777
:10FC5000FF270994FFCF90E00D941AF497FB092E2B
:10FC600007260AD077FD04D02ED006D000201AF443
:10FC7000709561957F4F0895F6F7909581959F4F08
:10FC80000895A1E21A2EAA1BBB1BFD010DC0AA1FDD
:10FC9000BB1FEE1FFF1FA217B307E407F50720F0F5
:10FCA000A21BB30BE40BF50B661F771F881F991F70
:10FCB0001A9469F760957095809590959B01AC01B9
:10FCC000BD01CF010895AA1BBB1B51E107C0AA1FAC
:10FCD000BB1FA617B70710F0A61BB70B881F991FED
:10FCE0005A95A9F780959095BC01CD010895F99991
:10FCF000FECF92BD81BDF89A992780B50895262F31
:10FD0000F999FECF1FBA92BD81BD20BD0FB6F89400
:0EFD1000FA9AF99A0FBE01960895F894FFCF63
:040000033000E000E9
:00000001FF