:1000000014C1000043C1000041C100003FC1000015
:100010003DC100003BC1000039C1000037C10000F4
:1000200035C1000033C1000031C100002FC1000004
:100030002DC100002BC1000029C1000027C1000014
:1000400025C1000023C1000021C100001FC1000024
:100050001DC100001BC1000019C100000C949908CB
:1000600015C100000C9470080C9447080FC10000E3
:100070000DC100000BC1000009C1000007C1000054
:1000800005C1000003C1000001C10000FFC0000065
:10009000FDC00000FBC00000F9C000000C94E308A4
:1000A000F5C00000F3C00000F1C00000EFC0000088
:1000B000EDC00000EBC00000E9C00000E7C0000098
:1000C000E5C00000E3C00000E1C00000B7C70000C9
:1000D0008CC70000DBC000005FC7000034C7000011
:1000E000D5C000003E034103300334033A037803D4
:1000F000450349034F03530357035D03610365033E
:1001000078036B036F0373030000210024002700B2
:100110002A002D0030003300010100000401070116
:100120000A0100002200250028002B002E003100CB
:10013000340002010000050108010B01000020004D
:100140002300260029002C002F00320000010000AF
:10015000030106010901050505050705080808084A
:10016000020202020A0A080804040404010101014F
:10017000010101010303030303030303040707074A
:100180000C0C0C0C0C0C0C0C0202020206060606EF
:10019000060606060B0B0B0B0B0B0B0B01021020BC
:1001A00020080810204010204080020102010804AD
:1001B0000201010204081020408080402010080441
:1001C000020180040201804020100804020108049A
:1001D00002010102040810204080010204081020DE
:1001E000408000000A0B02090C0D0E0807030401F1
:1001F00000000000000000000000000000000000FF
:1002000000000000000000000000000000001211CB
:1002100010000000000000000000000000000000CE
:100220000000000000000000140A11241FBECFEFE0
:10023000D1E2DEBFCDBF00E00CBF12E0A0E0B2E033
:10024000E8E3FFE100E00BBF02C007900D92AE387B
:10025000B107D9F725E0AEE8B2E001C01D92A83998
:10026000B207E1F711E0C5E1D1E000E006C0219757
:100270000109802FFE010E94E00DC431D10780E00A
:100280000807A9F70E94990A0C949A0FB9CEFC01AD
:10029000A089B18982E08C93A485B5851C92A6853E
:1002A000B7858FEC8C93108EA489B58986E08C93EA
:1002B000A289B3898C9180618C93A289B3898C9136
:1002C00088608C93A289B3898C9180688C93028812
:1002D000F389E02D80818F7D80830895CF93DF9314
:1002E000EC012FB7F8948091B1039091B203A091E3
:1002F000B303B091B4032FBF88879987AA87BB87C0
:10030000E881F9810680F781E02DCE01199597FFEC
:100310001EC02FB7F8948091B1039091B203A091C1
:10032000B303B091B4032FBF488559856A857B8597
:10033000841B950BA60BB70B4C815D816E817F8171
:1003400084179507A607B707D8F28FEF9FEFDF91C5
:10035000CF910895CF92DF92EF92FF920F931F9368
:10036000CF93DF936C017A018B01C0E0D0E0CE1512
:10037000DF0589F0D8016D918D01D601ED91FC91D9
:100380000190F081E02DC6011995892B11F47E01B1
:1003900002C02196ECCFC701DF91CF911F910F9141
:1003A000FF90EF90DF90CF900895E0919503F0914A
:1003B0009603309729F010928E0310928D031994B2
:1003C0000895CF93DF93AC01E0919703F0919803E8
:1003D0003097F1F09091900380918F039817C0F0BF
:1003E00090E0292F30E02617370754F4D901A250A6
:1003F000BD4FEA01C20FD31F88818C939F5FF1CF5D
:100400001092900360938F03CB01DF91CF911994E9
:10041000DF91CF910895FC01A089B1898C91A689C3
:10042000B78982FD0FC09C91818D8F5F8F73228D64
:10043000821749F0218DDF01A20FB11D5D969C93BB
:10044000818F08958C910895FC01918D828D98176C
:1004500061F0828DDF01A80FB11D5D968C91928DA8
:100460009F5F9F73928F90E008958FEF9FEF0895A5
:10047000FC01918D828D981731F0828DE80FF11D6E
:10048000858D90E008958FEF9FEF0895FC01918D89
:10049000228D892F90E0805C9F4F821B91098F7382
:1004A0009927089585EB93E0F1DF21E0892B09F48A
:1004B00020E0822F089582E594E0E8DF21E0892B97
:1004C00009F420E0822F08958FEE94E0DFDF21E031
:1004D000892B09F420E0822F0895FC01848DDF012F
:1004E000A80FB11DA35ABF4F2C91848D90E00196A7
:1004F0008F739927848FA689B7892C93A089B18996
:100500008C9180648C93938D848D981306C002889F
:10051000F389E02D80818F7D80830895EF92FF9293
:100520000F931F93CF93DF93EC0181E0888F9B8D16
:100530008C8D981305C0E889F989808185FD23C0D9
:10054000F62E0B8D10E00F5F1F4F0F731127E02E5B
:100550008C8DE8120BC00FB607FCFACFE889F98939
:10056000808185FFF5CFCE01B8DFF2CF8B8DFE0104
:10057000E80FF11DE35AFF4FF0820B8FEA89FB89E8
:100580008081806207C0EE89FF896083E889F989EC
:1005900080818064808381E090E0DF91CF911F9122
:1005A0000F91FF90EF900895CF93DF93EC01888D2A
:1005B0008823C1F0EA89FB89808185FD05C0A8896F
:1005C000B9898C9186FD0EC00FB607FCF5CF8081EE
:1005D00085FFF2CFA889B9898C9185FFEDCFCE0137
:1005E0007CDFE8CFDF91CF91089580E090E0892B08
:1005F00019F06ADF81111BC080E090E0892B41F087
:1006000080E090E0892B21F00E940000811112C04F
:1006100080E090E0892B19F04EDF81110EC080E060
:1006200090E0892B79F03EDF81110AC008950E9485
:100630000000E2CF0E940000EBCF0E940000EFCF4D
:100640000C940000089590E0FC013197E231F1052F
:1006500008F04EC08827EE58FF4F8F4F0C94E00DE6
:10066000809180008F7703C0809180008F7D809380
:100670008000089580918000877FF9CF84B58F77BF
:1006800002C084B58F7D84BD08958091B0008F77BE
:1006900003C08091B0008F7D8093B0000895809159
:1006A00090008F7707C0809190008F7D03C080916C
:1006B0009000877F8093900008958091A0008F77AD
:1006C00007C08091A0008F7D03C08091A000877F2C
:1006D0008093A0000895809120018F7707C08091BA
:1006E00020018F7D03C080912001877F80932001AE
:1006F00008951F93CF93DF93282F30E0F901EE5137
:10070000FE4F8491F901E456FE4FD491F901EA5A63
:10071000FE4FC491CC23C1F0162F811194DFEC2F32
:10072000F0E0EE0FFF1FEE5DFE4FA591B4918FB785
:10073000F894111105C09C91ED2FE095E92302C0BA
:10074000EC91ED2BEC938FBFDF91CF911F9108952A
:10075000CF93DF9390E0FC01E456FE4F2491FC011F
:10076000EA5AFE4F8491882361F190E0880F991F27
:10077000FC01E85FFE4FC591D491FC01EE5DFE4F98
:10078000A591B491611109C09FB7F8948881209513
:1007900082238883EC912E230BC0623061F49FB7D3
:1007A000F8943881822F809583238883EC912E2BB7
:1007B0002C939FBF06C08FB7F894E8812E2B288317
:1007C0008FBFDF91CF910895863308F086539091C3
:1007D0007B00282F2870977F922B90937B00877047
:1007E0002091020290E4299F90011124822B809392
:1007F0007C0080917A00806480937A0080917A00F6
:1008000086FDFCCF809178002091790090E0922BBA
:1008100008953FB7F8948091860390918703A09143
:100820008803B091890326B5A89B05C02F3F19F016
:100830000196A11DB11D3FBFBA2FA92F982F882760
:10084000820F911DA11DB11DBC01CD0142E0660FBB
:10085000771F881F991F4A95D1F708958F929F920D
:10086000AF92BF92CF92DF92EF92FF92D2DF4B0115
:100870005C0184E6C82ED12CE12CF12CCADFDC010E
:10088000CB0188199909AA09BB09883E9340A105A3
:10089000B10558F021E0C21AD108E108F10888EE4C
:1008A000880E83E0981EA11CB11CC114D104E10480
:1008B000F10421F7FF90EF90DF90CF90BF90AF90C1
:1008C0009F908F90089585ED8093BC008091BC002F
:1008D00084FDFCCF10928C03089540913E03262F97
:1008E00030E0240F311D21323105DCF420918C03DE
:1008F0002430C9F4FC0180E090E0861758F4309170
:100900003E032191DC01A25EBC4FA30FB11D2C93CD
:100910000196F3CF80913E03680F60933E0380E021
:10092000089581E0089582E008950895E09190038C
:1009300080918F03E81730F4F0E0E250FD4F8081A2
:1009400090E008958FEF9FEF08959091900380912C
:100950008F03981750F4E92FF0E0E250FD4F20810B
:1009600030E09F5F9093900302C02FEF3FEFC901EB
:10097000089580918F0390E020919003821B91094C
:100980000895CF93DF931F921F92CDB7DEB7CB01AF
:10099000642F49835A83A1DF4981842F5A81952F7F
:1009A0000F900F90DF91CF910895CF93DF931F9217
:1009B000CDB7DEB7698361E0CE0101968EDF81E0BD
:1009C00090E00F90DF91CF910895DC01ED91FC91C3
:1009D0000280F381E02D19940F931F93CF93DF933F
:1009E00080919C038F5F80939C03809101028230F1
:1009F00009F44AC140F48823A1F0813009F07CC198
:100A00001092F30273C0833009F443C1843009F0BB
:100A100073C1C091F3020C2E000CDD0B03EE12E04B
:100A200052C160919D0370919E0380919F039091AC
:100A3000A0030E944D0E7093F5026093F402609142
:100A4000A1037091A2038091A3039091A4030E943B
:100A50004D0E7093F7026093F6026091A5037091BA
:100A6000A6038091A7039091A8030E944D0E709356
:100A7000F9026093F8026091A9037091AA03809132
:100A8000AB039091AC030E944D0E7093FB026093F8
:100A9000FA026091AD037091AE038091AF03909123
:100AA000B0030E944D0E7093FD026093FC024AE079
:100AB00050E064EF72E019C185EB93E0C5DC209152
:100AC000D3023091D40222303105B4F4F901ED5F44
:100AD000FD4F908189132EC0F901EF52FD4F108216
:100AE0002F5F3F4F3093D4022093D30285EB93E0E6
:100AF000CDDC892B09F7BFC02232310574F4F9012E
:100B0000E155FD4F80839091D102980F9093D102CF
:100B10004091D202940F9093D2022F5F3F4F3093B7
:100B2000D4022093D3022332310549F49091D102AB
:100B30008917E1F21092D4021092D302D7CF243257
:100B4000310509F093C01092D4021092D302909113
:100B5000D2028913CBCF8091BD029091BE02A091A9
:100B6000BF02B091C0028093D9029093DA02A093A1
:100B7000DB02B093DC028091B9029091BA02A0919D
:100B8000BB02B091BC028093D5029093D602A09391
:100B9000D702B093D8028091C1029091C202A09175
:100BA000C302B091C4028093DD029093DE02A09351
:100BB000DF02B093E0024091CD025091CE026091ED
:100BC000CF027091D0028AE0769567955795479548
:100BD0008A95D1F74093CD025093CE026093CF0215
:100BE0007093D0028091C9029091CA02A091CB0269
:100BF000B091CC022AE0B695A795979587952A954E
:100C0000D1F78093C9029093CA02A093CB02B0930C
:100C1000CC024F3F51056105710529F020F04FEFDF
:100C200050E060E070E04093E2028F3F9105A10543
:100C3000B10529F020F08FEF90E0A0E0B0E08093C4
:100C4000E1028091B00291E0980F9093B002806829
:100C500090910002891709F449CF809300028EE039
:100C60008093F30282E08093010205C025323105B2
:100C70000CF060CF3BCF6091F3028CE895E0DF9100
:100C8000CF911F910F9191CE4EE050E065ED72E053
:100C90002CC082E594E0FADB8093F302882361F1B3
:100CA0008091F30281311CF080E18093F302609126
:100CB000F3028CE895E079DE84E0809301021CC0A9
:100CC000F80181938F01C801835E92408C179D07C4
:100CD00028F482E594E002DB97FFF2CF4091F30223
:100CE000042E000C550B63EE72E08CE895E0DF916A
:100CF000CF911F910F9169CEDF91CF911F910F91ED
:100D00000895009761F0FC0101900020E9F7319708
:100D1000AF01481B590BBC018FEE94E01BCB80E068
:100D200090E008958F929F92AF92BF920F931F937E
:100D3000CF93DF93CDB7DEB7A1970FB6F894DEBFA0
:100D40000FBECDBF19A2423008F44AE08E010F5DFC
:100D50001F4F842E912CA12CB12CA50194010ED7EC
:100D6000E62FB901CA0101501109EA3014F4E05D1F
:100D700001C0E95CD801EC93232B242B252B69F7C8
:100D8000C801BFDFA1960FB6F894DEBF0FBECDBF7E
:100D9000DF91CF911F910F91BF90AF909F908F9057
:100DA0000895ABD7EF92FF920F931F93CF93DF93EA
:100DB000EC018130910531F48CE895E0C6DD80933B
:100DC0000102BAC000E912E080579D4F7C010E1568
:100DD0001F0529F08CE895E081DA97FF11C080911A
:100DE0009002982F977081F0923009F0A0C0C15006
:100DF0004C2F50E061E972E082E594E0E6DD97C0B7
:100E0000F80181938F01E3CF2091910230919202FA
:100E1000482F459545954595809193029091940270
:100E200041114DC02038FEE33F0738F021304DE737
:100E3000340728F020E03DE702C020E83EE330938D
:100E4000AD002093AC008038EEE39E0738F081308F
:100E5000FDE79F0728F080E09DE702C080E89EE361
:100E60009093290180932801809195029091960298
:100E700080382EE3920738F081304DE7940728F050
:100E800080E09DE702C080E89EE390939900809304
:100E9000980080919702909198028038EEE39E0727
:100EA00038F08130FDE79F0728F080E09DE702C021
:100EB00080E89EE39093A9008093A80038C0203872
:100EC0004EE3340738F02130EDE73E0728F020E00C
:100ED0003DE702C020E83EE330939D0020939C0054
:100EE0008038FEE39F0738F081302DE7920728F025
:100EF00080E09DE702C080E89EE390932D018093FF
:100F00002C0160912C0170912D0180E090E04AE06D
:100F100009DF88E892E0F5DE60919C0070919D0009
:100F200080E090E04AE0FEDE8AE892E0EADE80912E
:100F30009C038F5F80939C03DF91CF911F910F9152
:100F4000FF90EF9008951F920F920FB60F92112409
:100F50000BB60F922F933F934F935F936F937F93B3
:100F60008F939F93AF93BF93EF93FF9385EB93E0A2
:100F7000B4DAFF91EF91BF91AF919F918F917F91E3
:100F80006F915F914F913F912F910F900BBE0F90FA
:100F90000FBE0F901F9018951F920F920FB60F92D1
:100FA00011240BB60F922F933F934F935F936F9340
:100FB0007F938F939F93AF93BF93EF93FF9385EBB3
:100FC00093E029DAFF91EF91BF91AF919F918F91BB
:100FD0007F916F915F914F913F912F910F900BBE39
:100FE0000F900FBE0F901F9018951F920F920FB683
:100FF0000F9211240BB60F922F933F934F935F9351
:101000006F937F938F939F93AF93BF93EF93FF93D0
:1010100082E594E062DAFF91EF91BF91AF919F91E9
:101020008F917F916F915F914F913F912F910F9091
:101030000BBE0F900FBE0F901F9018951F920F922E
:101040000FB60F9211240BB60F922F933F934F932D
:101050005F936F937F938F939F93AF93BF93EF9320
:10106000FF9382E594E0D7D9FF91EF91BF91AF91C3
:101070009F918F917F916F915F914F913F912F91B0
:101080000F900BBE0F900FBE0F901F9018951F92E0
:101090000F920FB60F9211240BB60F922F933F931E
:1010A0004F935F936F937F938F939F93AF93BF9370
:1010B000EF93FF938FEE94E010DAFF91EF91BF91E1
:1010C000AF919F918F917F916F915F914F913F91E0
:1010D0002F910F900BBE0F900FBE0F901F90189581
:1010E0001F920F920FB60F9211240BB60F922F93EF
:1010F0003F934F935F936F937F938F939F93AF93A0
:10110000BF93EF93FF938FEE94E085D9FF91EF911A
:10111000BF91AF919F918F917F916F915F914F910F
:101120003F912F910F900BBE0F900FBE0F901F900D
:1011300018951F920F920FB60F9211242F933F9381
:101140008F939F93AF93BF938091B1039091B2031C
:10115000A091B303B091B4033091850323E0230F32
:101160002D3720F40196A11DB11D05C026E8230FDF
:101170000296A11DB11D209385038093B103909326
:10118000B203A093B303B093B4038091860390910C
:101190008703A0918803B09189030196A11DB11D19
:1011A0008093860390938703A0938803B093890369
:1011B000BF91AF919F918F913F912F910F900FBE53
:1011C0000F901F9018951F920F920FB60F92112437
:1011D0000BB60F922F933F934F935F936F937F9331
:1011E0008F939F93AF93BF93EF93FF938091B90039
:1011F000887F803609F49CC068F5883209F45BC0AA
:1012000090F4803109F454C038F4882309F4F6C00E
:10121000883009F44DC0F5C0883109F44CC08032E3
:1012200009F45DC0EEC0803409F468C048F480332E
:1012300009F455C0883309F0E4C080936103D8C035
:10124000803509F44FC0883509F45DC0883409F051
:10125000D8C0D6C0883909F4C7C0A8F4883709F4C3
:1012600067C038F4883609F463C0803709F460C079
:10127000C8C0883809F4B8C0803909F45FC0803824
:1012800009F0BFC05BC0803B09F486C038F4803AE7
:1012900009F466C0883A09F47FC0B3C0803C09F401
:1012A000A7C0883C09F4A4C0883B09F48AC0A9C03F
:1012B0008091840310C090918303809182039817DA
:1012C00070F5E091830381E08E0F80938303F0E05B
:1012D000EE59FC4F80818093BB0085EC86C08093E3
:1012E00061038EC0E091830381E08E0F80938303BE
:1012F0008091BB00F0E0EE59FC4F80839091830316
:10130000809182036EC0E091830381E08E0F809311
:1013100083038091BB00F0E0EE59FC4F8083809105
:101320008B0381116DC081E080938A0384EA61C0E0
:1013300083E080938C0310926003CFCF8091600391
:10134000803208F051C0E091600381E08E0F8093FD
:1013500060038091BB00F0E0E05CFC4F8083BDCF78
:1013600085EC8093BC0010928C03809160038032E6
:1013700030F4E0916003F0E0E05CFC4F108260919B
:10138000600370E0E0919103F091920380E493E0B8
:1013900019951092600335C084E080938C031092FD
:1013A0003F0310923E03E0919303F091940319954B
:1013B00080913E03811105C081E080933E0310922D
:1013C0001E03E0913F0381E08E0F80933F03F0E026
:1013D000E25EFC4F80818093BB0090913F0380913F
:1013E0003E03981708F479CF85E88093BC0009C0C4
:1013F00085EC8093BC0010928C0303C010926103B3
:1014000062DAFF91EF91BF91AF919F918F917F91A0
:101410006F915F914F913F912F910F900BBE0F9065
:101420000FBE0F901F901895E5EBF3E01382128228
:1014300088EE93E0A0E0B0E084839583A683B78331
:101440002CE632E03183208345E351E05587448721
:1014500044E351E05787468740E351E0518B408B8E
:1014600041E351E0538B428B42E351E0558B448B77
:1014700046E351E0578B468B118E128E138E148EDD
:10148000E2E5F4E01382128284839583A683B78316
:101490003183208345ED50E05587448744ED50E08B
:1014A0005787468740ED50E0518B408B41ED50E02F
:1014B000538B428B42ED50E0558B448B46ED50E010
:1014C000578B468B118E128E138E148EEFEEF4E036
:1014D0001382128284839583A683B783318320830A
:1014E00025EC30E03587248724EC30E037872687E9
:1014F00020EC30E0318B208B21EC30E0338B228BE1
:1015000022EC30E0358B248B26EC30E0378B268BB9
:10151000118E128E138E148EECE8F5E01382128277
:1015200084839583A683B7838CE792E0918380833D
:101530000895CF93DF9300D01F92CDB7DEB7789494
:1015400084B5826084BD84B5816084BD85B58260C8
:1015500085BD85B5816085BD80916E008160809379
:101560006E001092810080918100826080938100E2
:1015700080918100816080938100809180008160F2
:10158000809380008091B10084608093B10080914D
:10159000B00081608093B000809191008260809360
:1015A00091008091910081608093910080919000E2
:1015B0008160809390008091A10082608093A1005F
:1015C0008091A10081608093A1008091A000816042
:1015D0008093A000809121018260809321018091FD
:1015E000210181608093210180912001816080939D
:1015F000200180917A00846080937A0080917A0043
:10160000826080937A0080917A00816080937A0072
:1016100080917A00806880937A001092C10061E026
:101620008EE296D861E085E093D861E086E090D8BC
:1016300061E088E08DD861E08CE28AD861E083E0E7
:1016400087D89AEB9093900089E1809391009093D2
:10165000A0008093A100909320018093210180E855
:101660009BEB90932701809326019093A700809392
:10167000A600909397008093960080EC9DE5909350
:101680009D0080939C0090932D0180932C0180E815
:101690009EE39093A9008093A80090939900809373
:1016A000980090932901809328019093AD00809336
:1016B000AC008FEE94E00E94470182E594E00E9426
:1016C000470185EB93E00E944701C8D80DE512E081
:1016D000F80161918F0185EB93E00E948E02F2E0A8
:1016E00008361F07A9F7BAD802E512E0F8016191A0
:1016F0008F0185EB93E00E948E02F2E00D351F070B
:10170000A9F7ACD807E412E0F80161918F0185EBED
:1017100093E00E948E02F2E002351F07A9F79ED8DF
:101720000CE312E0F80161918F0185EB93E00E94D8
:101730008E02F2E007341F07A9F790D801E312E008
:10174000F80161918F0185EB93E00E948E02F2E037
:101750000C331F07A9F782D806E212E0F801619165
:101760008F0185EB93E00E948E02F2E001331F07A8
:10177000A9F774D80BE112E0F80161918F0185EBB4
:1017800093E00E948E02F2E006321F07A9F766D8A6
:1017900065D805E012E0F80161918F0185EB93E0D7
:1017A0000E948E02F2E00B311F07A9F761E08EE183
:1017B0000E94A80360E08FE10E94A80360E08EE130
:1017C0000E94790383E08093020282E18093BA0051
:1017D00085ED91E0909394038093930381EE91E0E3
:1017E00090939203809391031092900310928F0331
:1017F00010928E0310928D0310928C0381E08093DF
:101800008B0310928A0361E084E10E94790361E016
:1018100085E10E9479038091B9008E7F8093B900A1
:101820008091B9008D7F8093B9008CE08093B800DF
:1018300085E48093BC008CEE94E0909396038093B3
:10184000950382ED96E0909398038093970301E0CF
:1018500012E03BEBE32E31E0F32E45E7C42E41E0EE
:10186000D42E50E8652E5EE3752E88E30E94E403D3
:1018700020919D0330919E0340919F035091A003BE
:1018800080909D0390909E03A0909F03B090A00332
:10189000BC01990F880B990B29833A834B835C8396
:1018A00036D229813A814B815C8192D12AE037ED91
:1018B00043E25CE38BD29B01AC01C501B40189D149
:1018C00060939D0370939E0380939F039093A00366
:1018D00086E30E94E4032091A1033091A20340918A
:1018E000A3035091A4038090A1039090A203A09021
:1018F000A303B090A403BC01990F880B990B298313
:101900003A834B835C8303D229813A814B815C818A
:101910005FD12AE037ED43E25CE358D29B01AC0192
:10192000C501B40156D16093A1037093A2038093C3
:10193000A3039093A4038CE30E94E4032091A503E6
:101940003091A6034091A7035091A8038090A5036E
:101950009090A603A090A703B090A803BC01990F94
:10196000880B990B29833A834B835C83D0D12981DF
:101970003A814B815C812CD12AE037ED43E25CE374
:1019800025D29B01AC01C501B40123D16093A5030D
:101990007093A6038093A7039093A8038AE30E9401
:1019A000E4032091A9033091AA034091AB03509125
:1019B000AC038090A9039090AA03A090AB03B090D1
:1019C000AC03BC01990F880B990B29833A834B8395
:1019D0005C839DD129813A814B815C81F9D02AE0D9
:1019E00037ED43E25CE3F2D19B01AC01C501B401E8
:1019F000F0D06093A9037093AA038093AB039093F4
:101A0000AC0387E30E94E4032091AD033091AE0361
:101A10004091AF035091B0038090AD039090AE031E
:101A2000A090AF03B090B003BC01990F880B990B45
:101A300029833A834B835C836AD129813A814B8124
:101A40005C81C6D02AE037ED43E25CE3BFD19B0165
:101A5000AC01C501B401BDD06093AD037093AE037A
:101A60008093AF039093B003F8018491F701A490A1
:101A7000F601B490BB20A9F081110E9423038B2DA5
:101A800090E0880F991F845C9E4FFC01A591B49152
:101A90008C91A82231E020E009F430E0832F922FCE
:101AA00002C080E090E02FB7F8944091B1035091CC
:101AB000B2036091B3037091B4032FBF493853410F
:101AC00061057105C0F1892BB1F50E940904682FE9
:101AD000609561708EE10E94790390919C038091E2
:101AE0009B03981749F080919C0380939B0310926D
:101AF0009A03109299031CC08091990390919A03C4
:101B0000019690939A03809399038D32914080F0CF
:101B10007092AD006092AC00709229016092280131
:101B200070929900609298007092A9006092A8004B
:101B30000E94F5029ACE6091AD037091AE03809140
:101B4000AF039091B00321EC3CE54FE254E4D1D0D7
:101B5000181694F46091AD037091AE038091AF03B9
:101B60009091B0032AEE3DE44FE354E4CAD0682FCD
:101B7000661F6627661FAECF60E0ACCFA1E21A2ECB
:101B8000AA1BBB1BFD010DC0AA1FBB1FEE1FFF1F21
:101B9000A217B307E407F50720F0A21BB30BE40B71
:101BA000F50B661F771F881F991F1A9469F76095B8
:101BB0007095809590959B01AC01BD01CF01089572
:101BC000EE0FFF1F881F8BBF0790F691E02D199431
:101BD0005058BB27AA270ED073C164D130F069D109
:101BE00020F031F49F3F11F41EF459C10EF4E0953A
:101BF000E7FB4FC1E92F75D180F3BA17620773076E
:101C00008407950718F071F49EF58DC10EF4E095E8
:101C10000B2EBA2FA02D0B01B90190010C01CA01A6
:101C2000A0011124FF27591B99F0593F50F4503E51
:101C300068F11A16F040A22F232F342F4427585F43
:101C4000F3CF469537952795A795F0405395C9F75B
:101C50007EF41F16BA0B620B730B840BBAF0915013
:101C6000A1F0FF0FBB1F661F771F881FC2F70EC0B2
:101C7000BA0F621F731F841F48F487957795679585
:101C8000B795F7959E3F08F0B3CF9395880F08F06E
:101C90009927EE0F9795879508952BD188F09F5738
:101CA00090F0B92F9927B751A0F0D1F0660F771FA8
:101CB000881F991F1AF0BA95C9F712C0B13081F088
:101CC00032D1B1E008952FC1672F782F8827B85FF0
:101CD00039F0B93FCCF3869577956795B395D9F7E9
:101CE0003EF490958095709561957F4F8F4F9F4FF3
:101CF000089548D008F48FEF089581E090E0F894BB
:101D000019C140D008F481E00895E89409C097FB18
:101D10003EF490958095709561957F4F8F4F9F4FC2
:101D20009923A9F0F92F96E9BB279395F695879506
:101D300077956795B795F111F8CFFAF4BB0F11F4C9
:101D400060FF1BC06F5F7F4F8F4F9F4F16C0882370
:101D500011F096E911C0772321F09EE8872F762FA6
:101D600005C0662371F096E8862F70E060E02AF0E7
:101D70009A95660F771F881FDAF7880F96958795D3
:101D800097F90895990F0008550FAA0BE0E8FEEFA8
:101D900016161706E807F907C0F012161306E4072F
:101DA000F50798F0621B730B840B950B39F40A2628
:101DB00061F0232B242B252B21F408950A2609F406
:101DC000A140A6958FEF811D811D08950BD078C08D
:101DD00069D028F06ED018F0952309F05AC05FC082
:101DE0001124A2C07ED0A0F3959FD1F3950F50E0AF
:101DF000551F629FF001729FBB27F00DB11D639FBD
:101E0000AA27F00DB11DAA1F649F6627B00DA11D62
:101E1000661F829F2227B00DA11D621F739FB00D08
:101E2000A11D621F839FA00D611D221F749F332778
:101E3000A00D611D231F849F600D211D822F762F11
:101E40006A2F11249F5750408AF0E1F088234AF00E
:101E5000EE0FFF1FBB1F661F771F881F915050405A
:101E6000A9F79E3F510570F014C05EC05F3FECF3D0
:101E7000983EDCF3869577956795B795F795E79546
:101E80009F5FC1F7FE2B880F911D9695879597F957
:101E9000089597F99F6780E870E060E008959FEFEC
:101EA00080EC089500240A941616170618060906F1
:101EB000089500240A9412161306140605060895C0
:101EC000092E0394000C11F4882352F0BB0F40F448
:101ED000BF2B11F460FF04C06F5F7F4F8F4F9F4F88
:101EE000089557FD9058440F551F59F05F3F71F00A
:101EF0004795880F97FB991F61F09F3F79F0879571
:101F00000895121613061406551FF2CF4695F1DFF9
:101F100008C0161617061806991FF1CF8695710589
:101F2000610508940895E894BB2766277727CB01BD
:081F300097F90895F894FFCF22
:101F3800640F01B562B5620608060064000100017D
:101F4800007A12B562060800000E30B56206010379
:101F580000F00500FF19B56206010300F00400FE59
:101F680017B56206010300F00300FD15B56206010E
:101F78000300F00200FC13B56206010300F0010043
:101F8800FB11B56206010300F00000FA0FB5620606
:101F98000103000102010E47000000008E02AA01A1
:101FA800460224023802D40200000000D504C1040D
:0E1FB800B904A5049604950420000D0A00004B
:00000001FF
