:1000000015C1000044C1000042C1000040C1000011
:100010003EC100003CC100003AC1000038C10000F0
:1000200036C1000034C1000032C1000030C1000000
:100030002EC100002CC100002AC1000028C1000010
:1000400026C1000024C1000022C1000020C1000020
:100050001EC100001CC100001AC100006CC60000D7
:1000600016C1000014C1000012C1000010C1000040
:100070000EC100000CC100000AC1000008C1000050
:1000800006C1000004C1000002C1000000C1000060
:10009000FEC00000FCC00000FAC0000096C60000D0
:1000A000F6C00000F4C00000F2C00000F0C0000084
:1000B000EEC00000ECC00000EAC00000E8C0000094
:1000C000E6C00000E4C00000E2C00000E0C00000A4
:1000D000DEC00000DCC000000CC20000E1C1000076
:1000E000D6C000004A044D043C0440044604840485
:1000F000510455045B045F04630469046D047104D6
:10010000840477047B047F04000020002300260081
:1001100029002C002F00320000010000030106011D
:10012000090100000A0B02090C0D0E080703040167
:1001300000000000000000000000000000000000BF
:10014000000000000000000000000000000012118C
:10015000100000000000000000000000000000008F
:100160000000000000000000000021002400270023
:100170002A002D00300033000101000004010701B6
:100180000A010102102020080810204010204080A1
:10019000020102010804020101020408102040804B
:1001A00080402010080402018004020180402010D9
:1001B0000804020108040201010204081020408022
:1001C00001020408102040800000220025002800C1
:1001D0002B002E003100340002010000050108014F
:1001E0000B010505050507050808080802020202BB
:1001F0000A0A0808040404040101010101010101C3
:100200000303030303030303040707070C0C0C0C8D
:100210000C0C0C0C02020202060606060606060676
:100220000B0B0B0B0B0B0B0B1011031111241FBE2F
:10023000CFEFD1E2DEBFCDBF00E00CBF25E0A0E2F2
:10024000B3E001C01D92A831B207E1F713E0A0E0CE
:10025000B2E0EAE9F9E200E00BBF02C007900D92BC
:10026000A032B107D9F711E0C5E1D1E000E006C046
:1002700021970109802FFE010E946E13C431D1071E
:1002800080E00807A9F70E949F090C94BC14B8CE1F
:10029000FC01538D448D252F30E0842F90E0821B8C
:1002A000930B541710F0CF96089501970895FC0111
:1002B000918D828D981761F0828DDF01A80FB11D9D
:1002C0005D968C91928D9F5F9F73928F90E00895C1
:1002D0008FEF9FEF0895FC01918D828D981731F07B
:1002E000828DE80FF11D858D90E008958FEF9FEFCF
:1002F0000895FC01918D228D892F90E0805C9F4FA5
:10030000821B91098F739927089586E594E0F1DFA8
:1003100021E0892B09F420E0822F0895FC01848DCF
:10032000DF01A80FB11DA35ABF4F2C91848D90E01F
:1003300001968F739927848FA689B7892C93A089FA
:10034000B1898C9180648C93938D848D981306C0B1
:100350000288F389E02D80818F7D80830895EF925C
:10036000FF920F931F93CF93DF93EC0181E0888F6F
:100370009B8D8C8D981305C0E889F989808185FD56
:1003800023C0F62E0B8D10E00F5F1F4F0F73112748
:10039000E02E8C8DE8120BC00FB607FCFACFE8896F
:1003A000F989808185FFF5CFCE01B8DFF2CF8B8D43
:1003B000FE01E80FF11DE35AFF4FF0820B8FEA892F
:1003C000FB898081806207C0EE89FF896083E889AC
:1003D000F98980818064808381E090E0DF91CF9112
:1003E0001F910F91FF90EF900895CF93DF93EC0151
:1003F000888D8823C1F0EA89FB89808185FD05C04D
:10040000A889B9898C9186FD0EC00FB607FCF5CF7F
:10041000808185FFF2CFA889B9898C9185FFEDCFC6
:10042000CE017CDFE8CFDF91CF91089580E090E0AE
:10043000892B41F080E090E0892B21F00E940000A0
:10044000811120C080E090E0892B41F080E090E0B5
:10045000892B21F00E940000811117C080E090E0FC
:10046000892B41F080E090E0892B21F00E94000070
:1004700081110EC080E090E0892B79F046DF811178
:100480000AC008950E940000DDCF0E940000E6CF60
:100490000E940000EFCF0C94000008950E94B81451
:1004A0001F920F920FB60F9211240BB60F922F933B
:1004B0003F934F935F936F937F938F939F93AF93EC
:1004C000BF93EF93FF9386E594E028DFFF91EF91D0
:1004D000BF91AF919F918F917F916F915F914F915C
:1004E0003F912F910F900BBE0F900FBE0F901F905A
:1004F00018951F920F920FB60F9211240BB60F9200
:100500002F938F939F93EF93FF93E0916604F09165
:1005100067048081E0916C04F0916D0482FD12C04B
:10052000908180916F048F5F8F7320917004821788
:1005300051F0E0916F04F0E0EA5AFB4F958F809301
:100540006F0401C08081FF91EF919F918F912F9156
:100550000F900BBE0F900FBE0F901F9018951F931A
:10056000CF93DF93282F30E0F901EE5DFE4F8491A9
:10057000F901EE57FE4FD491F901EE51FE4FC491AF
:10058000CC23C1F0162F81116AD1EC2FF0E0EE0FD1
:10059000FF1FE853FE4FA591B4918FB7F894111146
:1005A00005C09C91ED2FE095E92302C0EC91ED2B65
:1005B000EC938FBFDF91CF911F91089585ED8093CC
:1005C000BC008091BC0084FDFCCF109222030895F2
:1005D00040910604262F30E0240F311D21323105D1
:1005E000DCF4209122032430C9F4FC0180E090E087
:1005F000861758F4309106042191DC01AA51BC4FB2
:10060000A30FB11D2C930196F3CF80910604680FC0
:100610006093060480E0089581E0089582E00895E3
:10062000E0912B03F0912C03309729F010922403D2
:100630001092230319940895CF93DF93AC01E091B6
:100640002D03F0912E033097F1F0909126038091C5
:1006500025039817C0F090E0292F30E026173707C0
:1006600054F4D901AA53BC4FEA01C20FD31F8881A9
:100670008C939F5FF1CF1092260360932503CB01EB
:10068000DF91CF911994DF91CF9108950895E09172
:10069000260380912503E81730F4F0E0EA53FC4F7D
:1006A000808190E008958FEF9FEF08959091260349
:1006B00080912503981750F4E92FF0E0EA53FC4F9E
:1006C000208130E09F5F9093260302C02FEF3FEF21
:1006D000C90108958091250390E020912603821B93
:1006E00091090895CF93DF931F921F92CDB7DEB784
:1006F000CB01642F49835A836BDF4981842F5A8150
:10070000952F0F900F90DF91CF910895CF93DF93A6
:100710001F92CDB7DEB7698361E0CE01019658DF45
:1007200081E090E00F90DF91CF910895089580E0EF
:1007300090E0089580913F038F5F80933F03809105
:100740002502813009F457C020F0823009F46CC0D2
:10075000089560914D0370914E0380914F039091E5
:1007600050030E943E137093BD036093BC036091DD
:1007700051037091520380915303909154030E944E
:100780003E137093BF036093BE0360915503709155
:10079000560380915703909158030E943E13709323
:1007A000C1036093C0036091590370915A03809113
:1007B0005B0390915C030E943E137093C3036093AC
:1007C000C20360915D0370915E0380915F0390911D
:1007D00060030E943E137093C5036093C403E091CD
:1007E000F304F091F4040280F381E02D4AE050E03C
:1007F0006CEB73E024C0809140038093BB031092A4
:1008000040038091420381110AC080912302882312
:1008100031F09091230280912402981313C06091CB
:10082000BB0383EF94E072CFE091F304F091F40402
:100830000280F381E02D4EE050E06FE273E083EF41
:1008400094E01994809123028093240282E08093A3
:1008500025028091BB0382608093BB03E0CF90E0D0
:10086000FC013197E231F10508F04EC08827EE58BF
:10087000FF4F8F4F0C946E13809180008F7703C0D1
:10088000809180008F7D809380000895809180000A
:10089000877FF9CF84B58F7702C084B58F7D84BD03
:1008A00008958091B0008F7703C08091B0008F7D54
:1008B0008093B0000895809190008F7707C0809159
:1008C00090008F7D03C080919000877F809390007F
:1008D00008958091A0008F7707C08091A0008F7D40
:1008E00003C08091A000877F8093A000089580912D
:1008F00020018F7707C0809120018F7D03C08091F8
:100900002001877F809320010895CF93DF9390E0AB
:10091000FC01EE57FE4F2491FC01EE51FE4F8491F5
:10092000882361F190E0880F991FFC01E859FE4F80
:10093000C591D491FC01E853FE4FA591B49161118A
:1009400009C09FB7F8948881209582238883EC9111
:100950002E230BC0623061F49FB7F8943881822F48
:10096000809583238883EC912E2B2C939FBF06C008
:100970008FB7F894E8812E2B28838FBFDF91CF911A
:100980000895863308F0865390917B00282F2870B5
:10099000977F922B90937B0087702091000290E4C8
:1009A000299F90011124822B80937C0080917A00F2
:1009B000806480937A0080917A0086FDFCCF8091DC
:1009C00078002091790090E0922B08953FB7F89439
:1009D0008091520490915304A0915404B091550415
:1009E00026B5A89B05C02F3F19F00196A11DB11D8A
:1009F0003FBFBA2FA92F982F8827820F911DA11DC5
:100A0000B11DBC01CD0142E0660F771F881F991F01
:100A10004A95D1F708952FB7F89460914E047091DC
:100A20004F0480915004909151042FBF08958F92EC
:100A30009F92AF92BF92EF92FF920F931F93CF932B
:100A4000DF93EC0180913E038F5F80933E03C130C2
:100A5000D10531F483EF94E029DE8093250260C153
:100A60000BE913E0CE0185569C4F7C010E151F0546
:100A700089F1D1DF6093FB047093FC048093FD0443
:100A80009093FE04E091F304F091F4040284F38562
:100A9000E02D83EF94E0199597FF68C0BCDF80904C
:100AA000FB049090FC04A090FD04B090FE04DC01D7
:100AB000CB0188199909AA09BB098090F704909085
:100AC000F804A090F904B090FA0488159905AA05D5
:100AD000BB05C0F220919B03822F8770813009F4FF
:100AE000CEC024F4882309F445C00AC1823009F439
:100AF000E2C0833009F004C1822F022E000C990B52
:100B000033E0959587953A95E1F780933D03809181
:100B10003D0390E0019730919C03FC01EE0FFF1F15
:100B20008E0F9F1FFC01EE5FFD4F308380913D03D0
:100B300090E0019730919D03FC01EE0FFF1F8E0F97
:100B40009F1FFC01EE5FFD4F318340913D0350E05C
:100B50004150510980919E03FA01EE0FFF1F4E0F85
:100B60005F1FFA01EE5FFD4F8283CAC0F8018193D7
:100B70008F017CCF80919C0390919D0325952595B5
:100B8000259509F055C0209143032111C9C0803833
:100B9000FEE39F0738F081302DE7920728F080E0D0
:100BA0009DE702C080E89EE39093AD008093AC0087
:100BB00080919E0390919F038038EEE39E0738F06A
:100BC0008130FDE79F0728F080E09DE702C080E8C4
:100BD0009EE390932901809328018091A003909136
:100BE000A10380382EE3920738F08130EDE79E07AD
:100BF00028F080E09DE702C080E89EE39093990092
:100C0000809398008091A2039091A3038038FEE323
:100C10009F0738F081302DE7920728F080E09DE7AC
:100C200002C080E89EE39093A9008093A80078C05A
:100C30008038EEE39E0738F08130FDE79F0728F00B
:100C400080E09DE702C080E89EE390939D00809342
:100C50009C0080919E0390919F0380382EE3920721
:100C600038F08130EDE79E0728F080E09DE702C074
:100C700080E89EE390932D0180932C0151C08091D8
:100C80009C038031ACF0803109F04AC060E089E11A
:100C900066DCC1DEDC01CB010A96A11DB11D80938B
:100CA000640390936503A0936603B093670338C011
:100CB0008093410335C080919C0390919D03809364
:100CC00045039093460310924703109248031092F5
:100CD000490310924A0310924B0310924C038091E7
:100CE0009E0390919F03909363038093620380918E
:100CF000A00380934403109243031092610310C039
:100D0000279771F423FB222720F920931C0286E009
:100D1000ECE9F3E0ADE1B2E001900D928A95E1F7E4
:100D2000DF91CF911F910F91FF90EF90BF90AF9007
:100D30009F908F9008951F920F920FB60F921124DB
:100D40002F933F938F939F93AF93BF9380914E04C4
:100D500090914F04A0915004B091510430914D04F2
:100D600023E0230F2D3720F40196A11DB11D05C0EE
:100D700026E8230F0296A11DB11D20934D048093F8
:100D80004E0490934F04A0935004B093510480916B
:100D9000520490915304A0915404B09155040196CB
:100DA000A11DB11D8093520490935304A093540449
:100DB000B0935504BF91AF919F918F913F912F9127
:100DC0000F900FBE0F901F9018951F920F920FB6A5
:100DD0000F9211240BB60F922F933F934F935F9373
:100DE0006F937F938F939F93AF93BF93EF93FF93F3
:100DF0008091B900887F803609F49CC068F58832FC
:100E000009F45BC090F4803109F454C038F48823AD
:100E100009F4F6C0883009F44DC0F5C0883109F4F2
:100E20004CC0803209F45DC0EEC0803409F468C063
:100E300048F4803309F455C0883309F0E4C0809346
:100E40002904D8C0803509F44FC0883509F45DC045
:100E5000883409F0D8C0D6C0883909F4C7C0A8F4CE
:100E6000883709F467C038F4883609F463C08037DE
:100E700009F460C0C8C0883809F4B8C0803909F4E2
:100E80005FC0803809F0BFC05BC0803B09F486C0FA
:100E900038F4803A09F466C0883A09F47FC0B3C0D8
:100EA000803C09F4A7C0883C09F4A4C0883B09F43D
:100EB0008AC0A9C080914C0410C090914B048091CD
:100EC0004A04981770F5E0914B0481E08E0F8093EF
:100ED0004B04F0E0E65DFB4F80818093BB0085EC26
:100EE00086C0809329048EC0E0914B0481E08E0F70
:100EF00080934B048091BB00F0E0E65DFB4F808364
:100F000090914B0480914A046EC0E0914B0481E0C3
:100F10008E0F80934B048091BB00F0E0E65DFB4FA9
:100F200080838091210381116DC081E08093200333
:100F300084EA61C083E08093220310922804CFCF1B
:100F400080912804803208F051C0E091280481E0AB
:100F50008E0F809328048091BB00F0E0E85FFB4F88
:100F60008083BDCF85EC8093BC00109222038091DA
:100F70002804803230F4E0912804F0E0E85FFB4F71
:100F800010826091280470E0E0912703F09128031B
:100F900088E094E019951092280435C084E080938D
:100FA00022031092070410920604E0912903F091A5
:100FB0002A03199580910604811105C081E0809370
:100FC00006041092E603E091070481E08E0F8093FF
:100FD0000704F0E0EA51FC4F80818093BB009091C0
:100FE000070480910604981708F479CF85E8809368
:100FF000BC0009C085EC8093BC001092220303C0A2
:1010000010922904DBDAFF91EF91BF91AF919F918C
:101010008F917F916F915F914F913F912F910F90A1
:101020000BBE0F900FBE0F901F901895CF92DF92BE
:10103000EF92FF920F931F93CF93DF936C017A018E
:101040008B01C0E0D0E0CE15DF0589F0D8016D91AD
:101050008D01D601ED91FC910190F081E02DC6014A
:101060001995892B11F47E0102C02196ECCFC7019E
:10107000DF91CF911F910F91FF90EF90DF90CF9074
:1010800008950F931F93CF93DF93CDB7DEB72997C2
:101090000FB6F894DEBF0FBECDBF809107059091CB
:1010A0000805892B09F4A0C091DC00910D05109171
:1010B0000E0520910F0530911005DC01CB01801B3E
:1010C000910BA20BB30B8C329140A105B10560F3DB
:1010D000F89480910305909104059A838983E091A7
:1010E0000705F0910805DF011196808189879091AD
:1010F000FF04E0911105F0911205809113059923E9
:1011000009F42EC09081982B98879081809589232F
:101110008F838F818C8388E08B8358856F8149858D
:101120003B812C8189819A81508347FD252F3A95F7
:101130002083262F39F0441F00C000006083000088
:1011400000C0F2CF38E04D9160830000019761F755
:10115000F0931205E093110549873B832C8338C037
:101160009081982B98879081809589238F838F8198
:101170008E8388E08D8358856F8149853D812E81DE
:1011800089819A81508347FD252F00C000C02083AC
:1011900000C000C000C000C000C060830000262F57
:1011A0003A9541F0441F000000C000C000C000C0DC
:1011B00000C0E8CF38E04D9100C0608300C00197C7
:1011C00009F7F0931205E093110549873D832E83BB
:1011D0009A8389837894FADB60930D0570930E05EA
:1011E00080930F059093100529960FB6F894DEBFF3
:1011F0000FBECDBFDF91CF911F910F9108958F92B8
:101200009F92AF92BF92CF92DF92EF92FF92209186
:101210000105309102058217930708F052C04B0177
:10122000AA24BB24E82DC52ED62EE72EFF24FC2DA4
:10123000342F20910605222361F0829E4001112463
:10124000E92DC29E60011124FD2D429FD001112481
:101250003B2FF0900C05E0900905A0910705B09197
:101260000805FE1008C0AC01440F551F840F951FE0
:101270008A0F9B1F14C0880F991F880F991F8A0F10
:101280009B1F472F552766277727DC01AF0DB11D20
:10129000222321F0429FA0011124452F4C9320913D
:1012A0000905DC01A20FB11DEC9320910A05DC01B8
:1012B000A20FB11DFC9320910B05FC01E20FF11D63
:1012C0003083FF90EF90DF90CF90BF90AF909F90D2
:1012D0008F9008958F929F92AF92BF92CF92DF929C
:1012E000EF92FF9273DB4B015C0184E6C82ED12C98
:1012F000E12CF12C6BDBDC01CB0188199909AA09DF
:10130000BB09883E9340A105B10558F021E0C21AFF
:10131000D108E108F10888EE880E83E0981EA11C30
:10132000B11CC114D104E104F10421F7FF90EF9046
:10133000DF90CF90BF90AF909F908F900895CF9304
:10134000DF9300D01F92CDB7DEB7789484B582606A
:1013500084BD84B5816084BD85B5826085BD85B559
:10136000816085BD80916E00816080936E001092D7
:101370008100809181008260809381008091810052
:1013800081608093810080918000816080938000E3
:101390008091B10084608093B1008091B000816041
:1013A0008093B00080919100826080939100809141
:1013B0009100816080939100809190008160809382
:1013C00090008091A10082608093A1008091A10093
:1013D00081608093A1008091A00081608093A00033
:1013E000809121018260809321018091210181609F
:1013F0008093210180912001816080932001809160
:101400007A00846080937A0080917A008260809371
:101410007A0080917A00816080937A0080917A00CE
:10142000806880937A001092C10010929603109207
:101430009703109298031092990388EE93E090938B
:1014400063038093620381E0809345031092460317
:1014500010924703109248031092490310924A03D6
:1014600010924B0310924C038093440361E08EE290
:101470004CDA61E085E049DA61E086E046DA61E075
:1014800088E043DA61E08CE240DA61E083E03DDA53
:101490009AEB9093900089E1809391009093A00043
:1014A0008093A100909320018093210180E89BEB21
:1014B00090932701809326019093A7008093A60024
:1014C000909397008093960080EC9DE590939D000B
:1014D00080939C0090932D0180932C0180E89EE3E3
:1014E0009093A9008093A80090939900809398000E
:1014F00090932901809328019093AD008093AC00D4
:10150000E0916604F091670482E08083E0916204D8
:10151000F09163041082E0916404F09165048FEC13
:10152000808310926E04E0916A04F0916B0486E06F
:101530008083E0916804F0916904808180618083F8
:10154000E0916804F0916904808188608083E09173
:101550006804F0916904808180688083E091680468
:10156000F091690480818F7D8083B4DE04E812E00D
:10157000F80161918F0186E594E00E94AF01F2E0ED
:101580000F381F07A9F7A6DE09E712E0F8016191FD
:101590008F0186E594E00E94AF01F2E004381F0756
:1015A000A9F798DE0EE612E0F80161918F0186E559
:1015B00094E00E94AF01F2E009371F07A9F78ADE25
:1015C00003E612E0F80161918F0186E594E00E9444
:1015D000AF01F2E00E361F07A9F77CDE08E512E046
:1015E000F80161918F0186E594E00E94AF01F2E07D
:1015F00003361F07A9F76EDE0DE412E0F8016191D2
:101600008F0186E594E00E94AF01F2E008351F07E4
:10161000A9F760DE02E412E0F80161918F0186E52E
:1016200094E00E94AF01F2E00D341F07A9F752DEEB
:1016300051DE0CE212E0F80161918F0186E594E041
:101640000E94AF01F2E002341F07A9F761E08EE1CA
:101650005CD960E08FE159D961E089E156D960E059
:101660008EE10E94AF0261E089E10E94AF0283E057
:101670008093000282E18093BA0080E193E090932E
:101680002A03809329038CE193E0909328038093AD
:101690002703109226031092250310922403109220
:1016A00023031092220381E08093210310922003F0
:1016B00061E084E10E94AF0261E085E10E94AF0237
:1016C0008091B9008E7F8093B9008091B9008D7FA1
:1016D0008093B90088E48093B80085E48093BC00CF
:1016E0008AE993E090932C0380932B0387E195E0A4
:1016F00090932E0380932D038091050587FD07C0ED
:1017000061E003D960E0809105050E94AF0281E0AD
:101710008093000500E010E040E051E060E070E000
:10172000C8016DDD0F5F1F4F08301105A9F7A9DC57
:101730009BE088E10FB6F894A895809360000FBEF7
:10174000909360008091640390916503A09166037B
:10175000B0916703892B8A2B8B2B79F0C09064039F
:10176000D0906503E0906603F090670354D9C616E5
:10177000D706E806F90608F4F4C488E302D96091B4
:1017800062037091630320916103422F50E021E0D6
:1017900030E08617970710F020E030E0240F351F67
:1017A0002093610320914D0330914E0340914F03EC
:1017B00050915003C0904D03D0904E03E0904F03E2
:1017C000F0905003BC01990F880B990B29833A8341
:1017D0004B835C83DBD529813A814B815C81E9D6DF
:1017E0002AE037ED43E25CE330D69B01AC01C70150
:1017F000B601E0D660934D0370934E0380934F0380
:101800009093500386E3BDD86091620370916303A7
:1018100020916103422F50E021E030E086179707C6
:1018200010F020E030E0240F351F20936103209159
:101830005103309152034091530350915403C0908F
:101840005103D0905203E0905303F0905403BC0135
:10185000990F880B990B29833A834B835C8396D528
:1018600029813A814B815C81A4D62AE037ED43E29D
:101870005CE3EBD59B01AC01C701B6019BD660933D
:1018800051037093520380935303909354038CE35A
:1018900078D8609162037091630320916103422FB5
:1018A00050E021E030E08617970710F020E030E0AC
:1018B000240F351F20936103209155033091560367
:1018C0004091570350915803C0905503D090560350
:1018D000E0905703F0905803BC01990F880B990BC7
:1018E00029833A834B835C8351D529813A814B818B
:1018F0005C815FD62AE037ED43E25CE3A6D59B012D
:10190000AC01C701B60156D66093550370935603D8
:1019100080935703909358038AE333D8609162030E
:101920007091630320916103422F50E021E030E089
:101930008617970710F020E030E0240F351F209322
:1019400061031FD82091590330915A0340915B03E2
:1019500050915C03C0905903D0905A03E0905B0310
:10196000F0905C03BC01990F880B990B29833A8393
:101970004B835C830BD529813A814B815C8119D6DD
:101980002AE037ED43E25CE360D59B01AC01C7017F
:10199000B60110D66093590370935A0380935B038A
:1019A00090935C0380916103882309F458C033D875
:1019B000409096035090970360909803709099031D
:1019C000411451046104710449F4609396037093C7
:1019D0009703809398039093990341C0A090450387
:1019E000B0904603C0904703D0904803E09049036D
:1019F000F0904A0300914B0310914C03DC01CB01A2
:101A000084199509A609B7091C012D019C01A201A1
:101A100060E070E080E090E075D609F100F190910F
:101A20006103809144038917C0F481E080934303EC
:101A300080E8882E8EE3982E9092AD008092AC00C4
:101A400090922901809228019092990080929800AA
:101A50009092A9008092A80002C010926103C090E9
:101A60009603D0909703E0909803F0909903C114E7
:101A7000D104E104F104D1F10E940B05209145034A
:101A8000309146034091470350914803B091490378
:101A9000A0914A03F0914B03E0914C034B015C0190
:101AA0008C189D08AE08BF08650154016B2F7A2F72
:101AB0008F2F9E2FA4E61AD6322E432E542E852E1B
:101AC000B62FA72FF82FE92F9501A60160E070E04F
:101AD00080E090E0A32CB42CC52CD82CEB2EFA2E51
:101AE0000F2F1E2F0FD611F008F048C387E30E9476
:101AF000C10420915D0330915E0340915F035091DA
:101B00006003C0905D03D0905E03E0905F03F090AF
:101B10006003BC01990F880B990B29833A834B838F
:101B20005C8334D429813A814B815C8142D52AE09F
:101B300037ED43E25CE389D49B01AC01C701B601F8
:101B400039D560935D0370935E0380935F03909338
:101B5000600386E594E00E947901892B09F4D7C0DF
:101B600081E08093420386E594E00E945701209132
:101B70008B0330918C03223031058CF4F901E1574D
:101B8000FD4F9081891329C0F901E757FC4F10825E
:101B90002F5F3F4F30938C0320938B032FC0223253
:101BA000310574F4F901E959FC4F80839091890360
:101BB000980F9093890340918A03940F90938A031E
:101BC0002F5F3F4F30938C0320938B0323323105DB
:101BD00049F490918903891789F010928C0310922F
:101BE0008B030CC02432310509F088C010928C039D
:101BF00010928B0390918A03891711F080E083C0C3
:101C00008091750390917603A0917703B09178034A
:101C10008093330390933403A0933503B09336033A
:101C20008091710390917203A0917303B09174033A
:101C300080932F0390933003A0933103B09332032A
:101C40008091790390917A03A0917B03B0917C03FA
:101C50008093370390933803A0933903B0933A03EA
:101C600040918503509186036091870370918803AA
:101C70001AE076956795579547951A95D1F7409351
:101C80008503509386036093870370938803809144
:101C9000810390918203A0918303B09184030AE0B1
:101CA000B695A795979587950A95D1F78093810367
:101CB00090938203A0938303B09384034F3F510515
:101CC0006105710529F020F04FEF50E060E070E011
:101CD00040933C038F3F9105A105B10529F020F009
:101CE0008FEF90E0A0E0B0E080933B038091680329
:101CF00091E0980F90936803806805C02532310504
:101D00000CF06BCF7BCF8093230210924203809123
:101D10004103882309F416C1809141039091010287
:101D2000981709F45AC0809141038093010200E0A2
:101D300010E030914103A091410380914103F6E00E
:101D40009F2E989EC00111248F559D4FFC018081CC
:101D50009A9ED0011124AF55BD4F11964C9150E081
:101D600060E070E0762F652F542F4427682B939EF8
:101D7000F0011124EF55FD4F8281482BC8013FDA55
:101D800030914103A091410380914103989EC0018D
:101D900011248F559D4FFC0183819A9ED0011124FF
:101DA000AF55BD4F14964C9150E060E070E0762F37
:101DB000652F542F4427682B939EF0011124EF5573
:101DC000FD4F8581482BC801019619DA0E5F1F4F20
:101DD0000830110509F0ADCF54D9C0908E03D090D2
:101DE0008F03E0909003F0909103C114D104E104BB
:101DF000F10431F50E940B05E0914103F0E0EF564C
:101E0000FD4F208120FD05C008EC10E020E030E00F
:101E100004C008E512E020E030E0DC01CB01800FD7
:101E2000911FA21FB31F80938E0390938F03A093E3
:101E30009003B093910310928D0360911C020AC12C
:101E400010918D0310FF31C00E940B05C616D706F6
:101E5000E806F90608F001C160911C028EE10E94BB
:101E6000AF021F5F10938D030E940B05E0914103A9
:101E7000F0E0EF56FD4F208130E0169502C0359519
:101E800027951A95E2F720FD05C008EC10E020E048
:101E900030E004C008E512E020E030E0DC01CB01D6
:101EA000800F911FA21FB31F44C00E940B05C616CE
:101EB000D706E806F90608F0D0C060E08EE10E947F
:101EC000AF021F5F10938D03183058F11092410339
:101ED00010928E0310928F03109290031092910330
:101EE000FFEFF093010200E010E0F801EE0FFF1F9A
:101EF000E00FF11FEE5FFD4F82814181908150E044
:101F000060E070E0762F652F542F4427692B482B13
:101F1000C80175D90F5F1F4F0830110531F7B1D8CF
:101F20009CC00E940B05DC01CB018C599F4FAF4F29
:101F3000BF4F80938E0390938F03A0939003B09331
:101F400091038BC0E1E4F1E08491E1EAF1E00491D6
:101F5000E1E0F2E014911123A1F081110E942F041D
:101F6000E12FF0E0EE0FFF1FE85FFE4FA591B49167
:101F70008C91082331E020E009F430E0832F922F88
:101F800002C080E090E0F1E08F278170809395039C
:101F900090914003892B809340030E940B05693880
:101FA000734181059105A8F180919503882389F1FA
:101FB0000E94E60480958170F82E00E010E0809188
:101FC0002202FF2029F0409121029091200204C0BA
:101FD000409120029091210250E060E070E0762F65
:101FE000652F542F4427692B482BC80108D90F5F50
:101FF0001F4F0830110519F744D880911C0288231F
:1020000021F06F2D8EE10E94AF0281E08093940356
:1020100024C060915D0370915E0380915F03909195
:10202000600321EC3CE54FE254E454D318160CF065
:10203000AEC060915D0370915E0380915F039091EB
:1020400060032AEE3DE44FE354E49AD1682F661F03
:102050006627661F8EE10E94AF0290913F03809138
:102060001B02981709F495C090913E0380911A02C3
:10207000981709F48EC080913F0380931B028091D2
:102080003E0380931A021092930310929203809160
:102090009403882321F180919503811120C000E0F1
:1020A00010E0F801EE0FFF1FE00FF11FEE5FFD4F94
:1020B00082814181908150E060E070E0762F652F51
:1020C000542F4427692B482BC80199D80F5F1F4F05
:1020D0000830110531F70E94410810929403809155
:1020E0003D038823D1F180913D03815080933D03CE
:1020F00080913D0390E0FC01EE0FFF1F8E0F9F1FAC
:10210000FC01EE5FFD4F228180913D0390E0FC01D8
:10211000EE0FFF1F8E0F9F1FFC01EE5FFD4F4181F1
:1021200080913D0390E0FC01EE0FFF1F8E0F9F1F7B
:10213000FC01EE5FFD4F908180913D0350E060E037
:1021400070E0762F652F542F4427692B422B90E0A7
:1021500056D80E94410810923D03A8950E9416028D
:10216000F1CA1092640310926503109266031092F4
:10217000670361E089E10E94AF02FFCA10929603F3
:10218000109297031092980310929903AFCC60E0DD
:1021900061CF809192039091930301969093930362
:1021A000809392038D32914008F471CF80E89EE3D2
:1021B0009093AD008093AC00909329018093280107
:1021C00090939900809398009093A9008093A80021
:1021D00000E010E080911F0240911E0290911D02CC
:1021E00050E060E070E0762F652F542F4427692B74
:1021F000482BC80104D80F5F1F4F0830110551F755
:102200000E94410844CF809107059091080518D39A
:102210008091050587FD03C060E00C948504089556
:10222000109259041092580488EE93E0A0E0B0E0B8
:1022300080935A0490935B04A0935C04B0935D0474
:102240002FEF32E0309357042093560425E331E01A
:10225000309363042093620424E331E030936504F7
:102260002093640420E331E03093670420936604F4
:1022700021E331E0309369042093680422E331E0E4
:1022800030936B0420936A0426E331E030936D04AD
:1022900020936C0410926F041092700410927104D9
:1022A000109272041092F6041092F5048093F704D1
:1022B0009093F804A093F904B093FA0481E193E0B9
:1022C0009093F4048093F304109200051092060595
:1022D00010920D0510920E0510920F051092100528
:1022E00081E080930C058093090510920A0592E025
:1022F00090930B058093FF0488E190E09093040590
:102300008093030508D290930805809307050097F2
:1023100061F028E1FC0111922A95E9F788E090E04C
:10232000909302058093010508C010920405109255
:10233000030510920205109201058BE180930505BB
:1023400080910005882341F061E08BE10E948504C3
:1023500060E08BE10E94AF02EDEFF1E0E491F0E08C
:10236000EE0FFF1FE853FE4F859194919093120555
:1023700080931105EDE9F1E0E491E09313050895F0
:1023800040D008F481E00895E89409C097FB3EF43A
:1023900090958095709561957F4F8F4F9F4F9923B2
:1023A000A9F0F92F96E9BB279395F6958795779530
:1023B0006795B795F111F8CFFAF4BB0F11F460FFF0
:1023C0001BC06F5F7F4F8F4F9F4F16C0882311F048
:1023D00096E911C0772321F09EE8872F762F05C05C
:1023E000662371F096E8862F70E060E02AF09A95F7
:1023F000660F771F881FDAF7880F9695879597F9EC
:102400000895990F0008550FAA0BE0E8FEEF161685
:102410001706E807F907C0F012161306E407F507D8
:1024200098F0621B730B840B950B39F40A2661F04C
:10243000232B242B252B21F408950A2609F4A140EF
:10244000A6958FEF811D811D08950BD078C069D0AE
:1024500028F06ED018F0952309F05AC05FC01124FF
:10246000A2C07ED0A0F3959FD1F3950F50E0551FE9
:10247000629FF001729FBB27F00DB11D639FAA27D9
:10248000F00DB11DAA1F649F6627B00DA11D661F28
:10249000829F2227B00DA11D621F739FB00DA11D49
:1024A000621F839FA00D611D221F749F3327A00D03
:1024B000611D231F849F600D211D822F762F6A2F9F
:1024C00011249F5750408AF0E1F088234AF0EE0F24
:1024D000FF1FBB1F661F771F881F91505040A9F731
:1024E0009E3F510570F014C05EC05F3FECF3983E14
:1024F000DCF3869577956795B795F795E7959F5F98
:10250000C1F7FE2B880F911D9695879597F9089531
:1025100097F99F6780E870E060E008959FEF80EC96
:10252000089500240A941616170618060906089539
:1025300000240A9412161306140605060895092E9F
:102540000394000C11F4882352F0BB0F40F4BF2B0E
:1025500011F460FF04C06F5F7F4F8F4F9F4F08954E
:1025600057FD9058440F551F59F05F3F71F0479544
:10257000880F97FB991F61F09F3F79F08795089529
:10258000121613061406551FF2CF4695F1DF08C048
:10259000161617061806991FF1CF86957105610565
:1025A00008940895E894BB2766277727CB0197F90D
:1025B00008955058BB27AA270ED0C1CFB2DF30F004
:1025C000B7DF20F031F49F3F11F41EF4A7CF0EF4D3
:1025D000E095E7FB9DCFE92FC3DF80F3BA176207D1
:1025E00073078407950718F071F49EF5DBCF0EF49E
:1025F000E0950B2EBA2FA02D0B01B90190010C0113
:10260000CA01A0011124FF27591B99F0593F50F42A
:10261000503E68F11A16F040A22F232F342F442782
:10262000585FF3CF469537952795A795F04053957A
:10263000C9F77EF41F16BA0B620B730B840BBAF04A
:102640009150A1F0FF0FBB1F661F771F881FC2F7B5
:102650000EC0BA0F621F731F841F48F487957795C9
:102660006795B795F7959E3F08F0B3CF9395880F80
:1026700008F09927EE0F97958795089579DF88F0F0
:102680009F5790F0B92F9927B751A0F0D1F0660F5E
:10269000771F881F991F1AF0BA95C9F712C0B13079
:1026A00081F080DFB1E008957DCF672F782F8827F4
:1026B000B85F39F0B93FCCF3869577956795B395B8
:1026C000D9F73EF490958095709561957F4F8F4F27
:1026D0009F4F089596DE08F48FEF0895EE0FFF1FC9
:1026E000881F8BBF0790F691E02D19940024A7FD59
:1026F00000942A0F301D401D501D601D701D801D4F
:10270000901D08952A153B054C055D056E057F0556
:10271000800791070895CF93DF938230910510F4DD
:1027200082E090E0E0911605F091170520E030E09E
:10273000C0E0D0E0309711F140815181481759072E
:10274000C0F04817590761F482819381209719F0EE
:102750009B838A832BC0909317058093160526C010
:102760002115310519F04217530718F49A01BE01DB
:10277000DF01EF010280F381E02DDCCF211531056F
:1027800009F1281B390B2430310590F412968D91F4
:102790009C9113976115710521F0FB01938382834E
:1027A00004C09093170580931605FD01329644C02E
:1027B000FD01E20FF31F81939193225031092D9374
:1027C0003C933AC02091140530911505232B41F418
:1027D0002091280230912902309315052093140589
:1027E00020912602309127022115310541F42DB7A1
:1027F0003EB740912A0250912B02241B350BE091E9
:102800001405F0911505E217F307A0F42E1B3F0BFA
:102810002817390778F0AC014E5F5F4F2417350752
:1028200048F04E0F5F1F5093150540931405819398
:10283000919302C0E0E0F0E0CF01DF91CF910895E5
:102840000F931F93CF93DF93009709F48CC0FC0183
:102850003297138212820091160510911705011507
:10286000110581F420813181820F931F209114057D
:10287000309115052817390779F5F0931505E09380
:10288000140571C0D80140E050E0AE17BF0750F406
:1028900012962D913C911397AD012115310509F147
:1028A000D901F3CF9D01DA013383228360817181E5
:1028B000860F971F8217930769F4EC0128813981ED
:1028C000260F371F2E5F3F4F318320838A819B81E4
:1028D00093838283452B29F4F0931705E093160523
:1028E00042C01396FC93EE931297ED0149915991D2
:1028F0009E01240F351FE217F30771F48081918147
:10290000840F951F029611969C938E9382819381DA
:1029100013969C938E931297E0E0F0E0D801129604
:102920008D919C911397009719F0F8018C01F6CFC7
:102930008D919C9198012E5F3F4F820F931F2091A4
:102940001405309115052817390769F4309729F4D3
:10295000109217051092160502C01382128210936E
:10296000150500931405DF91CF911F910F910895E4
:1029700081E090E0F89400C011E0C5E1D1E000E012
:1029800005C0802FFE01AADE2196011DC631D107A8
:0A29900080E00807B1F7F894FFCFCC
:10299A0001FF000100000100000100000100000128
:1029AA0000000100000100000100FFFF010100001A
:1029BA00FF000064640F000018058000B562060875
:1029CA0006006400010001007A12B56206080000E0
:1029DA000E30B56206010300F00500FF19B5620664
:1029EA00010300F00400FE17B56206010300F003BC
:1029FA0000FD15B56206010300F00200FC13B56282
:102A0A0006010300F00100FB11B56206010300F0A4
:102A1A000000FA0FB562060103000102010E47B574
:102A2A00620008090A0B0C0D0E0F010203040506C9
:102A3A0007000000000000640000000000640000BD
:102A4A0000640064000000640064000064640064C0
:102A5A0064000000006464000064006464006400B0
:102A6A000064640064640000000000640000000068
:102A7A006464000064000000000064000064000058
:102A8A00640064000000640064640000000000AF99
:102A9A000116084801F501790157016B0100000090
:102AAA000086037203970346036A0356034703002B
:00000001FF
