:1000000015C1000044C1000042C1000040C1000011
:100010003EC100003CC100003AC1000038C10000F0
:1000200036C1000034C1000032C1000030C1000000
:100030002EC100002CC100002AC1000028C1000010
:1000400026C1000024C1000022C1000020C1000020
:100050001EC100001CC100001AC1000029C600001A
:1000600016C1000014C1000012C1000010C1000040
:100070000EC100000CC100000AC1000008C1000050
:1000800006C1000004C1000002C1000000C1000060
:10009000FEC00000FCC00000FAC0000053C6000013
:1000A000F6C00000F4C00000F2C00000F0C0000084
:1000B000EEC00000ECC00000EAC00000E8C0000094
:1000C000E6C00000E4C00000E2C00000E0C00000A4
:1000D000DEC00000DCC00000FDC10000D2C1000095
:1000E000D6C0000008040B04FA03FE030404420413
:1000F0000F04130419041D04210427042B042F04E6
:100100004204350439043D04000020002300260089
:1001100029002C002F00320000010000030106011D
:10012000090100000A0B02090C0D0E080703040167
:1001300000000000000000000000000000000000BF
:10014000000000000000000000000000000012118C
:10015000100000000000000000000000000000008F
:100160000000000000000000000021002400270023
:100170002A002D00300033000101000004010701B6
:100180000A010102102020080810204010204080A1
:10019000020102010804020101020408102040804B
:1001A00080402010080402018004020180402010D9
:1001B0000804020108040201010204081020408022
:1001C00001020408102040800000220025002800C1
:1001D0002B002E003100340002010000050108014F
:1001E0000B010505050507050808080802020202BB
:1001F0000A0A0808040404040101010101010101C3
:100200000303030303030303040707070C0C0C0C8D
:100210000C0C0C0C02020202060606060606060676
:100220000B0B0B0B0B0B0B0BC50FB60F11241FBECB
:10023000CFEFD1E2DEBFCDBF00E00CBF13E0A0E006
:10024000B2E0EAEDF6E200E00BBF02C007900D92CB
:10025000AC31B107D9F725E0ACE1B3E001C01D92A4
:10026000A130B207E1F711E0C5E1D1E000E006C03E
:1002700021970109802FFE010E947510C431D1071A
:1002800080E00807A9F70E945B090C945C13B8CEC4
:10029000FC01918D828D981761F0828DDF01A80F8E
:1002A000B11D5D968C91928D9F5F9F73928F90E0B0
:1002B00008958FEF9FEF0895FC01918D828D98171F
:1002C00031F0828DE80FF11D858D90E008958FEF5C
:1002D0009FEF0895FC01918D228D892F90E0805C25
:1002E0009F4F821B91098F73992708958FE394E0A4
:1002F000F1DF21E0892B09F420E0822F0895FC0131
:10030000848DDF01A80FB11DA35ABF4F2C91848D9E
:1003100090E001968F739927848FA689B7892C93D3
:10032000A089B1898C9180648C93938D848D98136E
:1003300006C00288F389E02D80818F7D8083089537
:10034000EF92FF920F931F93CF93DF93EC0181E025
:10035000888F9B8D8C8D981305C0E889F9898081E1
:1003600085FD23C0F62E0B8D10E00F5F1F4F0F731E
:100370001127E02E8C8DE8120BC00FB607FCFACFC8
:10038000E889F989808185FFF5CFCE01B8DFF2CF0A
:100390008B8DFE01E80FF11DE35AFF4FF0820B8FAA
:1003A000EA89FB898081806207C0EE89FF896083CA
:1003B000E889F98980818064808381E090E0DF9121
:1003C000CF911F910F91FF90EF900895CF93DF93FE
:1003D000EC01888D8823C1F0EA89FB89808185FD45
:1003E00005C0A889B9898C9186FD0EC00FB607FC9F
:1003F000F5CF808185FFF2CFA889B9898C9185FFDF
:10040000EDCFCE017CDFE8CFDF91CF91089580E082
:1004100090E0892B41F080E090E0892B21F00E9450
:100420000000811120C080E090E0892B41F080E045
:1004300090E0892B21F00E940000811117C080E01C
:1004400090E0892B41F080E090E0892B21F00E9420
:10045000000081110EC080E090E0892B79F046DF2A
:1004600081110AC008950E940000DDCF0E940000A3
:10047000E6CF0E940000EFCF0C94000008950E9488
:100480003F121F920F920FB60F9211240BB60F92CC
:100490002F933F934F935F936F937F938F939F938C
:1004A000AF93BF93EF93FF938FE394E028DFFF9127
:1004B000EF91BF91AF919F918F917F916F915F91DC
:1004C0004F913F912F910F900BBE0F900FBE0F9049
:1004D0001F9018951F920F920FB60F9211240BB612
:1004E0000F922F938F939F93EF93FF93E0914F047D
:1004F000F09150048081E0915504F091560482FD02
:1005000012C09081809158048F5F8F73209159049D
:10051000821751F0E0915804F0E0E15CFB4F958FB9
:100520008093580401C08081FF91EF919F918F913A
:100530002F910F900BBE0F900FBE0F901F9018952C
:1005400085ED8093BC008091BC0084FDFCCF1092AF
:100550001E0308954091EF03262F30E0240F311D34
:1005600021323105DCF420911E032430C9F4FC0152
:1005700080E090E0861758F43091EF032191DC0180
:10058000A153BC4FA30FB11D2C930196F3CF8091C3
:10059000EF03680F6093EF0380E0089581E0089512
:1005A00082E00895E0912703F0912803309729F025
:1005B0001092200310921F0319940895CF93DF9394
:1005C000AC01E0912903F0912A033097F1F090916A
:1005D0002203809121039817C0F090E0292F30E08A
:1005E0002617370754F4D901A155BC4FEA01C20FB1
:1005F000D31F88818C939F5FF1CF10922203609369
:100600002103CB01DF91CF911994DF91CF91089510
:100610000895E091220380912103E81730F4F0E07F
:10062000E155FC4F808190E008958FEF9FEF089592
:100630009091220380912103981750F4E92FF0E064
:10064000E155FC4F208130E09F5F9093220302C070
:100650002FEF3FEFC90108958091210390E0209191
:100660002203821B91090895CF93DF931F921F925B
:10067000CDB7DEB7CB01642F49835A836BDF498145
:10068000842F5A81952F0F900F90DF91CF9108956D
:10069000CF93DF931F92CDB7DEB7698361E0CE01C0
:1006A000019658DF81E090E00F90DF91CF9108959F
:1006B000809139038F5F80933903809125028130C7
:1006C00009F457C020F0823009F46CC0089560919D
:1006D0003D0370913E0380913F03909140030E943F
:1006E000E2107093A6036093A5036091410370919B
:1006F000420380914303909144030E94E21070935F
:10070000A8036093A703609145037091460380910D
:100710004703909148030E94E2107093AA036093EC
:10072000A9036091490370914A0380914B03909112
:100730004C030E94E2107093AC036093AB03609192
:100740004D0370914E0380914F03909150030E948E
:10075000E2107093AE036093AD03E091DC04F0917E
:10076000DD040280F381E02D4AE050E065EA73E0A9
:1007700024C080913A038093A40310923A0380919D
:100780003C0381110AC080912302882331F09091AB
:10079000230280912402981313C06091A4038CED6E
:1007A00094E076CFE091DC04F091DD040280F381E7
:1007B000E02D4CE050E06BE273E08CED94E0199496
:1007C000809123028093240282E08093250280910D
:1007D000A40382608093A403E0CF90E0FC013197F2
:1007E000E231F10508F04EC08827EE58FF4F8F4FD9
:1007F0000C947510809180008F7703C080918000E9
:100800008F7D80938000089580918000877FF9CF4D
:1008100084B58F7702C084B58F7D84BD08958091A3
:10082000B0008F7703C08091B0008F7D8093B000BF
:100830000895809190008F7707C0809190008F7D00
:1008400003C080919000877F8093900008958091ED
:10085000A0008F7707C08091A0008F7D03C080919A
:10086000A000877F8093A0000895809120018F775A
:1008700007C0809120018F7D03C080912001877F78
:100880008093200108951F93CF93DF93282F30E0AA
:10089000F901EE5DFE4F8491F901EE57FE4FD491C0
:1008A000F901EE51FE4FC491CC23C1F0162F8111F6
:1008B00094DFEC2FF0E0EE0FFF1FE853FE4FA59101
:1008C000B4918FB7F894111105C09C91ED2FE0956C
:1008D000E92302C0EC91ED2BEC938FBFDF91CF9118
:1008E0001F910895CF93DF9390E0FC01EE57FE4FE8
:1008F0002491FC01EE51FE4F8491882361F190E038
:10090000880F991FFC01E859FE4FC591D491FC0155
:10091000E853FE4FA591B491611109C09FB7F894B7
:100920008881209582238883EC912E230BC062302E
:1009300061F49FB7F8943881822F80958323888350
:10094000EC912E2B2C939FBF06C08FB7F894E881B3
:100950002E2B28838FBFDF91CF910895863308F027
:10096000865390917B00282F2870977F922B90932D
:100970007B0087702091000290E4299F9001112450
:10098000822B80937C0080917A00806480937A002F
:1009900080917A0086FDFCCF8091780020917900CB
:1009A00090E0922B08953FB7F89480913B0490918A
:1009B0003C04A0913D04B0913E0426B5A89B05C01F
:1009C0002F3F19F00196A11DB11D3FBFBA2FA92FCE
:1009D000982F8827820F911DA11DB11DBC01CD014B
:1009E00042E0660F771F881F991F4A95D1F7089537
:1009F0002FB7F894609137047091380480913904CE
:100A000090913A042FBF08958F929F92AF92BF9218
:100A1000EF92FF920F931F93CF93DF93EC0180919E
:100A200038038F5F80933803C130D10531F48CEDEA
:100A300094E0FEDD8093250230C104E813E0CE018E
:100A40008C579C4F7C010E151F0589F1D1DF6093F7
:100A5000E4047093E5048093E6049093E704E09146
:100A6000DC04F091DD040680F781E02D8CED94E04C
:100A7000199597FF29C0BCDF8090E4049090E504AD
:100A8000A090E604B090E704DC01CB018819990935
:100A9000AA09BB098090E0049090E104A090E204D0
:100AA000B090E30488159905AA05BB05C0F29091A2
:100AB0008403892F8770813009F488C0833009F45A
:100AC000A1C08111DAC004C0F80181938F01BBCFAE
:100AD0002091850330918603492F4595459545958D
:100AE000809187039091880341114DC02038FEE327
:100AF0003F0738F021304DE7340728F020E03DE78C
:100B000002C020E83EE33093AD002093AC00803873
:100B1000EEE39E0738F08130FDE79F0728F080E084
:100B20009DE702C080E89EE390932901809328010D
:100B30008091890390918A0380382EE3920738F0E0
:100B400081304DE7940728F080E09DE702C080E8FF
:100B50009EE3909399008093980080918B039091ED
:100B60008C038038EEE39E0738F08130FDE79F0765
:100B700028F080E09DE702C080E89EE39093A90002
:100B80008093A8008AC020384EE3340738F0213023
:100B9000EDE73E0728F020E03DE702C020E83EE315
:100BA00030939D0020939C008038FEE39F0738F02F
:100BB00081302DE7920728F080E09DE702C080E8B1
:100BC0009EE390932D0180932C0167C08091850353
:100BD0008031ACF0803109F060C060E089E153DE23
:100BE00007DFDC01CB010A96A11DB11D80935103E3
:100BF00090935203A0935303B09354034EC0809339
:100C00003B034BC0292F092E000C330B83E0359595
:100C100027958A95E1F7209337032091370330E039
:100C20002150310980918503F901EE0FFF1F2E0F2E
:100C30003F1FF901EE5FFD4F80832091370330E0C5
:100C40002150310980918603F901EE0FFF1F2E0F0D
:100C50003F1FF901EE5FFD4F81832091370330E0A4
:100C60002150310980918703F901EE0FFF1F2E0FEC
:100C70003F1FF901EE5FFD4F8283279771F493FBCD
:100C8000992790F990931C0286E0E5E8F3E0ADE146
:100C9000B2E001900D928A95E1F7DF91CF911F911B
:100CA0000F91FF90EF90BF90AF909F908F9008951D
:100CB0001F920F920FB60F9211242F933F938F9391
:100CC0009F93AF93BF938091370490913804A09184
:100CD0003904B0913A043091360423E0230F2D37C4
:100CE00020F40196A11DB11D05C026E8230F029630
:100CF000A11DB11D209336048093370490933804CE
:100D0000A0933904B0933A0480913B0490913C0441
:100D1000A0913D04B0913E040196A11DB11D8093A8
:100D20003B0490933C04A0933D04B0933E04BF91D8
:100D3000AF919F918F913F912F910F900FBE0F9088
:100D40001F9018951F920F920FB60F9211240BB699
:100D50000F922F933F934F935F936F937F938F9354
:100D60009F93AF93BF93EF93FF938091B900887FD8
:100D7000803609F49CC068F5883209F45BC090F4B1
:100D8000803109F454C038F4882309F4F6C088305F
:100D900009F44DC0F5C0883109F44CC0803209F423
:100DA0005DC0EEC0803409F468C048F4803309F4B3
:100DB00055C0883309F0E4C080931204D8C0803550
:100DC00009F44FC0883509F45DC0883409F0D8C0F3
:100DD000D6C0883909F4C7C0A8F4883709F467C0B9
:100DE00038F4883609F463C0803709F460C0C8C09D
:100DF000883809F4B8C0803909F45FC0803809F038
:100E0000BFC05BC0803B09F486C038F4803A09F467
:100E100066C0883A09F47FC0B3C0803C09F4A7C01B
:100E2000883C09F4A4C0883B09F48AC0A9C0809119
:100E3000350410C09091340480913304981770F5F4
:100E4000E091340481E08E0F80933404F0E0ED5E95
:100E5000FB4F80818093BB0085EC86C08093120499
:100E60008EC0E091340481E08E0F80933404809131
:100E7000BB00F0E0ED5EFB4F8083909134048091E5
:100E800033046EC0E091340481E08E0F809334040B
:100E90008091BB00F0E0ED5EFB4F808380911D03ED
:100EA00081116DC081E080931C0384EA61C083E0FE
:100EB00080931E0310921104CFCF809111048032D1
:100EC00008F051C0E091110481E08E0F809311046D
:100ED0008091BB00F0E0EF50FC4F8083BDCF85ECEC
:100EE0008093BC0010921E0380911104803230F474
:100EF000E0911104F0E0EF50FC4F1082609111047A
:100F000070E0E0912303F091240381EF93E01995C1
:100F10001092110435C084E080931E031092F003F8
:100F20001092EF03E0912503F0912603199580912B
:100F3000EF03811105C081E08093EF031092CF038E
:100F4000E091F00381E08E0F8093F003F0E0E15335
:100F5000FC4F80818093BB009091F0038091EF0360
:100F6000981708F479CF85E88093BC0009C085EC18
:100F70008093BC0010921E0303C010921204E0DAAA
:100F8000FF91EF91BF91AF919F918F917F916F9161
:100F90005F914F913F912F910F900BBE0F900FBE1D
:100FA0000F901F901895CF92DF92EF92FF920F93C0
:100FB0001F93CF93DF936C017A018B01C0E0D0E0E7
:100FC000CE15DF0589F0D8016D918D01D601ED9127
:100FD000FC910190F081E02DC6011995892B11F447
:100FE0007E0102C02196ECCFC701DF91CF911F9106
:100FF0000F91FF90EF90DF90CF9008950F931F9384
:10100000CF93DF93CDB7DEB729970FB6F894DEBF45
:101010000FBECDBF8091F0049091F104892B09F4AB
:101020009FC0C1DC0091F6041091F7042091F804F0
:101030003091F904DC01CB01801B910BA20BB30BA7
:10104000C297A105B10568F3F8948091EC049091E2
:10105000ED049A838983E091F004F091F104DF01BB
:101060001196808189879091E804E091FA04F091CB
:10107000FB048091FC04992309F42EC09081982BE5
:1010800098879081809589238F838F818C8388E0D6
:101090008B8358856F8149853B812C8189819A8119
:1010A000508347FD252F3A952083262F39F0441F82
:1010B00000C000006083000000C0F2CF38E04D9116
:1010C00060830000019761F7F093FB04E093FA045A
:1010D00049873B832C8338C09081982B98879081D7
:1010E000809589238F838F818E8388E08D835885B7
:1010F0006F8149853D812E8189819A81508347FD89
:10110000252F00C000C0208300C000C000C000C068
:1011100000C060830000262F3A9541F0441F000074
:1011200000C000C000C000C000C0E8CF38E04D9152
:1011300000C0608300C0019709F7F093FB04E093BF
:10114000FA0449873D832E839A83898378942BDC24
:101150006093F6047093F7048093F8049093F90475
:1011600029960FB6F894DEBF0FBECDBFDF91CF91A9
:101170001F910F9108958F929F92AF92BF92CF923D
:10118000DF92EF92FF922091EA043091EB048217F4
:10119000930708F052C04B01AA24BB24E82DC52EAA
:1011A000D62EE72EFF24FC2D342F2091EF0422238E
:1011B00061F0829E40011124E92DC29E600111243C
:1011C000FD2D429FD00111243B2FF090F504E090BB
:1011D000F204A091F004B091F104FE1008C0AC013B
:1011E000440F551F840F951F8A0F9B1F14C0880F33
:1011F000991F880F991F8A0F9B1F472F5527662716
:101200007727DC01AF0DB11D222321F0429FA00101
:101210001124452F4C932091F204DC01A20FB11D43
:10122000EC932091F304DC01A20FB11DFC932091FB
:10123000F404FC01E20FF11D3083FF90EF90DF908A
:10124000CF90BF90AF909F908F9008958F929F9274
:10125000AF92BF92CF92DF92EF92FF92A4DB4B014D
:101260005C0184E6C82ED12CE12CF12C9CDBDC0146
:10127000CB0188199909AA09BB09883E9340A105A9
:10128000B10558F021E0C21AD108E108F10888EE52
:10129000880E83E0981EA11CB11CC114D104E10486
:1012A000F10421F7FF90EF90DF90CF90BF90AF90C7
:1012B0009F908F900895CF93DF9300D01F92CDB76A
:1012C000DEB7789484B5826084BD84B5816084BDC6
:1012D00085B5826085BD85B5816085BD80916E00D4
:1012E000816080936E001092810080918100826005
:1012F0008093810080918100816080938100809142
:1013000080008160809380008091B1008460809330
:10131000B1008091B00081608093B0008091910015
:101320008260809391008091910081608093910010
:10133000809190008160809390008091A1008260F4
:101340008093A1008091A10081608093A100809191
:10135000A00081608093A000809121018260809331
:1013600021018091210181608093210180912001E0
:1013700081608093200180917A00846080937A005C
:1013800080917A00826080937A0080917A008160F7
:1013900080937A0080917A00806880937A0010921E
:1013A000C10061E08EE29EDA61E085E09BDA61E0F7
:1013B00086E098DA61E088E095DA61E08CE292DA22
:1013C00061E083E08FDA9AEB9093900089E180935B
:1013D00091009093A0008093A100909320018093AE
:1013E000210180E89BEB9093270180932601909345
:1013F000A7008093A600909397008093960080ECBE
:101400009DE590939D0080939C0090932D01809387
:101410002C0180E89EE39093A9008093A80090930C
:1014200099008093980090932901809328019093CC
:10143000AD008093AC00E0914F04F091500482E045
:101440008083E0914B04F0914C041082E0914D04B4
:10145000F0914E048FEC808310925704E091530476
:10146000F091540486E08083E0915104F09152049D
:10147000808180618083E0915104F09152048081E9
:1014800088608083E0915104F091520480818068EB
:101490008083E0915104F091520480818F7D80839C
:1014A000D5DE04E812E0F80161918F018FE394E04A
:1014B0000E94A001F2E00F381F07A9F7C7DE09E775
:1014C00012E0F80161918F018FE394E00E94A00186
:1014D000F2E004381F07A9F7B9DE0EE612E0F801C2
:1014E00061918F018FE394E00E94A001F2E009373F
:1014F0001F07A9F7ABDE03E612E0F80161918F0147
:101500008FE394E00E94A001F2E00E361F07A9F7D6
:101510009DDE08E512E0F80161918F018FE394E010
:101520000E94A001F2E003361F07A9F78FDE0DE449
:1015300012E0F80161918F018FE394E00E94A00115
:10154000F2E008351F07A9F781DE02E412E0F80196
:1015500061918F018FE394E00E94A001F2E00D34CD
:101560001F07A9F773DE72DE0CE212E0F801619149
:101570008F018FE394E00E94A001F2E002341F0784
:10158000A9F761E08EE1AED960E08FE1ABD961E00F
:1015900089E1A8D960E08EE176D961E089E173D96B
:1015A00083E08093000282E18093BA0082ED92E0B2
:1015B00090932603809325038EED92E0909324036D
:1015C0008093230310922203109221031092200390
:1015D00010921F0310921E0381E080931D0310924E
:1015E0001C0361E084E14FD961E085E14CD9809131
:1015F000B9008E7F8093B9008091B9008D7F809370
:10160000B9008CE08093B80085E48093BC0088E545
:1016100093E0909328038093270384E095E09093D0
:101620002A03809329038091EE0487FD06C061E0C0
:1016300059D960E08091EE0426D981E08093E904D5
:1016400000E010E040E051E060E070E0C80193DDB0
:101650000F5F1F4F08301105A9F7D0DC9BE088E130
:101660000FB6F894A895809360000FBE9093600029
:1016700031E4E32E31E0F32E41EAC42E41E0D42ED2
:1016800051E0A52E52E0B52E99249A9466E0862E5C
:1016900000E81EE38091510390915203A0915303FF
:1016A000B0915403892B8A2B8B2B79F040905103F6
:1016B00050905203609053037090540399D946168A
:1016C00057066806790608F494C388E347D9209141
:1016D0003D0330913E0340913F03509140034090C1
:1016E0003D0350903E0360903F0370904003BC0167
:1016F000990F880B990B29833A834B835C83C9D656
:1017000029813A814B815C81F8D42AE037ED43E2AC
:101710005CE31ED79B01AC01C301B201EFD460931F
:101720003D0370933E0380933F039093400386E311
:1017300015D92091410330914203409143035091C8
:1017400044034090410350904203609043037090E3
:101750004403BC01990F880B990B29833A834B836F
:101760005C8397D629813A814B815C81C6D42AE07B
:1017700037ED43E25CE3ECD69B01AC01C301B2015F
:10178000BDD46093410370934203809343039093CD
:1017900044038CE3E3D82091450330914603409104
:1017A0004703509148034090450350904603609092
:1017B000470370904803BC01990F880B990B29834C
:1017C0003A834B835C8365D629813A814B815C8166
:1017D00094D42AE037ED43E25CE3BAD69B01AC0136
:1017E000C301B2018BD46093450370934603809389
:1017F0004703909348038AE3B1D82091490330917D
:101800004A0340914B0350914C0340904903509040
:101810004A0360904B0370904C03BC01990F880BF6
:10182000990B29833A834B835C8333D629813A8190
:101830004B815C8162D42AE037ED43E25CE388D6D9
:101840009B01AC01C301B20159D460934903709369
:101850004A0380934B0390934C0387E37FD82091F6
:101860004D0330914E0340914F03509150034090EF
:101870004D0350904E0360904F0370905003BC0195
:10188000990F880B990B29833A834B835C8301D68C
:1018900029813A814B815C8130D42AE037ED43E2E3
:1018A0005CE356D69B01AC01C301B20127D460931F
:1018B0004D0370934E0380934F03909350038FE337
:1018C00094E00E946A01892B09F4DAC081E08093D8
:1018D0003C038FE394E00E9448012091780330910B
:1018E0007903223031058CF4F901E157FD4F9081E5
:1018F000891329C0F901EA58FC4F10822F5F3F4F2E
:1019000030937903209378032FC02232310574F489
:10191000F901EC5AFC4F808390917603980F9093D5
:10192000760340917703940F909377032F5F3F4F97
:1019300030937903209378032332310549F4909151
:101940007603891789F010927903109278030CC0FE
:101950002432310509F08BC010927903109278037C
:1019600090917703891711F080E086C0809162031F
:1019700090916303A0916403B091650380932F035A
:1019800090933003A0933103B093320380915E03B0
:1019900090915F03A0916003B091610380932B034A
:1019A00090932C03A0932D03B0932E038091660394
:1019B00090916703A0916803B0916903FAE0B5952F
:1019C000A79597958795FA95D1F7909334038093CF
:1019D00033034091720350917303609174037091CB
:1019E0007503AAE07695679557954795AA95D1F71F
:1019F0004093720350937303609374037093750361
:101A000080916E0390916F03A0917003B091710368
:101A10002AE0B695A795979587952A95D1F7809353
:101A20006E0390936F03A0937003B09371034F3FC5
:101A300051056105710529F020F04FEF50E060E09D
:101A400070E0409336038F3F9105A105B10529F061
:101A500020F08FEF90E0A0E0B0E08093350380911C
:101A6000550391E0980F90935503806805C0253287
:101A700031050CF068CF78CF8093230210923C039D
:101A800080913B03882309F41EC180913B03909110
:101A90000102981709F45AC080913B038093010218
:101AA000612C712C20913B03A0913B0380913B035F
:101AB000889EC00111248F559D4FFC0180818A9E14
:101AC000D0011124AF55BD4F11964C9150E060E00C
:101AD00070E0762F652F542F4427682B829EF001EB
:101AE0001124EF55FD4F8281482BC30144DB209127
:101AF0003B03A0913B0380913B03889EC0011124CE
:101B00008F559D4FFC0183818A9ED0011124AF55D2
:101B1000BD4F14964C9150E060E070E0762F652F39
:101B2000542F4427682B829EF0011124EF55FD4F5E
:101B30008581482BC30101961EDBF2E06F0E711CFC
:101B400028E06216710409F0ADCF58DA20907B03CB
:101B500030907C0340907D0350907E03211431042B
:101B60004104510449F50E94F804E0913B03F0E080
:101B7000EF56FD4F208120FD06C028EC422E512C4F
:101B8000612C712C06C0B8E54B2EB2E05B2E612CA7
:101B9000712CDC01CB01840D951DA61DB71D809312
:101BA0007B0390937C03A0937D03B0937E031092FC
:101BB0007A0360911C020DC170907A0370FE34C0EC
:101BC0000E94F804261637064806590608F004C194
:101BD00060911C028EE10E944304739470927A0318
:101BE0000E94F804E0913B03F0E0EF56FD4F2081A6
:101BF00030E0769402C0359527957A94E2F720FD7F
:101C000006C0A8EC4A2E512C612C712C06C0F8E5B8
:101C10004F2EF2E05F2E612C712CDC01CB01840D84
:101C2000951DA61DB71D46C00E94F804261637064E
:101C30004806590608F0D0C060E08EE10E944304D7
:101C400081E0870D80937A03883060F110923B0326
:101C500010927B0310927C0310927D0310927E03FE
:101C600090920102612C712CF301EE0FFF1FE60D23
:101C7000F71DEE5FFD4F82814181908150E060E071
:101C800070E0762F652F542F4427692B482BC30112
:101C900072DA8FEF681A780AE8E06E16710421F79D
:101CA000ADD99AC00E94F804DC01CB018C599F4F3A
:101CB000AF4FBF4F80937B0390937C03A0937D0332
:101CC000B0937E0389C0F7018491F6016490F50119
:101CD00074907720A1F081110E94ED03E72DF0E0D0
:101CE000EE0FFF1FE85FFE4FA591B4918C91682223
:101CF00031E020E009F430E0832F922F02C080E031
:101D000090E0F1E08F2781708093820390913A03F5
:101D1000892B80933A030E94F80469387341810546
:101D20009105B8F180918203882399F10E94D30430
:101D300080958170582E612C712C80912202552043
:101D400029F0409121029091200204C0409120028C
:101D50009091210250E060E070E0762F652F542FC3
:101D60004427692B482BC30106DA8FEF681A780ADB
:101D7000E8E06E16710409F741D980911C028823AE
:101D800021F0652D8EE10E94430481E08093810360
:101D900023C060914D0370914E0380914F03909149
:101DA000500321EC3CE54FE254E438D2181674F5A8
:101DB00060914D0370914E0380914F0390915003B9
:101DC0002AEE3DE44FE354E45ED3682F661F662796
:101DD000661F8EE10E9443049091390380911B029B
:101DE0009817B1F09091380380911A029813B1C0FE
:101DF0000FC010925103109252031092530310928D
:101E0000540361E089E10E9443045FCC60E0E1CFCC
:101E100080917F039091800301969093800380933B
:101E20007F038D32914058F11093AD000093AC00C8
:101E300010932901009328011093990000939800B2
:101E40001093A9000093A800612C712C80911F02AF
:101E500040911E0290911D0250E060E070E0762FEC
:101E6000652F542F4427692B482BC30184D9FFEFDA
:101E70006F1A7F0A28E06216710441F7BFD880917B
:101E80008103882329F180918203811121C0612C73
:101E9000712CF301EE0FFF1FE60DF71DEE5FFD4FF6
:101EA00082814181908150E060E070E0762F652F63
:101EB000542F4427692B482BC3015DD98FEF681A33
:101EC000780AE8E06E16710421F798D81092810321
:101ED000809137038823C9F1809137038150809323
:101EE00037038091370390E0FC01EE0FFF1F8E0F48
:101EF0009F1FFC01EE5FFD4F22818091370390E030
:101F0000FC01EE0FFF1F8E0F9F1FFC01EE5FFD4FC8
:101F100041818091370390E0FC01EE0FFF1F8E0F8F
:101F20009F1FFC01EE5FFD4F90818091370350E0D1
:101F300060E070E0762F652F542F4427692B422BE9
:101F400090E019D95BD810923703A8950E94070238
:101F5000A1CB8091390380931B0280913803809339
:101F60001A021092800310927F0389CF8091F004AF
:101F70009091F104009709F0EAD18091EE0487FD79
:101F800003C060E00C947204089510924204109211
:101F9000410488EE93E0A0E0B0E080934304909386
:101FA0004404A0934504B09346042FEF32E03093ED
:101FB000400420933F0425E331E030934C04209308
:101FC0004B0424E331E030934E0420934D0420E38E
:101FD00031E03093500420934F0421E331E03093FB
:101FE00052042093510422E331E0309354042093AF
:101FF000530426E331E030935604209355041092A5
:1020000058041092590410925A0410925B041092D2
:10201000DF041092DE048093E0049093E104A09327
:10202000E204B093E3048FE093E09093DD048093A7
:10203000DC041092E9041092EF041092F60410925E
:10204000F7041092F8041092F90481E08093F504EB
:102050008093F2041092F30492E09093F40480933E
:10206000E80488E190E09093ED048093EC04DAD0EA
:102070009093F1048093F004009761F028E1FC0153
:1020800011922A95E9F788E090E09093EB04809311
:10209000EA0408C01092ED041092EC041092EB04D4
:1020A0001092EA048BE18093EE048091E904882386
:1020B00041F061E08BE10E94720460E08BE10E94DC
:1020C0004304EDEFF1E0E491F0E0EE0FFF1FE85381
:1020D000FE4F859194919093FB048093FA04EDE96F
:1020E000F1E0E491E093FC040895EE0FFF1F881FD8
:1020F0008BBF0790F691E02D19945058BB27AA2763
:102100000ED0A0C291D230F096D220F031F49F3F91
:1021100011F41EF486C20EF4E095E7FB7CC2E92FB1
:10212000A2D280F3BA17620773078407950718F0E5
:1021300071F49EF5BAC20EF4E0950B2EBA2FA02DC5
:102140000B01B90190010C01CA01A0011124FF2764
:10215000591B99F0593F50F4503E68F11A16F0405F
:10216000A22F232F342F4427585FF3CF469537955E
:102170002795A795F0405395C9F77EF41F16BA0B23
:10218000620B730B840BBAF09150A1F0FF0FBB1FD1
:10219000661F771F881FC2F70EC0BA0F621F731F1A
:1021A000841F48F4879577956795B795F7959E3F77
:1021B00008F0B3CF9395880F08F09927EE0F979505
:1021C0008795089558D288F09F5790F0B92F992796
:1021D000B751A0F0D1F0660F771F881F991F1AF032
:1021E000BA95C9F712C0B13081F05FD2B1E008955D
:1021F0005CC2672F782F8827B85F39F0B93FCCF3DE
:10220000869577956795B395D9F73EF49095809527
:10221000709561957F4F8F4F9F4F089575D108F44A
:102220008FEF0895CF93DF938230910510F482E011
:1022300090E0E091FF04F091000520E030E0C0E084
:10224000D0E0309711F14081518148175907C0F013
:102250004817590761F482819381209719F09B8375
:102260008A832BC0909300058093FF0426C021151C
:10227000310519F04217530718F49A01BE01DF0126
:10228000EF010280F381E02DDCCF2115310509F14A
:10229000281B390B2430310590F412968D919C91B6
:1022A00013976115710521F0FB019383828304C0AC
:1022B000909300058093FF04FD01329644C0FD0118
:1022C000E20FF31F81939193225031092D933C9398
:1022D0003AC02091FD043091FE04232B41F420915B
:1022E0002802309129023093FE042093FD042091AE
:1022F0002602309127022115310541F42DB73EB752
:1023000040912A0250912B02241B350BE091FD04D1
:10231000F091FE04E217F307A0F42E1B3F0B2817E1
:10232000390778F0AC014E5F5F4F2417350748F04E
:102330004E0F5F1F5093FE044093FD0481939193D1
:1023400002C0E0E0F0E0CF01DF91CF9108950F935C
:102350001F93CF93DF93009709F48CC0FC01329751
:10236000138212820091FF041091000501151105DE
:1023700081F420813181820F931F2091FD043091DF
:10238000FE042817390779F5F093FE04E093FD0465
:1023900071C0D80140E050E0AE17BF0750F412966C
:1023A0002D913C911397AD012115310509F1D9010A
:1023B000F3CF9D01DA013383228360817181860F1F
:1023C000971F8217930769F4EC0128813981260F42
:1023D000371F2E5F3F4F318320838A819B819383F8
:1023E0008283452B29F4F0930005E093FF0442C05B
:1023F0001396FC93EE931297ED01499159919E012A
:10240000240F351FE217F30771F480819181840F47
:10241000951F029611969C938E93828193811396B9
:102420009C938E931297E0E0F0E0D80112968D9184
:102430009C911397009719F0F8018C01F6CF8D91BC
:102440009C9198012E5F3F4F820F931F2091FD04B6
:102450003091FE042817390769F4309729F4109257
:1024600000051092FF0402C0138212821093FE0432
:102470000093FD04DF91CF911F910F91089581E0AA
:1024800090E0F89419C140D008F481E00895E894F0
:1024900009C097FB3EF490958095709561957F4FAC
:1024A0008F4F9F4F9923A9F0F92F96E9BB2793955A
:1024B000F695879577956795B795F111F8CFFAF46A
:1024C000BB0F11F460FF1BC06F5F7F4F8F4F9F4F9B
:1024D00016C0882311F096E911C0772321F09EE8F9
:1024E000872F762F05C0662371F096E8862F70E05F
:1024F00060E02AF09A95660F771F881FDAF7880F39
:102500009695879597F90895990F0008550FAA0B8E
:10251000E0E8FEEF16161706E807F907C0F01216F6
:102520001306E407F50798F0621B730B840B950BF9
:1025300039F40A2661F0232B242B252B21F408954E
:102540000A2609F4A140A6958FEF811D811D0895EB
:102550000BD078C069D028F06ED018F0952309F020
:102560005AC05FC01124A2C07ED0A0F3959FD1F3C2
:10257000950F50E0551F629FF001729FBB27F00D31
:10258000B11D639FAA27F00DB11DAA1F649F662786
:10259000B00DA11D661F829F2227B00DA11D621FD5
:1025A000739FB00DA11D621F839FA00D611D221F8F
:1025B000749F3327A00D611D231F849F600D211D73
:1025C000822F762F6A2F11249F5750408AF0E1F016
:1025D00088234AF0EE0FFF1FBB1F661F771F881F5F
:1025E00091505040A9F79E3F510570F014C05EC055
:1025F0005F3FECF3983EDCF3869577956795B7954A
:10260000F795E7959F5FC1F7FE2B880F911D969573
:10261000879597F9089597F99F6780E870E060E0E3
:1026200008959FEF80EC089500240A94161617066B
:1026300018060906089500240A94121613061406B3
:1026400005060895092E0394000C11F4882352F016
:10265000BB0F40F4BF2B11F460FF04C06F5F7F4FCE
:102660008F4F9F4F089557FD9058440F551F59F0B5
:102670005F3F71F04795880F97FB991F61F09F3F6F
:1026800079F087950895121613061406551FF2CF98
:102690004695F1DF08C0161617061806991FF1CFE8
:1026A00086957105610508940895E894BB2766270F
:1026B0007727CB0197F9089511E0C5E1D1E000E05B
:1026C00005C0802FFE0111DD2196011DC631D10705
:0A26D00080E00807B1F7F894FFCF8F
:1026DA0001FF0001000001000001000001000001EB
:1026EA0000000100000100000100FFFF01010000DD
:1026FA00FF000064640F000001058000B56206084F
:10270A0006006400010001007A12B56206080000A2
:10271A000E30B56206010300F00500FF19B5620626
:10272A00010300F00400FE17B56206010300F0037E
:10273A0000FD15B56206010300F00200FC13B56244
:10274A0006010300F00100FB11B56206010300F067
:10275A000000FA0FB562060103000102010E47B537
:10276A00620008090A0B0C0D0E0F0102030405068C
:10277A000700000000000064000000000064000080
:10278A000064006400000064006400006464006483
:10279A006400000000646400006400646400640073
:1027AA00006464006464000000000064000000002B
:1027BA00646400006400000000006400006400001B
:1027CA00640064000000640064640000000000A06B
:1027DA0001D3076A0148015C01E6010000000048D4
:0C27EA000334032C031803090308030048
:020000023000CC
:10E000000D9489F10D94B2F10D94B2F10D94B2F129
:10E010000D94B2F10D94B2F10D94B2F10D94B2F1F0
:10E020000D94B2F10D94B2F10D94B2F10D94B2F1E0
:10E030000D94B2F10D94B2F10D94B2F10D94B2F1D0
:10E040000D94B2F10D94B2F10D94B2F10D94B2F1C0
:10E050000D94B2F10D94B2F10D94B2F10D94B2F1B0
:10E060000D94B2F10D94B2F10D94B2F10D94B2F1A0
:10E070000D94B2F10D94B2F10D94B2F10D94B2F190
:10E080000D94B2F10D94B2F10D94B2F10D94B2F180
:10E090000D94B2F10D94B2F10D94B2F10D94B2F170
:10E0A0000D94B2F10D94B2F10D94B2F10D94B2F160
:10E0B0000D94B2F10D94B2F10D94B2F10D94B2F150
:10E0C0000D94B2F10D94B2F10D94B2F10D94B2F140
:10E0D0000D94B2F10D94B2F10D94B2F10D94B2F130
:10E0E0000D94B2F141546D656761323536300041AF
:10E0F000726475696E6F206578706C6F72657220DE
:10E1000073746B3530305632206279204D4C530099
:10E11000426F6F746C6F616465723E004875683F52
:10E1200000436F6D70696C6564206F6E203D200048
:10E130004350552054797065202020203D20005FF9
:10E140005F4156525F415243485F5F3D2000415658
:10E1500052204C696243205665723D20004743437C
:10E160002056657273696F6E203D20004350552024
:10E1700049442020202020203D20004C6F7720663D
:10E18000757365202020203D20004869676820665F
:10E190007573652020203D200045787420667573D6
:10E1A00065202020203D20004C6F636B2066757336
:10E1B000652020203D20004D617220203720323024
:10E1C000313300312E362E3800342E332E350056A2
:10E1D00023202020414444522020206F7020636F70
:10E1E00064652020202020696E73747275637469E1
:10E1F0006F6E2061646472202020496E74657272B3
:10E20000757074006E6F20766563746F7200726A49
:10E210006D702020006A6D70200057686174207056
:10E220006F72743A00506F7274206E6F7420737541
:10E2300070706F72746564004D7573742062652030
:10E2400061206C6574746572002000577269747483
:10E25000696E672045450052656164696E672045B7
:10E26000450045452065727220636E743D00504F35
:10E27000525400303D5A65726F2061646472003FF1
:10E280003D43505520737461747300403D454550C3
:10E29000524F4D207465737400423D426C696E6B41
:10E2A000204C454400453D44756D70204545505215
:10E2B0004F4D00463D44756D7020464C415348001B
:10E2C000483D48656C70004C3D4C69737420492F83
:10E2D0004F20506F72747300513D51756974005234
:10E2E0003D44756D702052414D00563D73686F7707
:10E2F00020696E7465727275707420566563746FF0
:10E30000727300593D506F727420626C696E6B00BD
:10E310002A0011241FBECFEFD1E2DEBFCDBF01E046
:10E320000CBF12E0A0E0B2E0EEE1FDEF03E00BBFB6
:10E3300002C007900D92A030B107D9F712E0A0E01B
:10E34000B2E001C01D92AE30B107E1F70F9460F367
:10E350000D948DFE01E20EBF0FEF0DBF11241FBE05
:10E360000D9460F30D9400F020E030E040ED57E0B4
:10E3700005C0FA013197F1F72F5F3F4F2817390792
:10E38000C0F308959C01260F311DC901A0E0B0E043
:10E390002F5F3F4FABBFFC018791882361F08093D3
:10E3A000C6008091C00086FFFCCF8091C0008064D1
:10E3B0008093C000EACF08958DE08093C6008091DD
:10E3C000C00086FFFCCF8091C00080648093C000B5
:10E3D0008AE08093C6008091C00086FFFCCF8091C8
:10E3E000C00080648093C00008950F94C2F10F9420
:10E3F000DCF10895FC019081992359F09093C600B7
:10E400008091C00086FFFCCF8091C0008064809323
:10E41000C0003196992379F70895282F982F929567
:10E420009F70892F805D8A3308F0895F8093C600D2
:10E430008091C00086FFFCCF8091C00080648093F3
:10E44000C000822F8F70982F905D9A3308F0995FEB
:10E450009093C6008091C00086FFFCCF8091C000E1
:10E4600080648093C00008959C01FB01853691056E
:10E470001CF46330710594F0C90164E670E00F94F8
:10E480002EFE605D7F4F6093C6008091C00086FFC6
:10E49000FCCF8091C00080648093C0002B30310598
:10E4A00014F43297B4F0C90164E670E00F942EFEC4
:10E4B0006AE070E00F942EFE605D7F4F6093C600AF
:10E4C0008091C00086FFFCCF8091C0008064809363
:10E4D000C000C9016AE070E00F942EFEC0968093E0
:10E4E000C6008091C00086FFFCCF8091C000806490
:10E4F0008093C00008951F93182F8EE692EE60E07F
:10E500000F94C2F11093C6008091C00086FFFCCF2B
:10E510008091C00080648093C0000F94DCF11F9153
:10E5200008952F923F924F925F926F927F928F92B7
:10E530009F92AF92BF92CF92DF92EF92FF920F9392
:10E540001F93DF93CF93CDB7DEB762970FB6F894E2
:10E55000DEBF0FBECDBF382E622ECA01DB015C01CB
:10E560006D01772420E2222E2E010894411C511CBB
:10E570008BC081E0A81680E0B80681E0C80680E084
:10E58000D80628F0C601AA27BB270F940DF2BB2797
:10E59000AD2D9C2D8B2D0F940DF28A2D0F940DF225
:10E5A0002092C6008091C00086FFFCCF8091C00001
:10E5B00080648093C0009DE29093C6008091C0006B
:10E5C00086FFFCCF8091C00080648093C0002092C1
:10E5D000C6008091C00086FFFCCF8091C00080649F
:10E5E0008093C00019828601750188249924A1E0D6
:10E5F0003A1651F03A1620F0B2E03B1661F409C029
:10E600000BBFF701779007C0C7010F9477FE782EF4
:10E6100002C0F7017080872D0F940DF22092C60082
:10E620008091C00086FFFCCF8091C0008064809301
:10E63000C000872D8052F401EF70F0708F3520F408
:10E64000E40DF51D708204C0E40DF51D8EE280839B
:10E650000894E11CF11C011D111D0894811C911CE2
:10E6600090E18916910409F0C2CF80E190E0A0E02A
:10E67000B0E0A80EB91ECA1EDB1E198AC2010F9493
:10E68000FAF10F94DCF16A94662009F072CF629679
:10E690000FB6F894DEBF0FBECDBFCF91DF911F91B3
:10E6A0000F91FF90EF90DF90CF90BF90AF909F9031
:10E6B0008F907F906F905F904F903F902F90089534
:10E6C0002F923F924F925F926F927F928F929F9282
:10E6D000AF92BF92CF92DF92EF92FF920F931F9370
:10E6E000DF93CF93CDB7DEB7CD53D1400FB6F894BB
:10E6F000DEBF0FBECDBF01E20EBF0FEF0DBF94B75F
:10E70000F894A89514BE80916000886180936000A1
:10E7100010926000789493FF05C0E0910002F091A0
:10E7200001021995279A2F9A8091C00082608093E8
:10E73000C00080E18093C40088E18093C1000000A4
:10E74000EE24FF24870144E0A42EB12CCC24DD2448
:10E7500024C0C5010197F1F70894E11CF11C011DCB
:10E76000111D21E2E2162EE4F20620E0020720E06D
:10E77000120718F031E0C32ED12CC801B70127ECE5
:10E780003BE140E050E00F9441FE611571058105C9
:10E79000910519F485B1805885B98091C00087FD35
:10E7A00003C0C114D104A9F2A6014F5F5F4FC25E3E
:10E7B000DE4F59834883CE51D140C25EDE4F8881FF
:10E7C0009981CE51D140019711F00D9410FEC05D9A
:10E7D000DE4F19821882C053D14060E0C15DDE4F28
:10E7E0001882CF52D14088249924C35DDE4F19820C
:10E7F0001882CD52D140C05EDE4F188219821A8233
:10E800001B82C052D140CE5CDE4F188219821A8220
:10E810001B82C253D140EE24FF2487010BBFF701B6
:10E8200007911691C45CDE4F19830883CC53D14005
:10E830000D940BFEC25EDE4F28813981CE51D1404E
:10E840002130310509F52091C600C25EDE4F1982E4
:10E850001882CE51D14022C02F5F3F4F4F4F5F4FA4
:10E86000213082E138078AE7480780E0580780F0C6
:10E87000C45CDE4FE881F981CC53D140EF5FFF4F9C
:10E8800019F0EE27FF27099420E030E040E050E047
:10E890008091C00087FFE0CF2091C600C35DDE4FAE
:10E8A00048815981CD52D1404F5F5F4FC35DDE4FEC
:10E8B00059834883CD52D140213209F063C64A3092
:10E8C000510508F05FC60894811C911C53E0851621
:10E8D000910409F059C600E010E018C081E280936D
:10E8E000C6008091C00086FFFCCF8091C00080648C
:10E8F0008093C0002F5F3F4F2931310579F70F9486
:10E90000DCF10F5F1F4F0530110519F020E030E0FA
:10E91000E5CF10920A0210920B0210920C02109294
:10E920000D02109206021092070210920802109235
:10E930000902109202021092030210920402109235
:10E9400005028FEE90EE60E00F94F5F180E191EE1C
:10E9500060E00F94C2F18091C00087FFFCCF9091DE
:10E96000C600903608F09F759032B8F09093C600BC
:10E970008091C00086FFFCCF8091C00080648093AE
:10E98000C000A0E2A093C6008091C00086FFFCCF2B
:10E990008091C00080648093C000983409F4D7C18E
:10E9A0009934B8F4923409F459C1933458F490333B
:10E9B00019F1903308F4E3C59F33A1F1903409F0C5
:10E9C000DEC5BDC0953409F470C1963409F0D7C5D1
:10E9D00098C1923509F42BC2933538F49C3409F46C
:10E9E000F5C1913509F0CBC518C2963509F445C279
:10E9F000993509F0C4C567C483E792EE62E00F94CD
:10EA0000F5F110920602109207021092080210927D
:10EA1000090210920A0210920B0210920C0210923C
:10EA20000D0213C18FE792EE62E00F94F5F18FEEC5
:10EA300090EE60E00F94F5F181E291EE60E00F94CA
:10EA4000C2F187EB91EE60E00F94F5F180E391EE77
:10EA500060E00F94C2F184EE90EE60E00F94F5F167
:10EA60008FE391EE60E00F94C2F186E090E061E008
:10EA700070E00F9434F20F94DCF18DE591EE60E0DC
:10EA80000F94C2F189EC91EE60E00F94F5F18EE401
:10EA900091EE60E00F94C2F183EC91EE60E00F9490
:10EAA000F5F18CE691EE60E00F94C2F18EE10F94E7
:10EAB0000DF288E90F940DF281E00F940DF20F949E
:10EAC000DCF18BE791EE60E00F94C2F119E0E0E039
:10EAD000F0E010935700E4918E2F0F940DF20F94F5
:10EAE000DCF18AE891EE60E00F94C2F1E3E0F0E03F
:10EAF00010935700E4918E2F0F940DF20F94DCF1D8
:10EB000089E991EE60E00F94C2F1E2E0F0E0109349
:10EB10005700E4918E2F0F940DF20F94DCF188EAE8
:10EB200091EE60E00F94C2F1E1E0F0E01093570045
:10EB30001491812F0F940DF20F94DCF107CF8BE825
:10EB400092EE62E00F94F5F18BE492EE60E00F94A8
:10EB5000F5F10F94DCF100E010E019C0C8016F2D51
:10EB60000F947FFEFF2031F489E492EE60E00F9471
:10EB7000C2F10BC0F092C6008091C00086FFFCCFAE
:10EB80008091C00080648093C0000F5F1F4FC80158
:10EB900081519F41A0E0B0E0ABBFFC01F790BAE229
:10EBA000FB1621F0E2E000301E07C1F60F94DCF105
:10EBB0000F94DCF187E592EE60E00F94F5F10F948D
:10EBC000DCF1CC24DD2400E010E01EC0C8010F946D
:10EBD00077FEF82E882331F489E492EE60E00F94FA
:10EBE000C2F10BC08093C6008091C00086FFFCCFAD
:10EBF0008091C00080648093C000FE1419F00894D6
:10EC0000C11CD11C0F5F1F4FC80181519F41A0E063
:10EC1000B0E0ABBFFC01E790FAE2EF1621F022E092
:10EC20000030120799F60F94DCF10F94DCF182E6C4
:10EC300092EE60E00F94C2F1C60161E070E00F94C3
:10EC400034F20F94DCF10F94DCF110920202109276
:10EC50000302109204021092050278CE89E992EE26
:10EC600062E00F94F5F1279A2F9A16C02F9880E052
:10EC700090E0E0EDF7E03197F1F7019684369105E9
:10EC8000C1F72F9A80E090E0E0EDF7E03197F1F7DF
:10EC9000019684369105C1F78091C00087FFE6CFC9
:10ECA0008091C00087FFFCCF64C485EA92EE62E0E9
:10ECB0000F94F5F140910202509103026091040219
:10ECC0007091050281E020E10F9491F2809102029F
:10ECD00090910302A0910402B091050280509F4FD1
:10ECE000AF4FBF4F8093020290930302A0930402A0
:10ECF000B093050280509041A040B04008F426CE69
:10ED0000A4CF83EB92EE62E00F94F5F140910602FE
:10ED100050910702609108027091090280E020E1A1
:10ED20000F9491F28091060290910702A09108023F
:10ED3000B091090280509F4FAF4FBF4F80930602A2
:10ED400090930702A0930802B0930902FFCD80ECD4
:10ED500092EE62E00F94F5F183E792EE60E00F949B
:10ED6000F5F18FE792EE60E00F94F5F18BE892EE0B
:10ED700060E00F94F5F189E992EE60E00F94F5F10F
:10ED800085EA92EE60E00F94F5F183EB92EE60E09D
:10ED90000F94F5F180EC92EE60E00F94F5F187ECC2
:10EDA00092EE60E00F94F5F188ED92EE60E00F9442
:10EDB000F5F18FED92EE60E00F94F5F18AEE92EEB0
:10EDC00060E00F94F5F183E093EEBDCD87EC92EE19
:10EDD00062E00F94F5F181E40F947BF282E40F94EA
:10EDE0007BF283E40F947BF284E40F947BF285E45E
:10EDF0000F947BF286E40F947BF287E40F947BF20E
:10EE000088E40F947BF28AE40F947BF28BE40F94F6
:10EE10007BF28CE40F947BF299CD88ED92EE62E068
:10EE20000F94F5F1772473948824992409C48FED05
:10EE300092EE62E00F94F5F140910A0250910B02BC
:10EE400060910C0270910D0282E020E10F9491F22A
:10EE500080910A0290910B02A0910C02B0910D02D8
:10EE600080509F4FAF4FBF4F80930A0290930B0289
:10EE7000A0930C02B0930D0269CD8AEE92EE62E08F
:10EE80000F94F5F184EE90EE60E00F94F5F18FECC5
:10EE900091EE60E00F94F5F1662477244301CC5D98
:10EEA000DE4F19821882C452D140D401C301B695F5
:10EEB000A79597958795CA5DDE4F88839983AA8326
:10EEC000BB83C652D140CC5DDE4FA881B981C4520C
:10EED000D1401196CC5DDE4FB983A883C452D14096
:10EEE000CD0162E070E00F9434F2B0E2B093C6005E
:10EEF0008091C00086FFFCCF8091C0008064809329
:10EF0000C000EDE2E093C6008091C00086FFFCCF18
:10EF10008091C00080648093C000F0E2F093C6004E
:10EF20008091C00086FFFCCF8091C00080648093F8
:10EF3000C000CA5DDE4FE880F9800A811B81C6529D
:10EF4000D140BB27A12F902F8F2D0F940DF2CA5DBA
:10EF5000DE4F8881C652D1400F940DF2B0E2FB2EF5
:10EF6000F092C6008091C00086FFFCCF8091C00067
:10EF700080648093C0000DE30093C6008091C000C0
:10EF800086FFFCCF8091C00080648093C00010E2B7
:10EF90001093C6008091C00086FFFCCF8091C00016
:10EFA00080648093C0008BBEF3012791C65DDE4F65
:10EFB0002883CA52D140A22EBB24CC24DD2408943D
:10EFC000611C711C811C911C8BBEF3018791282E42
:10EFD0003324442455240894611C711C811C911C09
:10EFE0008BBEF3013791C55DDE4F3883CB52D140E4
:10EFF0000894611C711C811C911C8BBEF30147910C
:10F00000C45DDE4F4883CC52D140ADEFEA2EAFEF66
:10F01000FA2EAFEF0A2FAFEF1A2F6E0C7F1C801E57
:10F02000911E142D032DF22CEE24EA0CFB1C0C1D5A
:10F030001D1D0F940DF220E22093C6008091C000A8
:10F0400086FFFCCF8091C00080648093C000C65DC5
:10F05000DE4F8881CA52D1400F940DF230E23093D6
:10F06000C6008091C00086FFFCCF8091C000806404
:10F070008093C000C45DDE4F8881CC52D1400F9494
:10F080000DF240E24093C6008091C00086FFFCCFA5
:10F090008091C00080648093C000C55DDE4F888190
:10F0A000CB52D1400F940DF250E25093C6008091A4
:10F0B000C00086FFFCCF8091C00080648093C000B8
:10F0C0008FEFE8168FEFF80680E0080780E018075A
:10F0D00031F484E092EE60E00F94C2F1DFC0D80119
:10F0E000C7018070907CA070B0708050904CA040A0
:10F0F000B040D1F52FEF3FE340E050E0E222F322B1
:10F1000004231523CA5DDE4FA880B980CA80DB8046
:10F11000C652D140AE0CBF1CC01ED11EAA0CBB1CD7
:10F12000CC1CDD1C8EE092EE60E00F94C2F1BB2798
:10F13000A12F902F8F2D0F940DF28E2D0F940DF285
:10F1400030E23093C6008091C00086FFFCCF8091F2
:10F15000C00080648093C0004EE34093C60080915D
:10F16000C00086FFFCCF87C08EE09EEFA0E0B0E03D
:10F17000E822F9220A231B239CE0E91694E9F90608
:10F1800090E0090790E0190709F088C0C45DDE4FE0
:10F19000A881CC52D140EA2EFF2400E010E0102FCD
:10F1A0000F2DFE2CEE24C55DDE4FB881CB52D14031
:10F1B000EB0EF11C011D111DD601C501817090706F
:10F1C000A070B070DC0199278827E80EF91E0A1F8D
:10F1D0001B1F20EF30E040E050E0A222B322C42207
:10F1E000D52241E1AA0CBB1CCC1CDD1C4A95D1F7F1
:10F1F000EA0CFB1C0C1D1D1D81E090E0A0E0B0E0BE
:10F20000282239224A225B2235E1220C331C441C7D
:10F21000551C3A95D1F7E20CF31C041D151D57013E
:10F220006801AA0CBB1CCC1CDD1C85E192EE60E0E1
:10F230000F94C2F1C801AA27BB270F940DF2BB2778
:10F24000A12F902F8F2D0F940DF28E2D0F940DF274
:10F2500090E29093C6008091C00086FFFCCF809121
:10F26000C00080648093C000AEE3A093C60080918C
:10F27000C00086FFFCCF8091C00080648093C000F6
:10F28000C601AA27BB270F940DF2BB27AD2D9C2DDD
:10F290008B2D0F940DF28A2D0F940DF20F94DCF14B
:10F2A000CC5DDE4FE881F981C452D140F99709F471
:10F2B0004DCBF4E0EF2EF12C012D112D6E0C7F1CA7
:10F2C000801E911EF2CD83E093EE62E00F94F5F183
:10F2D0008AE192EE60E00F94C2F18091C00087FF56
:10F2E000FCCF1091C6001F751093C6008091C0001E
:10F2F00086FFFCCF8091C00080648093C0000F9493
:10F30000DCF1812F81548A3108F036C1163409F4BA
:10F3100095C0173490F4133409F44EC0143430F40B
:10F320001134F1F0123409F01DC130C0143409F465
:10F3300059C0153409F016C16BC01A3409F4C4C0A1
:10F340001B3438F4173409F48FC0183409F00AC19B
:10F35000A1C01B3409F4D2C01C3409F003C1E8C0B9
:10F360008FEF81B90DC082B1809582B980E090E0C5
:10F37000E0EDF7E03197F1F70196883C9105C1F790
:10F380008091C00087FFEFCF12B8EFC08FEF84B934
:10F390000DC085B1809585B980E090E0E0EDF7E0A3
:10F3A0003197F1F70196883C9105C1F78091C00033
:10F3B00087FFEFCF15B8D9C08FEF87B90DC088B1DF
:10F3C000809588B980E090E0E0EDF7E03197F1F7C3
:10F3D0000196883C9105C1F78091C00087FFEFCF6F
:10F3E00018B8C3C08FEF8AB90DC08BB180958BB9A7
:10F3F00080E090E0E0EDF7E03197F1F70196883C8E
:10F400009105C1F78091C00087FFEFCF1BB8ADC059
:10F410008FEF8DB90DC08EB180958EB980E090E0F0
:10F42000E0EDF7E03197F1F70196883C9105C1F7DF
:10F430008091C00087FFEFCF1EB897C08FEF80BBD1
:10F440000DC081B3809581BB80E090E0E0EDF7E0F6
:10F450003197F1F70196883C9105C1F78091C00082
:10F4600087FFEFCF11BA81C08FEF83BB0DC084B38C
:10F47000809584BB80E090E0E0EDF7E03197F1F714
:10F480000196883C9105C1F78091C00087FFEFCFBE
:10F4900014BA6BC08FEF809301010FC080910201FD
:10F4A00080958093020180E090E0E0EDF7E03197F5
:10F4B000F1F70196883C9105C1F78091C00087FF64
:10F4C000EDCF1092020151C08FEF809304010FC065
:10F4D0008091050180958093050180E090E0E0ED4A
:10F4E000F7E03197F1F70196883C9105C1F78091DB
:10F4F000C00087FFEDCF1092050137C08FEF8093DA
:10F5000007010FC08091080180958093080180E079
:10F5100090E0E0EDF7E03197F1F70196883C910536
:10F52000C1F78091C00087FFEDCF109208011DC088
:10F530008FEF80930A010FC080910B01809580931B
:10F540000B0180E090E0E0EDF7E03197F1F70196F4
:10F55000883C9105C1F78091C00087FFEDCF1092E4
:10F560000B0103C085E292EEEEC98091C00087FFD7
:10F57000FCCF8091C600EAC988E392EEE4C98CE131
:10F5800091EEE1C988249924933011F1943028F444
:10F59000913089F09230B8F408C0953061F195301F
:10F5A000F0F0963009F048C043C02B3109F042C951
:10F5B00091E06BE13FC96227C15DDE4F2883CF52E6
:10F5C000D14092E037C9B22FA0E0622793E032C960
:10F5D000822F90E0A82BB92B622794E02BC92E3004
:10F5E00009F039C3622795E0C05DDE4F19821882A9
:10F5F000C053D1401FC9E1E0F0E0EC0FFD1FC05D3A
:10F60000DE4F08811981C053D140E00FF11F2083E4
:10F610000F5F1F4FC05DDE4F19830883C053D14079
:10F6200062270A171B0709F005C9D80196E002C92D
:10F63000261709F010C303C0973009F0FBC87724E0
:10F640009981933109F412C19431C8F4963009F4C8
:10F65000D8C0973050F4923009F406C1933009F4C1
:10F660006DC0913009F059C253C0913109F477C08F
:10F67000923108F0BBC0903109F04FC2F5C098310B
:10F6800009F487C0993150F4953109F4EFC09531F0
:10F6900008F4C6C1963109F040C2C2C19A3109F4DA
:10F6A0006CC09A3108F491C09B3109F45BC09D3164
:10F6B00009F033C29D81903359F48F81882311F46E
:10F6C0009EE11CC0813011F091E018C098E916C08D
:10F6D000892F807591F0903539F4E0E0F0E089E011
:10F6E0008093570094910AC0983539F4E3E0F0E034
:10F6F00089E080935700949101C090E01A821B82A8
:10F700008D818C831D829E831F8227E030E009C299
:10F710001A8288E08B8381E48C8386E58D8382E581
:10F720008E8389E48F8383E5888780E589878FE5E9
:10F730008A8782E38B872BE030E0F3C18A818139AD
:10F7400041F0823941F0803911F48FE005C080E04A
:10F7500003C082E001C08AE01A828B8344C0772410
:10F76000739482C08D81882311F48EE12CC0813086
:10F7700011F081E028C088E926C01A82E1E0F0E0BB
:10F7800089E08093570084918B831C8224E030E0D1
:10F79000C8C18B81803589F48C81883039F4E2E0EE
:10F7A000F0E089E08093570084910DC0E0E0F0E044
:10F7B00089E080935700849106C0E3E0F0E089E09F
:10F7C0008093570084911A82DFCF8D81836C99E0FA
:10F7D000E1E0F0E0082E90935700E89507B600FCB2
:10F7E000FDCF1A821B8223E030E09BC180EC8A832C
:10F7F000CE5CDE4F188219821A821B82C253D1401E
:10F800008EC18A8190E0A0E0B0E0582F44273327D2
:10F8100022278B8190E0A0E0B0E0DC0199278827C7
:10F82000282B392B4A2B5B2B8D8190E0A0E0B0E098
:10F83000282B392B4A2B5B2B8C8190E0A0E0B0E089
:10F84000BA2FA92F982F8827282B392B4A2B5B2BCF
:10F85000220F331F441F551FC05EDE4F288339839C
:10F860004A835B83C052D1401A8259C13A81C95C34
:10F87000DE4F3883C753D140CA5CDE4F1882C6536F
:10F88000D1408B81C82EDD24CA5CDE4F488159816E
:10F89000C653D140C42AD52A933109F082C0CE5C28
:10F8A000DE4F88819981AA81BB81C253D1408050AB
:10F8B000904CA340B04030F583E0CE5CDE4FE88052
:10F8C000F9800A811B81C253D140F70100935B008C
:10F8D00080935700E89507B600FCFDCFCE5CDE4F65
:10F8E000088119812A813B81C253D14000501F4FAA
:10F8F0002F4F3F4FCE5CDE4F088319832A833B8313
:10F90000C253D140C05EDE4F488159816A817B81FC
:10F91000C052D140DE011B9631E08C9111962C91A2
:10F9200011971296C75CDE4F2883C953D140C85C3B
:10F93000DE4F1882C853D14090E0C85CDE4FE881AA
:10F94000F981C853D1408E2B9F2B0C01FA01609393
:10F950005B0030935700E89511244E5F5F4F6F4F67
:10F960007F4F0EEFE02E0FEFF02ECE0CDF1CC114F8
:10F97000D10499F685E0C05EDE4F088119812A81A5
:10F980003B81C052D140F80120935B008093570027
:10F99000E89507B600FCFDCF81E180935700E8951C
:10F9A00035C0C05EDE4F88819981AA81BB81C0527B
:10F9B000D140B695A795979587957C018601ABE0D8
:10F9C000AA2EB12CAC0EBD1E0BC0D5016D915D01F0
:10F9D000C7010F947FFE0894E11CF11C01501040F8
:10F9E0000115110591F7A60160E070E0440F551F65
:10F9F000661F771FC05EDE4FE880F9800A811B8199
:10FA0000C052D1404E0D5F1D601F711F1A82C05E33
:10FA1000DE4F488359836A837B83C052D1407FC0C5
:10FA2000FA80C55CDE4FF882CB53D140C65CDE4F16
:10FA30001882CA53D1408B81C82EDD24C65CDE4FAC
:10FA400008811981CA53D140C02AD12A1A828981DA
:10FA5000BE016D5F7F4F843121F59601C05EDE4FA0
:10FA6000E880F9800A811B81C052D1400BBFF701A9
:10FA700087919691DB018C9311969C936E5F7F4FDB
:10FA8000D801C7010296A11DB11DC05EDE4F88835B
:10FA90009983AA83BB83C052D14022503040F1F6F3
:10FAA00036C0C05EDE4F288139814A815B81C052F9
:10FAB000D1400894C108D108760100E010E0089414
:10FAC000C11CD11C0894E11CF11C011D111DE20E8A
:10FAD000F31E041F151F21BDBB27A52F942F832FB5
:10FAE00082BD2F5F3F4F4F4F5F4FF89A80B5DB01CC
:10FAF0008D93BD012E153F054007510761F7C05E8C
:10FB0000DE4F288339834A835B83C052D1409601FC
:10FB10002D5F3F4FFB01108204C080EC8A8322E0FE
:10FB200030E08BE18093C6008091C00086FFFCCF5F
:10FB30008091C00080648093C000C15DDE4FF88179
:10FB4000CF52D140F093C6008091C00086FFFCCF19
:10FB50008091C00080648093C000432F3093C60022
:10FB60008091C00086FFFCCF8091C00080648093AC
:10FB7000C000922F2093C6008091C00086FFFCCF6A
:10FB80008091C00080648093C0008EE08093C600A6
:10FB90008091C00086FFFCCF8091C000806480937C
:10FBA000C00065E1C15DDE4FE880CF52D1406E25D7
:10FBB00069276427FE01319610C090819093C6009A
:10FBC0008091C00086FFFCCF31968091C000806498
:10FBD0008093C0006927215030402115310569F715
:10FBE0006093C6008091C00086FFFCCF8091C0006A
:10FBF00080648093C00085B1805885B9772081F4F6
:10FC0000C15DDE4F0881CF52D1400F5FC15DDE4F35
:10FC10000883CF52D14090E0A0E0B0E00D941AF4F8
:10FC200027982F9880E090E020ED37E0F901319798
:10FC3000F1F7019684369105C9F700008091C00064
:10FC40008D7F8093C00081E180935700E895EE2777
:10FC5000FF270994FFCF90E00D941AF497FB092E2B
:10FC600007260AD077FD04D02ED006D000201AF443
:10FC7000709561957F4F0895F6F7909581959F4F08
:10FC80000895A1E21A2EAA1BBB1BFD010DC0AA1FDD
:10FC9000BB1FEE1FFF1FA217B307E407F50720F0F5
:10FCA000A21BB30BE40BF50B661F771F881F991F70
:10FCB0001A9469F760957095809590959B01AC01B9
:10FCC000BD01CF010895AA1BBB1B51E107C0AA1FAC
:10FCD000BB1FA617B70710F0A61BB70B881F991FED
:10FCE0005A95A9F780959095BC01CD010895F99991
:10FCF000FECF92BD81BDF89A992780B50895262F31
:10FD0000F999FECF1FBA92BD81BD20BD0FB6F89400
:0EFD1000FA9AF99A0FBE01960895F894FFCF63
:040000033000E000E9
:00000001FF