:1000000015C1000044C1000042C1000040C1000011
:100010003EC100003CC100003AC1000038C10000F0
:1000200036C1000034C1000032C1000030C1000000
:100030002EC100002CC100002AC1000028C1000010
:1000400026C1000024C1000022C1000020C1000020
:100050001EC100001CC100001AC10000EDC5000057
:1000600016C10000F1C70000C6C7000010C10000A3
:100070000EC100000CC100000AC1000008C1000050
:1000800006C1000004C1000002C1000000C1000060
:10009000FEC00000FCC00000FAC0000017C600004F
:1000A000F6C00000F4C00000F2C00000F0C0000084
:1000B000EEC00000ECC00000EAC00000E8C0000094
:1000C000E6C00000E4C00000E2C00000E0C00000A4
:1000D000DEC00000DCC0000065C700003AC70000B9
:1000E000D6C00000C703CA03B903BD03C30301049C
:1000F000CE03D203D803DC03E003E603EA03EE03F6
:100100000104F403F803FC0300002100240027008D
:100110002A002D0030003300010100000401070116
:100120000A01000020002300260029002C002F00D7
:1001300032000001000003010601090100000A0B62
:1001400002090C0D0E080703040100000000000066
:10015000000000000000000000000000000000009F
:10016000000000000000000012111000000000005C
:10017000000000000000000000000000000000007F
:1001800000000102102020080810204010204080AC
:10019000020102010804020101020408102040804B
:1001A00080402010080402018004020180402010D9
:1001B0000804020108040201010204081020408022
:1001C00001020408102040800000220025002800C1
:1001D0002B002E003100340002010000050108014F
:1001E0000B010505050507050808080802020202BB
:1001F0000A0A0808040404040101010101010101C3
:100200000303030303030303040707070C0C0C0C8D
:100210000C0C0C0C02020202060606060606060676
:100220000B0B0B0B0B0B0B0B9210D60911241FBEE3
:10023000CFEFD1E2DEBFCDBF00E00CBF25E0A6E2EC
:10024000B3E001C01D92AB3AB207E1F713E0A0E0C2
:10025000B2E0ECEEF8E200E00BBF02C007900D92B6
:10026000A632B107D9F711E0C5E1D1E000E006C040
:1002700021970109802FFE010E942C13C431D10760
:1002800080E00807A9F70E94E5090C946514B8CE30
:10029000FC01538D448D252F30E0842F90E0821B8C
:1002A000930B541710F0CF96089501970895FC0111
:1002B000918D828D981761F0828DDF01A80FB11D9D
:1002C0005D968C91928D9F5F9F73928F90E00895C1
:1002D0008FEF9FEF0895FC01918D828D981731F07B
:1002E000828DE80FF11D858D90E008958FEF9FEFCF
:1002F0000895FC01918D228D892F90E0805C9F4FA5
:10030000821B91098F739927089580E090E0892BD3
:1003100019F016D6811120C080E090E0892B41F0C1
:1003200080E090E0892B21F00E940000811117C02D
:1003300080E090E0892B41F080E090E0892B21F073
:100340000E94000081110EC080E090E0892B79F0BE
:10035000EED581110AC008950E940000DDCF0E94F1
:100360000000E6CF0E940000EFCF0C94000008953B
:1003700085ED8093BC008091BC0084FDFCCF109281
:10038000E403089540919203262F30E0240F311D9D
:1003900021323105DCF42091E4032430C9F4FC015E
:1003A00080E090E0861758F4309192032191DC01AF
:1003B000AE58BC4FA30FB11D2C930196F3CF809183
:1003C0009203680F6093920380E0089581E008959E
:1003D00082E00895E091ED03F091EE03309729F06B
:1003E0001092E6031092E50319940895CF93DF93DA
:1003F000AC01E091EF03F091F0033097F1F09091B0
:10040000E8038091E7039817C0F090E0292F30E0CF
:100410002617370754F4D901AE5ABC4FEA01C20F70
:10042000D31F88818C939F5FF1CF1092E803609374
:10043000E703CB01DF91CF911994DF91CF9108951C
:100440000895E091E8038091E703E81730F4F0E0C5
:10045000EE5AFC4F808190E008958FEF9FEF089552
:100460009091E8038091E703981750F4E92FF0E0AA
:10047000EE5AFC4F208130E09F5F9093E80302C06A
:100480002FEF3FEFC90108958091E70390E020919D
:10049000E803821B91090895CF93DF931F921F9267
:1004A000CDB7DEB7CB01642F49835A836BDF498117
:1004B000842F5A81952F0F900F90DF91CF9108953F
:1004C000CF93DF931F92CDB7DEB7698361E0CE0192
:1004D000019658DF81E090E00F90DF91CF91089571
:1004E000089580E090E00895809101048F5F8093EB
:1004F000010480910102813009F457C020F082305C
:1005000009F46CC00895609105047091060480910F
:100510000704909108040E94FC12709349036093B1
:1005200048036091090470910A0480910B04909132
:100530000C040E94FC1270934B0360934A03609179
:100540000D0470910E0480910F04909110040E948C
:10055000FC1270934D0360934C03609111047091F1
:10056000120480911304909114040E94FC12709361
:100570004F0360934E0360911504709116048091AF
:100580001704909118040E94FC1270935103609319
:100590005003E0918605F09187050280F381E02DFC
:1005A0004AE050E068E473E024C080910204809344
:1005B0004703109202048091040481110AC08091C3
:1005C0002502882331F09091250280910002981332
:1005D00013C06091470386E895E072CFE0918605ED
:1005E000F09187050280F381E02D4EE050E061EF4D
:1005F00073E086E895E019948091250280930002CB
:1006000082E08093010280914703826080934703D8
:10061000E0CF0E946114FC01A089B1898C91A68968
:10062000B78982FD0FC09C91818D8F5F8F73228D62
:10063000821749F0218DDF01A20FB11D5D969C93B9
:10064000818F08958C910895FC01848DDF01A80F9E
:10065000B11DA35ABF4F2C91848D90E001968F73EA
:100660009927848FA689B7892C93A089B1898C9109
:1006700080648C93938D848D981306C00288F389CF
:10068000E02D80818F7D80830895EF92FF920F93FC
:100690001F93CF93DF93EC0181E0888F9B8D8C8D2E
:1006A000981305C0E889F989808185FD23C0F62E5D
:1006B0000B8D10E00F5F1F4F0F731127E02E8C8DF5
:1006C000E8120BC00FB607FCFACFE889F9898081E0
:1006D00085FFF5CFCE01B8DFF2CF8B8DFE01E80F9D
:1006E000F11DE35AFF4FF0820B8FEA89FB8980816D
:1006F000806207C0EE89FF896083E889F98980817B
:100700008064808381E090E0DF91CF911F910F9111
:10071000FF90EF900895CF93DF93EC01888D8823AD
:10072000C1F0EA89FB89808185FD05C0A889B98966
:100730008C9186FD0EC00FB607FCF5CF808185FF3A
:10074000F2CFA889B9898C9185FFEDCFCE017CDFEE
:10075000E8CFDF91CF91089590E0FC013197E2312D
:10076000F10508F04EC08827EE58FF4F8F4F0C94CC
:100770002C13809180008F7703C0809180008F7D43
:1007800080938000089580918000877FF9CF84B5A1
:100790008F7702C084B58F7D84BD08958091B000AD
:1007A0008F7703C08091B0008F7D8093B000089553
:1007B000809190008F7707C0809190008F7D03C05B
:1007C00080919000877F8093900008958091A00091
:1007D0008F7707C08091A0008F7D03C08091A0001B
:1007E000877F8093A0000895809120018F7707C0B4
:1007F000809120018F7D03C080912001877F8093AD
:10080000200108951F93CF93DF93282F30E0F90143
:10081000E45CFE4F8491F901EE57FE4FD491F9014B
:10082000EE51FE4FC491CC23C1F0162F811194DFFD
:10083000EC2FF0E0EE0FFF1FE853FE4FA591B491AF
:100840008FB7F894111105C09C91ED2FE095E92325
:1008500002C0EC91ED2BEC938FBFDF91CF911F91F4
:100860000895CF93DF9390E0FC01EE57FE4F249163
:10087000FC01EE51FE4F8491882361F190E0880FD6
:10088000991FFC01E85FFE4FC591D491FC01E8532C
:10089000FE4FA591B491611109C09FB7F89488816A
:1008A000209582238883EC912E230BC0623061F463
:1008B0009FB7F8943881822F809583238883EC91A9
:1008C0002E2B2C939FBF06C08FB7F894E8812E2B58
:1008D00028838FBFDF91CF910895863308F0865328
:1008E00090917B00282F2870977F922B90937B000C
:1008F00087702091020290E4299F90011124822B9D
:1009000080937C0080917A00806480937A0080914B
:100910007A0086FDFCCF809178002091790090E0EC
:10092000922B08953FB7F8948091DE039091DF03F6
:10093000A091E003B091E10326B5A89B05C02F3F2D
:1009400019F00196A11DB11D3FBFBA2FA92F982FF5
:100950008827820F911DA11DB11DBC01CD0142E070
:10096000660F771F881F991F4A95D1F708952FB7F3
:10097000F8946091DA037091DB038091DC0390912D
:10098000DD032FBF08958F929F92AF92BF92EF9297
:10099000FF920F931F93CF93DF93EC01809100049C
:1009A0008F5F80930004C130D10531F486E895E073
:1009B00057DD8093010235C107E213E0CE01895D66
:1009C0009C4F7C010E151F0589F1D1DF60938E05C8
:1009D00070938F058093900590939105E091860523
:1009E000F09187050284F385E02D86E895E019955E
:1009F00097FF29C0BCDF80908E0590908F05A09056
:100A00009005B0909105DC01CB0188199909AA09DC
:100A1000BB0980908A0590908B05A0908C05B090C2
:100A20008D0588159905AA05BB05C0F220912703FD
:100A3000822F8770813009F48FC0833009F4A8C0F9
:100A40008111DFC004C0F80181938F01BBCF809179
:100A500028039091290325952595259509F055C0E2
:100A6000209119042111DDC08038FEE39F0738F082
:100A700081302DE7920728F080E09DE702C080E8F2
:100A80009EE39093AD008093AC0080912A039091F7
:100A90002B038038EEE39E0738F08130FDE79F0797
:100AA00028F080E09DE702C080E89EE39093290152
:100AB0008093280180912C0390912D0380382EE3A0
:100AC000920738F08130EDE79E0728F080E09DE73F
:100AD00002C080E89EE390939900809398008091F3
:100AE0002E0390912F038038FEE39F0738F081306A
:100AF0002DE7920728F080E09DE702C080E89EE3A2
:100B00009093A9008093A8008CC08038EEE39E07E4
:100B100038F08130FDE79F0728F080E09DE702C0B4
:100B200080E89EE390939D0080939C0080912A032F
:100B300090912B0380382EE3920738F08130EDE757
:100B40009E0728F080E09DE702C080E89EE3909336
:100B50002D0180932C0165C0809128038031ACF079
:100B6000803109F05EC060E089E14CDE00DFDC012D
:100B7000CB010A96A11DB11D80931A0490931B040A
:100B8000A0931C04B0931D044CC08093030449C07F
:100B9000822F022E000C990B33E0959587953A959C
:100BA000E1F78093FF038091FF0390E0019730917C
:100BB0002803FC01EE0FFF1F8E0F9F1FFC01EC5F4F
:100BC000FD4F30838091FF0390E00197309129031E
:100BD000FC01EE0FFF1F8E0F9F1FFC01EC5FFD4F0E
:100BE00031834091FF0350E04150510980912A0325
:100BF000FA01EE0FFF1F4E0F5F1FFA01EC5FFD4F72
:100C00008283279771F423FB222720F920931E0269
:100C100086E0E8E2F3E0AFE1B2E001900D928A9560
:100C2000E1F7DF91CF911F910F91FF90EF90BF906F
:100C3000AF909F908F9008951F920F920FB60F92D2
:100C400011242F933F938F939F93AF93BF938091E2
:100C5000DA039091DB03A091DC03B091DD033091C6
:100C6000D90323E0230F2D3720F40196A11DB11DD8
:100C700005C026E8230F0296A11DB11D2093D903BC
:100C80008093DA039093DB03A093DC03B093DD033E
:100C90008091DE039091DF03A091E003B091E10326
:100CA0000196A11DB11D8093DE039093DF03A093F5
:100CB000E003B093E103BF91AF919F918F913F917A
:100CC0002F910F900FBE0F901F9018951F920F92AB
:100CD0000FB60F9211240BB60F922F933F934F93A1
:100CE0005F936F937F938F939F93AF93BF93EF9394
:100CF000FF938091B900887F803609F49CC068F525
:100D0000883209F45BC090F4803109F454C038F49F
:100D1000882309F4F6C0883009F44DC0F5C0883145
:100D200009F44CC0803209F45DC0EEC0803409F48F
:100D300068C048F4803309F455C0883309F0E4C032
:100D40008093B503D8C0803509F44FC0883509F4C5
:100D50005DC0883409F0D8C0D6C0883909F4C7C04E
:100D6000A8F4883709F467C038F4883609F463C0FA
:100D7000803709F460C0C8C0883809F4B8C0803929
:100D800009F45FC0803809F0BFC05BC0803B09F444
:100D900086C038F4803A09F466C0883A09F47FC006
:100DA000B3C0803C09F4A7C0883C09F4A4C0883BC8
:100DB00009F48AC0A9C08091D80310C09091D703CC
:100DC0008091D603981770F5E091D70381E08E0FDC
:100DD0008093D703F0E0EA54FC4F80818093BB00FE
:100DE00085EC86C08093B5038EC0E091D70381E087
:100DF0008E0F8093D7038091BB00F0E0EA54FC4F44
:100E000080839091D7038091D6036EC0E091D70381
:100E100081E08E0F8093D7038091BB00F0E0EA540D
:100E2000FC4F80838091E30381116DC081E080934A
:100E3000E20384EA61C083E08093E4031092B40388
:100E4000CFCF8091B403803208F051C0E091B40359
:100E500081E08E0F8093B4038091BB00F0E0EC56EC
:100E6000FC4F8083BDCF85EC8093BC001092E403DF
:100E70008091B403803230F4E091B403F0E0EC569A
:100E8000FC4F10826091B40370E0E091E903F091AF
:100E9000EA0384E993E019951092B40335C084E025
:100EA0008093E4031092930310929203E091EB037A
:100EB000F091EC03199580919203811105C081E0B6
:100EC0008093920310927203E091930381E08E0F5E
:100ED00080939303F0E0EE58FC4F80818093BB0039
:100EE0009091930380919203981708F479CF85E845
:100EF0008093BC0009C085EC8093BC001092E40391
:100F000003C01092B50334DAFF91EF91BF91AF9116
:100F10009F918F917F916F915F914F913F912F9111
:100F20000F900BBE0F900FBE0F901F9018958CE482
:100F300094E0DFD921E0892B09F420E0822F089585
:100F400089EE94E0D6D921E0892B09F420E0822FA4
:100F500008951F920F920FB60F9211240BB60F92A5
:100F60002F933F934F935F936F937F938F939F93B1
:100F7000AF93BF93EF93FF938CE494E065DBFF9115
:100F8000EF91BF91AF919F918F917F916F915F9101
:100F90004F913F912F910F900BBE0F900FBE0F906E
:100FA0001F9018951F920F920FB60F9211240BB637
:100FB0000F922F933F934F935F936F937F938F93F2
:100FC0009F93AF93BF93EF93FF938CE494E023DB65
:100FD000FF91EF91BF91AF919F918F917F916F9111
:100FE0005F914F913F912F910F900BBE0F900FBECD
:100FF0000F901F9018951F920F920FB60F92112409
:101000000BB60F922F933F934F935F936F937F9302
:101010008F939F93AF93BF93EF93FF9389EE94E0E9
:1010200013DBFF91EF91BF91AF919F918F917F91D2
:101030006F915F914F913F912F910F900BBE0F9049
:101040000FBE0F901F9018951F920F920FB60F9220
:1010500011240BB60F922F933F934F935F936F938F
:101060007F938F939F93AF93BF93EF93FF9389EEFB
:1010700094E0D1DAFF91EF91BF91AF919F918F9161
:101080007F916F915F914F913F912F910F900BBE88
:101090000F900FBE0F901F901895CF92DF92EF9296
:1010A000FF920F931F93CF93DF936C017A018B0113
:1010B000C0E0D0E0CE15DF0589F0D8016D918D013B
:1010C000D601ED91FC910190F081E02DC6011995BA
:1010D000892B11F47E0102C02196ECCFC701DF916C
:1010E000CF911F910F91FF90EF90DF90CF900895D7
:1010F0000F931F93CF93DF93CDB7DEB729970FB62A
:10110000F894DEBF0FBECDBF80919A0590919B05EC
:10111000892B09F4A0C006DC0091A0051091A1055F
:101120002091A2053091A305DC01CB01801B910B1E
:10113000A20BB30B8C329140A105B10560F3F8947A
:1011400080919605909197059A838983E0919A05FD
:10115000F0919B05DF01119680818987909192051E
:10116000E091A405F091A5058091A605992309F4C5
:101170002EC09081982B98879081809589238F83AA
:101180008F818C8388E08B8358856F8149853B8173
:101190002C8189819A81508347FD252F3A952083A0
:1011A000262F39F0441F00C000006083000000C0FB
:1011B000F2CF38E04D9160830000019761F7F09322
:1011C000A505E093A40549873B832C8338C0908113
:1011D000982B98879081809589238F838F818E8328
:1011E00088E08D8358856F8149853D812E81898175
:1011F0009A81508347FD252F00C000C0208300C086
:1012000000C000C000C000C060830000262F3A95D7
:1012100041F0441F000000C000C000C000C000C07A
:10122000E8CF38E04D9100C0608300C0019709F716
:10123000F093A505E093A40549873D832E839A8307
:10124000898378946FDB6093A0057093A1058093E8
:10125000A2059093A30529960FB6F894DEBF0FBEA2
:10126000CDBFDF91CF911F910F9108958F929F92E3
:10127000AF92BF92CF92DF92EF92FF9220919405AE
:10128000309195058217930708F052C04B01AA24AC
:10129000BB24E82DC52ED62EE72EFF24FC2D342F9F
:1012A00020919905222361F0829E40011124E92DAD
:1012B000C29E60011124FD2D429FD00111243B2FBD
:1012C000F0909F05E0909C05A0919A05B0919B0538
:1012D000FE1008C0AC01440F551F840F951F8A0FE4
:1012E0009B1F14C0880F991F880F991F8A0F9B1F7F
:1012F000472F552766277727DC01AF0DB11D222325
:1013000021F0429FA0011124452F4C9320919C0570
:10131000DC01A20FB11DEC9320919D05DC01A20F11
:10132000B11DFC9320919E05FC01E20FF11D30835D
:10133000FF90EF90DF90CF90BF90AF909F908F90F5
:1013400008958F929F92AF92BF92CF92DF92EF92C9
:10135000FF92E8DA4B015C0184E6C82ED12CE12C27
:10136000F12CE0DADC01CB0188199909AA09BB0943
:10137000883E9340A105B10558F021E0C21AD1087A
:10138000E108F10888EE880E83E0981EA11CB11CCC
:10139000C114D104E104F10421F7FF90EF90DF9034
:1013A000CF90BF90AF909F908F90089580919A05B5
:1013B00090919B05009711F00E94C91380919805A8
:1013C00087FD02C060E04DCA0895CF93DF9300D03F
:1013D0001F92CDB7DEB7789484B5826084BD84B5A2
:1013E000816084BD85B5826085BD85B5816085BD20
:1013F00080916E00816080936E00109281008091D8
:10140000810082608093810080918100816080935F
:101410008100809180008160809380008091B10084
:1014200084608093B1008091B00081608093B000AF
:101430008091910082608093910080919100816001
:1014400080939100809190008160809390008091C2
:10145000A10082608093A1008091A10081608093AF
:10146000A1008091A00081608093A0008091210163
:10147000826080932101809121018160809321010C
:101480008091200181608093200180917A008460A6
:1014900080937A0080917A00826080937A008091B4
:1014A0007A00816080937A0080917A0080688093CE
:1014B0007A001092C10061E08EE2D3D961E085E04C
:1014C000D0D961E086E0CDD961E088E0CAD961E099
:1014D0008CE2C7D961E083E0C4D99AEB9093900085
:1014E00089E1809391009093A0008093A100909354
:1014F00020018093210180E89BEB9093270180934A
:1015000026019093A7008093A60090939700809364
:10151000960080EC9DE590939D0080939C009093B5
:101520002D0180932C0180E89EE39093A900809385
:10153000A80090939900809398009093290180933C
:1015400028019093AD008093AC0042E050E06FE141
:1015500073E089EE94E0A1DD42E050E062E273E0E6
:1015600089EE94E09ADDE0915C04F0915D0482E004
:101570008083E0915804F09159041082E0915A045C
:10158000F0915B048FEC808310926404E09160041E
:10159000F091610486E08083E0915E04F0915F0445
:1015A000808180618083E0915E04F0915F0480819E
:1015B00088608083E0915E04F0915F0480818068A0
:1015C0008083E0915E04F0915F0480818F7D808351
:1015D000B8DE04E812E0F80161918F018CE494E038
:1015E00054D8F2E00F381F07B1F7ABDE09E712E07D
:1015F000F80161918F018CE494E047D8F2E004385F
:101600001F07B1F79EDE0EE612E0F80161918F012F
:101610008CE494E03AD8F2E009371F07B1F791DE85
:1016200003E612E0F80161918F018CE494E02DD87B
:10163000F2E00E361F07B1F784DE08E512E0F8018C
:1016400061918F018CE494E020D8F2E003361F070B
:10165000B1F777DE0DE412E0F80161918F018CE4BF
:1016600094E013D8F2E008351F07B1F76ADE02E410
:1016700012E0F80161918F018CE494E006D8F2E069
:101680000D341F07B1F75DDE5CDE0CE212E0F801FD
:1016900061918F018CE494E00E944503F2E00234F2
:1016A0001F07A9F761E08EE1DCD860E08FE1D9D8AF
:1016B00061E089E1D6D860E08EE1A4D861E089E1FB
:1016C000A1D883E08093020282E18093BA008AEE7F
:1016D00091E09093EC038093EB0386EF91E090937D
:1016E000EA038093E9031092E8031092E703109253
:1016F000E6031092E5031092E40381E08093E30394
:101700001092E20361E084E17DD861E085E17AD85E
:101710008091B9008E7F8093B9008091B9008D7F50
:101720008093B90088E48093B80085E48093BC007E
:1017300084E792E09093EE038093ED0383EC94E0D2
:101740009093F0038093EF038091980587FD06C086
:1017500061E087D860E08091980554D881E080935B
:10176000930500E010E040E051E060E070E0C80167
:101770007DDD0F5F1F4F08301105A9F7B9DC9BE035
:1017800088E10FB6F894A895809360000FBE9093FF
:10179000600030E8832E3EE3932E4BE5E42E41E0DB
:1017A000F42E51EAC52E51E0D52E61E0A62E62E05E
:1017B000B62E0FEF16E080911A0490911B04A091B1
:1017C0001C04B0911D04892B8A2B8B2B79F040903F
:1017D0001A0450901B0460901C0470901D04C7D81C
:1017E000461657066806790608F420C488E375D8BB
:1017F000BC018091190491E0653E21E072070CF074
:1018000090E0892B809319042091050430910604FF
:10181000409107045091080440900504509006043C
:101820006090070470900804072E000C880B990B39
:1018300029833A834B835C8367D529813A814B8125
:101840005C8175D62AE037ED43E25CE3BCD59B01B1
:10185000AC01C301B2016CD6609305047093060419
:10186000809307049093080486E337D8BC018091E5
:10187000190491E06C3D41E074070CF090E0892B75
:10188000809319042091090430910A0440910B04BB
:1018900050910C044090090450900A0460900B048D
:1018A00070900C04072E000C880B990B29833A8347
:1018B0004B835C8329D529813A814B815C8137D662
:1018C0002AE037ED43E25CE37ED59B01AC01C30126
:1018D000B2012ED66093090470930A0480930B041E
:1018E00090930C048CE30E946D04BC018091190458
:1018F00091E06A36E1E07E070CF090E0892B80935E
:10190000190420910D0430910E0440910F04509160
:10191000100440900D0450900E0460900F047090DD
:101920001004072E000C880B990B29833A834B83F4
:101930005C83EAD429813A814B815C81F8D52AE025
:1019400037ED43E25CE33FD59B01AC01C301B2013B
:10195000EFD560930D0470930E0480930F04909361
:1019600010048AE30E946D049C019091190481E0A7
:10197000243BF1E03F070CF080E0982B9093190492
:10198000822F0E946D042091110430911204409125
:10199000130450911404409011045090120460906C
:1019A000130470901404BC01990F880B990B2983C0
:1019B0003A834B835C83A8D429813A814B815C8133
:1019C000B6D52AE037ED43E25CE3FDD49B01AC01E0
:1019D000C301B201ADD560931104709312048093DA
:1019E00013049093140480911904882381F0909239
:1019F000AD008092AC0090922901809228019092D3
:101A00009900809298009092A9008092A80087E3A4
:101A10000E946D0420911504309116044091170422
:101A200050911804409015045090160460901704CB
:101A300070901804BC01990F880B990B29833A8385
:101A40004B835C8361D429813A814B815C816FD562
:101A50002AE037ED43E25CE3B6D49B01AC01C3015D
:101A6000B20166D560931504709316048093170431
:101A7000909318048CE494E00E947901892B09F476
:101A8000D7C081E0809304048CE494E00E94570165
:101A90002091410430914204223031058CF4F90147
:101AA000E157FD4F9081891329C0F901E15CFB4F9B
:101AB00010822F5F3F4F30934204209341042FC088
:101AC0002232310574F4F901E35EFB4F808390917B
:101AD0003F04980F90933F0440914004940F9093DB
:101AE00040042F5F3F4F3093420420934104233240
:101AF000310549F490913F04891789F0109242040E
:101B0000109241040CC02432310509F088C01092B3
:101B100042041092410490914004891711F080E032
:101B200083C080912B0490912C04A0912D04B0913E
:101B30002E048093F5039093F603A093F703B093DC
:101B4000F8038091270490912804A0912904B09172
:101B50002A048093F1039093F203A093F303B093CC
:101B6000F40380912F0490913004A0913104B0913E
:101B700032048093F9039093FA03A093FB03B0938C
:101B8000FC0340913B0450913C0460913D047091F2
:101B90003E04FAE07695679557954795FA95D1F703
:101BA00040933B0450933C0460933D0470933E0487
:101BB0008091370490913804A0913904B0913A048F
:101BC0002AE0B695A795979587952A95D1F78093A2
:101BD000370490933804A0933904B0933A044F3FEC
:101BE00051056105710529F020F04FEF50E060E0EC
:101BF00070E04093FE038F3F9105A105B10529F0E8
:101C000020F08FEF90E0A0E0B0E08093FD038091A2
:101C10001E0491E0980F90931E04806805C0253241
:101C200031050CF06BCF7BCF80932502109204041A
:101C300080910304882309F41EC1809103049091CC
:101C40000302981709F45AC0809103048093030299
:101C5000612C712C20910304A09103048091030452
:101C6000189FC00111248F559D4FFC0180811A9F40
:101C7000D0011124AF55BD4F11964C9150E060E05A
:101C800070E0762F652F542F4427682B129FF001A8
:101C90001124EF55FD4F8281482BC301E7DA2091D3
:101CA0000304A091030480910304189FC001112430
:101CB0008F559D4FFC0183811A9FD0011124AF5590
:101CC000BD4F14964C9150E060E070E0762F652F88
:101CD000542F4427682B129FF0011124EF55FD4F1C
:101CE0008581482BC3010196C1DAF2E06F0E711CA9
:101CF00028E06216710409F0ADCFFAD920904404AF
:101D0000309045044090460450904704211431041B
:101D10004104510449F50E94B704E0910304F0E046
:101D2000EF56FD4F208120FD06C028EC422E512C9D
:101D3000612C712C06C0B8E54B2EB2E05B2E612CF5
:101D4000712CDC01CB01840D951DA61DB71D809360
:101D5000440490934504A0934604B0934704109222
:101D6000430460911E02DBC07090430470FE34C0D7
:101D70000E94B704261637064806590608F0D2C056
:101D800060911E028EE10E940204739470924304DB
:101D90000E94B704E0910304F0E0EF56FD4F20816C
:101DA00030E0769402C0359527957A94E2F720FDCD
:101DB00006C0A8EC4A2E512C612C712C06C0F8E507
:101DC0004F2EF2E05F2E612C712CDC01CB01840DD3
:101DD000951DA61DB71D46C00E94B70426163706DE
:101DE0004806590608F09EC060E08EE10E94020499
:101DF00081E0870D80934304883060F110920304E2
:101E00001092440410924504109246041092470424
:101E100000930302612C712CF301EE0FFF1FE60DFE
:101E2000F71DEC5FFD4F82814181908150E060E0C1
:101E300070E0762F652F542F4427692B482BC30160
:101E400015DA4FEF641A740A88E06816710421F7F6
:101E50004FD968C00E94B704DC01CB018C599F4F59
:101E6000AF4FBF4F8093440490934504A093460422
:101E7000B093470457C0F7018491F6016490F501CF
:101E800074907720A1F081110E94AC03E72DF0E05F
:101E9000EE0FFF1FEE5DFE4FA591B4918C9168226D
:101EA00031E020E009F430E0832F922F02C080E07F
:101EB00090E0F1E08F27817080934B0490910204B1
:101EC000892B809302040E94B7046938734181050D
:101ED000910520F080914B048111B7C060911504E9
:101EE00070911604809117049091180421EC3CE540
:101EF0004FE254E4ADD318160CF0A5C06091150460
:101F00007091160480911704909118042AEE3DE414
:101F10004FE354E4F3D1682F661F6627661F8EE1F6
:101F20000E9402049091010480911D02981709F407
:101F3000BFC09091000480911C02981709F4B8C0AA
:101F40008091010480931D028091000480931C0203
:101F5000109249041092480480914A04882329F180
:101F600080914B04811121C0612C712CF301EE0F83
:101F7000FF1FE60DF71DEC5FFD4F828141819081CF
:101F800050E060E070E0762F652F542F4427692BD6
:101F9000482BC3016BD92FEF621A720A48E064160E
:101FA000710421F7A5D810924A048091FF03882379
:101FB000C9F18091FF0381508093FF038091FF035B
:101FC00090E0FC01EE0FFF1F8E0F9F1FFC01EC5FE6
:101FD000FD4F22818091FF0390E0FC01EE0FFF1F77
:101FE0008E0F9F1FFC01EC5FFD4F41818091FF032D
:101FF00090E0FC01EE0FFF1F8E0F9F1FFC01EC5FB6
:10200000FD4F90818091FF0350E060E070E0762FFB
:10201000652F542F4427692B422B90E027D968D88D
:102020001092FF03A8950E948501C5CB10921A0457
:1020300010921B0410921C0410921D0461E089E1AF
:102040000E940204D3CB60E06ACF0E949204809584
:102050008170582E612C712C80912402552029F01A
:10206000409123029091220204C04091220290915B
:10207000230250E060E070E0762F652F542F442754
:10208000692B482BC301F2D84FEF641A740A88E019
:102090006816710409F72CD880911E02882321F05C
:1020A000652D8EE10E94020481E080934A043ACFBC
:1020B000809148049091490401969093490480933B
:1020C00048048D32914008F447CF9092AD00809241
:1020D000AC00909229018092280190929900809200
:1020E00098009092A9008092A800612C712C809198
:1020F00021024091200290911F0250E060E070E0C8
:10210000762F652F542F4427692B482BC301AED857
:10211000EFEF6E1A7E0AF8E06F16710441F70E9425
:1021200078081ACF10924F0410924E0488EE93E074
:10213000A0E0B0E08093500490935104A093520427
:10214000B09353042FEF32E030934D0420934C04AE
:1021500045E351E0509359044093580444E351E05F
:1021600050935B0440935A0440E351E050935D0464
:1021700040935C0441E351E050935F0440935E045C
:1021800042E351E0509361044093600446E351E020
:1021900050936304409362041092650410926604A5
:1021A00010926704109268041092EC041092EB04F1
:1021B0008093ED049093EE04A093EF04B093F004A9
:1021C0003093EA042093E90425EC30E03093F604E0
:1021D0002093F50424EC30E03093F8042093F704C6
:1021E00020EC30E03093FA042093F90421EC30E045
:1021F0003093FC042093FB0422EC30E03093FE0487
:102200002093FD0426EC30E0309300052093FF047A
:102210001092020510920305109204051092050514
:10222000109289051092880580938A0590938B05FA
:10223000A0938C05B0938D0581E193E09093870581
:102240008093860510929305109299051092A0052F
:102250001092A1051092A2051092A30581E080932F
:102260009F0580939C0510929D0592E090939E059A
:102270008093920588E190E090939705809396056E
:10228000F3D190939B0580939A05009761F028E124
:10229000FC0111922A95E9F788E090E0909395056A
:1022A0008093940508C0109297051092960510929D
:1022B0009505109294058BE1809398058091930584
:1022C000882341F061E08BE10E94310460E08BE102
:1022D0000E940204EDEFF1E0E491F0E0EE0FFF1F49
:1022E000E853FE4F859194919093A5058093A405A2
:1022F000EDE9F1E0E491E093A605089540D008F4FB
:1023000081E00895E89409C097FB3EF4909580958C
:10231000709561957F4F8F4F9F4F9923A9F0F92FAB
:1023200096E9BB279395F695879577956795B79529
:10233000F111F8CFFAF4BB0F11F460FF1BC06F5F0F
:102340007F4F8F4F9F4F16C0882311F096E911C021
:10235000772321F09EE8872F762F05C0662371F042
:1023600096E8862F70E060E02AF09A95660F771F56
:10237000881FDAF7880F9695879597F90895990F32
:102380000008550FAA0BE0E8FEEF16161706E8073F
:10239000F907C0F012161306E407F50798F0621B60
:1023A000730B840B950B39F40A2661F0232B242B35
:1023B000252B21F408950A2609F4A140A6958FEF54
:1023C000811D811D08950BD078C069D028F06ED092
:1023D00018F0952309F05AC05FC01124A2C07ED026
:1023E000A0F3959FD1F3950F50E0551F629FF00128
:1023F000729FBB27F00DB11D639FAA27F00DB11D81
:10240000AA1F649F6627B00DA11D661F829F222709
:10241000B00DA11D621F739FB00DA11D621F839F90
:10242000A00D611D221F749F3327A00D611D231F66
:10243000849F600D211D822F762F6A2F11249F57B4
:1024400050408AF0E1F088234AF0EE0FFF1FBB1FD7
:10245000661F771F881F91505040A9F79E3F510576
:1024600070F014C05EC05F3FECF3983EDCF38695DD
:1024700077956795B795F795E7959F5FC1F7FE2B21
:10248000880F911D9695879597F9089597F99F67FD
:1024900080E870E060E008959FEF80EC08950024EC
:1024A0000A941616170618060906089500240A94B9
:1024B00012161306140605060895092E0394000C3F
:1024C00011F4882352F0BB0F40F4BF2B11F460FFCE
:1024D00004C06F5F7F4F8F4F9F4F089557FD9058F7
:1024E000440F551F59F05F3F71F04795880F97FBD8
:1024F000991F61F09F3F79F0879508951216130692
:102500001406551FF2CF4695F1DF08C016161706C0
:102510001806991FF1CF86957105610508940895F5
:10252000E894BB2766277727CB0197F90895505881
:10253000BB27AA270ED0C1CFB2DF30F0B7DF20F023
:1025400031F49F3F11F41EF4A7CF0EF4E095E7FBA2
:102550009DCFE92FC3DF80F3BA17620773078407A3
:10256000950718F071F49EF5DBCF0EF4E0950B2E75
:10257000BA2FA02D0B01B90190010C01CA01A001D5
:102580001124FF27591B99F0593F50F4503E68F130
:102590001A16F040A22F232F342F4427585FF3CF71
:1025A000469537952795A795F0405395C9F77EF442
:1025B0001F16BA0B620B730B840BBAF09150A1F08B
:1025C000FF0FBB1F661F771F881FC2F70EC0BA0F11
:1025D000621F731F841F48F4879577956795B79599
:1025E000F7959E3F08F0B3CF9395880F08F0992791
:1025F000EE0F97958795089579DF88F09F5790F0B3
:10260000B92F9927B751A0F0D1F0660F771F881F17
:10261000991F1AF0BA95C9F712C0B13081F080DF66
:10262000B1E008957DCF672F782F8827B85F39F004
:10263000B93FCCF3869577956795B395D9F73EF476
:1026400090958095709561957F4F8F4F9F4F08951E
:1026500096DE08F48FEF0895EE0FFF1F881F8BBFE3
:102660000790F691E02D1994CF93DF938230910576
:1026700010F482E090E0E091A905F091AA0520E035
:1026800030E0C0E0D0E0309711F14081518148172F
:102690005907C0F04817590761F482819381209748
:1026A00019F09B838A832BC09093AA058093A90578
:1026B00026C02115310519F04217530718F49A0165
:1026C000BE01DF01EF010280F381E02DDCCF211597
:1026D000310509F1281B390B2430310590F412968D
:1026E0008D919C9113976115710521F0FB019383E6
:1026F000828304C09093AA058093A905FD013296B8
:1027000044C0FD01E20FF31F8193919322503109E0
:102710002D933C933AC02091A7053091A805232B17
:1027200041F420912802309129023093A80520938A
:10273000A70520912602309127022115310541F489
:102740002DB73EB740912A0250912B02241B350B26
:10275000E091A705F091A805E217F307A0F42E1B5E
:102760003F0B2817390778F0AC014E5F5F4F2417F5
:10277000350748F04E0F5F1F5093A8054093A705FB
:102780008193919302C0E0E0F0E0CF01DF91CF911F
:1027900008950F931F93CF93DF93009709F48CC094
:1027A000FC013297138212820091A9051091AA05AB
:1027B0000115110581F420813181820F931F209131
:1027C000A7053091A8052817390779F5F093A805D2
:1027D000E093A70571C0D80140E050E0AE17BF07F5
:1027E00050F412962D913C911397AD0121153105AE
:1027F00009F1D901F3CF9D01DA013383228360818E
:102800007181860F971F8217930769F4EC01288165
:102810003981260F371F2E5F3F4F318320838A81F6
:102820009B8193838283452B29F4F093AA05E0933F
:10283000A90542C01396FC93EE931297ED014991BE
:1028400059919E01240F351FE217F30771F480811F
:102850009181840F951F029611969C938E9382818D
:10286000938113969C938E931297E0E0F0E0D80149
:1028700012968D919C911397009719F0F8018C0195
:10288000F6CF8D919C9198012E5F3F4F820F931F41
:102890002091A7053091A8052817390769F43097CA
:1028A00029F41092AA051092A90502C0138212827F
:1028B0001093A8050093A705DF91CF911F910F9169
:1028C000089581E090E0F89400C011E0C5E1D1E006
:1028D00000E005C0802FFE01BFDE2196011DC6313C
:0C28E000D10780E00807B1F7F894FFCFA3
:1028EC00640F01FF00010000010000010000010065
:1028FC00000100000100000100000100FFFF0101C8
:10290C000000FF0000640000AB058000B562060803
:10291C0006006400010001007A12B562060800008E
:10292C000E30B56206010300F00500FF19B5620612
:10293C00010300F00400FE17B56206010300F0036A
:10294C0000FD15B56206010300F00200FC13B56230
:10295C0006010300F00100FB11B56206010300F053
:10296C000000FA0FB562060103000102010E47B523
:10297C00620008090A0B0C0D0E0F01020304050678
:10298C00070000000000006400000000006400006C
:10299C00006400640000006400640000646400646F
:1029AC00640000000064640000640064640064005F
:1029BC000064640064640000000000640000000017
:1029CC006464000064000000000064000064000007
:1029DC0064006400000064006464000000000045B2
:1029EC00034D0848018B03790157016B010000006E
:1029FC000060024C027102200244023002210248A3
:062A0C0049000D0A000064
:00000001FF
