:1000000015C1000044C1000042C1000040C1000011
:100010003EC100003CC100003AC1000038C10000F0
:1000200036C1000034C1000032C1000030C1000000
:100030002EC100002CC100002AC1000028C1000010
:1000400026C1000024C1000022C1000020C1000020
:100050001EC100001CC100001AC1000088C70000BA
:1000600016C1000014C1000012C1000010C1000040
:100070000EC100000CC100000AC1000008C1000050
:1000800006C1000004C1000002C1000000C1000060
:10009000FEC00000FCC00000FAC00000B2C70000B3
:1000A000F6C00000F4C00000F2C00000F0C0000084
:1000B000EEC00000ECC00000EAC00000E8C0000094
:1000C000E6C00000E4C00000E2C0000081C2000001
:1000D00056C20000DCC0000029C20000FEC10000C2
:1000E000D6C00000B705BA05A905AD05B305F105F1
:1000F000BE05C205C805CC05D005D605DA05DE0566
:10010000F105E405E805EC050000200023002600C9
:1001100029002C002F00320000010000030106011D
:10012000090100000A0B02090C0D0E080703040167
:1001300000000000000000000000000000000000BF
:10014000000000000000000000000000000012118C
:10015000100000000000000000000000000000008F
:100160000000000000000000000021002400270023
:100170002A002D00300033000101000004010701B6
:100180000A010102102020080810204010204080A1
:10019000020102010804020101020408102040804B
:1001A00080402010080402018004020180402010D9
:1001B0000804020108040201010204081020408022
:1001C00001020408102040800000220025002800C1
:1001D0002B002E003100340002010000050108014F
:1001E0000B010505050507050808080802020202BB
:1001F0000A0A0808040404040101010101010101C3
:100200000303030303030303040707070C0C0C0C8D
:100210000C0C0C0C02020202060606060606060676
:100220000B0B0B0B0B0B0B0B6C105D1011241FBE7B
:10023000CFEFD1E2DEBFCDBF00E00CBF25E0AEE1E5
:10024000B3E001C01D92A03BB207E1F713E0A0E0CC
:10025000B2E0E0EAF8E200E00BBF02C007900D92C6
:10026000AE31B107D9F711E0C5E1D1E000E006C039
:1002700021970109802FFE010E940613C431D10786
:1002800080E00807A9F70E94100B0C943F14B8CE29
:10029000FC01A089B1898C91A689B78982FD0FC024
:1002A0009C91818D8F5F8F73228D821749F0218DF4
:1002B000DF01A20FB11D5D969C93818F08958C91F3
:1002C0000895FC01538D448D252F30E0842F90E05C
:1002D000821B930B541710F0CF9608950197089541
:1002E000FC01918D828D981761F0828DDF01A80F3E
:1002F000B11D5D968C91928D9F5F9F73928F90E060
:1003000008958FEF9FEF0895FC01918D828D9817CE
:1003100031F0828DE80FF11D858D90E008958FEF0B
:100320009FEF0895FC01918D228D892F90E0805CD4
:100330009F4F821B91098F739927089581E594E05F
:10034000F1DF21E0892B09F420E0822F08958EEE61
:1003500094E0E8DF21E0892B09F420E0822F089562
:10036000FC01848DDF01A80FB11DA35ABF4F2C9152
:10037000848D90E001968F739927848FA689B78921
:100380002C93A089B1898C9180648C93938D848DFA
:10039000981306C00288F389E02D80818F7D8083C9
:1003A0000895EF92FF920F931F93CF93DF93EC0189
:1003B00081E0888F9B8D8C8D981305C0E889F98921
:1003C000808185FD23C0F62E0B8D10E00F5F1F4F3F
:1003D0000F731127E02E8C8DE8120BC00FB607FCAF
:1003E000FACFE889F989808185FFF5CFCE01B8DFA2
:1003F000F2CF8B8DFE01E80FF11DE35AFF4FF08223
:100400000B8FEA89FB898081806207C0EE89FF89B2
:100410006083E889F98980818064808381E090E04D
:10042000DF91CF911F910F91FF90EF900895CF939F
:10043000DF93EC01888D8823C1F0EA89FB898081F4
:1004400085FD05C0A889B9898C9186FD0EC00FB6BF
:1004500007FCF5CF808185FFF2CFA889B9898C91FF
:1004600085FFEDCFCE017CDFE8CFDF91CF910895FE
:1004700080E090E0892B41F080E090E0892B21F032
:100480000E94000081111BC080E090E0892B41F0A8
:1004900080E090E0892B21F00E940000811112C0C1
:1004A00080E090E0892B19F052DF81110EC080E0CE
:1004B00090E0892B79F042DF81110AC008950E94F3
:1004C0000000E2CF0E940000EBCF0E940000EFCFBF
:1004D0000C94000008950E943B141F920F920FB6D7
:1004E0000F9211240BB60F922F933F934F935F936C
:1004F0006F937F938F939F93AF93BF93EF93FF93EC
:1005000081E594E02DDFFF91EF91BF91AF919F9135
:100510008F917F916F915F914F913F912F910F90AC
:100520000BBE0F900FBE0F901F9018951F920F9249
:100530000FB60F9211240BB60F922F933F934F9348
:100540005F936F937F938F939F93AF93BF93EF933B
:10055000FF9381E594E09CDEFF91EF91BF91AF9115
:100560009F918F917F916F915F914F913F912F91CB
:100570000F900BBE0F900FBE0F901F9018951F92FB
:100580000F920FB60F9211240BB60F922F933F9339
:100590004F935F936F937F938F939F93AF93BF938B
:1005A000EF93FF938EEE94E0DBDEFF91EF91BF912E
:1005B000AF919F918F917F916F915F914F913F91FB
:1005C0002F910F900BBE0F900FBE0F901F9018959C
:1005D0001F920F920FB60F9211240BB60F922F930A
:1005E0003F934F935F936F937F938F939F93AF93BB
:1005F000BF93EF93FF938EEE94E04ADEFF91EF916D
:10060000BF91AF919F918F917F916F915F914F912A
:100610003F912F910F900BBE0F900FBE0F901F9028
:1006200018951F93CF93DF93282F30E0F901EE5DEB
:10063000FE4F8491F901EE57FE4FD491F901EE512E
:10064000FE4FC491CC23C1F0162F811175D2EC2F2F
:10065000F0E0EE0FFF1FE853FE4FA591B4918FB766
:10066000F894111105C09C91ED2FE095E92302C08B
:10067000EC91ED2BEC938FBFDF91CF911F910895FB
:1006800085ED8093BC008091BC0084FDFCCF10926E
:100690002003089540910104262F30E0240F311DDE
:1006A00021323105DCF4209120032430C9F4FC010F
:1006B00080E090E0861758F4309101042191DC012C
:1006C000AF51BC4FA30FB11D2C930196F3CF809176
:1006D0000104680F6093010480E0089581E00895AB
:1006E00082E00895E0912903F0912A03309729F0E0
:1006F000109222031092210319940895CF93DF934F
:10070000AC01E0912B03F0912C033097F1F0909124
:100710002403809123039817C0F090E0292F30E044
:100720002617370754F4D901AF53BC4FEA01C20F63
:10073000D31F88818C939F5FF1CF10922403609325
:100740002303CB01DF91CF911994DF91CF910895CD
:100750000895E091240380912303E81730F4F0E03A
:10076000EF53FC4F808190E008958FEF9FEF089545
:100770009091240380912303981750F4E92FF0E01F
:10078000EF53FC4F208130E09F5F9093240302C021
:100790002FEF3FEFC90108958091230390E020914E
:1007A0002403821B91090895CF93DF931F921F9218
:1007B000CDB7DEB7CB01642F49835A836BDF498104
:1007C000842F5A81952F0F900F90DF91CF9108952C
:1007D000CF93DF931F92CDB7DEB7698361E0CE017F
:1007E000019658DF81E090E00F90DF91CF9108955E
:1007F000089580E090E00895DC01ED91FC91028085
:10080000F381E02D19940F931F93CF93DF93809181
:100810002F038F5F80932F0380912402823009F48D
:100820004EC150F48823B1F0813009F080C180912D
:1008300030038093B60373C0833009F445C184301C
:1008400009F075C1C091B6030C2E000CDD0B06EA51
:1008500013E054C1609132037091330380913403EB
:10086000909135030E94D6127093B8036093B7033A
:10087000609136037091370380913803909139036A
:100880000E94D6127093BA036093B90360913A0341
:1008900070913B0380913C0390913D030E94D612DE
:1008A0007093BC036093BB0360913E0370913F0360
:1008B00080914003909141030E94D6127093BE0331
:1008C0006093BD03609142037091430380914403A0
:1008D000909145030E94D6127093C0036093BF03AA
:1008E0004AE050E067EB73E01BC181E594E0F8DC7F
:1008F000209196033091970322303105B4F4F90129
:10090000E850FD4F908189132EC0F901EC56FC4F41
:1009100010822F5F3F4F309397032093960381E51A
:1009200094E000DD892B09F7C1C02232310574F44F
:10093000F901EE58FC4F808390919403980F9093A7
:10094000940340919503940F909395032F5F3F4F2D
:1009500030939703209396032332310549F4909105
:1009600094038917E1F21092970310929603D7CF60
:100970002432310509F095C0109297031092960326
:10098000909195038913CBCF80918003909181033F
:10099000A0918203B091830380939C0390939D0365
:1009A000A0939E03B0939F0380917C0390917D035D
:1009B000A0917E03B0917F03809398039093990355
:1009C000A0939A03B0939B03809184039091850335
:1009D000A0918603B09187038093A0039093A10315
:1009E000A093A203B093A30340919003509191036D
:1009F00060919203709193038AE07695679557957D
:100A000047958A95D1F74093900350939103609353
:100A100092037093930380918C0390918D03A09126
:100A20008E03B0918F032AE0B695A7959795879589
:100A30002A95D1F780938C0390938D03A0938E0316
:100A4000B0938F034F3F51056105710529F020F0E8
:100A50004FEF50E060E070E04093A5038F3F9105B9
:100A6000A105B10529F020F08FEF90E0A0E0B0E003
:100A70008093A4038091730391E0980F9093730384
:100A8000806890912302891709F449CF809323024B
:100A90008091B60382608093B60382E08093240243
:100AA00005C0253231050CF05ECF39CF6091B60319
:100AB0008BE895E0DF91CF911F910F9189CE4EE0A9
:100AC00050E068E973E02CC08EEE94E02BDC80935C
:100AD000B603882361F18091B60381311CF080E177
:100AE0008093B6036091B6038BE895E071DE84E0F5
:100AF000809324021CC0F80181938F01C801865A9B
:100B000093408C179D0728F48EEE94E05BD597FFF9
:100B1000F2CF4091B603042E000C550B66EA73E049
:100B20008BE895E0DF91CF911F910F9165CEDF911A
:100B3000CF911F910F91089590E0FC013197E23120
:100B4000F10508F04EC08827EE58FF4F8F4F0C94E8
:100B50000613809180008F7703C0809180008F7D85
:100B600080938000089580918000877FF9CF84B5BD
:100B70008F7702C084B58F7D84BD08958091B000C9
:100B80008F7703C08091B0008F7D8093B00008956F
:100B9000809190008F7707C0809190008F7D03C077
:100BA00080919000877F8093900008958091A000AD
:100BB0008F7707C08091A0008F7D03C08091A00037
:100BC000877F8093A0000895809120018F7707C0D0
:100BD000809120018F7D03C080912001877F8093C9
:100BE00020010895CF93DF9390E0FC01EE57FE4F74
:100BF0002491FC01EE51FE4F8491882361F190E035
:100C0000880F991FFC01E859FE4FC591D491FC0152
:100C1000E853FE4FA591B491611109C09FB7F894B4
:100C20008881209582238883EC912E230BC062302B
:100C300061F49FB7F8943881822F8095832388834D
:100C4000EC912E2B2C939FBF06C08FB7F894E881B0
:100C50002E2B28838FBFDF91CF910895863308F024
:100C6000865390917B00282F2870977F922B90932A
:100C70007B0087702091000290E4299F900111244D
:100C8000822B80937C0080917A00806480937A002C
:100C900080917A0086FDFCCF8091780020917900C8
:100CA00090E0922B08953FB7F89480914D04909175
:100CB0004E04A0914F04B091500426B5A89B05C0E6
:100CC0002F3F19F00196A11DB11D3FBFBA2FA92FCB
:100CD000982F8827820F911DA11DB11DBC01CD0148
:100CE00042E0660F771F881F991F4A95D1F7089534
:100CF0002FB7F8946091490470914A0480914B0495
:100D000090914C042FBF0895EF92FF920F931F9381
:100D1000CF93DF93EC0180912E038F5F80932E039E
:100D2000C130D10531F48BE895E022DD80932402B7
:100D300017C103E513E0CE018D5A9C4F7C010E15BF
:100D40001F0529F08BE895E03DD497FF4EC09091A8
:100D50005303892F8770813009F4C9C024F4882394
:100D600009F447C0EDC0823009F4DCC0833009F0DB
:100D7000E7C0292F092E000C330B83E0359527950A
:100D80008A95E1F720932D0320912D0330E0215027
:100D9000310980915403F901EE0FFF1F2E0F3F1F01
:100DA000F901EE5FFD4F808320912D0330E021504B
:100DB000310980915503F901EE0FFF1F2E0F3F1FE0
:100DC000F901EE5FFD4F818320912D0330E021502A
:100DD000310980915603F901EE0FFF1F2E0F3F1FBF
:100DE000F901EE5FFD4F8283ABC0F80181938F0163
:100DF000A6CF2091540330915503492F4595459531
:100E00004595809156039091570341114DC020386C
:100E1000FEE33F0738F021304DE7340728F020E0AB
:100E20003DE702C020E83EE33093AD002093AC00E4
:100E30008038EEE39E0738F08130FDE79F0728F009
:100E400080E09DE702C080E89EE3909329018093B3
:100E50002801809158039091590380382EE392071E
:100E600038F081304DE7940728F080E09DE702C01C
:100E700080E89EE3909399008093980080915A03B4
:100E800090915B038038EEE39E0738F08130FDE7F8
:100E90009F0728F080E09DE702C080E89EE39093E2
:100EA000A9008093A8005CC020384EE3340738F0D6
:100EB0002130EDE73E0728F020E03DE702C020E8C2
:100EC0003EE330939D0020939C008038FEE39F0713
:100ED00038F081302DE7920728F080E09DE702C0CE
:100EE00080E89EE390932D0180932C0139C080917E
:100EF00054038031A4F0803199F560E089E191DB01
:100F0000F7DEDC01CB010A96A11DB11D80934603DB
:100F100090934703A0934803B093490321C0809363
:100F200031031EC0C1504C2F50E064E573E08EEEDB
:100F300094E0DF91CF911F910F91FF90EF905CCCE7
:100F4000279771F493FB992790F990931C0286E000
:100F5000E4E5F3E0ADE1B2E001900D928A95E1F7AE
:100F6000DF91CF911F910F91FF90EF9008951F9205
:100F70000F920FB60F9211242F933F938F939F934D
:100F8000AF93BF938091490490914A04A0914B0480
:100F9000B0914C043091480423E0230F2D3720F406
:100FA0000196A11DB11D05C026E8230F0296A11DC3
:100FB000B11D209348048093490490934A04A09360
:100FC0004B04B0934C0480914D0490914E04A09139
:100FD0004F04B09150040196A11DB11D80934D04A2
:100FE00090934E04A0934F04B0935004BF91AF91DF
:100FF0009F918F913F912F910F900FBE0F901F9057
:1010000018951F920F920FB60F9211240BB60F92E4
:101010002F933F934F935F936F937F938F939F9300
:10102000AF93BF93EF93FF938091B900887F803691
:1010300009F49CC068F5883209F45BC090F48031F3
:1010400009F454C038F4882309F4F6C0883009F450
:101050004DC0F5C0883109F44CC0803209F45DC040
:10106000EEC0803409F468C048F4803309F455C0F8
:10107000883309F0E4C080932404D8C0803509F493
:101080004FC0883509F45DC0883409F0D8C0D6C097
:10109000883909F4C7C0A8F4883709F467C038F460
:1010A000883609F463C0803709F460C0C8C0883846
:1010B00009F4B8C0803909F45FC0803809F0BFC0B6
:1010C0005BC0803B09F486C038F4803A09F466C0FE
:1010D000883A09F47FC0B3C0803C09F4A7C0883CBB
:1010E00009F4A4C0883B09F48AC0A9C080914704D0
:1010F00010C09091460480914504981770F5E091D6
:10110000460481E08E0F80934604F0E0EB5DFB4FD8
:1011100080818093BB0085EC86C0809324048EC0C0
:10112000E091460481E08E0F809346048091BB00DD
:10113000F0E0EB5DFB4F8083909146048091450485
:101140006EC0E091460481E08E0F8093460480914A
:10115000BB00F0E0EB5DFB4F808380911F038111AA
:101160006DC081E080931E0384EA61C083E08093B8
:10117000200310922304CFCF80912304803208F003
:1011800051C0E091230481E08E0F8093230480916D
:10119000BB00F0E0ED5FFB4F8083BDCF85EC80931B
:1011A000BC001092200380912304803230F4E0913F
:1011B0002304F0E0ED5FFB4F10826091230470E0A8
:1011C000E0912503F091260383E094E019951092B5
:1011D000230435C084E0809320031092020410920F
:1011E0000104E0912703F0912803199580910104EF
:1011F000811105C081E0809301041092E103E09128
:10120000020481E08E0F80930204F0E0EF51FC4F66
:1012100080818093BB009091020480910104981713
:1012200008F479CF85E88093BC0009C085EC8093F1
:10123000BC001092200303C01092240421DAFF9115
:10124000EF91BF91AF919F918F917F916F915F913E
:101250004F913F912F910F900BBE0F900FBE0F90AB
:101260001F901895CF92DF92EF92FF920F931F93EA
:10127000CF93DF936C017A018B01C0E0D0E0CE15F3
:10128000DF0589F0D8016D918D01D601ED91FC91BA
:101290000190F081E02DC6011995892B11F47E0192
:1012A00002C02196ECCFC701DF91CF911F910F9122
:1012B000FF90EF90DF90CF900895FC01A089B18955
:1012C00082E08C93A485B5851C92A685B7858FECAA
:1012D0008C93108EA489B58986E08C93A289B389FA
:1012E0008C9180618C93A289B3898C9188608C9356
:1012F000A289B3898C9180688C930288F389E02D50
:1013000080818F7D808308950F931F93CF93DF9308
:10131000CDB7DEB729970FB6F894DEBF0FBECDBFAD
:1013200080919F059091A005892B09F4A0C0BBDC9A
:101330000091A5051091A6052091A7053091A8055B
:10134000DC01CB01801B910BA20BB30B8C329140C3
:10135000A105B10560F3F89480919B0590919C05DF
:101360009A838983E0919F05F091A005DF01119692
:101370008081898790919705E091A905F091AA0550
:101380008091AB05992309F42EC09081982B988702
:101390009081809589238F838F818C8388E08B83D4
:1013A00058856F8149853B812C8189819A81508341
:1013B00047FD252F3A952083262F39F0441F00C082
:1013C00000006083000000C0F2CF38E04D916083E0
:1013D0000000019761F7F093AA05E093A9054987FA
:1013E0003B832C8338C09081982B9887908180957F
:1013F00089238F838F818E8388E08D8358856F81C9
:1014000049853D812E8189819A81508347FD252F11
:1014100000C000C0208300C000C000C000C000C0E9
:1014200060830000262F3A9541F0441F000000C061
:1014300000C000C000C000C0E8CF38E04D9100C03F
:10144000608300C0019709F7F093AA05E093A9050E
:1014500049873D832E839A838983789424DC609323
:10146000A5057093A6058093A7059093A8052996D6
:101470000FB6F894DEBF0FBECDBFDF91CF911F91A5
:101480000F9108958F929F92AF92BF92CF92DF9269
:10149000EF92FF922091990530919A058217930758
:1014A00008F052C04B01AA24BB24E82DC52ED62E2D
:1014B000E72EFF24FC2D342F20919E05222361F07E
:1014C000829E40011124E92DC29E60011124FD2D50
:1014D000429FD00111243B2FF090A405E090A1057C
:1014E000A0919F05B091A005FE1008C0AC01440F6B
:1014F000551F840F951F8A0F9B1F14C0880F991FBB
:10150000880F991F8A0F9B1F472F5527662777271C
:10151000DC01AF0DB11D222321F0429FA001112457
:10152000452F4C932091A105DC01A20FB11DEC9336
:101530002091A205DC01A20FB11DFC932091A3050F
:10154000FC01E20FF11D3083FF90EF90DF90CF9010
:10155000BF90AF909F908F9008958F929F92AF927F
:10156000BF92CF92DF92EF92FF929DDB4B015C0125
:1015700084E6C82ED12CE12CF12C95DBDC01CB01CB
:1015800088199909AA09BB09883E9340A105B105AC
:1015900058F021E0C21AD108E108F10888EE880E5F
:1015A00083E0981EA11CB11CC114D104E104F10414
:1015B00021F7FF90EF90DF90CF90BF90AF909F907A
:1015C0008F9008950F931F93CF93DF93EC0190DBDF
:1015D000688779878A879B87E881F9810284F38508
:1015E000E02DCE01199597FF16C082DB088519857D
:1015F0002A853B85DC01CB01801B910BA20BB30B31
:101600000C811D812E813F8180179107A207B307AE
:1016100018F38FEF9FEFDF91CF911F910F910895F6
:10162000CF93DF9300D01F92CDB7DEB7789484B507
:10163000826084BD84B5816084BD85B5826085BDCE
:1016400085B5816085BD80916E00816080936E005C
:10165000109281008091810082608093810080914E
:1016600081008160809381008091800081608093FF
:1016700080008091B10084608093B1008091B000BF
:1016800081608093B000809191008260809391008E
:1016900080919100816080939100809190008160A1
:1016A000809390008091A10082608093A10080913E
:1016B000A10081608093A1008091A000816080934F
:1016C000A0008091210182608093210180912101FD
:1016D00081608093210180912001816080932001AD
:1016E00080917A00846080937A0080917A00826091
:1016F00080937A0080917A00816080937A00809153
:101700007A00806880937A001092C10061E08EE2D6
:1017100069DA61E085E066DA61E086E063DA61E07B
:1017200088E060DA61E08CE25DDA61E083E05ADA59
:101730009AEB9093900089E1809391009093A000A0
:101740008093A100909320018093210180E89BEB7E
:1017500090932701809326019093A7008093A60081
:10176000909397008093960080EC9DE590939D0068
:1017700080939C0090932D0180932C0180E89EE340
:101780009093A9008093A80090939900809398006B
:1017900090932901809328019093AD008093AC0031
:1017A0008EEE94E08ADD81E594E087DDD6DE03E805
:1017B00012E0F80161918F0181E594E00E94D1016E
:1017C000F2E00E381F07A9F7C8DE08E712E0F801BB
:1017D00061918F0181E594E00E94D101F2E003382C
:1017E0001F07A9F7BADE0DE612E0F80161918F013B
:1017F00081E594E00E94D101F2E008371F07A9F7C4
:10180000ACDE02E612E0F80161918F0181E594E01F
:101810000E94D101F2E00D361F07A9F79EDE07E511
:1018200012E0F80161918F0181E594E00E94D101FD
:10183000F2E002361F07A9F790DE0CE412E0F8018F
:1018400061918F0181E594E00E94D101F2E00735BA
:101850001F07A9F782DE01E412E0F80161918F0110
:1018600081E594E00E94D101F2E00C341F07A9F752
:1018700074DE73DE0BE212E0F80161918F0181E505
:1018800094E00E94D101F2E001341F07A9F761E062
:101890008EE1A8D960E08FE1A5D961E089E1A2D904
:1018A00060E08EE10E94110361E089E10E94110372
:1018B00083E08093000282E18093BA0082E793E0A4
:1018C00090932803809327038EE793E09093260359
:1018D0008093250310922403109223031092220375
:1018E000109221031092200381E080931F03109235
:1018F0001E0361E084E10E94110361E085E10E9422
:1019000011038091B9008E7F8093B9008091B90056
:101910008D7F8093B90088E48093B80085E480933C
:10192000BC0083E094E090932A038093290384E829
:1019300096E090932C0380932B0380919D0587FD67
:1019400007C061E04FD960E080919D050E941103BE
:1019500081E08093980500E010E040E051E060E015
:1019600070E0C8018FDD0F5F1F4F08301105A9F728
:10197000CBDC9BE088E10FB6F894A89580936000DB
:101980000FBE90936000F1E4EF2EF1E0FF2EA1EA8C
:10199000CA2EA1E0DA2EB1E0AB2EB2E0BB2E992424
:1019A0009A9416E0812E00E81EE380914603909100
:1019B0004703A0914803B0914903892B8A2B8B2BB5
:1019C00079F0409046035090470360904803709030
:1019D00049038ED9461657066806790608F425C3CA
:1019E00088E33CD920913203309133034091340392
:1019F000509135034090320350903303609034038C
:101A000070903503BC01990F880B990B29833A8399
:101A10004B835C8353D429813A814B815C8161D5AE
:101A20002AE037ED43E25CE3A8D49B01AC01C3019B
:101A3000B20158D56093320370933303809334031B
:101A40009093350386E30AD920913603309137030A
:101A5000409138035091390340903603509037033A
:101A60006090380370903903BC01990F880B990B73
:101A700029833A834B835C8321D429813A814B812A
:101A80005C812FD52AE037ED43E25CE376D49B01FD
:101A9000AC01C301B20126D56093360370933703BE
:101AA00080933803909339038CE3D8D820913A037C
:101AB00030913B0340913C0350913D0340903A03E9
:101AC00050903B0360903C0370903D03BC01990F24
:101AD000880B990B29833A834B835C83EFD329814D
:101AE0003A814B815C81FDD42AE037ED43E25CE32F
:101AF00044D49B01AC01C301B201F4D460933A0316
:101B000070933B0380933C0390933D038AE3A6D8F4
:101B100020913E0330913F03409140035091410397
:101B200040903E0350903F0360904003709041030B
:101B3000BC01990F880B990B29833A834B835C83F3
:101B4000BDD329813A814B815C81CBD42AE037ED2A
:101B500043E25CE312D49B01AC01C301B201C2D4E5
:101B600060933E0370933F0380934003909341033F
:101B700087E374D82091420330914303409144039A
:101B800050914503409042035090430360904403BA
:101B900070904503BC01990F880B990B29833A83F8
:101BA0004B835C838BD329813A814B815C8199D4AF
:101BB0002AE037ED43E25CE3E0D39B01AC01C301D3
:101BC000B20190D460934203709343038093440323
:101BD0009093450380913103882309F41DC18091BE
:101BE000310390910102981709F45AC08091310392
:101BF00080930102612C712C20913103A09131035B
:101C000080913103889EC001112482569D4FFC01B2
:101C100080818A9ED0011124A256BD4F11964C910D
:101C200050E060E070E0762F652F542F4427682B3A
:101C3000829EF0011124E256FD4F8281482BC301A0
:101C400021DC20913103A091310380913103889EE2
:101C5000C001112482569D4FFC0183818A9ED001D0
:101C60001124A256BD4F14964C9150E060E070E0F4
:101C7000762F652F542F4427682B829EF001112464
:101C8000E256FD4F8581482BC3010196FBDBF2E054
:101C90006F0E711C28E06216710409F0ADCF34DBC1
:101CA00020904B0330904C0340904D0350904E03D6
:101CB000211431044104510441F51AD8E091310353
:101CC000F0E0E257FD4F208120FD06C028EC422EB7
:101CD000512C612C712C06C0B8E54B2EB2E05B2E66
:101CE000612C712CDC01CB01840D951DA61DB71D47
:101CF00080934B0390934C03A0934D03B0934E03FA
:101D000010924A0360911C0209C170904A0370FE50
:101D100034C00E947806261637064806590608F091
:101D200000C160911C028EE10E94110373947092B5
:101D30004A030E947806E0913103F0E0E257FD4F3C
:101D4000208130E0769402C0359527957A94E2F7A9
:101D500020FD06C0A8EC4A2E512C612C712C06C027
:101D6000F8E54F2EF2E05F2E612C712CDC01CB01E7
:101D7000840D951DA61DB71D46C00E947806261627
:101D800037064806590608F0CCC060E08EE10E9494
:101D9000110381E0870D80934A03883060F110922F
:101DA000310310924B0310924C0310924D0310928A
:101DB0004E0390920102612C712CF301EE0FFF1F74
:101DC000E60DF71DEE5FFD4F82814181908150E06D
:101DD00060E070E0762F652F542F4427692B482B45
:101DE000C30150DB8FEF681A780AE8E06E167104C1
:101DF00021F78ADA96C00E947806DC01CB018C5963
:101E00009F4FAF4FBF4F80934B0390934C03A093D2
:101E10004D03B0934E0385C0F7018491F6016490A1
:101E2000F50174907720A1F081110E949C05E72DA7
:101E3000F0E0EE0FFF1FE85FFE4FA591B4918C918B
:101E4000682231E020E009F430E0832F922F02C0B5
:101E500080E090E0F1E08F278170809330030E9452
:101E600078066938734181059105B8F18091300396
:101E7000882399F10E94530680958170582E612C19
:101E8000712C80912202552029F0409121029091DD
:101E9000200204C0409120029091210250E060E0B5
:101EA00070E0762F652F542F4427692B482BC301F0
:101EB000E9DA8FEF681A780AE8E06E16710409F71C
:101EC00023DA80911C02882321F0652D8EE10E9487
:101ED000110381E08093510324C06091420370910B
:101EE0004303809144039091450321EC3CE54FE28C
:101EF00054E488D318160CF0A5C060914203709189
:101F0000430380914403909145032AEE3DE44FE35F
:101F100054E4CED1682F661F6627661F8EE10E94AB
:101F2000110390912F0380911B02981709F48CC024
:101F300090912E0380911A02981709F485C0809120
:101F40002F0380931B0280912E0380931A0210921C
:101F5000500310924F0380915103882329F18091FF
:101F60003003811121C0612C712CF301EE0FFF1F92
:101F7000E60DF71DEE5FFD4F82814181908150E0BB
:101F800060E070E0762F652F542F4427692B482B93
:101F9000C30178DA8FEF681A780AE8E06E167104E8
:101FA00021F7B2D91092510380912D038823C9F1F2
:101FB00080912D03815080932D0380912D0390E01B
:101FC000FC01EE0FFF1F8E0F9F1FFC01EE5FFD4F08
:101FD000228180912D0390E0FC01EE0FFF1F8E0FF8
:101FE0009F1FFC01EE5FFD4F418180912D0390E02A
:101FF000FC01EE0FFF1F8E0F9F1FFC01EE5FFD4FD8
:10200000908180912D0350E060E070E0762F652F85
:10201000542F4427692B422B90E034DA75D9109263
:102020002D03A8950E943802C0CC1092460310924E
:102030004703109248031092490361E089E10E942E
:102040001103CECC60E06ACF80914F039091500392
:1020500001969093500380934F038D32914008F482
:102060007ACF1093AD000093AC0010932901009338
:10207000280110939900009398001093A9000093F1
:10208000A800612C712C80911F0240911E0290913A
:102090001D0250E060E070E0762F652F542F44273A
:1020A000692B482BC301EED9FFEF6F1A7F0A28E096
:1020B0006216710441F728D94ECF80919F05909107
:1020C000A005009709F03FD380919D0587FD03C0CF
:1020D00060E00C94F2050895109254041092530499
:1020E00088EE93E0A0E0B0E080935504909356040E
:1020F000A0935704B09358042EEF32E0309352046B
:102100002093510445E351E050935E0440935D04F5
:1021100044E351E05093600440935F0440E351E096
:10212000509362044093610441E351E0509364048E
:102130004093630442E351E0509366044093650486
:1021400046E351E0509368044093670410926A0498
:1021500010926B0410926C0410926D041092F104B2
:102160001092F0048093F2049093F304A093F4048B
:10217000B093F5043093EF042093EE0425ED30E0A6
:102180003093FB042093FA0424ED30E03093FD04F7
:102190002093FC0420ED30E03093FF042093FE04F4
:1021A00021ED30E0309301052093000522ED30E071
:1021B000309303052093020526ED30E030930505AA
:1021C0002093040510920705109208051092090546
:1021D00010920A0510928E0510928D0580938F053E
:1021E00090939005A0939105B093920580E193E0C0
:1021F00090938C0580938B051092980510929E0504
:102200001092A5051092A6051092A7051092A80598
:1022100081E08093A4058093A1051092A20592E02D
:102220009093A3058093970588E190E090939C0597
:1022300080939B05F3D19093A00580939F05009711
:1022400061F028E1FC0111922A95E9F788E090E01D
:1022500090939A058093990508C010929C0510925E
:102260009B0510929A05109299058BE180939D052C
:1022700080919805882341F061E08BE10E94F2058E
:1022800060E08BE10E941103EDEFF1E0E491F0E0FA
:10229000EE0FFF1FE853FE4F859194919093AA058E
:1022A0008093A905EDE9F1E0E491E093AB05089591
:1022B00040D008F481E00895E89409C097FB3EF40B
:1022C00090958095709561957F4F8F4F9F4F992383
:1022D000A9F0F92F96E9BB279395F6958795779501
:1022E0006795B795F111F8CFFAF4BB0F11F460FFC1
:1022F0001BC06F5F7F4F8F4F9F4F16C0882311F019
:1023000096E911C0772321F09EE8872F762F05C02C
:10231000662371F096E8862F70E060E02AF09A95C7
:10232000660F771F881FDAF7880F9695879597F9BC
:102330000895990F0008550FAA0BE0E8FEEF161656
:102340001706E807F907C0F012161306E407F507A9
:1023500098F0621B730B840B950B39F40A2661F01D
:10236000232B242B252B21F408950A2609F4A140C0
:10237000A6958FEF811D811D08950BD078C069D07F
:1023800028F06ED018F0952309F05AC05FC01124D0
:10239000A2C07ED0A0F3959FD1F3950F50E0551FBA
:1023A000629FF001729FBB27F00DB11D639FAA27AA
:1023B000F00DB11DAA1F649F6627B00DA11D661FF9
:1023C000829F2227B00DA11D621F739FB00DA11D1A
:1023D000621F839FA00D611D221F749F3327A00DD4
:1023E000611D231F849F600D211D822F762F6A2F70
:1023F00011249F5750408AF0E1F088234AF0EE0FF5
:10240000FF1FBB1F661F771F881F91505040A9F701
:102410009E3F510570F014C05EC05F3FECF3983EE4
:10242000DCF3869577956795B795F795E7959F5F68
:10243000C1F7FE2B880F911D9695879597F9089502
:1024400097F99F6780E870E060E008959FEF80EC67
:10245000089500240A94161617061806090608950A
:1024600000240A9412161306140605060895092E70
:102470000394000C11F4882352F0BB0F40F4BF2BDF
:1024800011F460FF04C06F5F7F4F8F4F9F4F08951F
:1024900057FD9058440F551F59F05F3F71F0479515
:1024A000880F97FB991F61F09F3F79F087950895FA
:1024B000121613061406551FF2CF4695F1DF08C019
:1024C000161617061806991FF1CF86957105610536
:1024D00008940895E894BB2766277727CB0197F9DE
:1024E00008955058BB27AA270ED0C1CFB2DF30F0D5
:1024F000B7DF20F031F49F3F11F41EF4A7CF0EF4A4
:10250000E095E7FB9DCFE92FC3DF80F3BA176207A1
:1025100073078407950718F071F49EF5DBCF0EF46E
:10252000E0950B2EBA2FA02D0B01B90190010C01E3
:10253000CA01A0011124FF27591B99F0593F50F4FB
:10254000503E68F11A16F040A22F232F342F442753
:10255000585FF3CF469537952795A795F04053954B
:10256000C9F77EF41F16BA0B620B730B840BBAF01B
:102570009150A1F0FF0FBB1F661F771F881FC2F786
:102580000EC0BA0F621F731F841F48F4879577959A
:102590006795B795F7959E3F08F0B3CF9395880F51
:1025A00008F09927EE0F97958795089579DF88F0C1
:1025B0009F5790F0B92F9927B751A0F0D1F0660F2F
:1025C000771F881F991F1AF0BA95C9F712C0B1304A
:1025D00081F080DFB1E008957DCF672F782F8827C5
:1025E000B85F39F0B93FCCF3869577956795B39589
:1025F000D9F73EF490958095709561957F4F8F4FF8
:102600009F4F089596DE08F48FEF0895EE0FFF1F99
:10261000881F8BBF0790F691E02D1994CF93DF931D
:102620008230910510F482E090E0E091AE05F091E7
:10263000AF0520E030E0C0E0D0E0309711F14081FC
:10264000518148175907C0F04817590761F4828132
:102650009381209719F09B838A832BC09093AF05B9
:102660008093AE0526C02115310519F04217530796
:1026700018F49A01BE01DF01EF010280F381E02D21
:10268000DCCF2115310509F1281B390B2430310528
:1026900090F412968D919C9113976115710521F01C
:1026A000FB019383828304C09093AF058093AE05B2
:1026B000FD01329644C0FD01E20FF31F8193919317
:1026C000225031092D933C933AC02091AC053091B2
:1026D000AD05232B41F4209127023091280230933D
:1026E000AD052093AC0520912502309126022115DD
:1026F000310541F42DB73EB74091290250912A028D
:10270000241B350BE091AC05F091AD05E217F30702
:10271000A0F42E1B3F0B2817390778F0AC014E5F51
:102720005F4F2417350748F04E0F5F1F5093AD05DC
:102730004093AC058193919302C0E0E0F0E0CF01BB
:10274000DF91CF9108950F931F93CF93DF9300975D
:1027500009F48CC0FC013297138212820091AE05FD
:102760001091AF050115110581F420813181820F8F
:10277000931F2091AC053091AD052817390779F5E5
:10278000F093AD05E093AC0571C0D80140E050E096
:10279000AE17BF0750F412962D913C911397AD01DF
:1027A0002115310509F1D901F3CF9D01DA013383F8
:1027B000228360817181860F971F8217930769F4C6
:1027C000EC0128813981260F371F2E5F3F4F31835F
:1027D00020838A819B8193838283452B29F4F09304
:1027E000AF05E093AE0542C01396FC93EE931297AB
:1027F000ED01499159919E01240F351FE217F3070E
:1028000071F480819181840F951F029611969C939B
:102810008E938281938113969C938E931297E0E01E
:10282000F0E0D80112968D919C911397009719F0C2
:10283000F8018C01F6CF8D919C9198012E5F3F4F4E
:10284000820F931F2091AC053091AD0528173907F1
:1028500069F4309729F41092AF051092AE0502C0CA
:10286000138212821093AD050093AC05DF91CF91D6
:102870001F910F91089581E090E0F89400C011E05D
:10288000C5E1D1E000E005C0802FFE01BFDE21964A
:10289000011DC631D10780E00807B1F7F894FFCFDA
:1028A00001FF000100000100000100000100000123
:1028B00000000100000100000100FFFF0101000015
:1028C000FF0000640F0000B0058000B56206080636
:1028D000006400010001007A12B562060800000ED3
:1028E00030B56206010300F00500FF19B56206016C
:1028F0000300F00400FE17B56206010300F00300B8
:10290000FD15B56206010300F00200FC13B5620676
:10291000010300F00100FB11B56206010300F000A5
:1029200000FA0FB562060103000102010E4700081C
:10293000090A0B0C0D0E0F01020304050607000027
:10294000000000006400000000006400000064005B
:1029500064000000640064000064640064640000BB
:102960000000646400006400646400640000646447
:102970000064640000000000640000000064640063
:102980000064000000000064000064000064006453
:102990000000006400646400B56200000000D10122
:1029A00032096101170292017001840100000000E8
:0E29B000E803D403F903A803CC03B803A9037A
:00000001FF
